:020000040000FA
:0600000054EF1FF0120096
:020006001200E6
:060008005DEF19F012008B
:02000E001200DE
:0400100000000000EC
:0400140027010000C0
:0600180014EF1AF01200C3
:02001E000400DC
:10002000EB3E00001B0E000002000000E93E000055
:10003000190E00000200000014000000150E000060
:100040000400000010000000110E00000400000079
:100050001BEC07F001010051002BE96EEA6AE9BED2
:10006000EA68AE0EE926010EEA2200EBEFFF022B52
:10007000280E005D01E1006B1E0EE76E021902E71B
:10008000023502D00251E75C04E2FD0502E1ACEC6E
:1000900006F09DEF06F074EC06F081E941E80101FD
:1000A0000151012BE96EEA6AE9BEEA68AE0EE92663
:1000B000010EEA22EF50016E0207280E015D01E1F8
:1000C000016B140EE76E021902E7E73402D0E75025
:1000D000025D04E2FD5102E179EC06F0015042E9D3
:1000E000E7CFD9FF12001BEC07F0280EE66E9EEC5E
:1000F0001EF041E94A0EE66E2F0EE66E000E6FEC22
:1001000006F0005008E189EC06F0450EE66E2F0E71
:10011000E66E000E07D089EC06F0400EE66E2F0E5C
:10012000E66E000E84EC06F0280EE66E2F0EE66EEC
:10013000000E6FEC06F0200EE66E2F0EE66E000E3F
:100140006FEC06F089EC06F0100EE66E2F0EE66EF0
:10015000000E84EC06F09DEF06F022EC07F0DCECDC
:1001600006F0E80EE66E2E0EE66E000E12EC07F0BC
:100170000E0111A311D08BEC13F000014A6F4B6BF1
:10018000800B01E04B69FDEC06F0D80EE66E2E0EFA
:10019000E66E000E84EC06F00E0111A507D0CA0E23
:1001A000E66E2E0EE66E000E6FEC06F0C70EE66EE3
:1001B0002E0EE66E000E6FEC06F00E01010E136FB0
:1001C000120022EC07F0DCEC06F09C0EE66E2E0E20
:1001D000E66E000E12EF07F022EC07F0810EE66EDD
:1001E0002E0EE66E000E6FEF06F022EC07F0610EA9
:1001F000E66E2E0EE66E000E6FEF06F022EC07F0B4
:1002000089EC06F0420EE66E2E0EE66E000E84EFCE
:1002100006F074EC06F087E905EBE6FF02EC07F068
:1002200002EBE6FFCFEC06F026EC1EF043E900EB14
:10023000E6FF01EBE6FF110EE66E2E0EE66E000EF7
:1002400084EC06F09DEF06F074EC06F083E952E8CA
:100250000F6A106A200E116EC10E126E4AE800EB92
:10026000E6FF04EC15F0EECF4AF0EECF4BF0EECF08
:100270004CF0EECF4DF0EECF4EF0EECF4FF0EECF94
:1002800050F0EECF51F0EECF52F0EECF53F0EECF74
:1002900054F04BE900014A51036E4B51046E4C512E
:1002A000056E4D51066E4E51076E4F51086E5051FE
:1002B000096E51510A6E52510B6E53510C6E5451CE
:1002C0000D6E0D5001E179D00350100A08E0380A94
:1002D00021E1E66AE66A800EE66E410E04D0E66A27
:1002E000E66AE66A400EE66E0BEBE6FF0CEBE6FF15
:1002F00072EC08F093EC09F0E552E5CF4DF0E5CF54
:100300004CF0A5EC06F00F6E4B51106E4C51116E77
:100310004D5105D00F6A106A840E116E420E126E96
:10032000C0EC06F093EC08F041E9E750136EE3EC03
:1003300006F013EBE6FF57EC08F069EC0AF0E3EC8B
:1003400006F0C0EC06F069EC0AF025EC07F093EC3F
:1003500008F041E9E750146E01EBE6FF02EC07F00C
:100360000E6AD8900E5002E6080E0E5C14E2EAEC1B
:1003700006F00EEB4CF04D6B4CBF4D69D4EC06F023
:10038000E66EE66A0C0EE66E2E0EE66E000E84EC4D
:1003900006F00E2AE6D71450E66EE66A13EB4AF032
:1003A00000014B6B4ABF4B69FDEC06F0F00EE66EA8
:1003B0002D0EE66E000E12EC07F053E9E7CFD9FFE1
:1003C00012001BEC07F017EC07F0D20EE66E2D0EB4
:1003D000E66E000E6FEC06F00E011251E66EE66A54
:1003E000B60EE66E2D0EE66E000E84EC06F09DEF66
:1003F00006F01BEC07F049E8F1EC06F069EC12F0AE
:10040000F350046EF450056E6EEC12F0066E640E3E
:10041000E66EE66AF9C1E6FFFAC1E6FF1BEC09F0F9
:10042000E552A5EC06F0076E640E0702F3CF4CF020
:100430004D6B4CBF4D694C510101F95D00014A6F94
:100440004D510101FA5900014B6F4A51096E640E7A
:10045000E66EE66A69EC12F0F3CFE6FFF4CFE6FF52
:100460001BEC09F0E552A5EC06F0086E640E0802DC
:10047000F3CF4CF04D6B4CBF4D694CC0E6FF4DC007
:10048000E6FF69EC12F0E552E7CF4DF0E552E7CF19
:100490004CF000014C51F35C4A6F4D51F4584B6FD6
:1004A0004A510A6E17EC07F0960EE66E2D0EE66EB8
:1004B000000E6FEC06F00950E66EE66A07EB4AF0B4
:1004C00000014B6B4ABF4B6995EC06F017EC07F047
:1004D000570EE66E2D0EE66E000E6FEC06F0010173
:1004E000FB51E66EE66A3B0EE66E2D0EE66E000EE2
:1004F00084EC06F017EC07F0170EE66E2D0EE66E94
:10050000000E6FEC06F00A50E66EE66A08EB4AF061
:1005100000014B6B4ABF4B6995EC06F04AE9E7CF07
:10052000D9FF1200E1DB83E942E8010E036E046AA1
:100530000050070A53E0010A4DE0030A44E0010AB3
:100540002AE0060A15E0030A4DE1015009E1010124
:10055000E851036EE951046E0350E85F0450E95B13
:10056000CFEC06F0130EE66E2D0EE66E000E25D0D3
:10057000015009E10101EA51036EEB51046E035091
:10058000EA5F0450EB5BCFEC06F00D0EE66E2D0E2D
:10059000E66E000E12D0015009E10101EC51036E2C
:1005A000ED51046E0350EC5F0450ED5BCFEC06F0B0
:1005B000080EE66E2D0EE66E000EE66E01EBE6FF0F
:1005C00028DE46E90FD0EEC1E6FF01EBE6FF3CDE98
:1005D00042E908D001EBE6FFF4DE03D001EBE6FFD1
:1005E00008DF41E943E9E7CFD9FF12000101036BBE
:1005F000046B12000101E76BFC6BF6EF02F074DB99
:1006000081E941E80E011191016AD890015002E69A
:10061000100E015C2DE201EBE6FFF3EC1DF041E969
:10062000E66E01EBE9FFEA6AE9BEEA68E1DBE55262
:10063000E750EF6E01EBE9FFEA6AE9BEEA68D8DB52
:10064000EF5003E10E01118113D001500FE1FF0EB5
:100650000101D65D0BE1000EE66E2D0EE66E000E7A
:10066000E66E57DB51EC1DF045E902D0012ACDD7EB
:1006700042E9E7CFD9FF120002EC15F0000904E1CE
:100680000E011183E8EC14F0BADF0101E86BE96BAD
:10069000EA6BEB6BEC6BED6BADDF0101006B016B9B
:1006A000026B0E01136B010179EF06F0C4DB0A0E39
:1006B000005C20E00101035100014A6F4B6BAA0E60
:1006C000D8904BBF03D04A5D000E4B5908E3FC0E97
:1006D000E66E2C0EE66E000E02DB8CDF15D00101FB
:1006E0000351032BEA6A040FE96E010EEA2200EBC4
:1006F000EFFF0AD001010351EA6A040FE96E010E0F
:10070000EA22EF6A010EE76F18D3EEDA81E945E8D5
:100710000101E7513DE0010A07E0E7C14AF00001AD
:100720004B6B4AAFEFD0EDD0F8D8056E0550070AF5
:1007300020E0010A18E0030A14E0010A10E0070AA9
:100740000CE0010A08E0030A04E0010A1DE105DDEE
:100750001BD04BDD19D052DD17D0010E05D0020E93
:1007600003D0040E01D0060EE66EE66ADBDE42E937
:100770000BD0016A0A0E015C07E2060EE66EE66A1D
:10078000D1DE42E9012AF6D70101E76B2FDFC1D0A4
:100790000151005D04E07FDCE66E88DF41E90E0177
:1007A000145117E014A107D0010EE66EE66EBADE12
:1007B00042E90E01147114A304D0020EAFDA0E0147
:1007C000147314A504D0040EA9DA0E011475070ED3
:1007D00014170E0115512C08010E165508E2010ED2
:1007E0000E01111504E0B9DC0E01156B166B0E013C
:1007F00015513C08000E165508E2010E0E011115A8
:1008000004E1DFDC0E01156B166B0E0117513C087D
:100810000BE2020E0E01111507E0010E111504E0A6
:100820000E01176BE8EC14F00E0118513C080BE2B6
:10083000040E0E01111507E0010E111504E00E0162
:10084000186BF6EC11F0020E0E0111153AE0010ED4
:10085000111537E0135135E0016A8BEC13F0015CA0
:1008600030E284DAEECF4AF0EFCF4BF0C6DA01EB9C
:10087000E6FF3BEC15F041E9E552E7CF4BF0E552DE
:10088000E7CF4AF0F3CF4CF0F4CF4DF00001F35036
:100890004A1902E14D514B1912E001EBE6FF3BEC26
:1008A00015F041E9F3CF4AF0F4CF4BF05FDAF3CF24
:1008B000EEFF4BC0EDFF01EBEEF1050E2FDA012A42
:1008C000CCD7040E0E01111524E0010E111521E004
:1008D00013511FE086DA6EEC12F0046E0101025033
:1008E000F91906E10350FA1903E10450FB5D11E028
:1008F00002EBF9F103EBFAF104EBFBF1070E0EDA70
:1009000008D04B697ADAC20EE66E2C0EE66E000E47
:10091000FBD946E9E7CFD9FF1200E6D981E94AE8D9
:100920000101FC51040A01E157D10D0A01E10BD18B
:10093000010A01E1ECD00F0A01E1C5D0040A01E18E
:10094000B0D0060A01E18FD0030A01E180D0040A89
:1009500030E0030A0FE0010A01E07ED1BBD9B90EF5
:10096000E66E2C0EE66E000EAFD901E075D10101E6
:10097000010EA1D0AFD9B00EE66E2C0EE66E000EC1
:10098000A3D914E0160E5ADA990EE66E2C0EE66E16
:10099000000EFFD901E060D11A0EE66E010EE66E80
:1009A000B8D93AEC1AF044E900094FE10101020E0E
:1009B00082D090D98D0EE66E2C0EE66E000E84D994
:1009C00004E10101FC6B010E48D184D97D0EE66E75
:1009D0002C0EE66E000E78D903E10101040E6BD0F7
:1009E00079D96E0EE66E2C0EE66E000E6DD903E11F
:1009F0000101030E60D06ED9600EE66E2C0EE66E1D
:100A0000000E62D903E10101050E55D063D9510EE4
:100A1000E66E2C0EE66E000E57D903E10101060EBC
:100A20004AD058D9430EE66E2C0EE66E000E4CD915
:100A300003E10101080E3FD04DD9410EE66E2C0EA8
:100A4000E66E000E41D901E107D10101C3D0E2D920
:100A500004E10101FC6B020E00D17B0E0101045D7B
:100A600001E1FAD0B7D0D6D916E10101FC6B0A0E2C
:100A7000E66EE66A15CEE6FF16CEE6FF63EC09F0F9
:100A8000E552E5CF4BF0E7CF4AF04AC0E6FF9EECD7
:100A90001EF041E9DFD07B0E0101045D01E1DCD0F5
:100AA00099D018D9210EE66E2C0EE66E000E0CD9E8
:100AB00004E10101070EFC6FCFD07B0E0101045D44
:100AC00001E1CAD087D006D9160EE66E2C0EE66E6E
:100AD000000EFAD804E10101FC6B030EBED0FAD877
:100AE000090EE66E2C0EE66E000EEED804E1010152
:100AF000FC6B040EB2D0EED8FD0EE66E2B0EE66E49
:100B0000000EE2D80CE10101FC6B050EA6D0E2D884
:100B1000EF0EE66E2B0EE66E000ED6D802E1010156
:100B200059D0D8D8E40EE66E2B0EE66E000ECCD867
:100B300004E10101FC6B070E90D07B0E0101045D06
:100B400001E18AD047D0C6D8D60EE66E2B0EE66EEF
:100B5000000EBAD801E180D0080E70D9CD0EE66E35
:100B60002B0EE66E000E15D934E10C0EE66E010E6A
:100B7000E66ED950030FE66EDACFE6FF70EC1AF09E
:100B800044E9D950030FE66EDACFE6FF91EC1AF094
:100B900042E9F350026E0E01126B016A02340250F8
:100BA000011802E60250015C10E20A0E1203F3CFB4
:100BB00012FE10D901EB4CF04D6B4CBF4D69F4D8CF
:100BC000D00F0E011227012AE9D70101FC6B060E96
:100BD00044D00101FC6B40D0080E30D9C40EE66E43
:100BE0002B0EE66E000ED5D837E10101FD0501E1BF
:100BF000B3D8ECEC00F00C0EE66E010EE66E89D870
:100C000070EC1AF044E985D891EC1AF042E9F350FF
:100C1000026E016A02340250011802E60250015CC1
:100C20000FE201EBE9FFEA6AE9BEEA68E1D8EFCF3B
:100C3000E6FF01EBE6FF02EC1EF042E9012AEAD7EB
:100C4000E66A01EBE6FF02EC1EF042E9D8DC0101A6
:100C5000FC6B4FD8000E01D0FF0E4BE9E7CFD9FF58
:100C60001200E9D80050040A1CE0050A0EE0030A4D
:100C700024E10101FF0EEA5DFF0EEB5903E2EA2BCE
:100C8000000EEB230E0114831ED00101FF0EE85D60
:100C9000FF0EE95903E2E82B000EE9230E0114814F
:100CA00012D00101FF0EEC5DFF0EED5903E2EC2BBB
:100CB000000EED230E01148506D0AE0EE66E2B0E4F
:100CC000E66E000E0CD839D0E66E5AEC1AF045E903
:100CD00000091200040EE66E010EE66E1200E66ECA
:100CE00026EC1EF043E91200D9CFE6FFE1CFD9FF91
:100CF0001200010EFD6FFE0EE66EE668110EE66E46
:100D0000C0EC1DF043E91200E66E26EC1EF045E94A
:100D10001200D60EE66E010EE66E1200E66E010EB1
:100D2000E66E92EC02F042E9120067D87B0EE66EA6
:100D30002D0EE66E000E12EF07F041E9E7CFD9FF66
:100D4000120073EC00F041E91200E5CF4BF0E7CF61
:100D50004AF000014A511200FD6BFE0EE66EE66895
:100D6000130EE66EC0EC1DF043E91200EA6A01348E
:100D7000FE0BE96EEA36EF0EE926010EEA221200BA
:100D80000FEBE6FF10EBE6FF11EBE6FF12EBE6FFE1
:100D90001200E66E9FEC1AF047E90009120003EB1F
:100DA000E6FF04EBE6FF12004A514C25E96E4B5179
:100DB0004D21EA6EEF501200060EE66EE66A040E52
:100DC000E66EE66A1200E66AE66AC80EE66E420E53
:100DD000E66E12000001D950030F4A6FDACF4BF0D4
:100DE000120064EC12F0F350026EF450036E120025
:100DF000D60EE926010EEA2212004AC0E6FF4BC0D9
:100E0000E6FF12009EDF2B0EE66E2E0EE66E000E43
:100E10006FEF06F05FDF310EE66E2C0EE66E000E11
:100E200064EF06F0E66E26EC1EF047E9120000EBD8
:100E3000E6FFA1EF06F058DF82E91200E66EE66AEF
:0A0E40006AEF06F0E66AA1EF06F083
:060E4A00D88801D0D89801
:100E50004AE8D9CFE6FFDACFE6FFE1CFD9FFE2CF0C
:100E6000DAFF94E9D8B8037E086A27EC08F03FEC73
:100E700008F008B60BEF08F008A20AD008AA03D0C1
:100E800008BE0BEF08F008A417EF08F014EF08F005
:100E900008AA05D008AC17EF08F014EF08F008A076
:100EA0000AD008A808D008BE04D008A402D020EFB9
:100EB00008F024EF08F0096A0E6A0350075C106E10
:100EC00010E384EB0AF085EB0BF086EB0CF087EB7C
:100ED0000FF080EB04F081EB05F082EB06F0083AAE
:100EE00009D080EB0AF081EB0BF082EB0CF083EB86
:100EF0000FF0106C089E08BC088E8FEB0DF008B048
:100F0000F6EF07F01A0E1060F6EF07F00D6A076AA9
:100F100008A408D0046C051E061E071EE86A0522F8
:100F20000622072208AC08D00A6C0B1E0C1E0D1EF0
:100F3000E86A0B220C220D22116A105207E00734D6
:100F40000632053204321132102EF9D704500A2627
:100F500005500B2206500C2207500D2291EB09F090
:100F6000089E0DAE0BD0096C0A1E0B1E0C1E0D1E2A
:100F7000E86A0A220B220C220D22088E0DA006D050
:100F8000D8800C320B320A3209320F2A8FEB0DF067
:100F9000CAEF07F00C500B100A10091055E00EBEF6
:100FA0004DD00CBE0CD00D500E1048E0D890093634
:100FB0000A360B360C360D06D8A00E06F2D70E50A8
:100FC00031E10D282FE009AE11D07F0E091402E1A6
:100FD0000AA00CD00A2AE86A0B220C2207E3D88068
:100FE0000C320B320A320D2A0D281CE00D5026E07F
:100FF0008AEB00F08BEB01F00C34026E0D30036EC7
:101000000232039E08BE038EE552E5CFDAFFE7CF3A
:10101000D9FF4EE912007F0E036EFF0E026E016EC5
:10102000006EF2D77F0E08BEFF0E036E02D07F0E59
:10103000036E800E026E016A006AE6D708AE04D025
:10104000800E036E026AF7D7036A026AF4D7063687
:10105000073602E30884087E06E10880076A066A0C
:10106000056A046A1200072803E0D88006321200DD
:10107000D890063202E10882120008861200023679
:10108000033602E3088C087E06E10888036A026AD8
:10109000016A006A1200032803E0D88002321200BD
:1010A000D8900232EAE1088A1200D89801D0D88894
:1010B00051E8D9CFE6FFDACFE6FFE1CFD9FFE2CFA3
:1010C000DAFF94E9089E04E700AE02D0006C088EB7
:1010D00080EB0CF00B6A0A6A096A860E0D6E0E6AC6
:1010E000CAEF07F0D89801D0D88850E8D9CFE6FFEA
:1010F000DACFE6FFE1CFD9FFE2CFDAFF94E9089E2D
:1011000007E701AE05D0006C011EE86A0122088ED7
:1011100081EB0CF080EB0BF00A6A096A8E0E0D6E03
:101120000E6ACAEF07F045E8D9CFE6FFDACFE6FF4F
:10113000E1CFD9FFE2CFDAFF8BE9086A3FEC08F094
:1011400008B6A7EF08F008AA0AD008BC03D07F0EA3
:10115000006E1BD0800E006E18D0006A16D008B842
:10116000FCD7870E0360F1D77E0E0364F6D7860E98
:10117000035C04E0D8900232032AF9D708AC03D00C
:10118000026C02AEEAD782EB00F0E552E5CFDAFF5F
:10119000E7CFD9FF48E9120045E8D9CFE6FFDACF1B
:1011A000E6FFE1CFD9FFE2CFDAFF8BE9086A3FEC37
:1011B00008F008B6E0EF08F008AA0ED008BC05D089
:1011C0007F0E016EFF0E006E23D0800E016E006A4E
:1011D0001FD0016A006A1CD008B8FBD78F0E0360CD
:1011E000EDD77E0E0364F5D78E0E035C05E0D89034
:1011F00002320132032AF8D708AC06D0016C021E75
:10120000E86A022202AEE5D781EB00F082EB01F042
:10121000E552E5CFDAFFE7CFD9FF47E9120043E80F
:10122000D9CFE6FFDACFE6FFE1CFD9FFE2CFDAFF91
:1012300089E9066A1200F3DF068001D0F0DF01AE13
:1012400028EF09F0006C011EE86A012206B0067E54
:1012500003AE30EF09F0026C031EE86A0322067E3B
:1012600068EC09F003BE52EF09F006AE08D0026C3C
:10127000031EE86A0322046C051EE86A052206B014
:1012800006D084EB00F085EB01F006A004D082EBE1
:1012900000F083EB01F0E552E5CFDAFFE7CFD9FFAD
:1012A00045E9000C06BE37EF09F0E9DFFF0C43E823
:1012B000D9CFE6FFDACFE6FFE1CFD9FFE2CFDAFF01
:1012C00089E9066A1200F3DF068003D0F0DF01D05F
:1012D0000682056A046A100EE76ED890023603365D
:1012E000043605360050045C0150055805E30050F3
:1012F000045E0150055A022AE72EF0D706B212000A
:1013000006B006D084EB00F085EB01F006A004D017
:1013100082EB00F083EB01F0E552E5CFDAFFE7CF97
:10132000D9FF45E912004AE8D9CFE6FFDACFE6FF58
:10133000E1CFD9FFE2CFDAFF94E9086A27EC08F0A1
:101340003FEC08F008B60BEF08F008A205D008BA89
:101350000BEF08F012EF08F008BA1EEF08F008A033
:1013600005D008B80BEF08F01EEF08F008B812EF30
:1013700008F00E6A7F0E07240D6EE86A0E220350F5
:101380000D5EE86A0E5A1A0E0F6E076A096A0A6A3B
:101390000B6A0C6A0050045E0150055A0250065A4E
:1013A000000E075A09E7005004260150052202509A
:1013B0000622000E072201D0098AD890043605368D
:1013C00006360736D89009360A360B360C360F2EFD
:1013D000E1D7065005100410D8A4098ACAEF07F017
:1013E000F9EC09F0E8B6000CE8B0000CE8B4000C29
:1013F000010C47E8D9CFE6FFDACFE6FFE1CFD9FF0E
:10140000E2CFDAFF91E9086A27EC08F03FEC08F038
:1014100008B64ED008AE08D008A004D008A802D064
:10142000088046D0089044D00350075C0BE102507E
:10143000065C08E10150055C05E10050045C02E136
:10144000088036D0D8A002D0088E10D007500318DC
:10145000071A031A06500218061A021A0550011834
:10146000051A011A04500018041A001A0350075CE8
:1014700010E0FF0F09E0089008B403D008AE08841C
:1014800017D008AE089414D0032AD8900232013243
:1014900000320050045E0150055A0250065A06BE42
:1014A000EAD7D890043605360636072EF8D7C8D7BF
:1014B0000850E552E5CFDAFFE7CFD9FF4FE9120038
:1014C000F9EC09F0E8B6000CE8B0000CE8A4000C58
:1014D000010C4AE8D9CFE6FFDACFE6FFE1CFD9FF2A
:1014E000E2CFDAFF94E9086A27EC08F03FEC08F055
:1014F00008B60BEF08F008A205D008B80BEF08F00B
:1015000012EF08F008AA05D008B00BEF08F012EFB0
:1015100008F008B002D008A802D01EEF08F00E6A4A
:10152000035007240D6EE86A0E227E0E0D5EE86AF7
:101530000E5A096A0A6A0B6A0C6A02500602F450D3
:101540000C6EF3500B6E01500602F3500A26F45055
:101550000B22000E0C2202500502F3500A26F45012
:101560000B22000E0C2200500602F3500926F45004
:101570000A22000E0B220C2201500502F35009260C
:10158000F4500A22000E0B220C2202500402F350E7
:101590000926F4500A22000E0B220C2200500502EC
:1015A000F4500926000E0A220B220C2201500402DC
:1015B000F4500926000E0A220B220C22CAEF07F073
:1015C00045E8D9CFE6FFDACFE6FFE1CFD9FFE2CF9A
:1015D000DAFF8FE90C6A1200F3DF0C8003D0F0DF32
:1015E00001D00C820B6A0A6A096A086A200EE76E4B
:1015F000D8900436053606360736083609360A36D8
:101600000B360050085C0150095802500A5803502C
:101610000B5809E30050085E0150095A02500A5A5B
:1016200003500B5A042AE72EE4D70CB212000CB078
:101630000AD088EB00F089EB01F08AEB02F08BEB2B
:1016400003F00CA008D084EB00F085EB01F086EBF2
:1016500002F087EB03F0E552E5CFDAFFE7CFD9FFE1
:1016600049E9120044E8D9CFE6FFDACFE6FFE1CF3F
:10167000D9FFE2CFDAFF8EE980EB08F081EB09F0C9
:1016800082EB0AF083EB0BF004500802F350006E7B
:10169000F450016E04500902F3500126000EF420AC
:1016A000026E04500A02F3500226000EF420036E6C
:1016B00004500B02F350032605500802F350012694
:1016C000F4500222000E032205500902F3500226B4
:1016D000F450032205500A02F35003260650080274
:1016E000F3500226F450032206500902F350032659
:1016F00007500802F3500326E552E5CFDAFFE7CFA3
:06170000D9FF48E9000CCE
:0A17060090DB86E90150010600099E
:101710000CE002EBE6FF03EBE6FF00EBE6FF69DB24
:10172000F4E14B1DF2E1010E01D0000E41E9E5CFDD
:10173000DAFFE7CFD9FF120077DB89E97BE80A6A95
:101740000B6A02EBF6FF03EBF7FF04EBF8FF080070
:10175000F550096E095001E12DD3250E095C01E019
:101760001BD30C6A0D6A0E6A0F6A106A2DDB2D0EF0
:10177000095C0CE02B0E095C09E0200E095C06E018
:10178000230E095C03E0300E095C15E10950300AB4
:1017900010E0130A0CE0030A08E00B0A04E0060A52
:1017A000E5E10C80E3D70C82E1D70C84DFD70C860F
:1017B000DDD70C88DBD72A0E095C13E1A5DB0DE32E
:1017C0000C801CEB4AF01DEB4BF000014A6D4B1FE7
:1017D000000E4B234A510D6E02D09CEB0DF0F4DA53
:1017E00007D0126A3FDB02E06BDBFCD792EB0DF017
:1017F0000CB00C982E0E095C15E1E6DA2A0E095C95
:1018000008E182DB04E29CEB0EF0010E0F6EDCDAE5
:1018100009D0126A27DB02E053DBFCD792EB0EF013
:10182000010E0F6E680E095C07E1CEDA680E095CE6
:101830001DE1030E106E19D0740E095C16E07A0ECD
:10184000095C13E0480E095C06E0540E095C03E0F5
:101850005A0E095C02E1020E07D06C0E095C03E02F
:101860006A0E095C03E1010E106EAEDA09506E0AD1
:1018700001E16ED21E0A01E128D1200A01E125D141
:101880003F0A01E1FDD01A0A01E1FAD00D0A01E197
:10189000F7D0200A01E1F4D03A0A01E1F1D0200AA0
:1018A00001E1EED0260A01E1EAD00D0A01E1E7D01C
:1018B0001A0A01E19ED0200A3BE0300A1AE0460AEB
:1018C0000EE0250A01E072D2D950020FE96E000E37
:1018D000DA20EA6E010EEE5E000EEE5AEE5A0FDBD3
:1018E000250EE66E86DA03E14B1D01E159D20A2A84
:1018F0005BD2116A0D50010803E20D04116EF5DA96
:10190000115007E0010E0C1404E16DDA01E048D239
:10191000116AD3DAEF50096ECBDA03E14B1D01E116
:101920003FD20A2A000E0B225EDA01E13FD238D202
:10193000020E105C08E1030E4EDAEE50176EEE5008
:10194000186EEF5007D0E7DA4C6B4A51176E4B51C7
:10195000186E4C51196E17EBE6FF18EBE6FF19EB0A
:10196000E6FFC0EC1AF043E909CE4AF00ACE4BF08C
:101970000BCE4CF000014A511C6E4B511D6E0F50A6
:1019800006E01C500E5C03E20E501C6E1D6A1C50DB
:101990000D5C02E29CEB0DF050DA05E00D500E5CA0
:1019A00002E28EEB0DF00CB004D01DDA01E0F8D1AC
:1019B000116A126A17EBF6FF18EBF7FF19EBF8FF45
:1019C0000800F550096E095010E00D50125C0DE250
:1019D0006FDA03E14B1D01E1E3D10A2A000E0B226D
:1019E000122AD950170F55DAEBD7FDD901E1DED114
:1019F000D7D163DAEE501A6EED501B6E1AEBE6FF8C
:101A00001BEBE6FF91EC1AF042E9F3501C6EF45028
:101A10001D6E0F5006E01C500E5C03E20E501C6E53
:101A20001D6A1C500D5C02E29CEB0DF006DA05E02D
:101A30000D500E5C02E28EEB0DF00CB004D0D3D949
:101A400001E0AED1116A126A1AEBE9FF1BEBEAFF63
:101A5000EF50096E09500FE00D50125C0CE228DACD
:101A600003E14B1D01E19CD10A2A000E0B22122A30
:101A70001A2A1B22E9D7B7D901E198D191D10C8E4E
:101A800010040AE1040EA7D9EE50136EEE50146E46
:101A9000EE50156EEF5032D0030E105C16E10CAE16
:101AA0000CD00BDAEFCF4AF000014B6B4C6B4D6B57
:101AB0004AAF23D04B694C691FD0FFD9EFCF4AF012
:101AC00000014A51136E146A20D0020E105C0CE122
:101AD0000CAE06D0030E7FD9B6D94CAF0ED00CD0C9
:101AE000030E79D9B0D909D00CAE0AD014DA4C6BF8
:101AF0004D6B4BAF02D04C694D69BCD9166E07D007
:101B00000ADA4A51136E4B51146E156A166A0F5059
:101B100002E1010E0E6E1E6A1F6AD950400FE66E7A
:101B2000000EDA20E66EE552E550436EE750426E55
:101B3000416A116A0A0E106E0950780A12E0200AF2
:101B400010E0280A0CE0200A0AE03F0A06E00D0A2D
:101B500002E0200A08E1020E05D0080E03D0080EAC
:101B60000926100E106E0CBE02D00C920C94800E42
:101B70000C1417E0163415E3E668E668E668E668D4
:101B800042D932EC0BF0E552E5CF4DF0E5CF4CF009
:101B9000E5CF4BF0E7CF4AF000016CD9166E2D0E61
:101BA00007D00CA202D02B0E03D00CA404D0200E20
:101BB000206E1E2A01D0206A0E5005E11350141029
:101BC0001510161061E00001D80E4A6F3E0E4B6FE3
:101BD000000E4C6F83D9EFEC0AF0E552E5CF50F0E0
:101BE000E5CF4FF0E5CF4EF0E7CF4DF000014A5181
:101BF0004D25F36E4B514E21F46E4C514F21F86E32
:101C0000F4CFF7FFF3CFF6FF0800F550126E580E31
:101C1000095C05E1610E125C02E3200E125E5ED9E2
:101C2000ECEC0AF0E552E550166EE550156EE55005
:101C3000146EE750136E42EBE9FF43EBEAFF4206F6
:101C4000000E435A12EBEFFF1E2A1350141015100A
:101C50001610B9E10CA619D06F0E095C06E10E5002
:101C60001E5C13E31E280E6E10D0780E095C09E08E
:101C7000580E095C06E0620E095C03E0420E095C46
:101C800004E1020E1F6E01D01E6A100E0C1407E054
:101C90000D500E5C04E20F5002E18DEB0EF00E5081
:101CA0001E5C03E21E500E5E01D00E6A0E501E2412
:101CB0001F24D8800D5407E20E500D5CD8801E54AE
:101CC000D8801F54116E010E0C1406E1115004E06F
:101CD0008AD866E10AD9116A205007E010D920EBB2
:101CE000E6FF87D802E14B1D5BE01F500BE007D9F0
:101CF000300EE66E7ED802E14B1D52E0D9D802E1EB
:101D00004B1D4EE00E501F5C02E21F500E5E300E67
:101D1000E66E0EEBE6FFDCD843E1422A000E4322DA
:101D200042EBE9FF43EBEAFFEF50126E125008E07E
:101D3000E6D812EBE6FF5DD8F0E14B1DEEE130D0C6
:101D400052D82EE10E501E2411241F240A262CD016
:101D50001050030A1CE0010A14E0030A07E0ADD8A2
:101D6000C9D80AEBEEFF0BEBEDFF20D08BD84D6B03
:101D70004BAF02D04C694D69A0D84ED84DC0EEFF94
:101D800015D080D84BBF4C6998D846D80FD095D87D
:101D9000B1D80AEBEFFF0AD08BD805E14B1D03E168
:101DA000F368F4680BD00A2A000E0B22D950020FF8
:101DB00070D8CDD40AEBF3FF0BEBF4FF7CE9E5CF51
:101DC000DAFFE7CFD9FF1200D950020F62D808001E
:101DD000F550096E1200005E000E015A00EBE9FF9B
:101DE00001EBEAFF1200200EE66E11EBE6FF68EF52
:101DF0000FF0C0EC1DF043E9F3CF4AF0F4CF4BF005
:101E00000001F31C120013EBE6FF14EBE6FF15EBE9
:101E1000E6FF16EBE6FF12006DD84AC0EEFF4BC09E
:101E2000EEFF4CC0EEFF1200D9CFE6FFDACFE6FF9F
:101E3000E1CFD9FFE2CFDAFF12001C500D5C116E2A
:101E400054D80F501200EECF4AF0EECF4BF0EFCF48
:101E50004CF000014D6B1200EECF4AF0EFCF4BF08B
:101E6000000112000950E66EE66A04EC1FF042E938
:101E7000F35012004A51136E4B51146E4C51156EB3
:101E80004D5112000AEB4AF00BEB4BF000014C6B8A
:101E90001200E96E000EDA20EA6EEF2AEECFF6FFAE
:101EA000000EEF22EECFF7FFEF22EECFF8FF120089
:101EB00026D809EBE6FFF9EF0EF0020EEBEF0EF07D
:101EC0000A0E1202F3500924D00F126EE4EF0EF046
:101ED00016D883EC0BF044E90009120010EBE6FF82
:101EE000E66AE66AE66A03EF0FF011500A26000E72
:101EF0000B221200EE50EFCFEAFFE96E120005EB65
:101F0000E6FF06EBE6FF1200D8DFEE501C6EED5048
:0C1F10001D6E1D341200D1DF2CEF0FF00D
:041F1C009294928683
:101F200080868096F6EF11F0D9CFE6FFE1CFD9FF9A
:101F300082E942E8036A800E026E025011E002500C
:101F4000001403E09286808602D092968096808468
:101F50000000000000000000809402900242EDD7D3
:101F6000928680868084000000000000000080507F
:101F7000080B01E0010E036E8094035000D043E98A
:101F8000E7CFD9FF1200D9CFE6FFE1CFD9FF82E931
:101F900042E8036A92868086800E026E02500CE050
:101FA000808480A603D003500210036E809400004A
:101FB000000002900242F2D7005003E09296809611
:101FC00002D092868086808400000000000000001D
:101FD000809492868086035000D043E9E7CFD9FFF2
:101FE00012009286808680940000000000000000AD
:101FF000808400000000000000009296809600009F
:1020000000000000000080940000000000000000BC
:10201000808400000000000000009286808600009E
:1020200000000000000080941200D9CFE6FFE1CF4D
:10203000D9FF81E941E89286808600000000000017
:10204000000080940000000000000000016A090EFA
:10205000015C0CE28084000000000000000080941D
:102060000000000000000000012AF1D7BADF42E9B9
:10207000E7CFD9FF12005CDA81E941E8016AD5DFD8
:102080001E0E94DA01260150B8D252DA81E941E8F5
:10209000016AA7DF070E8ADA016E83DA0E01056F87
:1020A00099DA0150AAD244DA82E941E8026A99DF5A
:1020B000060E7CDA022600EBE6FF36DF41E9022657
:1020C00002509BD235DA82E945E8026A8ADF005085
:1020D000010A04E0010A05E1030E01D0050E66DAEB
:1020E0000226036A046A03EB4AF004EB4BF000019A
:1020F0004C6BD8904C51000A06E6400E4A5D9C0E8F
:102100004B59000E4C590BE280A60BD0040EE66E24
:1021100026EC1FF041E9032A000E0422E4D780B622
:10212000022A3FDA066E3DDA056E065000014A6F5C
:102130004B6B4B6F4A6B05504A250E01076F000E23
:1021400000014B210E01086F45DA025046E9E7CF46
:10215000D9FF1200EDD985E970E8056A066A800E9C
:10216000076EC00E086E540E096EE30E0A6E250E41
:102170000B6E3D0E0C6EA20E0D6EE70E0E6E3B0E3C
:102180000F6EB60E106E0A0E116ED70E126E230E63
:10219000136E3C0E146EAC0E156EC50E166EA70EA9
:1021A000176E380E186ED70E196EA30E1A6E1E0E0D
:1021B0001B6EC20E1C6E0A0E1D6ED70E1E6E230EF7
:1021C0001F6E3C0E206E02EBE9FF03EBEAFFEE50C0
:1021D000216EEE50226EEE50236EEF50246E00EB17
:1021E000E9FF01EBEAFFEE50256EEE50266EEE5051
:1021F000276EEF50286E1DEBE6FF1EEBE6FF1FEB90
:10220000E6FF20EBE6FF25EBE6FF26EBE6FF27EBFC
:10221000E6FF28EBE6FF69EC0AF019EBE6FF1AEBA4
:10222000E6FF1BEBE6FF1CEBE6FFEBD9316E4B51F3
:10223000326E4C51336E4D51346ED2D908EBE6FFFD
:1022400065D95BD969EC0AF061D960D968D969ECC4
:102250000AF069EC0AF027EC07F0D3D9296E4B514C
:102260002A6E4C512B6E4D512C6E29EBE6FF2AEB5A
:10227000E6FF2BEBE6FF2CEBE6FF48D915EBE6FF7C
:1022800016EBE6FF17EBE6FF18EBE6FF69EC0AF04A
:1022900064D927EC07F0E66AE66AC80EE66E410EDE
:1022A000E66E31EBE6FF32EBE6FF33EBE6FF34EBB5
:1022B000E6FF25EC07F069EC0AF0A3D92D6E4B512F
:1022C0002E6E4C512F6E4D51306E37D93DD9F0ECFA
:1022D00009F0000906E02D6A2E6AC80E2F6E420E24
:1022E000306ECD0EE66ECC0EE66EE66E3D0EE66E00
:1022F0002BD960EC0AF0000907E0CD0E2D6ECC0E54
:102300002E6E2F6E3D0E306E00EBE9FF01EBEAFF03
:1023100031EBEEFF32EBEEFF33EBEEFF34EBEFFF92
:1023200002EBE9FF03EBEAFF2DEBEEFF2EEBEEFFF6
:102330002FEBEEFF30EBEFFF71E9E7CFD9FF120093
:10234000F7D889E948E8E66AE66AE66A400EE66E8A
:1023500004EBE6FF45D90CEC1DF044E909CE4EF044
:102360000ACE4FF00BCE50F00CCE51F009CEE6FF66
:102370000ACEE6FF0BCEE6FF0CCEE6FF25EC07F01B
:10238000F5D8FDD827EC07F0F1D8E66AE66AF00E3A
:10239000E66E400EE66E69EC0AF093EC09F0F8D8B0
:1023A00027EC07F02ED906D9A8D8840EE66E920E37
:1023B000E66E020EE66E410EE66E25EC07F0DFD803
:1023C000E7D89BD825EC07F069EC0AF093EC09F00C
:1023D00088D8F8D80DEB09FE0EEB0AFE0FEB0BFECA
:1023E00010EB0CFE49E9E7CFD9FF1200A1D881E933
:1023F00054E81BDE056A010EE66EF9D8016E08513D
:10240000026EE66AF4D8036E0851046E055002E0CD
:102410000CDE55D001EBE6FF02EBE6FF72EC08F0B4
:1024200060D8C8D803EBE6FF04EBE6FF72EC08F0D7
:1024300058D8C8D8D9500D0FE66EDACFE6FFD9507C
:10244000090FE66EDACFE6FF85DE44E968D855D895
:1024500077DF48E909CE4AF00ACE4BF00BCE4CF0BC
:102460000CCE4DF000014A51116E4B51126E4C5181
:10247000136E4D51146EE66AE66AE66A3F0EE66E2A
:102480003CD827EC07F093EC08F041E9E7500E0147
:10249000006F53D844D869EC0AF0CCEC08F0E55250
:1024A000E5CF02FEE7CF01FE48D857D869EC0AF025
:1024B000CCEC08F0E552E5CF04FEE7CF03FE055073
:1024C00055E9E7CFD9FF120001CEF3FF02CEF4FFAA
:1024D000120003CEF3FF04CEF4FF12000E010051F0
:1024E0001200E552E5CF4DF0E5CF4CF0E5CF4BF0D3
:1024F000E7CF4AF000014A51120009EBE6FF0AEB70
:10250000E6FF0BEBE6FF0CEBE6FF120021EBE6FF2C
:1025100022EBE6FF23EBE6FF24EBE6FF12000DEBD8
:10252000E6FF0EEBE6FF0FEBE6FF10EBE6FF120017
:10253000D9CFE6FFE1CFD9FF1200E66AE66AC80EFE
:10254000E66E420EE66E12002DEBE6FF2EEBE6FF86
:102550002FEBE6FF30EBE6FF120011EBE6FF12EB8C
:10256000E6FF13EBE6FF14EBE6FF120000EBE6FFDD
:1025700001EBE6FF02EBE6FF03EBE6FF1200CD0EF8
:10258000E66E4C0EE66E6D0EE66E430EE66E1200C3
:10259000390EE66E280EE66E290EE66E3F0EE66EEA
:1025A0001200010EE66EEFDC41E91200E66EBCDCC3
:1025B00041E91200096E4B510A6E4C510B6E4D51A0
:1025C0000C6E12000D6E4B510E6E4C510F6E4D5134
:1025D000106E1200E66AD7DC41E90E01066F1200A8
:1025E00005EBE6FF06EBE6FF07EBE6FF12006ADD10
:1025F00041E905260E010751120042E9E7CFD9FF54
:0A260000120027EC07F071EF12F052
:06260A0080909290300E5A
:10261000A4DA9280080EA1DA80B0010C200E9DDAB7
:10262000000CA9DA80909290010E76DA005002E157
:10263000300E72DA9280080E6FDA000402E1300E7A
:102640006BDA77D29BDA80909290010E65DA9280F5
:10265000080E62DA8050010B016E280E5DDA01501F
:1026600060D289DA41E8026AD890025002E6080E88
:10267000025C0DE200A003D0010EE66E01D0E66A16
:10268000D0DF41E900407F0B006E022AEDD749D22E
:1026900081DA43E8016A026A036AD890015002E6CF
:1026A000080E015C0AE2CEDF036E02407F0B026E71
:1026B000035001E0028E012AF0D702EBE6FF09D8B1
:1026C00041E9025044E9E7CFD9FF12000E011B6B2C
:1026D000120051DA41E800500E011B19026E000190
:1026E000E00E4A6F360E4B6F000E4C6F02EB4DF052
:1026F0004E6B4F6B4A514D25F36E4B514E21F46E8C
:102700004C514F21F86EF4CFF7FFF3CFF6FF0800DE
:10271000F5CF1BFE06D20E011C5112002CDA00EB85
:102720001CFE07D22BDABE0E00DAD0DFD8900150A3
:1027300002E6090E015C10E2ABDFE66E01EBE9FF99
:10274000EA6AE9BEEA68000EE926000EEA22E552CE
:10275000E750EF6E012AEAD70E011B51E2D198DF54
:10276000000901E1010C000C50DFCC0EDED90A0E8D
:10277000E66E16EC1FF041E9440E95EF15F0FED918
:10278000EEDF00090BE01F0EE66E16EC1FF041E9CC
:10279000012AFF0E015CF4E1010E01D0000EC1D14F
:1027A000F9D947E8036A046A056A06680001126BF2
:1027B0002CDF000948E1F00EB8D9056AD890055021
:1027C00002E6080E055C58E2076A046AD8900450D5
:1027D00002E6080E045C46E235DF016E33DF026E6E
:1027E00001502DE102502BE183EB06F00001113581
:1027F0001151061802E61151065C15E205EBE9FFDE
:10280000EA6AE9BEEA6899D9EF500BE0010E04EBE1
:10281000F3FF045204E0D890E836F306FCE1000927
:1028200005E1016A12D01151065C03E1010E016E4F
:102830000CD0016A06EB11F0010E126F06D00150A8
:1028400004E0025002E0010E31D007407F0B076E1A
:10285000015001E0078E01EBE6FFE3DE41E9032AC8
:10286000042AB4D705EBE9FFEA6AE9BEEA6865D94C
:1028700007EBEFFF052AA2D729DF056AD89005509C
:1028800002E6080E055C0CE205EBE9FFEA6AE9BE28
:10289000EA6853D9EFCFE6FF1CDF41E9052AEED7FE
:1028A0000E011B5102E01B5101D0000E48E9E7CF99
:1028B000D9FF12006FD943E8026AE66A2FDF41E9C7
:1028C00000011169010E126FA0DE000902E0010E85
:1028D0003ED00001125136E063DF016E015002E08C
:1028E000015035D0036AD890035002E6080E035C0D
:1028F00027E203EBE9FFEA6AE9BEEA681ED9EF5076
:10290000E66E02EBE9FFEA6AE9BEEA680B0EEA024C
:10291000F3CFEAFFE902F3CFE9FFF450EA26130E02
:10292000E926000EEA221ED903EB4CF000014D6BA4
:102930004CBF4D690BD9E552E750EF6E032AD3D750
:10294000022AC7D702EBE6FFE9DE41E9000E44E9BF
:10295000E7CFD9FF12000FD944E809D902E2010EEE
:1029600033D010D9EF6A51DE550EDFD8026A080E57
:10297000025C11E2C1D8F6D802500001EA6AE924EB
:10298000E96E4B51EA22EF50036E03EBE6FF69DE7E
:1029900041E9022AECD7C6DE000902E0020E14D09B
:1029A00000010151046E056A84EB05F0046A0051D0
:1029B0000426000E0522EAD804EBEEFF05EBEDFF3E
:1029C000E1D8010EEF6E000E45E9E7CFD9FF120006
:1029D000E1D855E8146AC8DED2DE00090FE19BDEBB
:1029E000E76E141802E7E73402D0E750145C06E201
:1029F00014EBE6FFB0DF41E9142AF1D756E9E7CF3F
:102A0000D9FF12005AEF14F0B6D8B1D801E2006A2B
:102A100073D8EECF4AF0EECF4BF0EECF4CF0EECFC6
:102A20004DF0EECF4EF0EECF4FF0EECF50F0EECFB8
:102A300051F0EECF52F0EECF53F0EFCF54F0D9CFAC
:102A4000E9FFDACFEAFF01E954C0EDFF53C0EDFF23
:102A500052C0EDFF51C0EDFF50C0EDFF4FC0EDFF84
:102A60004EC0EDFF4DC0EDFF4CC0EDFF4BC0EDFF84
:102A70004AC0EFFF5ED07FD87AD801E2006A86D8DC
:102A8000EECF4AF0EFCF4BF04AC0F3FF4BC0F4FF5C
:102A900050D071D841E8026AD890025002E6080E80
:102AA000025C17E229D85ED802EB4CF000014D6BB6
:102AB0004CBF4D694BD8EF50E66EE66AA90EE66E44
:102AC0002B0EE66E000EE66E26EC1EF045E9022A9D
:102AD000E3D758D8EF50E66EE66A58D8EECFE6FF57
:102AE000EECFE6FF9A0EE66E2B0EE66E000EE66E59
:102AF00026EC1EF047E915D000500B0DF3CFE9FF8F
:102B0000F4CFEAFF130EE926000EEA221200D9CF15
:102B1000E6FFE1CFD9FF1200E66E61EC1FF041E95C
:102B2000120042E9E7CFD9FF1200E66E9ADD41E9D3
:102B3000120041E9E7CFD9FF1200090EE926000E85
:102B4000EA221200E926000EEA2212004A514C2520
:102B5000E96E4B514D21EA6E1200E66E26EC1FF035
:102B600041E91200E9CF4AF0EACF4BF01200D3DD81
:102B7000D88000541200CBDF82E912000BD841E864
:102B8000016A1200B9DF0A0EA2EF15F0B5DF080ED8
:0A2B9000A2EF15F0BCDF81E912008E
:062B9A00202D202530343F
:102BA00058202D2025580D0A002530325800457236
:102BB000726F723A20696E76616C69642073656E1B
:102BC000736F72006E6577636F6E663D006375723A
:102BD00072656E743D00747970653D7661726961ED
:102BE000626C65006D6F64653D666C6F6F64006458
:102BF00065766963653D70776D6F757400646576A1
:102C00006963653D656C6563006465766963653D10
:102C10007761746572006465766963653D676173A9
:102C200000636F6D6D616E643D63757272656E7485
:102C300000636F6D6D616E643D726571756573746F
:102C4000007D00636F6E74726F6C2E6261736963D6
:102C500000636F6E6669672E63757272656E7400CD
:102C600068626561742E7265717565737400736551
:102C70006E736F722E7265717565737400636F6E1B
:102C80006669672E726573706F6E736500636F6E31
:102C90006669672E6C697374007461726765743D50
:102CA000686F6C6C69652D7574696C6D6F6E2E0044
:102CB0007461726765743D2A0078706C2D636D6E67
:102CC000640078706C5F68616E646C65723A64650C
:102CD0006661756C74202D207374617465202564A1
:102CE000202D2057452053484F554C44204E4556E3
:102CF00045522042452048455245200052584F0039
:102D000064656661756C7400656C656300776174F9
:102D10006572006761730073656E736F722E626116
:102D20007369630A7B0A6465766963653D736874D9
:102D30005F646577706F696E740A00747970653DC1
:102D400068756D69646974790A63757272656E7409
:102D50003D25690A7D0A0073656E736F722E62618C
:102D60007369630A7B0A6465766963653D73687499
:102D70005F68756D69646974790A00747970653D7E
:102D800074656D700A63757272656E743D25692E87
:102D900025690A7D0A0073656E736F722E62617316
:102DA00069630A7B0A6465766963653D7368745F6D
:102DB00074656D700A00747970653D766172696141
:102DC000626C650A63757272656E743D25690A7D71
:102DD0000A0073656E736F722E62617369630A7B9A
:102DE0000A6465766963653D70776D6F75740A0076
:102DF0000A747970653D74656D700A6375727265E9
:102E00006E743D25692E25690A7D0A0025303258E9
:102E1000000A747970653D636F756E740A6375722C
:102E200072656E743D25750A7D0A0073656E736F59
:102E3000722E62617369630A7B0A646576696365F1
:102E40003D00636F6E6669672E63757272656E749E
:102E50000A7B0A6E6577636F6E663D25730A7D0A8D
:102E600000636F6E6669672E6C6973740A7B0A7201
:102E700065636F6E663D6E6577636F6E660A7D0A89
:102E800000636F6E6669672E656E640A7B0A696E01
:102E900074657276616C3D310A7D0A00636F6E66FF
:102EA00069672E62617369630A7B0A696E74657271
:102EB00076616C3D310A76657273696F6E3D256986
:102EC0002E25690A7D0A007D0A0068756D697365A3
:102ED0006E736F723D310A0074656D7073656E7349
:102EE0006F72733D25690A0068626561742E6261C4
:102EF0007369630A7B0A696E74657276616C3D352D
:102F00000A76657273696F6E3D25692E25690A0020
:102F10002E25730A7461726765743D2A0A7D0A0062
:102F20007574696C6D6F6E000A7B0A686F703D3155
:102F30000A736F757263653D686F6C6C69652D000F
:0F2F40007472696700737461740078706C2D008F
:102F5000D9CFE6FFDACFE6FFE1CFD9FFE2CFDAFF44
:102F600086E966E8D9500B0FE66E000EDA20F4D839
:102F7000F0EC1BF046E9066E800E065C04E0115092
:102F80000BE0060409E0210E0101FE6FFF6B0768EC
:102F9000086809687F0EC5D0040E065C09E180EB65
:102FA00007F081EB08F082EB09F083EB0AF0BAD06E
:102FB00006040AE1210E0101FE6FFF6B076A086A31
:102FC000800E096E0A68AED0D950120FE66E000E60
:102FD000DA20C2D863EC1CF046E909CE4AF00ACEEA
:102FE0004BF00BCE4CF00CCE4DF000014A51006E70
:102FF0004B51016E4C51026E4D51036EF30EE66E55
:10300000040EE66E350EE66E3F0EA6D8F0EC09F023
:10301000000907E0F2D8A0D825EC07F0DBD89CD84F
:1030200009D01206000E135AC7D83F0E95D8D2D831
:10303000E66EB0D8CBD884D8206E4B51216E4C515F
:10304000226E4D51236E20EBE6FF21EBE6FF22EBD3
:10305000E6FF23EBE6FF9ED893EC09F071D8186EDB
:103060004B51196E4C511A6E4D511B6E7FD87ED844
:1030700069EC0AF065D8146E4B51156E4C51166E02
:103080004D51176E3D0E246E7E0E256E0D0E266E72
:10309000BF0E276E3A0EE66E3F0EE66ED40EE66E5B
:1030A000C00EE66E80D827EC07F04AD8286E4B5148
:1030B000296E4C512A6E4D512B6E28EBE6FF29EB01
:1030C000E6FF2AEBE6FF2BEBE6FF24EBE6FF25EB22
:1030D000E6FF26EBE6FF27EBE6FF65D869EC0AF092
:1030E00093EC09F02DD84BD841D869EC0AF03ED8C2
:1030F00027EC07F025D843D863D8830EE66E800E00
:10310000E66E5E0EE66EB90EE66E60D859D8E66AD7
:10311000800EE66E310EE66E3F0EE66E57D810D882
:1031200065D80A6E07EB09FE08EB0AFE09EB0BFEF9
:103130000AEB0CFE67E9E5CFDAFFE7CFD9FF120013
:10314000E552E5CF4DF0E5CF4CF0E5CF4BF0E7CFC2
:103150004AF000014A511200E66E00EBE6FF01EB77
:10316000E6FF02EBE6FF03EBE6FF120018EBE6FFDB
:1031700019EBE6FF1AEBE6FF1BEBE6FF120036D871
:103180000A6E07EBE6FF08EBE6FF09EBE6FF0AEB4A
:10319000E6FF12001CEBE6FF1DEBE6FF1EEBE6FF71
:1031A0001FEBE6FF120014EBE6FF15EBE6FF16EB54
:1031B000E6FF17EBE6FF1200E66AE66AE66A12002F
:1031C00012EBE6FF13EBE6FF74EF08F069EC0AF090
:1031D00027EF07F025EC07F0B3DF1C6E4B511D6E97
:1031E0004C511E6E4D511F6EFDEF18F0076E4B5186
:1031F000086E4C51096E4D511200DEDF3F0EE66E37
:04320000DCEF18F0F7
:0C32040005D83CEC03F085EC03F0FDD78E
:10321000D9CFE6FFE1CFD9FF81E941E8016A0F0E7E
:10322000C16E9268936EBB0E946EF00E956E9B8C81
:10323000440EE66EE66A7C0EE66E8AEC1DF043E90B
:103240000150012A00014A6F050EE76E4A1902E794
:10325000E73402D0E7504A5D0DE2320EE66E9EEC96
:103260001EF041E98394320EE66E9EEC1EF041E9B9
:103270008384E6D70E01106B970EE66EB9EC1EF054
:1032800041E9E66A9B0EE66E58EC1EF042E9DDD895
:10329000E4D8F19CF19AF198F19EF80E0F015C17B9
:1032A000F292F288F090F086F092F088F286F28C3A
:1032B000F28E42E9E7CFD9FF1200DACFE4FFE2CF86
:1032C000DAFFE9CFE4FFEACFE4FFD9CFE4FFDACFBA
:1032D000E4FF09CEE4FF0ACEE4FF0BCEE4FF0CCE00
:1032E000E4FFF6CFE4FFF7CFE4FFF8CFE4FFF5CF3C
:1032F000E4FFF3CFE4FFF4CFE4FFFACFE4FFFBCF2A
:10330000E4FF00EE4AF00B0EE80403E3EECFE4FF27
:10331000FBD7E6529EAA08D07FEC1EF0E66E28ECA2
:1033200000F041E99E9A54D0F2A205D00E01020E9F
:103330000D6FF2920DD0F0A005D00E01020E0E6FAF
:10334000F09006D0F0A206D00E01020E0F6FF092A0
:1033500083943ED0F2A40DD078D88394F2940E01D9
:10336000152B000E1623172B182B050E0E011027F8
:1033700083849EA02DD071D89E900E01105100081C
:1033800003E28394100701D083840D5109E00D07F7
:1033900083840D5105E18150010B02E1020E65D8D5
:1033A0000E010E5109E00E0783840E5105E1815094
:1033B000020B02E1010E59D80E010F5109E00F076F
:1033C00083840F5105E18150040B02E1040E4DD8B6
:1033D000E55200EE54F00B0EE80403E3E5CFEDFFF9
:1033E000FBD7E5CFFBFFE5CFFAFFE5CFF4FFE5CF55
:1033F000F3FFE5CFF5FFE5CFF8FFE5CFF7FFE5CF2A
:10340000F6FFE5CF0CFEE5CF0BFEE5CF0AFEE5CFDC
:1034100009FEE5CFDAFFE5CFD9FFE5CFEAFFE5CF3B
:10342000E9FFE5CFDAFF1100D8CFE4FFE0CFE4FFFA
:10343000E46EDACFE4FFE652E552E5CFDAFFE5507D
:10344000E5CFE0FFE5CFD8FF1000DB0EE66E0B0EF8
:10345000E66EECEC1EF042E91200E00EE66EB10EF4
:10346000E66ED4EC1EF042E91200E66E31EC06F096
:0434700041E912001C
:0C347400D9CFE6FFDACFE6FFFA0EE3CF77
:10348000D9FFFB0EE3CFDAFFFC0EE3CFE9FFFD0E21
:10349000E3CFEAFFDE50EF5C02E1EE66FBD7F36EAE
:1034A000FF0EE3CFDAFFE552FF0EE3CFD9FFE5527F
:1034B000F3501200FD0EE3CFF6FFFE0EE3CFF7FF51
:1034C000FF0EE3CFF8FFFB0EE3CFE9FFFC0EE3CFE7
:1034D000EAFFEE500900F55C02E1F566FAD712004A
:1034E000D9CFE6FFDACFE6FFFA0EE3CFD9FFFB0E26
:1034F000E3CFDAFFFC0EE3CFE9FFFD0EE3CFEAFFF7
:10350000E9CFF3FFEACFF4FFDECFEFFFEE66FCD7A3
:10351000FF0EE3CFDAFFE552FF0EE3CFD9FFE5520E
:103520001200FE0EE3CFE9FFFF0EE3CFEAFFF36ADE
:10353000F46AEE5203E0F34AF42AFBD71200FD0EC0
:10354000E3CFF6FFFE0EE3CFF7FFFF0EE3CFF8FF6A
:10355000FB0EE3CFE9FFFC0EE3CFEAFFF90EE350E9
:1035600003E1FA0EE3500BE0F90EE30602E2FA0E75
:10357000E306EE500900F55C02E1F566EFD71200B4
:10358000FF0EE3CFF8FFE552FF0EE3CFF7FFE55262
:10359000FF0EE3CFF6FFE552E66AE66AE66A090047
:1035A000F55209E0FD0EE32A05E1FE0EE32A02E1F1
:1035B000FF0EE32AF4D7FD0EE3CF09FEFE0EE3CFA4
:0A35C0000AFEFF0EE3CF0BFE12001F
:0635CA00D9CFE6FFDACFC5
:1035D000E6FFE1CFD9FFE2CFDAFF86E95CD8000150
:1035E0004B3511E24A51FE08000E4B550CE26DD8E6
:1035F00005E063D8800EEE6EEE6847D05ED8800E90
:10360000EE6E7F0E0ED047D8010ED8904BBF03D080
:103610004A5D000E4B590BE258D805E04ED8EE6AD1
:10362000800EEE6E32D049D8EE6AEE6A2ED053D8B4
:10363000EECF4AF0EECF4BF0EECF4CF0EFCF4DF0A7
:1036400032D84AC0EEFF4BC0EEFF4CC0EEFF4DC07B
:10365000EEFF21D84A51010B05E025D8020E31D8E2
:10366000EF8E04D020D8020E2CD8EF9E14D8D8901C
:103670004B334A3318D8030E24D84AC0EFFF18D86A
:1036800004E011D8030E1DD8EF8E41E9E5CFDAFF33
:10369000E7CFD9FF12001FD8040E13D8EECF4AF09F
:1036A000EFCF4BF0120000EBE9FF01EBEAFF120055
:1036B00012D8060E06D8EF501200F5DFEE6AEE6A59
:1036C0001200E926000EEA221200220E0101FE6F0E
:1036D000FF6B58EF1BF002EBE9FF03EBEAFF120070
:1036E000005EBCE2613FDD83C29C7E20A3FD1F41E2
:1036F0009DC3217FFCA2401E5F01E3BD3E6082DCD2
:10370000237D9FC1421CFEA0E1BF5D0380DE3C62C1
:10371000BEE0025CDF81633D7C22C09E1D43A1FFB1
:103720004618FAA427799BC584DA3866E5BB5907A1
:10373000DB856739BAE406581947A5FB7826C49A91
:10374000653BD987045AB8E6A7F91B45C6987A2481
:10375000F8A6441A99C7257B3A6486D85B05E7B971
:103760008CD2306EEDB3510F4E10F2AC2F7193CD61
:10377000114FADF3702ECC92D38D6F31B2EC0E5051
:10378000AFF1134DCE90722C6D33D18F0C52B0EE41
:10379000326C8ED0530DEFB1F0AE4C1291CF2D7331
:1037A000CA947628ABF517490856B4EA6937D58B21
:1037B0005709EBB536688AD495CB2977F4AA481611
:1037C000E9B7550B88D6346A2B7597C94A14F6A801
:1037D000742AC896154BA9F7B6E80A54D7896B35F1
:1037E000D9CFE6FFDACFE6FFE1CFD9FFE2CFDAFFAC
:1037F00088E941E802EB4AF003EB4BF004EB4CF0B4
:1038000000014C9F4D6B5AD84AC0EEFF4BC0EEFFF3
:103810004CC0EEFF4DC0EEFF800E051402E0010E1D
:1038200001D0000EE66E4AD8060EE926000EEA2206
:10383000E552E750EF6ED890043605360550E66E37
:103840003DD8040EE926000EEA22E552E750EE6E5E
:10385000ED6AFF0EF36EF46AF350051818E1F450A8
:1038600016E12CD8EECF4AF0EECF4BF0EECF4CF075
:10387000EFCF4DF04A514B114C114D1106E0210E86
:103880000101FE6FFF6B800E0AD0040E08D00550B8
:1038900008E114D8EE6AEE6AEE6AEE6A010E086E6E
:1038A00006D0020E086E0AD8EE52EE52EE8E085086
:1038B00042E9E5CFDAFFE7CFD9FF120000EBE9FFDD
:0638C00001EBEAFF12001B
:0A38C600D9CFE6FFDACFE6FFE1CF2D
:1038D000D9FFE2CFDAFF88E94CE882EB09F083EB0D
:1038E0000AF084EB0BF085EB0CF040D809EBE6FF17
:1038F0000AEBE6FF0BEBE6FF0CEBE6FFF0EC1BF050
:1039000046E9086E850E081407E000EBE9FF01EBBD
:10391000EAFFEE6AED6A1CD00001820E11244A6FA4
:10392000FF0E12204B6F00EBE9FF01EBEAFF4AC0EC
:10393000EEFF4BC0EDFF7E0E116E126AD950090FDB
:10394000E66E000EDA20E66E11D8E5EC1AF044E9D6
:1039500009EB09FE0AEB0AFE0BEB0BFE0CEB0CFE6F
:103960004DE9E5CFDAFFE7CFD9FF1200D9500D0FAF
:0A397000E66E000EDA20E66E12008B
:06397A001E0EF66E000EA9
:10398000F76E000EF86E00010900F5505A6F09003D
:10399000F5505B6F03E15A6701D03DD00900F55047
:1039A000556F0900F550566F0900F550576F090023
:1039B0000900F550E96E0900F550EA6E09000900AA
:1039C0000900F550586F0900F550596F09000900BA
:1039D000F6CF5CF0F7CF5DF0F8CF5EF055C0F6FFA4
:1039E00056C0F7FF57C0F8FF0001585302E1595382
:1039F00007E00900F550EE6E5807F8E25907F9D7CD
:103A00005CC0F6FF5DC0F7FF5EC0F8FF00015A071B
:083A1000000E5B5BBFD7120042
:083A1800D9CFE6FFDACFE6FF8B
:103A2000E1CFD9FFE2CFDAFF86E9D90EE66E5B0E71
:103A3000E66EDE0EE66E3E0EE66E00EBE6FF01EB96
:103A4000E6FF02EBE6FF03EBE6FFA8EC17F044E924
:103A500009CE4EF00ACE4FF00BCE50F00CCE51F006
:103A600009CEE6FF0ACEE6FF0BCEE6FF0CCEE6FF60
:103A700069EC0AF0E552E5CF4DF0E5CF4CF0E5CF2B
:103A80004BF0E7CF4AF04AC009FE4BC00AFE4CC0DB
:103A90000BFE4DC00CFE41E9E5CFDAFFE7CFD9FFC1
:023AA000120012
:0E3AA200D9CFE6FFDACFE6FFE1CFD9FFE2CFC2
:103AB000DAFF87E944E8D9CFE6FFDACFE6FFE5523F
:103AC000E5500A6EE750096E09EBE6FF0AEBE6FFE8
:103AD00000EBE6FF01EBE6FF02EBE6FFD950030F38
:103AE000E66E000EDA20E66E9CEC0BF047E9F35030
:103AF000076EF450086E03EBE9FF04EBEAFFEF6A90
:103B000007EBF3FF08EBF4FF45E9E5CFDAFFE7CF7A
:043B1000D9FF1200C7
:0C3B1400D9CFE6FFDACFE6FFE1CFD9FF02
:103B2000E2CFDAFF85E9AC6AAB6A02B0AC8802A2E8
:103B300002D0AC8CAB8C02B4AC8E02A602D0AB88A7
:103B400001D0AB8A02B8AC8402BAAB8602AC02D018
:103B50009D8A01D09D9A02AE02D09D8801D09D9889
:103B600000EBAFFF000101EB4AF04B6B4AC07DFF59
:103B7000AC8AAB8E41E9E5CFDAFFE7CFD9FF12007F
:103B8000D9CFE6FFDACFE6FFE1CFD9FFE2CFDAFF08
:103B900085E9013415E200EBE9FF01EBEAFFEECF26
:103BA000F3FFEDCFF4FFEE2A000EEF22F3CFE9FF93
:103BB000F4CFEAFF02EBEFFFEF50F36EF46A0DD0A3
:103BC000FE0E005C05E102EBE6FF46EC1FF004D0C0
:103BD00002EBE6FF03EC00F041E941E9E5CFDAFF53
:063BE000E7CFD9FF12003F
:0A3BE600D9CFE6FFE1CFD9FF82E955
:103BF00000EB74FF7F9E7F9C7F80735041E9E7CF8D
:103C0000D9FF1200D9CFE6FFE1CFD9FF83E941E820
:103C1000036A7F9C7FB2FED701EB74FF00EB73FF5A
:103C20007F9E7F84F2AE03D0F29E010E036E550E8E
:103C30007E6EAA0E7E6E7F827F947FB2FED7035087
:0C3C400001E0F28E42E9E7CFD9FF12004C
:043C4C00D9CFE6FFE7
:103C5000DACFE6FFE1CFD9FFE2CFDAFF85E944E82A
:103C6000D9CFE6FFDACFE6FFE552E550066EE75022
:103C7000056E05EBE6FF06EBE6FF00EBE6FF01EB6A
:103C8000E6FF02EBE6FF19CEE6FF1ACEE6FF9CEC5C
:103C90000BF047E9F350076EF450086E07EBF3FFA3
:103CA00008EBF4FF45E9E5CFDAFFE7CFD9FF1200D3
:103CB000D9CFE6FFDACFE6FFE1CFD9FFE2CFDAFFD7
:103CC00084E9F30E0014AA6E7F0E0114E824CD6E71
:103CD000CF6ACE6A9E9001AE02D09D8001D09D90A9
:103CE0009E9400A402D09D8401D09D94AABEAA8671
:0E3CF000CD8041E9E5CFDAFFE7CFD9FF120022
:023CFE00D9CF1C
:103D0000E6FFDACFE6FFE1CFD9FFE2CFDAFF82E9C3
:103D100041E8F20E0E011E17ABAC03D01E91ABB002
:103D20001E81ABB41E85ABB21E87AE50026E025030
:0C3D300042E9E5CFDAFFE7CFD9FF12002F
:043D3C00FF0EE35043
:103D40000E011D6FEE0E02D0F20E0000E76EE72EA0
:103D5000A7EF1EF00C0E00015F6FE76AE72EAEEFD3
:103D60001EF05F2FADEF1EF00E011D2FA4EF1EF011
:023D700012003F
:0E3D7200D9CFE6FFDACFE6FFE1CFD9FFE2CFEF
:103D8000DAFF83E97F0E0014D56ED76AD66AF29403
:103D900000AE02D0F28A01D0F29AD58E41E9E5CF89
:083DA000DAFFE7CFD9FF1200A2
:083DA800D9CFE6FFDACFE6FFF8
:103DB000E1CFD9FFE2CFDAFF84E942E880EB04F0FB
:103DC00081EB05F005EBCFFF04EBCEFF43E9E5CF38
:083DD000DAFFE7CFD9FF120072
:083DD800D9CFE6FFDACFE6FFC8
:103DE000E1CFD9FFE2CFDAFF84E942E880EB04F0CB
:103DF00081EB05F005EBD7FF04EBD6FF43E9E5CFF8
:083E0000DAFFE7CFD9FF120041
:083E0800F36AF46AFF0EE124E5
:103E1000E96EFF0EE220EA6EED6607D02F0EEF642A
:0C3E200004D03A0EEF6001D0F32A12002B
:043E2C00FF0EE35052
:103E30000E011D6F480E01D04C0EE76EE72EFED727
:0C3E4000E76AE72EFED71D2FF7D712000F
:043E4C00FF0EE35032
:103E50000E011D6F1A0E00D000D001D0200EE76EAB
:0C3E6000E72EFED71D2FFAD700D012006D
:043E6C00410EF36EA2
:103E700000EE00F00E0E01D81200EA6002D0EE6AE9
:0C3E8000FCD7F350E9601200EE6AFCD79A
:043E8C00FF0EE350F2
:103E9000ACBA04D0AF6AAB8EAC8A949CACA2FED70D
:083EA000AD6EF36EF46A12002E
:083EA8001DEE00F02DEE00F00C
:103EB000F86ABDEC1CF007EC00F002EC19F0FBD73F
:023EC0001200EE
:0E3EC200FF0EE350E84E1200000000D000D0CA
:083ED00000D0E82EFAD7120021
:083ED800303132333435363746
:093EE00038396162636465660013
:023EE900FEFFDA
:023EEB000000D5
:020000040030CA
:0100000051AE
:0100010052AC
:010002007F7E
:010003007C80
:010005008971
:010006008178
:010008000FE8
:01000900C036
:01000A000FE6
:01000B00E014
:01000C000FE4
:01000D0040B2
:00000001FF
