:020000040000FA
:06000000E3EF2AF01200FC
:020006001200E6
:0600080096EF23F0120048
:02000E001200DE
:0400100000000000EC
:0400140027010000C0
:0600180050EF24F012007D
:02001E000400DC
:1000200043560000CA0000000200000041560000D4
:10003000C80000000200000014000000C100000021
:100040000400000010000000BD00000004000000DB
:10005000D9CFE6FFE1CFD9FF01010051002BE96EB6
:10006000EA6AE9BEEA68AE0EE926010EEA22FE0E51
:10007000DBCFEFFF022B280E005D01E1006B1E0EAF
:10008000E76E0219E8AE02D0023503D0E750D880FF
:1000900002550DE2FD050BE1FD6BFE0EE66EE66816
:1000A000130EE66EBBEC28F0E552E552E552E55240
:1000B000E7CFD9FF1200D9CFE6FFE1CFD9FFE65253
:1000C00001010151012BE96EEA6AE9BEEA68AE0E50
:1000D000E926010EEA22EFCFDFFF0207280E015DBD
:1000E00001E1016B140EE76E0219E8AE02D0E734AD
:1000F00002D0E750025D0EE2FD510CE1010EFD6FF2
:10010000FE0EE66EE668110EE66EBBEC28F0E552D8
:10011000E552E552DF50E552E552E7CFD9FF120034
:10012000D9CFE6FFE1CFD9FF280EE66E84EC2AF0A6
:10013000E5522D0EE66E460EE66E000EE66EDEEC25
:1001400027F0E552E552E552FE0EDB500AE1D60EED
:10015000E66E010EE66E280EE66E460EE66E000EA8
:1001600009D0D60EE66E010EE66E230EE66E460E42
:10017000E66E000EE66EDEEC27F0006E050EE15E28
:1001800000500B0EE66E460EE66E000EE66EDEECDE
:1001900027F0E552E552E552030EE66E460EE66E96
:1001A000000EE66EDEEC27F0E552E552E552D60E83
:1001B000E66E010EE66EF30EE66E450EE66E000E7E
:1001C000E66EDEEC27F0006E050EE15E0050E552B3
:1001D000E7CFD9FF1200E66AA3DFE552060EE66E0E
:1001E000E66A040EE66EE66ACB0EE66E450EE66E35
:1001F000000EE66EDEEC27F0006E070EE15E0050AA
:100200000001BDA316D020EC18F0006E016A00BEFC
:10021000016800C0E6FF01C0E6FFBB0EE66E450EBA
:10022000E66E000EE66EDEEC27F0026E050EE15E75
:1002300002500001BDA50BD0AD0EE66E450EE66E78
:10024000000EE66EDEEC27F0E552E552E5520001C5
:10025000BE51E66EE66AA20EE66E450EE66E000E32
:10026000E66EDEEC27F0006E050EE15E00509F0E9C
:10027000E66E450EE66E000EE66EDEEC27F0E55209
:10028000E552E5520001010EBF6F1200E66A48DF39
:10029000E552060EE66EE66A040EE66EE66A740E37
:1002A000E66E450EE66E000EE66EDEEC27F0006EA2
:1002B000070EE15E00501200E66A32DFE552590E89
:1002C000E66E450EE66E000EE66EDEEC27F0E552B9
:1002D000E552E5521200E66A23DFE552390EE66E7A
:1002E000450EE66E000EE66EDEEC27F0E552E552B6
:1002F000E5521200E66A14DFE552D60EE66E010EF4
:10030000E66E1A0EE66E450EE66E000EE66EDEEC4A
:1003100027F0006E050EE15E00501200D9CFE6FF17
:10032000E1CFD9FFFE0EDBCFE6FFFADEE552030E8A
:10033000E66E450EE66E000EE66EDEEC27F0E55248
:10034000E552E552FB0EDBCFE6FFFC0EDBCFE6FF0E
:10035000FD0EDBCFE6FFDEEC27F0E552E552E5527D
:10036000F90EDBCFE6FFFA0EDBCFE6FFE90EE66E15
:10037000440EE66E000EE66EDEEC27F0006E050E13
:10038000E15E0050E552E7CFD9FF1200D9CFE6FF7A
:10039000E1CFD9FF120EE1260C0EDB6A0D0EDB6AEF
:1003A000200EF36E0E0EF3CFDBFFC10EF36E0F0EB9
:1003B000F3CFDBFF0A0EE126FD0EDBCFE6FFB6EC46
:1003C0001AF0EECF00F0EECF01F0EECF02F0EECF5C
:1003D00003F0EECF04F0EECF05F0EECF06F0EECF57
:1003E00007F0EECF08F0EECF09F0EECF0AF00B6E7B
:1003F0000B0EE15E0B5000C0DFFF010E01C0DBFF02
:10040000020E02C0DBFF030E03C0DBFF040E04C0BC
:10041000DBFF050E05C0DBFF060E06C0DBFF070E87
:1004200007C0DBFF080E08C0DBFF090E09C0DBFFB9
:100430000A0E0AC0DBFFDB5001E11AD1DF50100ABF
:1004400018E0380A42E1080EDBCF2CF0090EDBCFB2
:100450002DF0BAEC1BF02BC000F02CC001F02DC029
:1004600002F02EC003F0306A316A800E326E410E07
:1004700014D0080EDBCF2CF0090EDBCF2DF0BAEC38
:100480001BF02BC000F02CC001F02DC002F02EC0DC
:1004900003F0306A316A326A400E336E00C02BF0CE
:1004A00001C02CF002C02DF003C02EF066EC1CF051
:1004B0000C0E2BC0DBFF0D0E2CC0DBFF0E0E2DC073
:1004C000DBFF0F0E2EC0DBFF0ED00C0EDB6A0D0E15
:1004D000DB6A840EF36E0E0EF3CFDBFF420EF36E7B
:1004E0000F0EF3CFDBFF0C0EDBCF2BF00D0EDBCFAF
:1004F0002CF00E0EDBCF2DF00F0EDBCF2EF04CECE0
:100500001DF0100E2DC0DBFF0C0EDBCF04F00D0E26
:10051000DBCF05F00E0EDBCF06F00F0EDBCF07F0C2
:10052000306A316AC80E326E420E336E04C02BF050
:1005300005C02CF006C02DF007C02EF0B9EC1CF061
:100540002BC000F02CC001F02DC002F02EC003F033
:10055000100EDBCF10F010C02DF0ABEC1BF02BC059
:100560000CF02CC00DF02DC00EF02EC00FF0306A34
:10057000316AC80E326E420E336EB9EC1CF02BC0DD
:1005800008F02CC009F02DC00AF02EC00BF02BC0D3
:1005900030F02CC031F02DC032F02EC033F000C04E
:1005A0002BF001C02CF002C02DF003C02EF0CFECD8
:1005B0001BF04CEC1DF0110E2DC0DBFFFE0EDBCF4F
:1005C000E6FFAEDDE552030EE66E450EE66E000E6A
:1005D000E66EDEEC27F0E552E552E5520B0EDB6AE3
:1005E000DBCF00F0080EE76E0018E8AE02D0E7346B
:1005F00002D0E750005C22E2D9CF00F0DACF01F060
:100600000B0EDBCF02F0036A02BE03680050022427
:10061000E96E01500320EA6EEF50E66EE66AE40EE2
:10062000E66E440EE66E000EE66EDEEC27F0046E1B
:10063000050EE15E04500B0EDB2AD2D7110EDBCF84
:10064000E6FFE66A100EDBCF00F0016A00BE01682B
:1006500000C0E6FF01C0E6FFC80EE66E440EE66E7F
:10066000000EE66EDEEC27F0026E070EE15E025031
:10067000120EE15C02E2E16AE552E16EE552E7CF7B
:10068000D9FF1200D9CFE6FFE1CFD9FFFE0EDBCFB5
:10069000E6FF46DDE552AA0EE66E440EE66E000E5B
:1006A000E66EDEEC27F0E552E552E5520001BE5160
:1006B000E66EE66A8E0EE66E440EE66E000EE66E9E
:1006C000DEEC27F0006E050EE15E0050E552E7CF4C
:1006D000D9FF1200D9CFE6FFE1CFD9FF090EE126FD
:1006E00015EC11F0F3CFDEFFF4CFDDFF1AEC11F0C3
:1006F000020EF3CFDBFF030EF4CFDBFF1FEC11F094
:10070000E76E040EE7CFDBFF640E006E016AF9C1ED
:100710002CF0FAC12DF0316E01C032F026EC1DF044
:10072000050E2CC0DBFFDB50640DF3CF02F0036A33
:1007300002BE036801010250F95D006E0350FA59D0
:10074000016E070E00C0DBFF1AEC11F0F3CF00F0D2
:10075000F4CF01F0640E316E326AF3CF2CF0F4CF97
:100760002DF026EC1DF02CC000F02DC001F0060E7F
:100770002CC0DBFFDB50640DF3CF02F0036A02BE36
:10078000036802C0E6FF03C0E6FF1AEC11F0E55271
:10079000E7CF03F0E552E7CF02F00250F35C006EC2
:1007A0000350F458016E080E00C0DBFFFE0EDBCFD5
:1007B000E6FFB6DCE5526E0EE66E440EE66E000E07
:1007C000E66EDEEC27F0E552E552E552070EDBCF90
:1007D000E6FFE66A050EDBCF00F0016A00BE0168A5
:1007E00000C0E6FF01C0E6FF530EE66E440EE66E63
:1007F000000EE66EDEEC27F0026E070EE15E0250A0
:10080000FE0EDBCFE6FF8CDCE5522F0EE66E440ECB
:10081000E66E000EE66EDEEC27F0E552E552E5529C
:100820000101FB51E66EE66A130EE66E440EE66EBB
:10083000000EE66EDEEC27F0006E050EE15E005065
:10084000FE0EDBCFE6FF6CDCE552EF0EE66E430EEC
:10085000E66E000EE66EDEEC27F0E552E552E5525C
:10086000080EDBCFE6FFE66A060EDBCF00F0016A7A
:1008700000BE016800C0E6FF01C0E6FF530EE66E51
:10088000440EE66E000EE66EDEEC27F0026E070EFA
:10089000E15E0250090EE15C02E2E16AE552E16EBE
:1008A000E552E7CFD9FF1200D9CFE6FFE1CFD9FF5C
:1008B000020EE126010EDE6EDD6AFD0EDB50070A38
:1008C00068E0010A61E0030A57E0010A34E0060A21
:1008D0001AE0030A63E1FE0EDB500BE1E8C1DEFF24
:1008E000E9C1DDFF000EDB500101E85F010EDB50C6
:1008F000E95BDECFE6FFDDCFE6FFEB0EE66E430EF3
:10090000E66E000E2FD0FE0EDB500BE1EAC1DEFFDB
:10091000EBC1DDFF000EDB500101EA5F010EDB5091
:10092000EB5BDECFE6FFDDCFE6FFE50EE66E430EC6
:10093000E66E000E17D0FE0EDB500BE1ECC1DEFFC1
:10094000EDC1DDFF000EDB500101EC5F010EDB505D
:10095000ED5BDECFE6FFDDCFE6FFE00EE66E430E99
:10096000E66E000EE66EFE0EDBCFE6FFD7DC006E15
:10097000060EE15E005012D0EEC1E6FFFE0EDBCFA8
:10098000E6FF04DDE55209D0FE0EDBCFE6FF7ADE9E
:1009900004D0FE0EDBCFE6FF9DDEE552020EE15CE9
:1009A00002E2E16AE552E16EE552E7CFD9FF1200BB
:1009B0000101036B046B12000101E76BFC6BD8EFC4
:1009C00004F0D9CFE6FFE1CFD9FFE6520001BD9197
:1009D000DF6ADFCF00F0100EE76E0018E8AE02D03D
:1009E000E73402D0E750005C39E2DFCFE6FF35ECB8
:1009F00029F0E552E66EDFCFE9FFEA6AE9BEEA6870
:100A0000D60EE926010EEA22E552E750EF6EDFCF5F
:100A1000E9FFEA6AE9BEEA68D60EE926010EEA2293
:100A2000EF5003E10001BD8119D0DF5015E1FF0E49
:100A30000101D65D11E1D80EE66E430EE66E000EA2
:100A4000E66ED60EE66E010EE66E39EC27F0006E0D
:100A5000050EE15E005002D0DF2ABBD7E552E55219
:100A6000E7CFD9FF12009494060EE66E51EC2AF0FF
:100A7000E552F90EE66E6CEC2AF0E552E80EE66EF1
:100A8000030EE66E6AEC29F0E552E552B4EC1AF07A
:100A9000000904E10001BD8384EC1AF044EC0AF083
:100AA000000902E10001BD858CDF0101E86BE96B03
:100AB000EA6BEB6BEC6BED6B7FDF0101006B016BA5
:100AC000026B0001BF6B0101010EFD6FFE0EE66EB1
:100AD000E668110EE66EBBEC28F0E552E552E552F1
:100AE0001200D9CFE6FFE1CFD9FFFE0EDB500A0896
:100AF00024E001010351006E016AD890015004E620
:100B0000AA0E005C000E01580DE3D40EE66E430EF3
:100B1000E66E000EE66EDEEC27F0E552E552E55299
:100B20004BDF15D00351032BEA6A040FE96E010E67
:100B3000EA22FE0EDBCFEFFF0AD001010351EA6A81
:100B4000040FE96E010EEA22EF6A010EE76FE5522B
:100B5000E7CFD9FF1200D9CFE6FFE1CFD9FF050ECD
:100B6000E1260101E75144E0010A06E0E7C100F097
:100B7000016A00AE37D135D14FD9E76E040EE7CF09
:100B8000DBFFDB50070A24E0010A1BE0030A17E041
:100B9000010A13E0070A0FE0010A0AE0030A05E070
:100BA000010A22E1EBEC00F01FD06BEC01F01CD04D
:100BB0007AEC01F019D0010E05D0020E03D0040E1C
:100BC00001D0060EE66EE66A6FDEE552E5520CD005
:100BD000DF6A0A0EDF5C08E2060EE66EE66A64DE95
:100BE000E552E552DF2AF5D70101E76BE1DE0AD1D4
:100BF0000151005D05E05BEC00F0E66E72DFE5524E
:100C00000001C05122E0C0A108D0010EE66EE66EE0
:100C10004BDEE552E5520001C071C0A309D0020EBF
:100C2000E66E010EE66E40DEE552E5520001C0734D
:100C3000C0A509D0040EE66E010EE66E35DEE55263
:100C4000E5520001C075070EC01700012C0ED880B8
:100C5000C155010EC25509E2010E0001BD1505E0A6
:100C6000EBEC00F00001C16BC26B00013C0ED880C0
:100C7000C155000EC25509E2010E0001BD1505E186
:100C800046EC01F00001C16BC26B0001C3513C088E
:100C90000BE2020E0001BD1507E0010EBD1504E0D8
:100CA0000001C36B84EC1AF00001C4513C080BE254
:100CB000040E0001BD1507E0010EBD1504E00001A2
:100CC000C46B0AEC10F0020E0001BD1551E0010EDC
:100CD000BD154EE0BF514CE0DF6A20EC18F0DF5C40
:100CE00047E2EA6ADF34FE0BEA36E96EEF0EE926E8
:100CF000010EEA22EECF00F0EFCF01F000C0E6FFD8
:100D000001C0E6FFDFCFE6FF09EC1BF0E552E5523C
:100D1000E7CF01F0E552E7CF00F0F3CF02F0F4CFD8
:100D200003F0F350001802E1035001181FE0DFCF79
:100D3000E6FF09EC1BF0E552F3CF00F0F4CF01F031
:100D4000EA6ADF34FE0BEA36E96EEF0EE926010EA1
:100D5000EA22F3CFEEFF01C0EDFFDFCFEEF1050E8B
:100D6000E66E010EE66EA0DDE552E552DF2AB5D74C
:100D7000040E0001BD1546E0010EBD1543E0BF5154
:100D800041E015EC11F0DE52F3CFDEFFF4CFDDFFD2
:100D9000DD521FEC11F0E76E030EE7CFDBFFF9C168
:100DA00000F0FAC101F0010EDB50001809E1020E5B
:100DB000DB50011805E1030EDB500101FB5D22E071
:100DC000010EDBCFF9F1020EDBCFFAF1030EDBCF20
:100DD000FBF1070EE66E010EE66E66DDE552E552AA
:100DE00011D0016800C0E6FF01C0E6FF9A0EE66E72
:100DF000430EE66E000EE66EDEEC27F0026E050E88
:100E0000E15E0250050EE15C02E2E16AE552E16E4C
:100E1000E552E7CFD9FF1200D9CFE6FFE1CFD9FFE6
:100E20000A0EE1260101FC51040A01E169D20D0A12
:100E300001E1D4D1010A01E19FD10F0A01E158D1AA
:100E4000040A01E13AD1060A01E10CD1030A01E1E9
:100E5000EDD0040A57E0030A19E0010A01E0C8D204
:100E6000040EE66E010EE66E910EE66E430EE66E21
:100E7000000EE66E81EC24F0006E050EE15E00507F
:100E8000000901E0B5D20101010E8AD1040EE66E1F
:100E9000010EE66E880EE66E430EE66E000EE66EFE
:100EA00081EC24F0006E050EE15E0050000927E0A1
:100EB000160EE66EE66A040EE66E010EE66E710E22
:100EC000E66E430EE66E000EE66EC6EC24F0006E93
:100ED000070EE15E0050000901E08AD21A0EE66EAC
:100EE000010EE66ED60EE66E010EE66E61EC24F0A3
:100EF000E552E552E552E552000901E095D00101C5
:100F0000020E4ED1040EE66E010EE66E650EE66E22
:100F1000430EE66E000EE66E81EC24F0006E050EC8
:100F2000E15E0050000904E10101FC6B010E61D299
:100F3000040EE66E010EE66E550EE66E430EE66E8C
:100F4000000EE66E81EC24F0006E050EE15E0050AE
:100F5000000903E10101040E23D1040EE66E010E27
:100F6000E66E460EE66E430EE66E000EE66E81EC11
:100F700024F0006E050EE15E0050000903E101015E
:100F8000030E0ED1040EE66E010EE66E380EE66E0E
:100F9000430EE66E000EE66E81EC24F0006E050E48
:100FA000E15E0050000903E10101050EF9D0040ED5
:100FB000E66E010EE66E290EE66E430EE66E000E3C
:100FC000E66E81EC24F0006E050EE15E0050000933
:100FD00003E10101060EE4D0040EE66E010EE66E9A
:100FE0001B0EE66E430EE66E000EE66E81EC24F0FC
:100FF000006E050EE15E0050000903E10101080EDC
:10100000CFD0040EE66E010EE66E190EE66E430EAC
:10101000E66E000EE66E81EC24F0006E050EE15ED9
:101020000050000901E1E4D1010168D1040EE66E2F
:10103000010EE66E090EE66E430EE66E000EE66EDB
:1010400081EC24F0006E050EE15E0050000904E121
:101050000101FC6B020ECDD17B0E0101045D01E1AB
:10106000C7D14CD1040EE66E010EE66E090EE66E97
:10107000430EE66E000EE66E81EC24F0006E050E67
:10108000E15E0050000913E10101FC6B0A0E006EE5
:10109000016AC1C02CF0C2C02DF0316E01C032F027
:1010A0009BEC2AF02C50E66E84EC2AF09ED17B0E4D
:1010B0000101045D01E19CD121D1040EE66E010E17
:1010C000E66EF90EE66E420EE66E000EE66E81ECFE
:1010D00024F0006E050EE15E0050000903E10101FD
:1010E000070E5ED07B0E0101045D01E181D106D1C6
:1010F000040EE66E010EE66EEE0EE66E420EE66E33
:10110000000EE66E81EC24F0006E050EE15E0050EC
:10111000000904E10101FC6B030E6BD1040EE66EC5
:10112000010EE66EE10EE66E420EE66E000EE66E13
:1011300081EC24F0006E050EE15E0050000904E130
:101140000101FC6B040E55D1040EE66E010EE66E35
:10115000D50EE66E420EE66E000EE66E81EC24F0D1
:10116000006E050EE15E0050000904E10101FC6B18
:10117000050E3FD10101C2D0040EE66E010EE66EEF
:10118000C70EE66E420EE66E000EE66E81EC24F0AF
:10119000006E050EE15E0050000904E10101090E38
:1011A000FC6F26D1040EE66E010EE66EBC0EE66EF6
:1011B000420EE66E000EE66E81EC24F0006E050E27
:1011C000E15E0050000904E10101FC6B070E11D142
:1011D0007B0E0101045D01E10BD190D0040EE66E9F
:1011E000010EE66EAE0EE66E420EE66E000EE66E86
:1011F00081EC24F0006E050EE15E0050000901E173
:10120000F7D0080EE66EE66A040EE66E010EE66E94
:10121000A50EE66E420EE66E000EE66EC6EC24F0FB
:10122000006E070EE15E0050000967E10C0EE66EED
:10123000010EE66ED950020FE66E000EDA20E66E61
:1012400097EC24F0E552E552E552E552D950020FF1
:10125000E66E000EDA20E66EB8EC24F0E552E552B8
:10126000010EF3CFDBFF0001BE6BDF6ADFCF00F0C2
:10127000010EDB50E76E0018E8AE02D0E73402D072
:10128000E750005C19E20A0EBE03F3CFBEF0D9505E
:10129000020F006EDACF01F0DFCF02F0036A02BE68
:1012A000036800500224E96E01500320EA6EEF50FB
:1012B000D00FBE27DF2ADAD7BE51006E016AFF0EBB
:1012C000001806E1015004E1E668030EE66E0DD059
:1012D000BE51006E016AD89000360136D8900036B3
:1012E000013600C0E6FF01C0E6FF6AEC29F0E552D6
:1012F000E5520101FC6B060E7CD00101FC6B78D03D
:10130000080EE66EE66A040EE66E010EE66E9C0EB0
:10131000E66E420EE66E000EE66EC6EC24F0006E3F
:10132000070EE15E0050000963E10101FD050BE1DC
:10133000FD6BFE0EE66EE668130EE66EBBEC28F063
:10134000E552E552E5525CEC01F00C0EE66E010E42
:10135000E66ED60EE66E010EE66E97EC24F0E552D0
:10136000E552E552E552D60EE66E010EE66EB8EC99
:1013700024F0E552E552010EF3CFDBFFDF6ADFCF49
:1013800000F0010EDB50E76E0018E8AE02D0E73443
:1013900002D0E750005C13E2DFCFE9FFEA6AE9BE62
:1013A000EA68D60EE926010EEA22EF50E66EDFCF9C
:1013B000E6FF44EC29F0E552E552DF2AE0D7E66A81
:1013C000DFCFE6FF44EC29F0E552E552E1EC04F012
:1013D0000101FC6B010EFD6FFE0EE66EE668110E5C
:1013E000E66EBBEC28F0E552E552E552000E01D066
:1013F000FF0E006E0A0EE15C02E2E16AE552E16E68
:101400000050E552E7CFD9FF1200D9CFE6FFE1CF78
:10141000D9FFFE0EDB50040A1CE0050A0EE0030AA9
:1014200024E10101FF0EEA5DFF0EEB5903E2EA2B16
:10143000000EEB230001C08323D00101FF0EE85D05
:10144000FF0EE95903E2E82B000EE9230001C081F9
:1014500017D00101FF0EEC5DFF0EED5903E2EC2BFE
:10146000000EED230001C0850BD0860EE66E420E05
:10147000E66E000EE66EDEEC27F0E552E552E55230
:08148000E552E7CFD9FF12008D
:08148800929492868086809602
:101490000AEF10F0D9CFE6FFE1CFD9FF020EE12627
:1014A000010EDB6A800EDF6EDF50000812E2FE0ED6
:1014B000DB50DF1403E09286808602D092968096FD
:1014C000808400000000000000008094DF90DF4274
:1014D000EBD7928680868084000000000000000028
:1014E0008050080B01E0010EE76E010EE7CFDBFF35
:1014F0008094010EDB5000D0006E020EE15C02E22F
:10150000E16AE552E16E0050E552E7CFD9FF1200E3
:10151000D9CFE6FFE1CFD9FF020EE126010EDB6A4B
:1015200092868086800EDF6EDF50000810E2808495
:1015300080A607D0010EDB50DF10E76E010EE7CF6B
:10154000DBFF809400000000DF90DF42EDD7FE0E4D
:10155000DB5003E09296809602D09286808680844B
:101560000000000000000000809492868086010E3A
:10157000DB5000D0006E020EE15C02E2E16AE5524F
:10158000E16E0050E552E7CFD9FF120092868086C7
:101590008094000000000000000080840000000033
:1015A00000000000929680960000000000000000FD
:1015B0008094000000000000000080840000000013
:1015C00000000000928680860000000000000000FD
:1015D00080941200D9CFE6FFE1CFD9FFE652928680
:1015E00080860000000000000000809400000000E1
:1015F00000000000DF6A090EDF5C0CE2808400005E
:1016000000000000000080940000000000000000C6
:10161000DF2AF1D7BBDFE552E552E7CFD9FF120051
:10162000D9CFE6FFE1CFD9FFE652DF6AD3DF1E0E46
:10163000E66E30DFE552DF26DF50E552E552E7CFB8
:10164000D9FF1200D9CFE6FFE1CFD9FFE652DF6A1A
:101650009DDF070EE66E1EDFE552DF6E010EE66EC1
:1016600057DFE5520001B96FE66A52DFE55200012B
:10167000BA6FDF50E552E552E7CFD9FF1200D9CF5C
:10168000E6FFE1CFD9FFE652DF6A80DF060EE66EA5
:1016900001DFE552DF26FE0EDBCFE6FFFBDEE55283
:1016A000DF26DF50E552E552E7CFD9FF1200D9CF50
:1016B000E6FFE1CFD9FF050EE126DF6A67DFFE0E08
:1016C000DB50010A04E0010A07E1030E01D0050E18
:1016D000E66EE0DEE552DF26010EDB6A020EDB6A13
:1016E000010EDBCF00F0020EDBCF01F0026AD890D2
:1016F0000250000A06E6400E005C9C0E0158000EE7
:1017000002580DE280A60DD0040EE66EFFEC2AF022
:10171000E552010EDB2A020EE3E3DB2AE1D780B6B5
:10172000DF2A010EE66EF4DEE552E76E040EE7CF27
:10173000DBFF010EE66EECDEE552E76E030EE7CF4F
:10174000DBFF040EDB50006E016A016E006A030EBF
:10175000DB5000010024BB6F000E0120BC6FE66A65
:10176000D7DEE5520001BA6FDF50006E050EE15C76
:1017700002E2E16AE552E16E0050E552E7CFD9FF9F
:101780001200D9CFE6FFE1CFD9FF300EE126DE6AA5
:10179000DE6A800EDE6EC00EDD6EDD52DD52540E4E
:1017A000F36E040EF3CFDBFFE30EF36E050EF3CF03
:1017B000DBFF250EF36E060EF3CFDBFF3D0EF36E5F
:1017C000070EF3CFDBFFA20EF36E080EF3CFDBFFA5
:1017D000E70EF36E090EF3CFDBFF3B0EF36E0A0E3E
:1017E000F3CFDBFFB60EF36E0B0EF3CFDBFF0A0E6B
:1017F000F36E0C0EF3CFDBFFD70EF36E0D0EF3CFAF
:10180000DBFF230EF36E0E0EF3CFDBFF3C0EF36E09
:101810000F0EF3CFDBFFAC0EF36E100EF3CFDBFF3A
:10182000C50EF36E110EF3CFDBFFA70EF36E120E93
:10183000F3CFDBFF380EF36E130EF3CFDBFFD70EC3
:10184000F36E140EF3CFDBFFA30EF36E150EF3CF82
:10185000DBFF1E0EF36E160EF3CFDBFFC20EF36E30
:10186000170EF3CFDBFF0A0EF36E180EF3CFDBFF7C
:10187000D70EF36E190EF3CFDBFF230EF36E1A0EA5
:10188000F3CFDBFF3C0EF36E1B0EF3CFDBFFFD0E41
:10189000DBCFE9FFFE0EDBCFEAFF1C0EEECFDBFF56
:1018A0001D0EEECFDBFF1E0EEECFDBFF1F0EEECFC9
:1018B000DBFFFB0EDBCFE9FFFC0EDBCFEAFF200EE8
:1018C000EECFDBFF210EEECFDBFF220EEECFDBFFF4
:1018D000230EEECFDBFF140EDBCF00F0150EDBCFB7
:1018E00001F0160EDBCF02F0170EDBCF03F0200E57
:1018F000DBCF2BF0210EDBCF2CF0220EDBCF2DF037
:10190000230EDBCF2EF0180EDBCF30F0190EDBCF1D
:1019100031F01A0EDBCF32F01B0EDBCF33F0B9EC17
:101920001CF02BC004F02CC005F02DC006F02EC01A
:1019300007F02BC030F02CC031F02DC032F02EC09B
:1019400033F000C02BF001C02CF002C02DF003C01A
:101950002EF0D0EC1BF02C0E2BC0DBFF2D0E2CC07C
:10196000DBFF2E0E2DC0DBFF2F0E2EC0DBFF080E7F
:10197000DBCF2BF0090EDBCF2CF00A0EDBCF2DF0E6
:101980000B0EDBCF2EF01C0EDBCF30F01D0EDBCFAD
:1019900031F01E0EDBCF32F01F0EDBCF33F0B9EC8F
:1019A0001CF01C0EDBCF30F01D0EDBCF31F01E0E15
:1019B000DBCF32F01F0EDBCF33F0B9EC1CF02BC0C5
:1019C00004F02CC005F02DC006F02EC007F0040E68
:1019D000DBCF2BF0050EDBCF2CF0060EDBCF2DF08E
:1019E000070EDBCF2EF01C0EDBCF30F01D0EDBCF51
:1019F00031F01E0EDBCF32F01F0EDBCF33F0B9EC2F
:101A00001CF02BC008F02CC009F02DC00AF02EC02D
:101A10000BF02BC030F02CC031F02DC032F02EC0B6
:101A200033F004C02BF005C02CF006C02DF007C029
:101A30002EF0D0EC1BF02BC000F02CC001F02DC01C
:101A400002F02EC003F0D9CFE9FFDACFEAFFEECFE4
:101A50000CF0EECF0DF0EECF0EF0EFCF0FF00CC08C
:101A600030F00DC031F00EC032F00FC033F0D0ECCA
:101A70001BF0240E2BC0DBFF250E2CC0DBFF260E37
:101A80002DC0DBFF270E2EC0DBFF2C0EDBCF08F0B6
:101A90002D0EDBCF09F02E0EDBCF0AF02F0EDBCFA1
:101AA0000BF0306A316AC80E326E410E336E08C0D8
:101AB0002BF009C02CF00AC02DF00BC02EF0CFEC9B
:101AC0001BF02BC004F02CC005F02DC006F02EC07A
:101AD00007F00C0EDBCF10F00D0EDBCF11F00E0E69
:101AE000DBCF12F00F0EDBCF13F0100EDBCF2BF09D
:101AF000110EDBCF2CF0120EDBCF2DF0130EDBCF4F
:101B00002EF01C0EDBCF30F01D0EDBCF31F01E0EA1
:101B1000DBCF32F01F0EDBCF33F0B9EC1CF02BC063
:101B200014F02CC015F02DC016F02EC017F02BC0ED
:101B300030F02CC031F02DC032F02EC033F010C088
:101B40002BF011C02CF012C02DF013C02EF0D0ECF1
:101B50001BF02BC00CF02CC00DF02DC00EF02EC0D1
:101B60000FF02BC030F02CC031F02DC032F02EC061
:101B700033F004C02BF005C02CF006C02DF007C0D8
:101B80002EF0B9EC1CF02BC000F02CC001F02DC0E1
:101B900002F02EC003F0240EDBCF18F0250EDBCFB1
:101BA00019F0260EDBCF1AF0270EDBCF1BF018C082
:101BB00030F019C031F01AC032F01BC033F0D0EC55
:101BC0001BF0280E2BC0DBFF290E2CC0DBFF2A0EDA
:101BD0002DC0DBFF2B0E2EC0DBFF280EDBCF00F06D
:101BE000290EDBCF01F02A0EDBCF02F02B0EDBCF6C
:101BF00003F0306A316AC80E326E420E336E00C096
:101C00002BF001C02CF002C02DF003C02EF0A2EC8E
:101C10001DF0010A0EE1280EDB6A290EDB6AC80EF0
:101C2000F36E2A0EF3CFDBFF420EF36E2B0EF3CFD3
:101C3000DBFF280EDBCF00F0290EDBCF01F02A0EF0
:101C4000DBCF02F02B0EDBCF03F0CD0E306ECC0ECF
:101C5000316E326E3D0E336E00C02BF001C02CF0A1
:101C600002C02DF003C02EF0ABEC1DF0010A14E110
:101C7000CD0EF36E280EF3CFDBFFCC0EF36E290EE4
:101C8000F3CFDBFFCC0EF36E2A0EF3CFDBFF3D0E5E
:101C9000F36E2B0EF3CFDBFFFB0EDBCFE9FFFC0E69
:101CA000DBCFEAFF2C0EDBCFEEFF2D0EDBCFEEFFFE
:101CB0002E0EDBCFEEFF2F0EDBCFEEFFFD0EDBCFC8
:101CC000E9FFFE0EDBCFEAFF280EDBCFEEFF290E89
:101CD000DBCFEEFF2A0EDBCFEEFF2B0EDBCFEEFFCE
:101CE000300EE15C02E2E16AE552E16EE552E7CFD7
:101CF000D9FF1200D9CFE6FFE1CFD9FF080EE126C8
:101D0000390E046E280E056E290E066E3F0E076E04
:101D10002B6A2C6AF00E2D6E400E2E6EF70EDBCF66
:101D200030F0F80EDBCF31F0F90EDBCF32F0FA0EE7
:101D3000DBCF33F0B9EC1CF02BC00CF02CC00DF055
:101D40002DC00EF02EC00FF0CD0E146E4C0E156E81
:101D50006D0E166E430E176EF70EDBCF18F0F80EF1
:101D6000DBCF19F0F90EDBCF1AF0FA0EDBCF1BF048
:101D700018C030F019C031F01AC032F01BC033F077
:101D800014C02BF015C02CF016C02DF017C02EF08B
:101D9000D0EC1BF02BC010F02CC011F02DC012F0B5
:101DA0002EC013F02BC030F02CC031F02DC032F01B
:101DB0002EC033F00CC02BF00DC02CF00EC02DF057
:101DC0000FC02EF066EC1CF02BC008F02CC009F000
:101DD0002DC00AF02EC00BF02BC030F02CC031F01B
:101DE0002DC032F02EC033F004C02BF005C02CF013
:101DF00006C02DF007C02EF0D0EC1BF02BC000F079
:101E00002CC001F02DC002F02EC003F02BC0E6FF65
:101E10002CC0E6FF2DC0E6FF2EC0E6FFD950FB0F19
:101E2000E96EFF0EDA20EA6EEECFE6FFEECFE6FFB8
:101E3000EECFE6FFEFCFE6FF2AEC28F0E552E552C1
:101E4000E552E552E552E7CF03F0E552E7CF02F065
:101E5000E552E7CF01F0E552E7CF00F02AC020F0CD
:101E60002BC021F02CC022F02DC023F0306A316A43
:101E7000326A400E336E2AC02BF021C02CF022C0F3
:101E80002DF023C02EF0CFEC1BF02BC01CF02CC08B
:101E90001DF02DC01EF02EC01FF02BC030F02CC046
:101EA00031F02DC032F02EC033F000C02BF001C055
:101EB0002CF002C02DF003C02EF0D0EC1BF02BC094
:101EC000DEFF2CC0DEFF2DC0DEFF2EC0DDFFDD52A9
:101ED000DD52D9CFE9FFDACFEAFFEECF08F0EECF3F
:101EE00009F0EECF0AF0EFCF0BF0390E306E280E6E
:101EF000316E290E326E3F0E336E08C02BF009C0D2
:101F00002CF00AC02DF00BC02EF0CFEC1BF02BC034
:101F100004F02CC005F02DC006F02EC007F0CD0E49
:101F2000306E4C0E316E6D0E326E430E336EB9EC68
:101F30001CF02BC000F02CC001F02DC002F02EC010
:101F400003F0840E106E920E116E020E126E410E90
:101F5000136ED9CFE9FFDACFEAFFEECF14F0EECF60
:101F600015F0EECF16F0EFCF17F014C030F015C01B
:101F700031F016C032F017C033F010C02BF011C092
:101F80002CF012C02DF02E6ECFEC1BF02BC00CF0FD
:101F90002CC00DF02DC00EF02EC00FF02BC030F075
:101FA0002CC031F02DC032F02EC033F000C02BF029
:101FB00001C02CF002C02DF003C02EF066EC1CF026
:101FC000040E2BC0DBFF050E2CC0DBFF060E2DC060
:101FD000DBFF070E2EC0DBFF040EDBCF00F0050E8B
:101FE000DBCF01F0060EDBCF02F0070EDBCF03F0F4
:101FF00000C02AF001C02BF002C02CF003C02DF06D
:10200000080EE15C02E2E16AE552E16EE552E7CFDB
:10201000D9FF1200D9CFE6FFE1CFD9FF140EE12698
:10202000EAEC0AF0040EDB6A010EE66E57EC0BF0E8
:10203000E552006E040EDBCFE7FF0050E726040EEA
:10204000E7CFDBFFBBC0DEFFBCC0DDFFE66A57ECBD
:102050000BF0E552006E040EDBCFE7FF0050E726E1
:10206000040EE7CFDBFF020EBBC0DBFF030EBCC0DC
:10207000DBFF040EDB5003E0EAEC0AF0C8D0000EF0
:10208000DFCF2CF0010EDBCF2DF0BAEC1BF0080EE9
:102090002BC0DBFF090E2CC0DBFF0A0E2DC0DBFFBF
:1020A0000B0E2EC0DBFF020EDBCF2CF0030EDBCFBE
:1020B0002DF0BAEC1BF00C0E2BC0DBFF0D0E2CC06C
:1020C000DBFF0E0E2DC0DBFF0F0E2EC0DBFFD95045
:1020D0000C0FE66E000EDA20E66ED950080FE66EA1
:1020E000000EDA20E66EC1EC0BF0E552E552E55247
:1020F000E552D9500C0FE96EDACFEAFFEECFE6FFDA
:10210000EECFE6FFEECFE6FFEFCFE6FFD950080FA8
:10211000E96EDACFEAFFEECFE6FFEECFE6FFEECFD5
:10212000E6FFEFCFE6FFE6DD006E080EE15E005051
:10213000100E2AC0DBFF110E2BC0DBFF120E2CC0CD
:10214000DBFF130E2DC0DBFF080EDBCF00F0090E06
:10215000DBCF01F00A0EDBCF02F00B0EDBCF03F07A
:10216000306A316A326A3F0E336E00C02BF001C014
:102170002CF002C02DF003C02EF0D0EC1BF04CEC84
:102180001DF02DC0B4F00C0EDBCF00F00D0EDBCF38
:1021900001F00E0EDBCF02F00F0EDBCF03F0306A42
:1021A000316AC80E326E420E336E00C02BF001C091
:1021B0002CF002C02DF003C02EF0B9EC1CF073EC33
:1021C0001DF02CC0B5F02DC0B6F0100EDBCF00F026
:1021D000110EDBCF01F0120EDBCF02F0130EDBCFBE
:1021E00003F0306A316AC80E326E420E336E00C0A0
:1021F0002BF001C02CF002C02DF003C02EF0B9EC82
:102200001CF073EC1DF02CC0B7F02DC0B8F0040E1C
:10221000DB50006E140EE15C02E2E16AE552E16E11
:102220000050E552E7CFD9FF1200B5C0F3FFB6C0AA
:10223000F4FF1200B7C0F3FFB8C0F4FF12000001B2
:04224000B451120083
:0C2244005EEC16F0FB0EDBCFF3FFDB06B8
:10225000F35000090AE0ACEC16F0FA0E17EC17F098
:10226000F3E1011CF1E1010E01D0000E8DEF16F03B
:102270005EEC16F03B0EE12402E3E168E652E16E0B
:10228000010EDB6A020EDB6AF90EDBCFF6FFFA0EF7
:10229000DBCFF7FFFB0EDBCFF8FF0800F550DF6E5A
:1022A000DF5002E1B1EF15F0250EDF5C02E0A4EF94
:1022B00015F0030EDB6A040EDB6A050EDB6A060E00
:1022C000DB6A070EDB6AC6EC15F02D0EDF5C0CE056
:1022D0002B0EDF5C09E0200EDF5C06E0230EDF5CE6
:1022E00003E0300EDF5C1AE1DF50300A14E0130A1D
:1022F0000FE0030A0AE00B0A05E0060AE4E1030E18
:10230000DB80E1D7030EDB82DED7030EDB84DBD775
:10231000030EDB86D8D7030EDB88D5D72A0EDF5C09
:102320001BE1C2EC15F010EC16F010E0030EDB80A0
:102330002C682D68130EDBCF31F0140EDBCF32F09A
:102340008FEC1EF0040E2AC0DBFF03D0130EF9EC55
:1023500015F0C6EC15F00BD0090EDB6A67EC16F031
:1023600003E0DBEC16F0FAD7090EF9EC15F0030EDA
:10237000DBB0DB982E0EDF5C1BE1C6EC15F02A0EFD
:10238000DF5C0BE1C2EC15F010EC16F003E1130E6C
:102390004BEC16F0C6EC15F00BD0090EDB6A67ECBF
:1023A00016F003E0DBEC16F0FAD7090E4BEC16F052
:1023B000680EDF5C07E1C6EC15F0680EDF5C1DE11E
:1023C000030E18D0740EDF5C17E07A0EDF5C14E0A9
:1023D000480EDF5C06E0540EDF5C03E05A0EDF5C63
:1023E00002E1020E07D06C0EDF5C03E06A0EDF5CD8
:1023F00004E1010E9EEC16F0C9DBDF506E0A01E12C
:102400007FD31E0A01E192D1200A01E18FD13F0A58
:1024100001E149D11A0A01E146D10D0A01E143D196
:10242000200A01E140D13A0A01E13DD1200A01E14F
:102430003AD1260A01E135D10D0A01E132D11A0A59
:1024400001E1D9D0200A4AE0300A1FE0460A0EE036
:10245000250A01E083D3D950F90FE96EFF0EDA2087
:10246000EA6E010EEE5E000EEE5AEE5AACEC16F07D
:10247000250EE66E95DB03E1011C01E169D3A8ECB2
:1024800016F001E26BD3DB2A69D3080EDB6A040E77
:10249000DB50010806E2040EDB0470EC16F0DB50A2
:1024A0008BDB080EDB5009E0030EDB50010B05E16E
:1024B00072DB01E04DD3080EDB6A64DBEFCFDFFF98
:1024C00020EC17F003E1011C01E142D3A8EC16F067
:1024D00001E3DB2A60DB01E141D33AD3070EDB5095
:1024E00002080FE1ECEC16F0030EB3EC16F00E0E42
:1024F000EECFDBFF0F0EEECFDBFF100EEECFDBFFDC
:1025000020D0F70EDBCF03F0F80EDBCF04F0020E85
:10251000035E000E045AF70E03C0DBFFF80E04C082
:10252000DBFF03C0E9FF04C0EAFFA3EC16F0026A78
:102530000E0E00C0DBFF0F0E01C0DBFF100E02C04D
:10254000DBFF0E0EDBCFE6FF0F0EDBCFE6FF100E3C
:10255000DBCFE6FFE7EC24F0E552E552E552130E3F
:102560002BC0DBFF140E2CC0DBFF060EDB5005E09A
:10257000130EE7EC16F001E26ADB0BEC17F002E257
:10258000130E37DBCEEC16F006E0040EE7EC16F087
:1025900002E2050E2EDB030EDBB005D0FCDA01E013
:1025A000D7D2080EDB6A090EDB6A0E0EDBCFF6FF10
:1025B0000F0EDBCFF7FF100EDBCFF8FF0800F55052
:1025C000DF6EDF5014E011EC17F011E220EC17F091
:1025D00003E1011C01E1BCD2BBDB01E3DB2A090EF4
:1025E000DB2AD9500E0FE96E000ECBDBE7D7D3DA2A
:1025F00001E1B4D2ADD2C6DA110EEECFDBFF120E7E
:10260000EDCFDBFF110EDBCFE6FF120EDBCFE6FFD7
:10261000B8EC24F0E552E552130EF3CFDBFF140EB5
:10262000F4CFDBFF060EDB5004E0130ED0DB01E23B
:102630000EDB0BEC17F002E2130EDBDAAFDB05E08A
:10264000040EC5DB02E2050ED4DA030EDBB005D0C2
:10265000A2DA01E07DD2080EDB6A090EDB6A110EF8
:10266000DBCFE9FF120EDBCFEAFFEFCFDFFFDF505A
:1026700014E0D7DB12E2E4DB03E1011C01E168D2E4
:1026800067DB01E3DB2A090EDB2A110EDB2ADBCF35
:10269000E9FF120EE8E3DB2AE6D77DDA01E15ED23C
:1026A00057D2030EDB8E070EDB0410E195DB040E20
:1026B0005ADB0A0EEECFDBFF0B0EEECFDBFF0C0E6C
:1026C000EECFDBFF0D0EEECFDBFF6CD0070EDB5045
:1026D00003082CE1030EDBAE0DD0B2DA020E76DA7F
:1026E000EFCF00F0016A026A036A00AE39D00168D8
:1026F000026835D0F70EDBCF01F0F80EDBCF02F029
:10270000020E015E000E025AF70E01C0DBFFF80E4A
:1027100002C0DBFF01C0E9FF02C0EAFFEFCF00F01B
:102720000A0E00C0DBFF0B0EDB6A38D0070EDB5051
:10273000020809E1030EDBAE04D059DB02AE10D073
:102740000ED055DB0DD0030EDBAE12D079DA020EBF
:102750003DDAF9DA026A036A01AE02D00268036860
:10276000E2DA0C0E02C0DBFF0D0E03C0DBFF1AD055
:10277000F70EDBCF02F0F80EDBCF03F0020E025EA5
:10278000000E035AF70E02C0DBFFF80E03C0DBFF9A
:1027900002C0E9FF03C0EAFFD6DAC5DA0C0EDB6A35
:1027A0000D0EDB6A060EDB5005E1010EF36E050E21
:1027B000F3CFDBFF150EDB6A160EDB6AD950370F3D
:1027C000006E000EDA20016E390E00C0DBFF3A0EFB
:1027D00001C0DBFF380EDB6A080EDB6A0A0EAEDAD8
:1027E000DF50780A12E0200A10E0280A0CE0200AE4
:1027F0000AE03F0A06E00D0A02E0200A08E1020EA4
:1028000005D0080E03D0080EDF26100E97DA030E4F
:10281000DBBE02D0DB92DB94DB50800B24E08ADA53
:10282000D890030EEB50000A08E6000EEE5C000E96
:10283000EE58000EEE58000EEE5815E213DA2F682F
:10284000306831683268FDEC28F00A0E26C0DBFFE4
:102850000B0E27C0DBFF0C0E28C0DBFF0D0E29C0BE
:10286000DBFF2D0E08D0030EDBA202D02B0E03D00F
:10287000DBA408D0200EF36E170EF3CFDBFF150E8E
:10288000DB2A02D0170EDB6A050EDB5003E1B7D955
:1028900001E189D0300E006E560E016E000E026E00
:1028A000070EDBCF03F0046A056A066A03C02FF047
:1028B00004C030F005C031F006C032F0D3D999EC35
:1028C00029F000502624F36E01502720F46E0250A8
:1028D0002820F86EF4CFF7FFF3CFF6FF0800090EBB
:1028E000F5CFDBFF580EDF5C0FE1610EF36E090ED2
:1028F0007BD90AE3200E006E090EDBCFE7FF005004
:10290000E75E090EE7CFDBFF070EDBCF00F0016AC1
:10291000026A036A0FDA00C02FF001C030F002C073
:1029200031F003C032F0EECF2AF0EECF2BF0EECF35
:102930002CF0EFCF2DF099EC29F02DC0EDFF2CC03D
:10294000EDFF2BC0EDFF2AC0EFFF390EDBCFE9FF13
:10295000DB063A0EDBCFEAFF01E2DB06090EDBCF36
:10296000EFFF150EDB2A4BD995E1030EDBA61DD038
:102970006F0EDF5C06E1C1D918E3150EDB285BDAC8
:1029800014D0780EDF5C09E0580EDF5C06E0620EC2
:10299000DF5C03E0420EDF5C08E1020EF36E160E10
:1029A000F3CFDBFF02D0150EDB6A030EDB50100BFA
:1029B0000EE0040EDBCF00F0050EDB50D880005493
:1029C00006E2060EDB5003E1040EDB5034DA95D943
:1029D0000AE2050EDBCFE7FF150EDB50E75E050EC2
:1029E000E7CFDBFF02D0050EDB6A040EDBCF00F081
:1029F000160E45D9D880005414E2160EDBCFE6FF40
:102A0000150EDBCFE6FF040EDBCFE6FF050EDB5035
:102A1000E552E75CE552D880E754E552D880E754A8
:102A20005FD9030EDB50010B0BE1080EDB5008E011
:102A3000B2D801E08DD0080EDB50BED8080EDB6A9C
:102A4000170EDB5007E088D9170EF1D903E1011CFE
:102A500001E17ED0160EDB5016E07ED9300EE66E18
:102A60009FD802E1011C74E077D9DFCFE6FFBBEC11
:102A700028F0E552E552E552F4CF01F00001F31CD5
:102A800002E1011C65E0050EDBCF00F0160EDB5005
:102A9000D880005409E2050EDBCFE7FF160EDB50AD
:102AA000E75E050EE7CFDBFF300EE66E050ECBD9F5
:102AB0004FE1390EDB2ADBCFE9FF3A0E01E3DB2AD7
:102AC000DBCFEAFF090EEFCFDBFFDB500EE044D98E
:102AD000090EADD902E1011C3BE0390EDB2ADBCF48
:102AE000E9FF3A0EEDE3DB2AEBD755D831E1160EBC
:102AF000DBCFE6FF080EC3D8E552E7245DD82ED021
:102B0000070EDB50030A1CE0010A14E0030A07E089
:102B10007BD9DBCFEEFF020EDBCFEDFF1FD0F5D868
:102B2000056A03AE02D0046805682CD8BCD805C07D
:102B3000EEFF14D0EAD803BE046824D8B4D80ED06F
:102B400063D9DBCFEFFF0AD07BD905E1011C03E19C
:102B5000F368F46810D0FCD801E3DB2A79D94DEF93
:102B600011F0010EDBCF00F0020EDBCF01F000C050
:102B7000F3FF01C0F4FF3B0EE15C02E2E16AE552C3
:102B8000E16ECBD029D9020EB3EF16F061D908005F
:102B9000F550DF6E1200200EE66E080E23EF17F0E0
:102BA000BBEC28F0E552E552E552F3CF00F0F4CF4C
:102BB00001F00001F31C1200006E016AD950010FF0
:102BC0004DD90050EE260150ED221200045E000E99
:102BD000055AF70E04C0DBFFF80E05C0DBFF04C08A
:102BE000E9FF05C0EAFF1200DBCFF4FFF350F45C0D
:102BF0001200DB50E76E040EE7CFDBFF12000A0E77
:102C0000DBCF00F00B0EDBCF01F00C0EDBCF02F0C0
:102C10000D0EDBCF03F00050011002100310120064
:102C2000130EEECFDBFF140EEDCFDBFF130EDBCF69
:102C300000F0140EDBCF01F00001800E0114120031
:102C4000F70EDBCF04F0F80EDBCF05F01200050E17
:102C5000DB50E66ED950130F01D9E552E750EE6E06
:102C6000ED6A12000A0EDBCF2AF00B0EDBCF2BF041
:102C70000C0EDBCF2CF00D0EDBCF2DF01200DBCFD6
:102C8000E6FF150EDBCFE6FF050EDB50E552E7242D
:102C9000E552E7241200DB50CED8010EF36E060E8B
:102CA000F3CFDBFF1200EE50EFCFEAFFE96E02C078
:102CB000EEFF03C0EEFF04C0EEFF1200D9CFE6FF27
:102CC000DACFE6FFE1CFD9FFE2CFDAFF1200DFCFA4
:102CD000E6FFE66AB1EC2AF0E552E552F350120045
:102CE000E76E080EE7CFDBFF1200EECF00F0EECF6D
:102CF00001F0EFCF02F0036A1200050EDBCF00F007
:102D0000150EDB50D88000541200010EDBCF02F00C
:102D1000020EDBCF03F0046A1200E552E5CFDAFFC2
:102D2000E7CFD9FF12000A0E00C0DBFF0B0E01C077
:102D3000DBFF1200D9500A0F2EEF17F0F36E070ECB
:102D4000F3CFDBFF1200EECF00F0EFCF01F0120067
:102D5000010EDB2A020E1200FC0EDBCFE6FFFD0E99
:102D6000DBCFE6FF1200005E000E015AF70E00C036
:102D7000DBFFF80E01C0DBFF00C0E9FF01C0EAFF86
:102D80001200DA20EA6EEF2AEECFF6FF000EEF22F5
:102D9000EECFF7FFEF22EECFF8FF1200040EDBCFED
:102DA000E6FF130EDB50E552E75C9ADFDB5004DFF1
:102DB000060EDB501200090EDB500A0DF350DF2423
:102DC000D00FE76E090EE7CFDBFFC6EF15F0DB5043
:102DD000F36E050EF4EF15F0F70EDBCF00F0F80EF2
:102DE000DBCF01F01200DFCFE6FFD0EF15F028DFD8
:102DF000030EECDE75EF16F022EC11F0E552E55211
:102E0000E552E55200091200BDDEEE50EFCFEAFFB9
:102E1000E96E010E1200130EDB50F36E040EF4EF98
:102E200015F0040EDB50F36E090EF4EF15F0DBCF56
:102E3000E6FFD0EF15F0E76E050EE7CFDBFF1200DF
:102E40008BDFF3EF16F0DBCFE6FF86DFFCEF16F04B
:102E5000D950F90FE96EFF0EC1EF16F0E96E000EC2
:062E6000DA20EA6E120008
:0A2E660080909290300EE66EFFECB3
:102E70002AF0E5529280080EE66EFFEC2AF0E55249
:102E800080B0010C200EE66EFFEC2AF0E552000C3B
:102E9000D9CFE6FFE1CFD9FF80909290010EE66E88
:102EA0000DEC2BF0E552FE0EDB5005E1300EE66E28
:102EB0000DEC2BF0E5529280080EE66E0DEC2BF037
:102EC000E552FE0EDB0405E1300EE66E0DEC2BF054
:102ED000E552E552E7CFD9FF1200D9CFE6FFE1CFA7
:102EE000D9FFE652DF6A80909290010EE66E0DECFB
:102EF0002BF0E5529280080EE66E0DEC2BF0E552B9
:102F00008050010BDF6E280EE66E0DEC2BF0E552C3
:102F1000DF50E552E552E7CFD9FF1200D9CFE6FFE7
:102F2000E1CFD9FFE652DF6ADFCF00F0080EE76E8F
:102F30000018E8AE02D0E73402D0E750005C12E29D
:102F4000FE0EDBA003D0010EE66E01D0E66AA0DF24
:102F5000E552FE0EDB407F0BE76EFE0EE7CFDBFF98
:102F6000DF2AE2D7E552E552E7CFD9FF1200D9CFE9
:102F7000E6FFE1CFD9FF030EE126DF6A010EDB6A2F
:102F8000020EDB6ADFCF00F0080EE76E0018E8AE35
:102F900002D0E73402D0E750005C13E29EDFE76E18
:102FA000020EE7CFDBFF010EDB407F0BE76E010E69
:102FB000E7CFDBFF020EDB5002E0010EDB8EDF2AE3
:102FC000E1D7010EDBCFE6FF12D8E552010EDB5050
:102FD000006E030EE15C02E2E16AE552E16E005030
:102FE000E552E7CFD9FF12000001CA6B1200D9CF1A
:102FF000E6FFE1CFD9FFE652FE0EDB500001CA1911
:10300000DF6E720E006E4D0E016E000E026EDFCF8F
:1030100003F0046A056A00500324F36E0150042093
:10302000F46E02500520F86EF4CFF7FFF3CFF6FFF1
:103030000800F5CFCAF0E552E552E7CFD9FF1200FC
:103040000001CB511200D9CFE6FFE1CFD9FFFE0E30
:10305000DBCFCBF0E552E7CFD9FF1200D9CFE6FFA7
:10306000E1CFD9FFE652DF6ABE0EE66E57DFE552CA
:10307000BBDFDFCF00F0090EE76E0018E8AE02D02C
:10308000E73402D0E750005C10E271DFE66EDFCF7C
:10309000E9FFEA6AE9BEEA68600EE926000EEA2264
:1030A000E552E750EF6EDF2AE4D70001CA51E5523E
:1030B000E552E7CFD9FF12005ADF000901E1010C08
:1030C000000CD1DECC0EE66E29DFE5520A0EE66E6C
:1030D000C3EC2AF0E552440EE66E20DFE552120002
:1030E000D9CFE6FFE1CFD9FFE652DF6AE5DF00097D
:1030F0000BE01F0EE66EC3EC2AF0E552DF2AFF0E4E
:10310000DF5CF4E1010E01D0000EE552E552E7CF9D
:10311000D9FF1200D9CFE6FFE1CFD9FF070EE12694
:10312000020EDB6A030EDB6A040EDB6A050EDB6847
:103130000001726B98DE00096FE1F00EE66EEEDEC4
:10314000E552040EDB6ADBCF00F0080EE76E0018D4
:10315000E8AE02D0E73402D0E750005C01E382D051
:10316000060EDB6A030EDB6ADBCF00F0080EE76EAB
:103170000018E8AE02D0E73402D0E750005C62E20B
:10318000ACDEDF6EAADEE76E010EE7CFDBFFDF50BD
:103190003EE1010EDB503BE1020EDB50E76E050E17
:1031A000E7CFDBFFDBCF00F000017151E76E0018C5
:1031B000E8AE02D0E73402D0E750005C1AE2040E19
:1031C000DBCFE9FFEA6AE9BEEA68690EE926000E8C
:1031D000EA22EF500CE0010EF36E030EDB5004E028
:1031E000D890F336E806FCE1F350000906E1DF6A07
:1031F00015D0050EDB50715D03E1010EDF6E0ED0C0
:10320000DF6A050EDBCF71F0010E726F07D0DF5061
:1032100005E0010EDB5002E0010E4AD0060EDB4055
:103220007F0BE76E060EE7CFDBFFDF5002E0060EF6
:10323000DB8EDFCFE6FF2CDEE552020EDB2A030E2B
:10324000DB2A92D7040EDBCFE9FFEA6AE9BEEA681F
:10325000690EE926000EEA22060EDBCFEFFF040E10
:10326000DB2A71D7C1DE040EDB6ADBCF00F0080E6B
:10327000E76E0018E8AE02D0E73402D0E750005CF9
:1032800011E2040EDBCFE9FFEA6AE9BEEA68690EE3
:10329000E926000EEA22EF50E66EA9DEE552040EA2
:1032A000DB2AE3D70001CA5102E0CA5101D0000E67
:1032B000006E070EE15C02E2E16AE552E16E005049
:1032C000E552E7CFD9FF1200D9CFE6FFE1CFD9FF12
:1032D000030EE126010EDB6AE66AB5DEE552000167
:1032E0007169010E726FBFDD000902E0010E55D059
:1032F000000172514CE00EDFDF6EDF5002E0DF5064
:103300004CD0020EDB6ADBCF00F0080EE76E00182F
:10331000E8AE02D0E73402D0E750005C35E2020E9E
:10332000DBCFE9FFEA6AE9BEEA68690EE926000E2A
:10333000EA22EF50E66E010EDBCFE9FFEA6AE9BE52
:10334000EA680B0EEA02F3CFEAFFE902F3CFE9FFE6
:10335000F450EA26730EE926000EEA22E9CF00F0C7
:10336000EACF01F0020EDBCF02F0036A02BE03686F
:1033700000500224E96E01500320EA6EE552E75046
:10338000EF6E020EDB2ABFD7010EDB2AB1D7010E8A
:10339000DBCFE6FF58DEE552000E006E030EE15C67
:1033A00002E2E16AE552E16E0050E552E7CFD9FF53
:1033B0001200D9CFE6FFE1CFD9FF040EE126FE0EC1
:1033C000DBCF00F000C0E6FF3BDEE552E7CF00F0C8
:1033D000D880005402E2010E8BD0FE0EDB500B0DA4
:1033E000F3CFE9FFF4CFEAFF730EE926000EEA22DD
:1033F0000A0EE926000EEA22EF6A35DD550EE66E6A
:103400008DDDE552DF6A080EDF5C1FE2FE0EDB5049
:103410000B0DF3CFE9FFF4CFEAFF730EE926000EA0
:10342000EA22E9CF00F0EACF01F0DF500F01E924F2
:10343000E96E000EEA20EA6E010EEFCFDBFFDBCF74
:10344000E6FF6CDDE552DF2ADED708DE000902E088
:10345000020E4ED000016151E66ED950020FE96EA6
:10346000DACFEAFFE552E750EE6EED6A020EDBCFEF
:1034700000F0030EDBCF01F000C001F0006A020E85
:1034800000C0DBFF030E01C0DBFF6051006E016A6C
:10349000D950020FE96EDACFEAFF0050EE26015054
:1034A000ED22FE0EDB500B0DF3CFE9FFF4CFEAFF68
:1034B000730EE926000EEA22080EE926000EEA2223
:1034C000020EDBCFEEFF030EDBCFEDFFFE0EDB5077
:1034D0000B0DF3CFE9FFF4CFEAFF730EE926000EE0
:1034E000EA220A0EE926000EEA22010EEF6E000E15
:1034F000006E040EE15C02E2E16AE552E16E00500A
:10350000E552E7CFD9FF1200D9CFE6FFE1CFD9FFCF
:10351000150EE126130EDB6AD4DDE2DD00091AE1A7
:10352000130EDBCF00F000C0E6FF8ADDE552E7CFE7
:1035300000F0E76E0018E8AE02D0E73402D0E750A2
:10354000005C08E2130EDBCFE6FF33DFE552130E1B
:10355000DB2AE6D7150EE15C02E2E16AE552E16E94
:10356000E552E7CFD9FF120064EF19F0D9CFE6FF9B
:10357000E1CFD9FFFE0EDBCF00F000C0E6FF60DD3B
:10358000E552E7CF00F0D880005402E2FE0EDB6A7D
:10359000FE0EDB500B0DF3CFE9FFF4CFEAFF730E05
:1035A000E926000EEA22EECF00F0EECF01F0EECFDA
:1035B00002F0EECF03F0EECF04F0EECF05F0EECF49
:1035C00006F0EECF07F0EECF08F0EECF09F0EFCF28
:1035D0000AF0D9CFE9FFDACFEAFFED50ED500AC08B
:1035E000EDFF09C0EDFF08C0EDFF07C0EDFF06C00D
:1035F000EDFF05C0EDFF04C0EDFF03C0EDFF02C00D
:10360000EDFF01C0EDFF00C0EFFFE552E7CFD9FFAE
:103610001200D9CFE6FFE1CFD9FFFE0EDBCF00F0DD
:1036200000C0E6FF0DDDE552E7CF00F0D880005482
:1036300002E2FE0EDB6AFE0EDB500B0DF3CFE9FF5C
:10364000F4CFEAFF730EE926000EEA22080EE926FF
:10365000000EEA22EECF00F0EFCF01F000C0F3FF42
:1036600001C0F4FFE552E7CFD9FF1200D9CFE6FF42
:10367000E1CFD9FFE652DF6ADFCF00F0080EE76E38
:103680000018E8AE02D0E73402D0E750005C2BE22D
:10369000FE0EDB500B0DF3CFE9FFF4CFEAFF730E04
:1036A000E926000EEA22E9CF00F0EACF01F0DFCFF1
:1036B00002F0036A02BE036800500224E96E015062
:1036C0000320EA6EEF50E66EE66A810EE66E420E69
:1036D000E66E000EE66EDEEC27F0046E050EE15E8F
:1036E0000450DF2AC9D7FE0EDB500B0DF3CFE9FFE4
:1036F000F4CFEAFF730EE926000EEA220A0EE9264D
:10370000000EEA22EF50E66EE66AFE0EDB500B0D6D
:10371000F3CFE9FFF4CFEAFF730EE926000EEA22A9
:10372000080EE926000EEA22EECFE6FFEFCFE6FF15
:10373000720EE66E420EE66E000EE66EDEEC27F0CE
:10374000006E070EE15E0050E552E552E7CFD9FF6B
:02375000120065
:0E375200259E05D0259E2DAE02D02D6C258E15
:103760002DC027F0266A376A366A860E286E296AC7
:1037700025EF1EF0259E08D0259E2DAE05D02C6C81
:103780002D1EE86A2D22258E2DC027F02CC026F094
:10379000376A366A8E0E286E296A25EF1EF0337E50
:1037A000256A61EC1EF079EC1EF025B609EF1EF0DB
:1037B00025A20AD025AA03D025BE09EF1EF025A414
:1037C00015EF1EF012EF1EF025AA05D025AC15EF5F
:1037D0001EF012EF1EF025A00AD025A808D025BEA5
:1037E00004D025A402D01EEF1EF022EF1EF0366A90
:1037F000296A33502E5C356E10E32BC037F02CC095
:1038000026F02DC027F02EC034F030C02BF031C090
:103810002CF032C02DF0253A09D030C037F031C03D
:1038200026F032C027F033C034F0356C259E25BC1D
:10383000258E34C028F025B051EF1EF01A0E3560E9
:1038400051EF1EF0286A2E6A25A408D02B6C2C1E7E
:103850002D1E2E1EE86A2C222D222E2225AC08D0E9
:10386000376C261E271E281EE86A262227222822B9
:103870002A6A355207E02E342D322C322B322A326E
:10388000352EF9D72B5037262C5026222D502722A3
:103890002E5028222AC036F0259E28AE0BD0366C3A
:1038A000371E261E271E281EE86A372226222722B8
:1038B0002822258E28A006D0D880273226323732FB
:1038C0003632342A34C028F025EF1EF0256A61EC28
:1038D0001EF079EC1EF025B609EF1EF025A205D0EA
:1038E00025BA09EF1EF010EF1EF025BA1CEF1EF0EE
:1038F00025A005D025B809EF1EF01CEF1EF025B855
:1039000010EF1EF0296A7F0E2E24286EE86A292205
:103910003350285EE86A295A1A0E346E2E6A366AC7
:10392000376A266A276A30502B5E31502C5A325043
:103930002D5A000E2E5A09E730502B2631502C22DA
:1039400032502D22000E2E2201D0368AD8902B36EE
:103950002C362D362E36D890363637362636273644
:10396000342EE1D72D502C102B10D8A4368A25EFF9
:103970001EF0256A61EC1EF079EC1EF025B609EF09
:103980001EF025A205D025B809EF1EF010EF1EF09D
:1039900025AA05D025B009EF1EF010EF1EF025B0C6
:1039A00002D025A802D01CEF1EF0296A33502E2425
:1039B000286EE86A29227E0E285EE86A295A366A4D
:1039C000376A266A276A32502D02F4CF27F0F3CFE8
:1039D00026F031502D02F3503726F4502622000EE7
:1039E000272232502C02F3503726F4502622000EA4
:1039F000272230502D02F3503626F4503722000E85
:103A00002622272231502C02F3503626F45037223A
:103A1000000E2622272232502B02F3503626F45075
:103A20003722000E2622272230502C02F450362650
:103A3000000E37222622272231502B02F450362640
:103A4000000E37222622272225EF1EF0246A32AEEE
:103A50002FEF1DF0316C321EE86A3222241E2DAE8B
:103A600037EF1DF02C6C2D1EE86A2D22241E9BECD6
:103A70002AF02DBE47EF1DF024AE000C2C6C2D1E3D
:103A8000E86A2D22286C291EE86A2922000C24BE2F
:103A90003EEF1DF02588FF0C256A61EC1EF025B66F
:103AA00056EF1DF025A20AD025B403D07F0E2D6E4F
:103AB00019D0800E2D6E16D02D6A14D025B0FCD7EB
:103AC000870E2E60F1D77E0E2E64F6D7860E2E5C02
:103AD00004E0D8902D322E2AF9D725A403D02D6CDE
:103AE0002DAEEAD71200256A61EC1EF025B67DEFF7
:103AF0001DF025A20ED025B405D07F0E2D6EFF0E31
:103B00002C6E1FD0800E2D6E2C6A1BD02D6A2C6A55
:103B100018D025B0FBD78F0E2E60EDD77E0E2E6409
:103B2000F5D78E0E2E5C05E0D8902D322C322E2A41
:103B3000F8D725A406D02C6C2D1EE86A2D222DAEB8
:103B4000E5D71200B4EC1DF025B6000C25B0000C32
:103B500025B4000C010CB4EC1DF025B6000C25B00A
:103B6000000C25A4000C010C256A61EC1EF079EC18
:103B70001EF025B6120025AE08D025A004D025A839
:103B800002D0258012002590120033502E5C0BE1EC
:103B900032502D5C08E131502C5C05E130502B5C3B
:103BA00002E125801200D8A002D0258E10D02E5020
:103BB00033C02EF0336E2D5032C02DF0326E2C50AB
:103BC00031C02CF0316E2B5030C02BF0306E3350A2
:103BD0002E5C10E0FF0F09E0259025B403D025AE40
:103BE0002584120025AE25941200332AD890323253
:103BF0003132303230502B5E31502C5A32502D5AE7
:103C00002DBEEAD7D8902B362C362D362E2EF8D74F
:103C1000C8D77F0E2E6EFF0E2D6E2C6E2B6E1200EF
:103C20007F0E25BEFF0E2E6E02D07F0E2E6E800EF2
:103C30002D6E2C6A2B6AF3D725AE04D0800E2E6E23
:103C40002D6AF7D72E6A2D6AF4D727502610371021
:103C50003610F8E029BEF0D727BE0CD02850291026
:103C6000EBE0D89036363736263627362806D8A0E9
:103C70002906F2D72950D4E12828D2E036AE11D057
:103C80007F0E361402E137A00CD0372AE86A2622CC
:103C9000272207E3D880273226323732282A2828DD
:103CA000BFE02850C9E037C02BF026C02CF02734E5
:103CB0002D6E28302E6E2D322E9E25BE2E8E0FEFAD
:103CC0001EF02D362E3602E32584257E06E1258062
:103CD0002E6A2D6A2C6A2B6A12002E2803E0D880E7
:103CE0002D321200D8902D3202E125821200258655
:103CF00012003236333602E3258C257E06E1258814
:103D0000336A326A316A306A1200332803E0D8809D
:103D100032321200D8903232EAE1258A12002DC0E8
:103D200037F02CC036F02C503102F4CF2BF0F3CF0B
:103D30002AF02D503202F4CF2DF0F3CF2CF03102C7
:103D4000F3502B26F4502C22E86A2D2236503202F2
:103D5000F3502B26F4502C22E86A2D2232AEB5EF18
:103D60001EF036502C5E37502D5A37AE000C3150B5
:083D70002C5E32502D5A000CAC
:083D7800D9CFE6FFDACFE6FF28
:103D8000E1CFD9FFE2CFDAFF260EE12402E3E168BA
:103D9000E652E16ED950050FE1D99EEC25F0006E98
:103DA000060EE15C02E2E16AE552E16E0050DF6E70
:103DB000800EDF5C05E00B0EDB5012E0DF0410E04C
:103DC000210E0101FE6FFF6B010EDB68020EDB6846
:103DD000030EDB687F0EF36E040EF3CFDBFF8FD193
:103DE000040EDF5C0EE13EDA010EEECFDBFF020EC9
:103DF000EECFDBFF030EEECFDBFF040EEECFDBFFDB
:103E00007ED1DF0410E1210E0101FE6FFF6B010E78
:103E1000DB6A020EDB6A800EF36E030EF3CFDBFF6C
:103E2000040EDB686CD1D9500C0F98D90CEC25F03E
:103E3000006E060EE15C02E2E16AE552E16E0050BE
:103E4000FA0E2AC0DBFFFB0E2BC0DBFFFC0E2CC0E2
:103E5000DBFFFD0E2DC0DBFFA6D9F30E306E040E86
:103E6000316E350E326E3F0E87D9A2EC1DF0010A7D
:103E700009E1B3D984D9CFEC1BF067D9EDD984D946
:103E8000ACD916D00C0EDB060D0E01E2DB068BD989
:103E9000306A316A326A3F0E6FD976D9160EDBCF9F
:103EA00004F0170EDBCF05F0180EDBCF06F0190E6D
:103EB00066D9B9EC1CF049D9CFD9D0EC1BF01A0E59
:103EC0002BC0DBFF1B0E2CC0DBFF1C0E2DC0DBFF4D
:103ED0001D0E2EC0DBFF160EDBCF2BF0170EDBCF37
:103EE0002CF0180EDBCF2DF0190EDBCF2EF01A0EB2
:103EF000DBCF30F01B0EDBCF31F01C0EDBCF32F00E
:103F00001D0EDBCF33F066EC1CF01FD9120E2BC058
:103F1000DBFF130E2CC0DBFF140E2DC0DBFF150ED4
:103F20002EC0DBFF4DD9120EDBCF30F0130EDBCFEE
:103F300031F0140EDBCF32F0150E62D90E0E2BC00D
:103F4000DBFF0F0E2CC0DBFF100E2DC0DBFF110EB0
:103F50002EC0DBFF3D0EF36E1E0EF3CFDBFF7E0E99
:103F6000F36E1F0EF3CFDBFF0D0EF36E200EF3CFBB
:103F7000DBFFBF0EF36E210EF3CFDBFF0E0EDBCFA8
:103F800000F00F0EDBCF01F0100EDBCF02F0110EB0
:103F9000DBCF03F03A0E306E3F0E316ED40E326E30
:103FA000C00EEAD8D0EC1BF0220E2BC0DBFF230E94
:103FB0002CC0DBFF240E2DC0DBFF250E2EC0DBFF47
:103FC0000E0EDBCF2BF00F0EDBCF2CF0100EDBCF65
:103FD0002DF0110EDBCF2EF01E0EDBCF30F01F0EBA
:103FE000DBCF31F0200EDBCF32F0210E09D9220ECB
:103FF000DBCF30F0230EDBCF31F0240EDBCF32F0FD
:10400000250EDBCF33F066EC1CF007D9120EDBCFA8
:1040100000F0130EDBCF01F0140EDBCF02F0150E13
:10402000DBCF03F0CDD8010EDBCF30F0020EDBCFBB
:1040300031F0030EDBCF32F0040EE2D82BC004F0D7
:104040002CC005F02DC006F02EC007F078D8046A09
:10405000800E056E310E066E3F0E076EC9D82BC05E
:1040600008F02CC009F02DC00AF02EC00BF0CCD8FF
:10407000E1D8B9EC1CF069D8830E146E800E156E71
:104080005E0E166EB90E176EB3D82BC018F02CC08A
:1040900019F02DC01AF02EC01BF0B6D814C02BF0AA
:1040A00015C02CF016C02DF017C02EF0B9EC1CF086
:1040B0002BC010F02CC011F02DC012F02EC013F048
:1040C000010EDBCF1CF0020EDBCF1DF0030EDBCFA9
:1040D0001EF0040EDBCF1FF01CC030F01DC031F00D
:1040E0001EC032F01FC033F0D0EC1BF02BC00CF020
:1040F0002CC00DF02DC00EF02EC00FF020D8010EF8
:10410000DBCF00F0020EDBCF01F0030EDBCF02F0BD
:10411000040EDBCF03F000C02AF001C02BF002C078
:104120002CF003C02DF0260EE15C02E2E16AE552BC
:10413000E16EE552E5CFDAFFE7CFD9FF120064D890
:1041400082D8D0EC1BF00DEF21F02BC000F02CC07A
:1041500001F02DC002F02EC003F01200E66E000E3A
:10416000DA20E66E7FD8EECFE6FFEECFE6FFEECFA9
:10417000E6FFEFCFE6FF1200336E23EF21F0DBCF37
:1041800007F06AD81AEF21F0CFEC1BF0160E2BC007
:10419000DBFF170E2CC0DBFF180E2DC0DBFF190E46
:1041A0002EC0DBFF1200FA0EDBCF00F0FB0EDBCFE0
:1041B00001F0FC0EDBCF02F0FD0EDBCF03F01200AE
:1041C000120EDBCF2BF0130EDBCF2CF0140EDBCF57
:1041D0002DF0150EDBCF2EF01200FA0EDBCF04F01F
:1041E000FB0EDBCF05F0FC0EDBCF06F0FD0E120060
:1041F0000C0EDBCF2CF00D0EDBCF2DF0BCEF1BF047
:10420000DBCF33F0B9EF1CF02BC030F02CC031F015
:104210002DC032F02EC033F01200010E2BC0DBFF98
:10422000020E2CC0DBFF030E2DC0DBFF040E2EC0E0
:10423000DBFF120004C02BF005C02CF006C02DF0EF
:1042400007C02EF0120000C02BF001C02CF002C0FD
:104250002DF003C02EF01200306A316A326A3F0E30
:10426000336E1200D950FA0FE96EFF0EDA20EA6EB3
:0242700012003A
:0E427200202D2025303458202D2025580D0AEF
:104280000025303258004572726F723A20696E769E
:10429000616C69642073656E736F72006E6577631D
:1042A0006F6E663D0063757272656E743D00747961
:1042B00070653D7661726961626C65006D6F646501
:1042C0003D666C6F6F64006465766963653D707709
:1042D0006D6F7574006465766963653D656C6563D3
:1042E000006465766963653D776174657200646535
:1042F000766963653D67617300636F6D6D616E64C0
:104300003D63757272656E7400636F6D6D616E648E
:104310003D72657175657374007D00636F6E7472B4
:104320006F6C2E626173696300636F6E6669672EDE
:1043300063757272656E740068626561742E726571
:1043400071756573740073656E736F722E7265712B
:104350007565737400636F6E6669672E726573703E
:104360006F6E736500636F6E6669672E6C69737438
:10437000007461726765743D686F6C6C69652D755A
:1043800074696C6D6F6E2E007461726765743D2A7E
:104390000078706C2D636D6E640078706C5F68617E
:1043A0006E646C65723A64656661756C74202D206C
:1043B0007374617465202564202D2057452053486F
:1043C0004F554C44204E45564552204245204845C5
:1043D0005245200052584F0064656661756C740048
:1043E000656C656300776174657200676173007363
:1043F000656E736F722E62617369630A7B0A64650E
:10440000766963653D7368745F646577706F696E24
:10441000740A00747970653D68756D6964697479B2
:104420000A63757272656E743D25690A7D0A0073B0
:10443000656E736F722E62617369630A7B0A6465CD
:10444000766963653D7368745F68756D69646974E6
:10445000790A00747970653D74656D700A637572D0
:1044600072656E743D25692E25690A7D0A007365A3
:104470006E736F722E62617369630A7B0A6465767C
:104480006963653D7368745F74656D700A00747963
:1044900070653D7661726961626C650A63757272FE
:1044A000656E743D25690A7D0A0073656E736F72CF
:1044B0002E62617369630A7B0A6465766963653D90
:1044C00070776D6F75740A000A747970653D746554
:1044D0006D700A63757272656E743D25692E25696B
:1044E0000A7D0A0025303258000A747970653D63F0
:1044F0006F756E740A63757272656E743D25750A08
:104500007D0A0073656E736F722E62617369630A50
:104510007B0A6465766963653D00636F6E666967F3
:104520002E63757272656E740A7B0A6E6577636FAF
:104530006E663D25730A7D0A00636F6E6669672E9D
:104540006C6973740A7B0A7265636F6E663D6E6593
:1045500077636F6E660A7D0A00636F6E6669672E09
:10456000656E640A7B0A696E74657276616C3D31B2
:104570000A7D0A00636F6E6669672E626173696304
:104580000A7B0A696E74657276616C3D310A7665E4
:104590007273696F6E3D25692E25690A7D0A007D5B
:1045A0000A0070776D6F75743D25690A0068756D36
:1045B0006973656E736F723D310A0074656D707357
:1045C000656E736F72733D25690A00686265617478
:1045D0002E62617369630A7B0A696E746572766123
:1045E0006C3D350A76657273696F6E3D25692E25BF
:1045F000690A002E25730A7461726765743D2A0A80
:104600007D0A007574696C6D6F6E000A7B0A686FB5
:10461000703D310A736F757263653D686F6C6C69CC
:10462000652D007472696700737461740078706C32
:024630002D005B
:0E463200410EE66EE66A44EC29F0E552E552D0
:10464000460EE66E010EE66E44EC29F0E552E552A8
:10465000E66A020EE66E44EC29F0E552E55205D812
:1046600033EC05F0ABEC05F0FDD7D9CFE6FFE1CF99
:10467000D9FFE652DF6AD388D38AD38C9B8C0F0E86
:10468000C16EEF0E926E070E936EDE0E946E330EB9
:10469000E66EE66A7C0EE66E76EC28F0E552E552B0
:1046A000E552DF50DF2A006E050EE76E0018E8AE17
:1046B00002D0E73402D0E750005C0DE2320EE66E25
:1046C00084EC2AF0E5528098320EE66E84EC2AF0F3
:1046D000E5528088E6D7970EE66E35EC2AF0E55273
:1046E000EE0EE66E850EE66E19EC2AF0E552E55206
:1046F000F50EE66EBDEC29F0E552E00EE66EB10E69
:10470000E66EFDEC29F0E552E552F19EF19CF19A3E
:10471000F198F292F288F090F086F092F088F28CA4
:10472000F28EE552E552E7CFD9FF1200DACFE4FF6F
:10473000E2CFDAFFE9CFE4FFEACFE4FFF6CFE4FF10
:10474000F7CFE4FFF8CFE4FFF5CFE4FFF3CFE4FFCA
:10475000F4CFE4FFFACFE4FFFBCFE4FF00EE24F058
:10476000140EE80403E3EECFE4FFFBD700EE00F005
:10477000240EE80403E3EECFE4FFFBD7E6529EAA43
:1047800008D0DEEC29F0E66E28EC00F0E5529E9AA7
:104790005FD0F2A205D00001020EC56FF2920DD0DB
:1047A000F0A005D00001020EC66FF09006D0F0A276
:1047B00006D00001020EC76FF092809849D0F2A493
:1047C0000FD0EE0EE66E850EE66E19EC2AF0E5527D
:1047D000E552F2940001C12B000EC223C32BC42B5F
:1047E0009EA036D0E00EE66EB10EE66EFDEC29F02E
:1047F000E552E5529E900001C5510CE0C507808846
:10480000C55108E18150010B05E1020EE66E05EC91
:104810000AF0E5520001C6510CE0C6078088C65177
:1048200008E18150020B05E1010EE66E05EC0AF08D
:10483000E5520001C7510CE0C7078088C75108E165
:104840008150040B05E1040EE66E05EC0AF0E5521A
:10485000E55200EE23F0240EE80403E3E5CFEDFF7C
:10486000FBD700EE37F0140EE80403E3E5CFEDFFCD
:10487000FBD7E5CFFBFFE5CFFAFFE5CFF4FFE5CFB0
:10488000F3FFE5CFF5FFE5CFF8FFE5CFF7FFE5CF85
:10489000F6FFE5CFEAFFE5CFE9FFE5CFDAFF11004C
:1048A000D8CFE4FFE0CFE4FFE46EDACFE4FFE652D6
:1048B000E552E5CFDAFFE550E5CFE0FFE5CFD8FFE1
:0248C0001000E6
:0E48C200D9CFE6FFDACFE6FFFA0EE3CFD9FF3B
:1048D000FB0EE3CFDAFFFC0EE3CFE9FFFD0EE3CFE3
:1048E000EAFFDE50EF5C02E1EE66FBD7F36EFF0EEF
:1048F000E3CFDAFFE552FF0EE3CFD9FFE552F350E5
:104900001200FD0EE3CFF6FFFE0EE3CFF7FFFF0E22
:10491000E3CFF8FFFB0EE3CFE9FFFC0EE3CFEAFFA6
:10492000EE500900F55C02E1F566FAD71200D9CF26
:10493000E6FFDACFE6FFFA0EE3CFD9FFFB0EE3CFB7
:10494000DAFFFC0EE3CFE9FFFD0EE3CFEAFFE9CF8C
:10495000F3FFEACFF4FFDECFEFFFEE66FCD7FF0EEA
:10496000E3CFDAFFE552FF0EE3CFD9FFE5521200A5
:10497000FE0EE3CFE9FFFF0EE3CFEAFFF36AF46A2E
:10498000EE5203E0F34AF42AFBD71200FD0EE3CF08
:10499000F6FFFE0EE3CFF7FFFF0EE3CFF8FFFB0EAF
:1049A000E3CFE9FFFC0EE3CFEAFFF90EE35003E1AA
:1049B000FA0EE3500BE0F90EE30602E2FA0EE3060C
:1049C000EE500900F55C02E1F566EFD71200FF0E2C
:1049D000E3CFF8FFE552FF0EE3CFF7FFE552FF0EFE
:1049E000E3CFF6FFE552E66AE66AE66A0900F552A9
:1049F00009E0FD0EE32A05E1FE0EE32A02E1FF0EC7
:104A0000E32AF4D7FD0EE3CF2BF0FE0EE3CF2CF01C
:084A1000FF0EE3CF2DF01200B0
:084A1800D9CFE6FFDACFE6FF7B
:104A2000E1CFD9FFE2CFDAFF0C0EE12402E3E16827
:104A3000E652E16ED950FA0FE96EFF0EDA20EA6E07
:104A4000010EEECFDBFF020EEECFDBFF030EEECF4B
:104A5000DBFF040EEECFDBFF63D8D950010FE96E08
:104A6000000EDA20EA6EEECFE6FFEECFE6FFEECFE5
:104A7000E6FFEFCFE6FF9EEC25F0006E060EE15C50
:104A800002E2E16AE552E16E0050DF6E850EDF144E
:104A900004E04DD8EE6AED6A23D0090EDBCF00F0BA
:104AA0000A0EDBCF01F0820E0026FF0E01223FD856
:104AB00000C0EEFF01C0EDFF7E0EF36E090EF3CFD6
:104AC000DBFF0A0EDB6AD950010FE66E000EDA201A
:104AD000E66E26D82CEC26F0E552E552E552E5527A
:104AE000010EDBCF00F0020EDBCF01F0030EDBCFB7
:104AF00002F0040EDBCF03F000C02AF001C02BF05F
:104B000002C02CF003C02DF00C0EE15C02E2E16A61
:104B1000E552E16EE552E5CFDAFFE7CFD9FF1200AB
:104B2000D950050FE66E000EDA20E66E1200F80E80
:0C4B3000DBCFE9FFF90EDBCFEAFF12003B
:044B3C00D9CFE6FFE8
:104B4000DACFE6FFE1CFD9FFE2CFDAFFE652006825
:104B500001687F0E026E036AD950FA0FE96EFF0EEC
:104B6000DA20EA6EEE500016EE500116EE500216F4
:104B7000EE5003166AD800C0EEFF01C0EEFF02C07F
:104B8000EEFF03C0EEFFFD0EDB50800B02E0010ED6
:104B900001D0000EE66E59D8060EE926000EEA2274
:104BA000E552E750EF6EFC0EDBCF00F0FD0EDBCFE1
:104BB00001F0D89000360136FC0E00C0DBFFFD0E80
:104BC00001C0DBFFDB50E66E40D8040EE926000E84
:104BD000EA22E552E750EE6EED6AFD0EDB50006E04
:104BE000016AFF0E001818E1015016E12ED8EECF31
:104BF00000F0EECF01F0EECF02F0EFCF03F0005067
:104C000001100210031006E0210E0101FE6FFF6B80
:104C1000800E0BD0040E09D0FD0EDB5008E115D834
:104C2000EE6AEE6AEE6AEE6A010EDF6E06D0020EE2
:104C3000DF6E0BD8EE52EE52EE8EDF50E552E552AB
:104C4000E5CFDAFFE7CFD9FF1200F80EDBCFE9FF9F
:084C5000F90EDBCFEAFF1200B0
:084C5800D9CFE6FFDACFE6FF39
:104C6000E1CFD9FFE2CFDAFF5BD8013411E2005087
:104C7000FE08000E01540CE276D805E06CD8800ED8
:104C8000EE6EEE6847D067D8800EEE6E7F0E0ED0C7
:104C900047D8D890015004E6010E005C000E015880
:104CA0000BE261D805E057D8EE6A800EEE6E32D086
:104CB00052D8EE6AEE6A2ED047D8EECF00F0EECF93
:104CC00001F0EECF02F0EFCF03F032D800C0EEFFDC
:104CD00001C0EEFF02C0EEFF03C0EEFF21D800507E
:104CE000010B05E025D8020E3AD8EF8E04D020D86B
:104CF000020E35D8EF9E14D8D8900132003218D861
:104D0000030E2DD800C0EFFF1AD804E011D8030E0F
:104D100026D8EF8EE552E5CFDAFFE7CFD9FF1200B4
:104D200013D8040E1CD8EECF00F0EFCF01F0120024
:104D3000FA0EDBCFE9FFFB0EDBCFEAFF120004D84F
:104D4000060E0DD8EF501200FC0EDBCFE9FFFD0E72
:104D5000DBCFEAFF1200ECDFEE6AEE6A1200E92612
:104D6000000EEA221200220E0101FE6FFF6B9FEF80
:024D700026F02B
:0E4D7200005EBCE2613FDD83C29C7E20A3FD9B
:104D80001F419DC3217FFCA2401E5F01E3BD3E6029
:104D900082DC237D9FC1421CFEA0E1BF5D0380DE5B
:104DA0003C62BEE0025CDF81633D7C22C09E1D430D
:104DB000A1FF4618FAA427799BC584DA3866E5BBBB
:104DC0005907DB856739BAE406581947A5FB7826E9
:104DD000C49A653BD987045AB8E6A7F91B45C6981B
:104DE0007A24F8A6441A99C7257B3A6486D85B05CD
:104DF000E7B98CD2306EEDB3510F4E10F2AC2F717B
:104E000093CD114FADF3702ECC92D38D6F31B2ECA8
:104E10000E50AFF1134DCE90722C6D33D18F0C52DA
:104E2000B0EE326C8ED0530DEFB1F0AE4C1291CF8C
:104E30002D73CA947628ABF517490856B4EA69373A
:104E4000D58B5709EBB536688AD495CB2977F4AA68
:104E50004816E9B7550B88D6346A2B7597C94A149A
:104E6000F6A8742AC896154BA9F7B6E80A54D7894C
:024E70006B35A0
:0E4E7200D9CFE6FFDACFE6FFE1CFD9FFE2CFDE
:104E8000DAFFE652E652E652E652D950F90F006ECA
:104E9000FF0EDA20016E020E00C0DBFF030E01C020
:104EA000DBFF020EDBCFE6FF030EDBCFE6FFF90EE2
:104EB000DBCFE6FFFA0EDBCFE6FFFB0EDBCFE6FF34
:104EC000D950FC0FE66EFF0EDA20E66E38EC11F0DA
:104ED000006E070EE15C02E2E16AE552E16E00500D
:104EE000F3CFDEFFF4CFDDFFFC0EDBCFE9FFFD0EDD
:104EF000DBCFEAFFEF6ADECF00F0DDCF01F000C0CC
:104F0000F3FF01C0F4FF040EE15C02E2E16AE55246
:0E4F1000E16EE552E5CFDAFFE7CFD9FF1200E0
:024F1E001E0E65
:104F2000F66E000EF76E000EF86E00010900F550E7
:104F3000AF6F0900F550B06F03E1AF6701D03DD00E
:104F40000900F550AA6F0900F550AB6F0900F55044
:104F5000AC6F09000900F550E96E0900F550EA6EE2
:104F6000090009000900F550AD6F0900F550AE6F5A
:104F700009000900F6CFB1F0F7CFB2F0F8CFB3F0E7
:104F8000AAC0F6FFABC0F7FFACC0F8FF0001AD53FD
:104F900002E1AE5307E00900F550EE6EAD07F8E20E
:104FA000AE07F9D7B1C0F6FFB2C0F7FFB3C0F8FF44
:0C4FB0000001AF07000EB05BBFD712007D
:044FBC00D9CFE6FF64
:104FC000DACFE6FFE1CFD9FFE2CFDAFFE652E652D1
:104FD000E652E652D950FB0F006EFF0EDA20016E4A
:104FE00000C0DEFFDD6EDECFE6FFDDCFE6FFFB0EAD
:104FF000DBCFE6FFFC0EDBCFE6FFFD0EDBCFE6FFEF
:10500000C8C0E6FFC9C0E6FF38EC11F0006E070E1D
:10501000E15C02E2E16AE552E16E0050020EF3CF7C
:10502000DBFF030EF4CFDBFF020EDBCF00F0030E3D
:10503000DBCF01F000C0F3FF01C0F4FF040EE15C20
:1050400002E2E16AE552E16EE552E5CFDAFFE7CF31
:04505000D9FF120072
:0C505400D9CFE6FFDACFE6FFE1CFD9FFAD
:10506000E2CFDAFFE150FA0FE96EFF0EE220EA6EBE
:10507000EECFE6FFEECFE6FFEECFE6FFEFCFE6FFA7
:10508000BCEC1EF0E552E552E552E5522AC004F0B0
:105090002BC005F02CC006F02DC007F0D90E306EE5
:1050A0005B0E316EDE0E326E3E0E336E2AC02BF07A
:1050B00005C02CF006C02DF007C02EF0B9EC1CF096
:1050C0002BC000F02CC001F02DC002F02EC003F068
:1050D0002BC02AF02CC02BF02DC02CF02EC02DF0B0
:0C50E000E552E5CFDAFFE7CFD9FF120060
:0450EC00D9CFE6FF33
:1050F000DACFE6FFE1CFD9FFE2CFDAFFAC6AAB6AE5
:10510000FD0EDBB0AC88DBA202D0AC8CAB8CDBB488
:10511000AC8EDBA602D0AB8801D0AB8ADBB8AC8406
:105120009E98DBBAAB86DBAC02D09D8A01D09D9AFB
:105130009E9ADBAE02D09D8801D09D98FB0EDB507D
:10514000AF6EFB0EFC0EDBCF01F001C000F0016A78
:105150000050B06EAC8AAB8E949C948EAC50100B09
:1051600004E0AC50800B01E1948CE552E5CFDAFF0E
:06517000E7CFD9FF120099
:0A517600D9CFE6FFDACFE6FFE1CF64
:10518000D9FFE2CFDAFFFB0EDBCF00F0FC0EDBCF66
:1051900001F00001800E01141AE1FB0EDBCFE9FFE4
:1051A000FC0EDBCFEAFFEECFF3FFEDCFF4FFEE2AEC
:1051B000000EEF22F3CFE9FFF4CFEAFFFD0EDBCFC5
:1051C000EFFFEF50016AF36E01C0F4FF10D0FB0E49
:1051D000DB50FE0806E1FD0EDBCFE6FFF1EC2AF026
:1051E00005D0FD0EDBCFE6FF03EC00F0E552E55203
:0A51F000E5CFDAFFE7CFD9FF120088
:0651FA002A502F02F3CF42
:1052000026F0F4CF27F03002F3502726000EF420CA
:10521000286E2A503102F3502826000EF420296E01
:105220002A503202F35029262B502F02F350272602
:10523000F4502822000E29222B503002F350282649
:10524000F45029222B503102F35029262C502F02E2
:10525000F3502826F45029222C503002F3502926EE
:0A5260002D502F02F35029261200F2
:06526A00D9CFE6FFE1CF01
:10527000D9FFFE0EDB50A96EA69EA69CA680A85064
:10528000E552E7CFD9FF1200D9CFE6FFE1CFD9FF32
:10529000E652DF6AA69CA6B2FED7FE0EDB50A96ED0
:1052A000FD0EDB50A86EA69EA684F2AE03D0F29E41
:1052B000010EDF6E550EA76EAA0EA76EA682A694EB
:1052C000A6B2FED7DF5001E0F28EE552E552E7CFFD
:0452D000D9FF1200F0
:0C52D400D9CFE6FFDACFE6FFE1CFD9FF2B
:1052E000E2CFDAFFE652E652FC0EDBCF00F0FD0E15
:1052F000DBCF01F0060ED89000360136E804FBE162
:1053000000C0DEFF01C0DDFF010EDB50BE6EDF50CE
:10531000E840E8403F0B300B006ECF0EBD1400108C
:10532000BD6EE552E552E552E5CFDAFFE7CFD9FF92
:02533000120069
:0E533200296A286A276A266A200EE76ED8903C
:105340002A362B362C362D36263627362836293661
:105350002F50265C30502758315028583250295849
:1053600009E32F50265E3050275A3150285A3250C8
:0A537000295A2A2AE72EE4D712007A
:06537A00D9CFE6FFDACFF7
:10538000E6FFE1CFD9FFE2CFDAFFFD0EDB507E0B67
:10539000CD6EFD0EDBAC02D0CD8E01D0CD9ECF6A9E
:1053A000CE6A9E90DBAE02D09D8001D09D90CD80D4
:0C53B000E552E5CFDAFFE7CFD9FF12008D
:0453BC00D9CFE6FF60
:1053C000DACFE6FFE1CFD9FFE2CFDAFFE652F20E05
:1053D0000001CC17ABAC03D0CC91ABB0CC81ABB45B
:1053E000CC85ABB2CC87AE50DF6EDF50E552E552D4
:0A53F000E5CFDAFFE7CFD9FF120086
:0653FA00D9CFE6FFDACF77
:10540000E6FFE1CFD9FFE2CFDAFFE652E652FC0E2B
:10541000DBCFDEFFDBCFDDFF010EDB50CF6EDF50D9
:10542000CE6EE552E552E552E5CFDAFFE7CFD9FF80
:02543000120068
:0E543200D9CFE6FFDACFE6FFE1CFD9FFE2CF18
:10544000DAFFE652E652FC0EDBCFDEFFDBCFDDFFFC
:10545000010EDB50D76EDF50D66EE552E552E552B5
:0A546000E5CFDAFFE7CFD9FF120015
:06546A00D9CFE6FFDACF06
:10547000E6FFE1CFD9FFE2CFDAFFFD0EDB507F0B75
:10548000D56ED76AD66AF294FD0EDBAE02D0F28AF0
:1054900001D0F29AD58EE552E5CFDAFFE7CFD9FFFA
:0254A0001200F8
:0E54A200D9CFE6FFDACFE6FFE1CFD9FFE2CFA8
:1054B000DAFFFD0EDB50FB0BCA6ECC6A9E92FD0E2E
:1054C000DBAE02D09D8201D09D92CA84E552E5CF29
:0854D000DAFFE7CFD9FF12005B
:0854D800D9CFE6FFDACFE6FFB1
:1054E000E1CFD9FFE2CFDAFF0C0EBD129494CA943B
:1054F000FD0EDB50CB6ECA84E552E5CFDAFFE7CF75
:08550000D9FF1200949412007F
:08550800FF0EE350396EEF0EB7
:1055100001D0F30EE76EE72E8BEF2AF00C0E386EFB
:10552000E76AE72E91EF2AF0382E90EF2AF0392E15
:0655300089EF2AF01200D1
:0A553600296A286A100EE76ED8906B
:105540002C362D36283629363150285C32502958D1
:1055500005E33150285E3250295A2C2AE72EF0D725
:02556000120037
:0E556200F36AF46AFF0EE124E96EFF0EE22008
:10557000EA6EED6607D02F0EEF6404D03A0EEF60AE
:0655800001D0F32A120025
:0A558600FF0EE350396E480E01D00D
:105590004C0EE76EE72EFED7E76AE72EFED7392ED0
:0655A000F7D70000120025
:0A55A600000EF36E00EE00F0060E9A
:1055B00001D81200EA6002D0EE6AFCD7F350E9602D
:0655C0001200EE6AFCD7A8
:0A55C60015EE00F025EE00F0F86A83
:1055D000259C8FEC27F007EC00F019EC23F0FBD7AB
:0255E0001200B7
:0E55E200FF0EE350ACBA04D0AF6AAB8EAC8AB9
:0E55F000949CACA2FED7AD6EF36EF46A12006E
:0255FE00FF0E9E
:10560000E350396E1B0E00D001D0200EE76EE72E5E
:0A561000FED7392EFAD700D01200A1
:06561A00FF0EE350E84E14
:105620001200000000D000D000D0E82EFAD71200FF
:105630003031323334353637383961626364656608
:015640000069
:02564100FEFF6A
:02564300000065
:020000040030CA
:0100010008F6
:0100020018E5
:010003001EDE
:01000500807A
:010006008178
:010008000FE8
:01000900C036
:01000A000FE6
:01000B00E014
:01000C000FE4
:01000D0040B2
:00000001FF
