:020000040000FA
:06000000ECEF19F0120004
:020006001200E6
:06000800A1EF14F012004C
:02000E001200DE
:0400100000000000EC
:03001400270100C1
:060018003BEF15F01200A1
:02001E000400DC
:1000200055340000BC000000020000005334000002
:10003000BA0000000200000014000000B700000039
:100040000300000010000000FB010000040000009D
:10005000FFEC05F001010051002BE96EEA6AE9BEF0
:10006000EA68AE0EE926010EEA22FE0EDBCFEFFFB4
:10007000022B280E005D01E1006B1E0EE76E0219D7
:10008000E8AE02D0023503D0E750D880025504E232
:10009000FA0502E141EC06F004EF06F0FFEC05F092
:1000A000E65201010151012BE96EEA6AE9BEEA68F4
:1000B000AE0EE926010EEA22EFCFDFFF0207280E7F
:1000C000015D01E1016B140EE76E0219E8AE02D08A
:1000D000E73402D0E750025D05E2FA5103E10CEC8F
:1000E00006F0E552DF50E55204EF06F0FFEC05F0B4
:1000F000280EE66E8DEC19F0E5528A0E146E280E6D
:10010000B6EC06F0FE0EDB5006E12FEC06F0850E95
:10011000146E280E05D02FEC06F0800E146E280EFB
:10012000B9EC06F0680E146E280EB6EC06F0600E00
:10013000146E280EB6EC06F02FEC06F0500E146E7E
:10014000280EB9EC06F004EF06F0C5EC06F0280E18
:10015000146E280EEAEC05F07EEC06F00101FBA31C
:1001600010D092EC0DF0146E156A14BE156856ECA2
:1001700006F0180E166E280E24EC06F0050EE15E51
:1001800019500101FC51E66EE66A0D0E146E280E40
:10019000B9EC06F00A0E146E280EB6EC06F001015A
:1001A000010EFD6F1200C5EC06F0DF0E146E270E77
:1001B000EAEC05F07EEF06F051EC06F0C40E146E8A
:1001C000270EB6EF06F051EC06F0A40E146E270EC3
:1001D000B6EF06F051EC06F02FEC06F0850E146E2B
:1001E000270EB9EF06F0FFEC05F0E1EC06F0FB0E90
:1001F000DBCFE6FFFC0EDBCFE6FFFD0EDBCFE6FF3D
:10020000FCEC05F0F90EDBCFE6FFFA0EDBCFE6FFE4
:10021000540E146E270EB9EC06F004EF06F0FFEC56
:1002200005F0120EE1260C0EDB6A0D0EDB6A200EC5
:10023000F36E0E0EF3CFDBFFC10EF36E0F0EF3CF96
:10024000DBFF0A0EE126FD0EDBCFE6FF7AEC0FF0B6
:10025000EECF14F0EECF15F0EECF16F0EECF17F094
:10026000EECF18F0EECF19F0EECF1AF0EECF1BF074
:10027000EECF1CF0EECF1DF0EECF1EF01F6E0B0E7A
:10028000E15E1F5014C0DFFF010E15C0DBFF020E40
:1002900016C0DBFF030E17C0DBFF040E18C0DBFF28
:1002A000050E19C0DBFF060E1AC0DBFF070E1BC0D0
:1002B000DBFF080E1CC0DBFF090E1DC0DBFF0A0EB2
:1002C0001EC0DBFFDB5001E1CBD0DF50100A08E09D
:1002D000380A1CE118EC06F0800E0C6E410E04D0BA
:1002E00018EC06F00C6A400E0D6E65EC06F08DEC15
:1002F00010F00C0E05C0DBFF0D0E06C0DBFF0E0E6E
:1003000007C0DBFF0F0E08C0DBFF0ED00C0EDB6A50
:100310000D0EDB6A840EF36E0E0EF3CFDBFF420E82
:10032000F36E0F0EF3CFDBFF0C0EDBCF05F00D0EDF
:10033000DBCF06F00E0EDBCF07F00F0EDBCF08F0A1
:10034000E4EC11F0100E07C0DBFF0C0EDBCF18F051
:100350000D0EDBCF19F00E0EDBCF1AF00F0EDBCF38
:100360001BF085EC06F018C005F019C006F01AC0A5
:1003700007F01BC008F0E0EC10F0BCEC06F0100E2B
:10038000DBCF24F024C007F069EC10F005C020F0AA
:1003900006C021F007C022F008C023F085EC06F06B
:1003A000E0EC10F005C01CF006C01DF007C01EF008
:1003B00008C01FF005C00AF006C00BF007C00CF023
:1003C00008C00DF065EC06F04DEC11F0E4EC11F016
:1003D000110E07C0DBFFE1EC06F00B0EDB6ADBCF92
:1003E00014F0080EE76E1418E8AE02D0E73402D01D
:1003F000E750145C21E2D9CF14F0DACF15F00B0EE0
:10040000DBCF16F0176A16BE17686EEC06F0E66EC4
:10041000E66A4F0E186E270E196E1A6A18C0E6FFAC
:10042000E66E1AC0E6FF33EC17F01B6E050EE15EB8
:100430001B500B0EDB2AD3D7110EDBCFE6FFE66A8B
:10044000100EDBCF14F0156A14BE156856EC06F0DA
:10045000330E166E270E24EC06F0070EE15E1950DF
:10046000120EE15C02E2E16AE552E16ECDD3C7DB38
:100470004AEC06F0150E146E270EB6EC06F00101DC
:10048000FC51E66EE66AF90E146E260EB9EC06F023
:10049000BBD3B5DB020EE126010EDE6EDD6AFD0E7A
:1004A000DB50100A55E0180A4BE00C0A2CE0060A53
:1004B00016E0030A52E1FE0EDB500BE1E8C1DEFF5D
:1004C000E9C1DDFF000EDB500101E85F010EDB50EA
:1004D000E95BA9EC06F0F50E146E260E27D0FE0E91
:1004E000DB500BE1EAC1DEFFEBC1DDFF000EDB50AC
:1004F0000101EA5F010EDB50EB5BA9EC06F0EF0EA9
:10050000146E260E13D0FE0EDB500BE1ECC1DEFFA5
:10051000EDC1DDFF000EDB500101EC5F010EDB5091
:10052000ED5BA9EC06F0EA0E146E260E53DBFE0E10
:10053000DBCFE6FF58DE176E060EE15E17500DD0DA
:10054000EEC1E6FFFE0EDBCFE6FF69DEE55204D02A
:10055000FE0EDBCFE6FF8BDFE552020EE15C02E22E
:10056000E16AE552E16E50D30101036B046B1200A6
:100570000101E76BF96BB4EF02F041DBE6520101D8
:10058000FB6BDF6ADFCF14F0100EE76E1418E8AED5
:1005900002D0E73402D0E750145C2BE2DFCFE6FF55
:1005A0003EEC18F0E552E66EDFCFE9FFEA6AE9BEFD
:1005B000EA68D4DBE552E750EF6EDFCFE9FFEA6A85
:1005C000E9BEEA68CBDBEF5003E10101FB8111D00A
:1005D000DF500DE1FF0E0101D65D09E1E20E146E60
:1005E000260EF8DA3CDB8EEC16F0D6DB02D0DF2AE2
:1005F000C9D7E55209D39494060EE66E5AEC19F069
:10060000E552F90EE66E75EC19F0E552E80EE66E6D
:10061000030EE66E73EC18F0E552E55278EC0FF03D
:10062000000904E10101FB8355EC0FF0A6DF010195
:10063000E86BE96BEA6BEB6BEC6BED6B99DF01013F
:10064000006B016B026B0101FD6B0101E5DAE55204
:100650001200D5DAFE0EDB500A081DE0010103513D
:10066000146E156AD890155004E6AA0E145C000E9C
:10067000155806E3DE0E146E260E78DB79DF15D0F2
:100680000351032BEA6A040FE96E010EEA22FE0E03
:10069000DBCFEFFF0AD001010351EA6A040FE96ED4
:1006A000010EEA22EF6A010EE76FAED2A8DA020E5F
:1006B000E1260101E75139E0010A06E0E7C114F043
:1006C000156A14AEBDD0BBD0CAD8E76E010EE7CF15
:1006D000DBFFDB50070A1DE0010A18E0030A14E003
:1006E000010A10E0070A0CE0010A08E0030A04E02E
:1006F000010A17E12ADD15D066DD13D06BDD11D0BC
:10070000010E05D0020E03D0040E01D0100E04DB42
:1007100008D0DF6A0A0EDF5C04E2100EFDDADF2A81
:10072000F9D70101E76B20DF93D00151005D04E0B0
:10073000B5DCE66E8EDFE5520101FE5116E0FEA14A
:1007400006D0010EE66EE66E2CDB0101FE71FEA303
:1007500004D0020E89DA0101FE73FEA504D0040E56
:1007600083DA0101FE75070EFE1700012C0ED880FA
:10077000B755010EB85508E2010E0101FB1504E062
:10078000E4DC0001B76BB86B00013C0ED880B755B4
:10079000000EB85508E2010E0101FB1504E103DD6E
:1007A0000001B76BB86B0001B9513C080BE2020EB7
:1007B0000101FB1507E0010EFB1504E00001B96B18
:1007C00055EC0FF0020E0101FB1542E0010EFB1586
:1007D0003FE0FD513DE0DF6A92EC0DF0DF5C38E276
:1007E0006ADAEECF14F0EFCF15F060DADFCFE6FF74
:1007F000B3EC0FF0E552E552E7CF15F0E552E7CF45
:1008000014F0F3CF16F0F4CF17F0F350141802E100
:100810001750151812E0DFCFE6FFB3EC0FF0E552EA
:10082000F3CF14F0F4CF15F046DAF3CFEEFF15C096
:10083000EDFFDFCFEEF1080E17DADF2ACDD715680E
:1008400035DAA40E166E260EFFD9050EE15E19509C
:10085000020EE15C02E2E16AE552E16ED5D1CFD948
:100860000A0EE1260101F951040A01E145D10D0A00
:1008700001E1EDD0010A01E1D0D00F0A01E1ADD0D4
:10088000040A01E19BD0060A01E17DD0030A6FE072
:10089000040A2DE0030A0DE0010A01E05FD1A7D9A7
:1008A0009B0E146E260E5FDA01E058D10101010E95
:1008B000BCD09DD9920E146E260E55DA15E0160E98
:1008C00075DA7B0E146E260E75DA01E047D11A0E2A
:1008D000E66E010EE66EC3D963EC15F0E552E55203
:1008E000E552E552000941E10101020E9ED07FD997
:1008F0006F0E146E260E37DA04E10101F96B010E5A
:100900002ED175D95F0E146E260E2DDA03E101018A
:10091000040E8BD06CD9500E146E260E24DA03E12F
:100920000101030E82D063D9420E146E260E1BDA2B
:1009300003E10101050E79D05AD9330E146E260E4B
:1009400012DA03E10101060E70D051D9250E146EA2
:10095000260E09DA03E10101080E67D048D9230EFB
:10096000146E260E00DA01E1F9D00101C3D02FDAAE
:1009700004E10101F96B020EF2D07B0E0101045D6E
:1009800001E1ECD0B7D023DA13E10101F96B0A0ED3
:10099000146E156AB7C006F0B8C007F00B6E15C02C
:1009A0000CF0A4EC19F00650E66E8DEC19F0D3D0E3
:1009B0007B0E0101045D01E1D1D09CD018D9030E5A
:1009C000146E260ED0D903E10101070E2ED07B0E46
:1009D0000101045D01E1C2D08DD009D9F80E146E79
:1009E000250EC1D904E10101F96B030EB8D0FFD87F
:1009F000EB0E146E250EB7D904E10101F96B040E5C
:100A0000AED0F5D8DF0E146E250EADD904E101018C
:100A1000F96B050EA4D001016DD0E9D8D10E146E8A
:100A2000250EA1D904E10101090EF96F97D0DFD895
:100A3000C60E146E250E97D904E10101F96B070E5D
:100A40008ED07B0E0101045D01E188D053D0CFD858
:100A5000B80E146E250E87D901E180D0080EA6D9F4
:100A6000AF0E146E250EA6D944E10C0EE66E010EF3
:100A7000E66E56D95CD954D939D90101FC6BDF6ACD
:100A80005AD9E8AE02D0E73402D0E750145C13E242
:100A90000A0EFC03F3CFFCF1D950020F146EDACF2B
:100AA00015F0DFCF16F0176A16BE176817D9D00FEA
:100AB000FC27DF2AE5D7FC51146E156AFF0E1418C7
:100AC00006E1155004E1E668030EE66E0AD0FC511B
:100AD000146E156AD89014361536D890143615361B
:100AE000E5D873EC18F0E552E5520101F96B060EFA
:100AF00036D00101F96B32D0080E58D9A60E146E0B
:100B0000250E58D92BE10101FA0501E1BAD8DCEC38
:100B100000F00C0EE66E010EE66EA1D808D99FD843
:100B2000E5D8DF6A08D9E8AE02D0E73402D0E75052
:100B3000145C0BE2DFCFE9FFEA6AE9BEEA680ED98E
:100B4000EF50E66EFFD8DF2AEDD7E66AFBD815DD59
:100B50000101F96B61D8E552000E01D0FF0E146E51
:100B60000A0EE15C02E2E16AE552E16E14504CD0FB
:100B700046D8FE0EDB50040A1CE0050A0EE0030A0C
:100B800024E10101FF0EEA5DFF0EEB5903E2EA2BBF
:100B9000000EEB230101FE831CD00101FF0EE85D76
:100BA000FF0EE95903E2E82B000EE9230101FE8163
:100BB00010D00101FF0EEC5DFF0EED5903E2EC2BAE
:100BC000000EED230101FE8504D0900E146E250E5B
:100BD000CDD81AD0156E166A14C0E6FFE66E16C0A0
:100BE000E6FF120083EC15F0D7D800091200040EBE
:100BF000E66E010EE66E120033EC17F0DED0D9CFB0
:100C0000E6FFE1CFD9FF1200E552E7CFD9FF12008E
:100C100033EC17F0CCEF06F0010EFA6FFE0EE66E25
:100C2000E668110EE66EC4EC17F0E552E5521200CC
:100C3000080EDBCF06F0090EDBCF07F078EC10F0E2
:100C40009BD80A6A0B6A1200176E186A16C0E6FF74
:100C5000E66E18C0E6FF33EC17F0196E1200D60EE0
:100C6000E66E010EE66E1200E66E010EE66ED1EF44
:100C700006F0C8EC15F0176E070EE15E175000097C
:100C80001200FA6BFE0EE66EE668130EE66EC4EC1A
:100C900017F093D0FE0EDBCFE6FF76EC00F0E552C6
:100CA0001200E66A76EC00F0E552120014C0E6FF8E
:100CB00015C0E6FF1200EA6ADF34FE0BEA36E96E81
:100CC000EF0EE926010EEA22120014C005F015C04D
:100CD00006F016C007F017C008F0120014501624D2
:100CE000E96E15501720EA6EEF501200BAEC15F0BD
:100CF000E552E552010EF3CFDBFF120033EC17F0A3
:100D0000176E070EE15E175012000A6A0B6AC80ED2
:100D10000C6E420E0D6E1200E66EE66AD1EF06F022
:100D2000D950020FE66E000EDA20E66E120099EC42
:100D300015F0E55242D0DFCF14F0010EDB50E76E24
:100D400014181200DFCFE6FF4DEC18F0E552E55223
:100D50001200DECFE6FFDDCFE6FF1200D60EE92659
:100D6000010EEA22120036DFF2EF05F033DFFCEF6E
:100D700005F030DF08EF06F005C014F006C015F0EE
:100D800007C016F008C017F012008BDF040EE66EE5
:100D9000E66AE66EE66A1200176E050EE15E17500F
:100DA000120049EC02F0E552E5521200E66EE66AE6
:100DB000F7EF05F00FDF39EF06F0E552E552E552A7
:100DC000120068DF6E0E146E270EB6EF06F00FDF0E
:0A0DD000130E146E260EB3EF06F0AA
:060DDA0029EC0CF0FB0EF9
:100DE000DBCFF3FFDB06F35000090AE077EC0CF0F1
:100DF000FA0EE2EC0CF0F3E1151CF1E1010E01D06A
:100E0000000E58EF0CF029EC0CF03B0EE12402E34D
:100E1000E168E652E16E010EDB6A020EDB6AF90E52
:100E2000DBCFF6FFFA0EDBCFF7FFFB0EDBCFF8FFD1
:100E30000800F550DF6EDF5002E17CEF0BF0250E6D
:100E4000DF5C02E06FEF0BF0030EDB6A040EDB6A7F
:100E5000050EDB6A060EDB6A070EDB6A91EC0BF00F
:100E60002D0EDF5C0CE02B0EDF5C09E0200EDF5C5A
:100E700006E0230EDF5C03E0300EDF5C1AE1DF509A
:100E8000300A14E0130A0FE0030A0AE00B0A05E037
:100E9000060AE4E1030EDB80E1D7030EDB82DED736
:100EA000030EDB84DBD7030EDB86D8D7030EDB888B
:100EB000D5D72A0EDF5C1BE18DEC0BF0DBEC0BF0E1
:100EC00010E0030EDB8006680768130EDBCF0BF023
:100ED000140EDBCF0CF091EC12F0040E04C0DBFF1B
:100EE00003D0130EC4EC0BF091EC0BF00BD0090EF9
:100EF000DB6A32EC0CF003E0A6EC0CF0FAD7090E3A
:100F0000C4EC0BF0030EDBB0DB982E0EDF5C1BE1B4
:100F100091EC0BF02A0EDF5C0BE18DEC0BF0DBECBF
:100F20000BF003E1130E16EC0CF091EC0BF00BD070
:100F3000090EDB6A32EC0CF003E0A6EC0CF0FAD7F9
:100F4000090E16EC0CF0680EDF5C07E191EC0BF07B
:100F5000680EDF5C1DE1030E18D0740EDF5C17E035
:100F60007A0EDF5C14E0480EDF5C06E0540EDF5CB6
:100F700003E05A0EDF5C02E1020E07D06C0EDF5C6C
:100F800003E06A0EDF5C04E1010E69EC0CF0C9DBE2
:100F9000DF506E0A01E17FD31E0A01E192D1200ADF
:100FA00001E18FD13F0A01E149D11A0A01E146D19D
:100FB0000D0A01E143D1200A01E140D13A0A01E1E1
:100FC0003DD1200A01E13AD1260A01E135D10D0ACD
:100FD00001E132D11A0A01E1D9D0200A4AE0300AEF
:100FE0001FE0460A0EE0250A01E083D3D950F90F2D
:100FF000E96EFF0EDA20EA6E010EEE5E000EEE5A8A
:10100000EE5A77EC0CF0250EE66E95DB03E1151C2D
:1010100001E169D373EC0CF001E26BD3DB2A69D3F5
:10102000080EDB6A040EDB50010806E2040EDB0446
:101030003BEC0CF0DB508BDB080EDB5009E0030EC1
:10104000DB50010B05E172DB01E04DD3080EDB6ADA
:1010500064DBEFCFDFFFEBEC0CF003E1151C01E1EB
:1010600042D373EC0CF001E3DB2A60DB01E141D3F6
:101070003AD3070EDB5002080FE1B7EC0CF0030E79
:101080007EEC0CF00E0EEECFDBFF0F0EEECFDBFF93
:10109000100EEECFDBFF20D0F70EDBCF17F0F80EEF
:1010A000DBCF18F0020E175E000E185AF70E17C0AD
:1010B000DBFFF80E18C0DBFF17C0E9FF18C0EAFF1E
:1010C0006EEC0CF0166A0E0E14C0DBFF0F0E15C08E
:1010D000DBFF100E16C0DBFF0E0EDBCFE6FF0F0EA0
:1010E000DBCFE6FF100EDBCFE6FFE9EC15F0E552B3
:1010F000E552E552130E05C0DBFF140E06C0DBFF00
:10110000060EDB5005E0130EB2EC0CF001E26ADBD8
:10111000D6EC0CF002E2130E37DB99EC0CF006E093
:10112000040EB2EC0CF002E2050E2EDB030EDBB077
:1011300005D0FCDA01E0D7D2080EDB6A090EDB6AC3
:101140000E0EDBCFF6FF0F0EDBCFF7FF100EDBCF5F
:10115000F8FF0800F550DF6EDF5014E0DCEC0CF017
:1011600011E2EBEC0CF003E1151C01E1BCD2BBDB9E
:1011700001E3DB2A090EDB2AD9500E0FE96E000EBF
:10118000CBDBE7D7D3DA01E1B4D2ADD2C6DA110EA8
:10119000EECFDBFF120EEDCFDBFF110EDBCFE6FF54
:1011A000120EDBCFE6FFBAEC15F0E552E552130E56
:1011B000F3CFDBFF140EF4CFDBFF060EDB5004E0B1
:1011C000130ED0DB01E20EDBD6EC0CF002E2130EC4
:1011D000DBDAAFDB05E0040EC5DB02E2050ED4DA94
:1011E000030EDBB005D0A2DA01E07DD2080EDB6A87
:1011F000090EDB6A110EDBCFE9FF120EDBCFEAFF2F
:10120000EFCFDFFFDF5014E0D7DB12E2E4DB03E1D6
:10121000151C01E168D267DB01E3DB2A090EDB2A3A
:10122000110EDB2ADBCFE9FF120EE8E3DB2AE6D75B
:101230007DDA01E15ED257D2030EDB8E070EDB04AE
:1012400010E195DB040E5ADB0A0EEECFDBFF0B0E2E
:10125000EECFDBFF0C0EEECFDBFF0D0EEECFDBFF94
:101260006CD0070EDB5003082CE1030EDBAE0DD073
:10127000B2DA020E76DAEFCF14F0156A166A176A40
:1012800014AE39D01568166835D0F70EDBCF15F0DF
:10129000F80EDBCF16F0020E155E000E165AF70E92
:1012A00015C0DBFFF80E16C0DBFF15C0E9FF16C046
:1012B000EAFFEFCF14F00A0E14C0DBFF0B0EDB6A5F
:1012C00038D0070EDB50020809E1030EDBAE04D074
:1012D00059DB16AE10D00ED055DB0DD0030EDBAEB1
:1012E00012D079DA020E3DDAF9DA166A176A15AE0B
:1012F00002D016681768E2DA0C0E16C0DBFF0D0E7E
:1013000017C0DBFF1AD0F70EDBCF16F0F80EDBCFDD
:1013100017F0020E165E000E175AF70E16C0DBFF0E
:10132000F80E17C0DBFF16C0E9FF17C0EAFFD6DAD8
:10133000C5DA0C0EDB6A0D0EDB6A060EDB5005E12A
:10134000010EF36E050EF3CFDBFF150EDB6A160EF2
:10135000DB6AD950370F146E000EDA20156E390E85
:1013600014C0DBFF3A0E15C0DBFF380EDB6A080E37
:10137000DB6A0A0EAEDADF50780A12E0200A10E0CB
:10138000280A0CE0200A0AE03F0A06E00D0A02E003
:10139000200A08E1020E05D0080E03D0080EDF2651
:1013A000100E97DA030EDBBE02D0DB92DB94DB502B
:1013B000800B24E08ADAD890030EEB50000A08E68E
:1013C000000EEE5C000EEE58000EEE58000EEE58C9
:1013D00015E213DA09680A680B680C6806EC18F065
:1013E0000A0E00C0DBFF0B0E01C0DBFF0C0E02C0BB
:1013F000DBFF0D0E03C0DBFF2D0E08D0030EDBA2BA
:1014000002D02B0E03D0DBA408D0200EF36E170EF3
:10141000F3CFDBFF150EDB2A02D0170EDB6A050EB9
:10142000DB5003E1B7D901E189D0420E146E340ECE
:10143000156E000E166E070EDBCF17F0186A196ACC
:101440001A6A17C009F018C00AF019C00BF01AC0C8
:101450000CF0D3D9A2EC18F014500024F36E155000
:101460000120F46E16500220F86EF4CFF7FFF3CF90
:10147000F6FF0800090EF5CFDBFF580EDF5C0FE129
:10148000610EF36E090E7BD90AE3200E146E090E6D
:10149000DBCFE7FF1450E75E090EE7CFDBFF070E57
:1014A000DBCF14F0156A166A176A0FDA14C009F058
:1014B00015C00AF016C00BF017C00CF0EECF04F008
:1014C000EECF05F0EECF06F0EFCF07F0A2EC18F06C
:1014D00007C0EDFF06C0EDFF05C0EDFF04C0EFFF44
:1014E000390EDBCFE9FFDB063A0EDBCFEAFF01E284
:1014F000DB06090EDBCFEFFF150EDB2A4BD995E19A
:10150000030EDBA61DD06F0EDF5C06E1C1D918E328
:10151000150EDB285BDA14D0780EDF5C09E0580E7C
:10152000DF5C06E0620EDF5C03E0420EDF5C08E198
:10153000020EF36E160EF3CFDBFF02D0150EDB6A40
:10154000030EDB50100B0EE0040EDBCF14F0050E83
:10155000DB50D880145406E2060EDB5003E1040E83
:10156000DB5034DA95D90AE2050EDBCFE7FF150E22
:10157000DB50E75E050EE7CFDBFF02D0050EDB6A2E
:10158000040EDBCF14F0160E45D9D880145414E2A3
:10159000160EDBCFE6FF150EDBCFE6FF040EDBCF2A
:1015A000E6FF050EDB50E552E75CE552D880E754D4
:1015B000E552D880E7545FD9030EDB50010B0BE1F5
:1015C000080EDB5008E0B2D801E08DD0080EDB50E9
:1015D000BED8080EDB6A170EDB5007E088D9170E5D
:1015E000F1D903E1151C01E17ED0160EDB5016E0A7
:1015F0007ED9300EE66E9FD802E1151C74E077D9D3
:10160000DFCFE6FFC4EC17F0E552E552E552F4CF28
:1016100015F00001F31C02E1151C65E0050EDBCF9F
:1016200014F0160EDB50D880145409E2050EDBCFFF
:10163000E7FF160EDB50E75E050EE7CFDBFF300E4F
:10164000E66E050ECBD94FE1390EDB2ADBCFE9FF81
:101650003A0E01E3DB2ADBCFEAFF090EEFCFDBFF17
:10166000DB500EE044D9090EADD902E1151C3BE078
:10167000390EDB2ADBCFE9FF3A0EEDE3DB2AEBD7AD
:1016800055D831E1160EDBCFE6FF080EC3D8E55280
:10169000E7245DD82ED0070EDB50030A1CE0010AB8
:1016A00014E0030A07E07BD9DBCFEEFF020EDBCFAD
:1016B000EDFF1FD0F5D8196A17AE02D01868196867
:1016C0002CD8BCD819C0EEFF14D0EAD817BE1868C1
:1016D00024D8B4D80ED063D9DBCFEFFF0AD07BD9A2
:1016E00005E1151C03E1F368F46810D0FCD801E3B0
:1016F000DB2A79D918EF07F0010EDBCF14F0020EC8
:10170000DBCF15F014C0F3FF15C0F4FF3B0EE15C16
:1017100002E2E16AE552E16ECBD029D9020E7EEFFA
:101720000CF061D90800F550DF6E1200200EE66E55
:10173000080EEEEF0CF0C4EC17F0E552E552E5525E
:10174000F3CF14F0F4CF15F00001F31C1200146E67
:10175000156AD950010F4DD91450EE261550ED22BF
:101760001200185E000E195AF70E18C0DBFFF80EB3
:1017700019C0DBFF18C0E9FF19C0EAFF1200DBCF78
:10178000F4FFF350F45C1200DB50E76E040EE7CF79
:10179000DBFF12000A0EDBCF14F00B0EDBCF15F0CF
:1017A0000C0EDBCF16F00D0EDBCF17F0145015101A
:1017B000161017101200130EEECFDBFF140EEDCF34
:1017C000DBFF130EDBCF14F0140EDBCF15F000019E
:1017D000800E15141200F70EDBCF18F0F80EDBCFD9
:1017E00019F01200050EDB50E66ED950130F01D927
:1017F000E552E750EE6EED6A12000A0EDBCF04F000
:101800000B0EDBCF05F00C0EDBCF06F00D0EDBCFA1
:1018100007F01200DBCFE6FF150EDBCFE6FF050E6B
:10182000DB50E552E724E552E7241200DB50CED826
:10183000010EF36E060EF3CFDBFF1200EE50EFCF7A
:10184000EAFFE96E16C0EEFF17C0EEFF18C0EEFF0C
:101850001200D9CFE6FFDACFE6FFE1CFD9FFE2CF22
:10186000DAFF1200DFCFE6FFE66ABAEC19F0E552C4
:10187000E552F3501200E76E080EE7CFDBFF1200CF
:10188000EECF14F0EECF15F0EFCF16F0176A12007E
:10189000050EDBCF14F0150EDB50D8801454120067
:1018A000010EDBCF16F0020EDBCF17F0186A120024
:1018B000E552E5CFDAFFE7CFD9FF12000A0E14C0D8
:1018C000DBFF0B0E15C0DBFF1200D9500A0FF9EF3A
:1018D0000CF0F36E070EF3CFDBFF1200EECF14F027
:1018E000EFCF15F01200010EDB2A020E1200FC0EE3
:1018F000DBCFE6FFFD0EDBCFE6FF1200145E000E2D
:10190000155AF70E14C0DBFFF80E15C0DBFF14C02C
:10191000E9FF15C0EAFF1200DA20EA6EEF2AEECFE7
:10192000F6FF000EEF22EECFF7FFEF22EECFF8FF2B
:101930001200040EDBCFE6FF130EDB50E552E75C2E
:101940009ADFDB5004DF060EDB501200090EDB507D
:101950000A0DF350DF24D00FE76E090EE7CFDBFF4F
:1019600091EF0BF0DB50F36E050EBFEF0BF0F70EAF
:10197000DBCF14F0F80EDBCF15F01200DFCFE6FF5F
:101980009BEF0BF028DF030EECDE40EF0CF0EDECEC
:1019900006F0E552E552E552E55200091200BDDEBF
:1019A000EE50EFCFEAFFE96E010E1200130EDB508E
:1019B000F36E040EBFEF0BF0040EDB50F36E090E56
:1019C000BFEF0BF0DBCFE6FF9BEF0BF0E76E050EF2
:1019D000E7CFDBFF12008BDFBEEF0CF0DBCFE6FFC3
:1019E00086DFC7EF0CF0D950F90FE96EFF0E8CEFD0
:0C19F0000CF0E96E000EDA20EA6E120026
:0419FC0080909290B5
:101A0000300E45DB9280080E42DB80B0010C200EC8
:101A10003EDB000C04DB80909290010E12DBFE0E88
:101A2000DB5002E1300E0DDB9280080E0ADBFE0E69
:101A3000DB0402E1300E05DBF7D238DB80909290B8
:101A4000010EFFDA9280080EFCDA8050010BDF6E87
:101A5000280EF7DADF50E552E7D228DB01DBE8AEEB
:101A600002D0E73402D0E750145C12E2FE0EDBA095
:101A700003D0010EE66E01D0E66ACCDFE552FE0E21
:101A8000DB407F0BE76EFE0EE7CFDBFFDF2AE6D7FA
:101A9000E552CAD2C4DA030EE126DF6A010EDB6A20
:101AA000020EDB6ADDDAE8AE02D0E73402D0E7509E
:101AB000145C13E2C2DFE76E020EE7CFDBFF010E1C
:101AC000DB407F0BE76E010EE7CFDBFF020EDB5042
:101AD00002E0010EDB8EDF2AE5D7010EDBCFE6FF49
:101AE0000FD8E552010EDB50146E030EE15C02E2EA
:101AF000E16AE552E16E145097D20001BC6B12000E
:101B00008EDAE652FE0EDB500001BC19DF6EDF50AC
:101B1000F76A1C0FF66E2C0EF7220800F5CFBCF00A
:101B2000E55282D20001BD51120079DAFE0EDBCF00
:101B3000BDF07AD2BBDABE0E8FDADFDFDFCF14F072
:101B4000090EE76E1418E8AE02D0E73402D0E75071
:101B5000145C10E29FDFE66EDFCFE9FFEA6AE9BEC0
:101B6000EA68600EE926000EEA22E552E750EF6EC1
:101B7000DF2AE4D70001BC51E55256D28BDF0009C1
:101B800001E1010C000C3ADFCC0E66DA0A0EE66EBB
:101B9000CCEC19F0E552440E2CEF10F087DAEEDFB2
:101BA00000090BE01F0EE66ECCEC19F0E552DF2ABF
:101BB000FF0EDF5CF4E1010E01D0000EE55234D2DD
:101BC0002EDA070EE126020EDB6A030EDB6A040E34
:101BD000DB6A050EDB680001726B10DF00095DE156
:101BE000F00E3ADA040EDB6A31DAE8AE02D0E734FE
:101BF00002D0E750145C74E2060EDB6A030EDB6A67
:101C000025DAE8AE02D0E73402D0E750145C5BE29C
:101C100014DFDF6E12DFE76E010EE7CFDBFFDF5070
:101C200037E1010EDB5034E1020EDB50E76E050EAA
:101C3000E7CFDBFFDBCF14F000017151E76E141822
:101C4000E8AE02D0E73402D0E750145C13E224DAA5
:101C5000E9BEEA680BDA0CE0010EF36E030EDB500E
:101C600004E0D890F336E806FCE1F350000906E101
:101C7000DF6A15D0050EDB50715D03E1010EDF6EEA
:101C80000ED0DF6A050EDBCF71F0010E726F07D048
:101C9000DF5005E0010EDB5002E0010E3CD0060EE5
:101CA000DB407F0BE76E060EE7CFDBFFDF5002E085
:101CB000060EDB8EDFCFE6FFADDEE552020EDB2A3D
:101CC000030EDB2A9DD7E8D9E9BEEA68690EE9264A
:101CD000000EEA22060EDBCFEFFF040EDB2A84D7CC
:101CE0000CDF040EDB6AB2D9E8AE02D0E73402D0D2
:101CF000E750145C0AE2D0D9E9BEEA68B7D9E66ECB
:101D0000FFDEE552040EDB2AEED70001BC5102E0F3
:101D1000BC5101D0000E146E070EE15C02E2E16AD4
:101D2000E552E16E145080D17AD9030EE126010EFE
:101D3000DB6AE66AFADEE55200017169010E726F34
:101D40005DDE000902E0010E45D0000172513CE069
:101D500037DFDF6EDF5002E0DF503CD0020EDB6A7F
:101D600075D9E8AE02D0E73402D0E750145C29E21E
:101D7000020EDBCFE9FFEA6AE9BEEA6877D9E66ED0
:101D8000010EDBCFE9FFEA6AE9BEEA680B0EEA0260
:101D9000F3CFEAFFE902F3CFE9FFF450EA26730E2E
:101DA000E926000EEA227DD9020EDBCF16F0176A73
:101DB00016BE176865D9E552E750EF6E020EDB2AB2
:101DC000CFD7010EDB2AC1D7010EDBCFE6FFADDE98
:101DD000E552000E146E030EE15C02E2E16AE55288
:101DE000E16E145021D11BD9040EE12663D902E221
:101DF000010E52D064D9EF6A01DE550E2DD9DF6A8B
:101E0000080EDF5C12E2FFD84CD9DF500F01E92445
:101E1000E96E000EEA20EA6E010EEFCFDBFFDBCFAA
:101E2000E6FF1BDEE552DF2AEBD784DE000902E085
:101E3000020E32D000016151E66ED950020FE96EF8
:101E4000DACFEAFFE552E750EE6EED6A020EDBCF25
:101E500014F0030EDBCF15F014C015F0146A020E57
:101E600014C0DBFF030E15C0DBFF6051146E156A52
:101E7000D950020FE96EDACFEAFF1450EE26155062
:101E8000ED2221D9020EDBCFEEFF030EDBCFEDFFFB
:101E900016D9010EEF6E000E146E040EE15C02E224
:101EA000E16AE552E16E1450BFD0B9D8150EE126B3
:101EB000130EDB6A68DE72DE000913E1130EB8D878
:101EC000E76E1418E8AE02D0E73402D0E750145C95
:101ED00008E2130EDBCFE6FF86DFE552130EDB2AA6
:101EE000EDD7150EE15C02E2E16AE552E16E9CD0AD
:101EF00094EF0EF094D8DED802E2FE0EDB6A83D8AF
:101F0000EECF14F0EECF15F0EECF16F0EECF17F0C7
:101F1000EECF18F0EECF19F0EECF1AF0EECF1BF0A7
:101F2000EECF1CF0EECF1DF0EFCF1EF0D9CFE9FFC2
:101F3000DACFEAFFED50ED501EC0EDFF1DC0EDFF02
:101F40001CC0EDFF1BC0EDFF1AC0EDFF19C0EDFF77
:101F500018C0EDFF17C0EDFF16C0EDFF15C0EDFF77
:101F600014C0EFFF61D05BD8A5D802E2FE0EDB6A99
:101F7000AAD8EECF14F0EFCF15F014C0F3FF15C0C0
:101F8000F4FF52D093D86CD8E8AE02D0E73402D038
:101F9000E750145C1DE237D884D8DFCF16F0176AFB
:101FA00016BE17686DD8EF50E66EE66A8B0E186E97
:101FB000250E196E1A6A18C0E6FFE66E1AC0E6FF13
:101FC00033EC17F01B6E050EE15E1B50DF2ADBD7EA
:101FD00076D8EF50E66EE66A76D8EECFE6FFEFCF22
:101FE000E6FF7C0E146E250E156E166A14C0E6FF11
:101FF000E66E16C0E6FF33EC17F0176E070EE15ED3
:102000001750E55211D0FE0EDB500B0DF3CFE9FF58
:10201000F4CFEAFF730EE926000EEA221200D9CFB0
:10202000E6FFE1CFD9FF1200E552E7CFD9FF12005A
:10203000DBCF14F014C0E6FF75DDE552E7CF14F0F6
:102040001200E66E16EC1AF0E5521200DBCF14F027
:10205000080EE76E14181200E66EFFDCE55212005F
:10206000DFCF14F0080EE76E14181200690EE9268F
:10207000000EEA22EF501200E926000EEA221200BA
:1020800014501624E96E15501720EA6E1200E66E01
:1020900008EC1AF0E5521200040EDBCFE9FFEA6A01
:1020A0001200E9CF14F0EACF15F01200B8DFE652C3
:1020B000DF6A1200FE0EBCDFD88014541200A3DFCA
:0E20C0000A0E3CEF10F09FDF080E3CEF10F010
:0220CE000F9E63
:1020D00005D00F9E07AE02D0076C0F8E07C001F02F
:1020E000006A136A126A860E026E036A27EF12F004
:1020F0000F9E08D00F9E07AE05D0066C071EE86A3B
:1021000007220F8E07C001F006C000F0136A126AA2
:102110008E0E026E036A27EF12F00F6A63EC12F064
:102120007BEC12F00FB60BEF12F00FA205D00FBA36
:102130000BEF12F012EF12F00FBA1EEF12F00FA019
:1021400005D00FB80BEF12F01EEF12F00FB812EF20
:1021500012F0036A7F0E0824026EE86A03220D5013
:10216000025EE86A035A1A0E106E086A126A136A4F
:10217000006A016A0A50055E0B50065A0C50075A55
:10218000000E085A09E70A5005260B5006220C508B
:102190000722000E082201D0128AD8900536063692
:1021A00007360836D8901236133600360136102E10
:1021B000E1D7075006100510D8A4128A27EF12F0B5
:1021C0000F6A63EC12F07BEC12F00FB60BEF12F01B
:1021D0000FA205D00FB80BEF12F012EF12F00FAAFA
:1021E00005D00FB00BEF12F012EF12F00FB002D0CB
:1021F0000FA802D01EEF12F0036A0D500824026EE1
:10220000E86A03227E0E025EE86A035A126A136AC3
:10221000006A016A0C500702F4CF01F0F3CF00F01E
:102220000B500702F3501326F4500022000E012237
:102230000C500602F3501326F4500022000E012227
:102240000A500702F3501226F4501322000E002207
:1022500001220B500602F3501226F4501322000EF6
:10226000002201220C500502F3501226F4501322D2
:10227000000E002201220A500602F4501226000E1F
:102280001322002201220B500502F4501226000EE8
:1022900013220022012227EF12F00D7E0F6A63EC59
:1022A00012F07BEC12F00FB60BEF12F00FA20AD077
:1022B0000FAA03D00FBE0BEF12F00FA417EF12F00E
:1022C00014EF12F00FAA05D00FAC17EF12F014EFB5
:1022D00012F00FA00AD00FA808D00FBE04D00FA490
:1022E00002D020EF12F024EF12F0126A036A0D50B0
:1022F000085C116E10E305C013F006C000F007C0C3
:1023000001F008C010F00AC005F00BC006F00CC0C8
:1023100007F00F3A09D00AC013F00BC000F00CC050
:1023200001F00DC010F0116C0F9E0FBC0F8E10C08D
:1023300002F00FB053EF12F01A0E116053EF12F0CB
:10234000026A086A0FA408D0056C061E071E081E44
:10235000E86A0622072208220FAC08D0136C001E80
:10236000011E021EE86A002201220222046A1152A2
:1023700007E008340732063205320432112EF9D74D
:102380000550132606500022075001220850022251
:1023900004C012F00F9E02AE0BD0126C131E001E72
:1023A000011E021EE86A13220022012202220F8E61
:1023B00002A006D0D8800132003213321232102A25
:1023C00010C002F027EF12F00F6A63EC12F00FB6A4
:1023D000EEEF11F00FA20AD00FB403D07F0E076EFC
:1023E00019D0800E076E16D0076A14D00FB0FCD734
:1023F000870E0860F1D77E0E0864F6D7860E085C5B
:1024000004E0D8900732082AF9D70FA403D0076C4C
:1024100007AEEAD712007F0E086EFF0E076E066E3B
:10242000056E12007F0E0FBEFF0E086E02D07F0EEB
:10243000086E800E076E066A056AF3D70FAE04D0E9
:10244000800E086E076AF7D7086A076AF4D701504A
:10245000001013101210F8E003BEF0D701BE0CD02C
:1024600002500310EBE0D8901236133600360136D6
:102470000206D8A00306F2D70350D4E10228D2E026
:1024800012AE11D07F0E121402E113A00CD0132A49
:10249000E86A0022012207E3D880013200321332B9
:1024A000022A0228BFE00250C9E013C005F000C0B4
:1024B00006F00134076E0230086E0732089E0FBE28
:1024C000088E11EF12F00736083602E30F840F7EF4
:1024D00006E10F80086A076A066A056A1200082882
:1024E00003E0D88007321200D890073202E10F8251
:1024F00012000F8612000C360D3602E30F8C0F7E91
:1025000006E10F880D6A0C6A0B6A0A6A12000D2830
:1025100003E0D8800C321200D8900C32EAE10F8A26
:10252000120007C013F006C012F006500B02F4CFE1
:1025300005F0F3CF04F007500C02F4CF07F0F3CF0F
:1025400006F00B02F3500526F4500622E86A072233
:1025500012500C02F3500526F4500622E86A0722B6
:102560000CAEB7EF12F01250065E1350075A13AEBE
:0C257000000C0B50065E0C50075A000CCB
:04257C00202D2025C9
:10258000303458202D2025580D0A002530325800AF
:102590004572726F723A20696E76616C696420735D
:1025A000656E736F72006E6577636F6E663D006374
:1025B000757272656E743D00747970653D766172F6
:1025C0006961626C65006D6F64653D666C6F6F6418
:1025D000006465766963653D70776D6F757400643E
:1025E00065766963653D656C6563006465766963FE
:1025F000653D7761746572006465766963653D6702
:10260000617300636F6D6D616E643D6375727265B9
:102610006E7400636F6D6D616E643D72657175659A
:102620007374007D00636F6E74726F6C2E626173E1
:10263000696300636F6E6669672E63757272656E9B
:10264000740068626561742E7265717565737400DB
:1026500073656E736F722E72657175657374006346
:102660006F6E6669672E726573706F6E7365006357
:102670006F6E6669672E6C6973740074617267654A
:10268000743D686F6C6C69652D7574696C6D6F6EE7
:102690002E007461726765743D2A0078706C2D633A
:1026A0006D6E640078706C5F68616E646C65723A20
:1026B00064656661756C74202D2073746174652087
:1026C0002564202D2057452053484F554C44204E1B
:1026D0004556455220424520484552452000525813
:1026E0004F0064656661756C7400656C65630077A6
:1026F000617465720067617300747970653D76611D
:10270000726961626C650A63757272656E743D25EB
:10271000690A7D0A0073656E736F722E6261736958
:10272000630A7B0A6465766963653D70776D6F75D2
:10273000740A000A747970653D74656D700A63757A
:102740007272656E743D25692E25690A7D0A002521
:10275000303258000A747970653D636F756E740A83
:1027600063757272656E743D25750A7D0A00736526
:102770006E736F722E62617369630A7B0A64657699
:102780006963653D00636F6E6669672E637572727B
:10279000656E740A7B0A6E6577636F6E663D25739E
:1027A0000A7D0A00636F6E6669672E6C6973740A2E
:1027B0007B0A7265636F6E663D6E6577636F6E66EA
:1027C0000A7D0A00636F6E6669672E656E640A7B18
:1027D0000A696E74657276616C3D310A7D0A006328
:1027E0006F6E6669672E62617369630A7B0A696E40
:1027F00074657276616C3D310A76657273696F6ECD
:102800003D25692E25690A7D0A007D0A0070776DD5
:102810006F75743D25690A0074656D7073656E731C
:102820006F72733D25690A0068626561742E62618A
:102830007369630A7B0A696E74657276616C3D35F3
:102840000A76657273696F6E3D25692E25690A00E7
:102850002E25730A7461726765743D2A0A7D0A0029
:102860007574696C6D6F6E000A7B0A686F703D311C
:102870000A736F757263653D686F6C6C69652D00D6
:0F2880007472696700737461740078706C2D0056
:1028900005D8FBEC02F056EC03F0FDD7D9CFE6FFEC
:1028A000E1CFD9FFE652DF6AD388D38AD38C9B8CE1
:1028B0000F0EC16EEF0E926E070E936EDE0E946ECB
:1028C000330EE66EE66A7C0EE66E7FEC17F0E5529C
:1028D000E552E552DF50DF2A146E050EE76E14183C
:1028E000E8AE02D0E73402D0E750145C0DE2320EBD
:1028F000E66E8DEC19F0E5528098320EE66E8DECA6
:1029000019F0E5528088E6D7970EE66E3EEC19F096
:10291000E552C2D8F50EE66EC6EC18F0E552C5D801
:10292000F19EF19CF19AF198F292F288F090F08683
:10293000F092F088F28CF28EE552E552E7CFD9FFA3
:102940001200DACFE4FFE2CFDAFFE9CFE4FFEACF0B
:10295000E4FFF6CFE4FFF7CFE4FFF5CFE4FFF3CFDA
:10296000E4FFF4CFE4FFFACFE4FF00EE00F0140E32
:10297000E80403E3EECFE4FFFBD700EE14F0110E02
:10298000E80403E3EECFE4FFFBD7E6529EAA08D0AB
:10299000E7EC18F0E66E28EC00F0E5529E9A47D07E
:1029A000F2A205D00001020EB46FF2920DD0F0A099
:1029B00005D00001020EB56FF09006D0F0A206D04F
:1029C0000001020EB66FF092809831D0F2A407D0C9
:1029D00063D8F2940001B72B000EB823B92B9EA048
:1029E00026D063D89E900001B45109E0B4078088D6
:1029F000B45105E18150010B02E1020E5FD80001E4
:102A0000B55109E0B5078088B55105E18150020B49
:102A100002E1010E53D80001B65109E0B6078088E3
:102A2000B65105E18150040B02E1040E47D8E5528E
:102A300000EE24F0110EE80403E3E5CFEDFFFBD731
:102A400000EE13F0140EE80403E3E5CFEDFFFBD72F
:102A5000E5CFFAFFE5CFF4FFE5CFF3FFE5CFF5FFD4
:102A6000E5CFF7FFE5CFF6FFE5CFEAFFE5CFE9FFDA
:102A7000E5CFDAFF1100D8CFE4FFE0CFE4FFE46E4A
:102A8000DACFE4FFE652E552E5CFDAFFE550E5CFD5
:102A9000E0FFE5CFD8FF1000EE0EE66E850EE66E85
:102AA00022EC19F0E552E5521200E00EE66EB10E8E
:102AB000E66E06EC19F0E552E5521200E66EB8EC4F
:062AC00005F0E5521200D2
:0A2AC600D9CFE6FFDACFE6FFFA0EE3
:102AD000E3CFD9FFFB0EE3CFDAFFFC0EE3CFE9FF34
:102AE000FD0EE3CFEAFFDE50EF5C02E1EE66FBD7BE
:102AF000F36EFF0EE3CFDAFFE552FF0EE3CFD9FF0F
:102B0000E552F3501200FD0EE3CFF6FFFE0EE3CFC9
:102B1000F7FFFF0EE3CFF8FFFB0EE3CFE9FFFC0E5C
:102B2000E3CFEAFFEE500900F55C02E1F566FAD763
:102B30001200D9CFE6FFDACFE6FFFA0EE3CFD9FFD6
:102B4000FB0EE3CFDAFFFC0EE3CFE9FFFD0EE3CF90
:102B5000EAFFE9CFF3FFEACFF4FFDECFEFFFEE6647
:102B6000FCD7FF0EE3CFDAFFE552FF0EE3CFD9FF2C
:102B7000E5521200FE0EE3CFE9FFFF0EE3CFEAFFBE
:102B8000F36AF46AEE5203E0F34AF42AFBD7120028
:102B9000FD0EE3CFF6FFFE0EE3CFF7FFFF0EE3CF10
:102BA000F8FFFB0EE3CFE9FFFC0EE3CFEAFFF90EDF
:102BB000E35003E1FA0EE3500BE0F90EE30602E204
:102BC000FA0EE306EE500900F55C02E1F566EFD778
:102BD0001200FF0EE3CFF8FFE552FF0EE3CFF7FF41
:102BE000E552FF0EE3CFF6FFE552E66AE66AE66AD3
:102BF0000900F55209E0FD0EE32A05E1FE0EE32A85
:102C000002E1FF0EE32AF4D7FD0EE3CF05F0FE0E3E
:0C2C1000E3CF06F0FF0EE3CF07F0120048
:042C1C00005EBCE2B8
:102C2000613FDD83C29C7E20A3FD1F419DC3217FA8
:102C3000FCA2401E5F01E3BD3E6082DC237D9FC19C
:102C4000421CFEA0E1BF5D0380DE3C62BEE0025C90
:102C5000DF81633D7C22C09E1D43A1FF4618FAA47C
:102C600027799BC584DA3866E5BB5907DB85673968
:102C7000BAE406581947A5FB7826C49A653BD9875C
:102C8000045AB8E6A7F91B45C6987A24F8A6441A50
:102C900099C7257B3A6486D85B05E7B98CD2306E3C
:102CA000EDB3510F4E10F2AC2F7193CD114FADF328
:102CB000702ECC92D38D6F31B2EC0E50AFF1134D1C
:102CC000CE90722C6D33D18F0C52B0EE326C8ED010
:102CD000530DEFB1F0AE4C1291CF2D73CA947628FC
:102CE000ABF517490856B4EA6937D58B5709EBB5E8
:102CF00036688AD495CB2977F4AA4816E9B7550BDC
:102D000088D6346A2B7597C94A14F6A8742AC896CF
:0C2D1000154BA9F7B6E80A54D7896B35BB
:042D1C00D9CFE6FF26
:102D2000DACFE6FFE1CFD9FFE2CFDAFFE652E65293
:102D3000E652E652D950F90F146EFF0EDA20156EE6
:102D4000020E14C0DBFF030E15C0DBFF020EDBCF4B
:102D5000E6FF030EDBCFE6FFF90EDBCFE6FFFA0E50
:102D6000DBCFE6FFFB0EDBCFE6FFD950FC0FE66EB4
:102D7000FF0EDA20E66E03EC07F0146E070EE15C3E
:102D800002E2E16AE552E16E1450F3CFDEFFF4CFC8
:102D9000DDFFFC0EDBCFE9FFFD0EDBCFEAFFEF6AC4
:102DA000DECF14F0DDCF15F014C0F3FF15C0F4FF33
:102DB000040EE15C02E2E16AE552E16EE552E5CF24
:082DC000DAFFE7CFD9FF120092
:082DC8001E0EF66E000EF76E00
:102DD000000EF86E00010900F550AF6F0900F550C4
:102DE000B06F03E1AF6701D03DD00900F550AA6F85
:102DF0000900F550AB6F0900F550AC6F09000900F0
:102E0000F550E96E0900F550EA6E09000900090065
:102E1000F550AD6F0900F550AE6F09000900F6CF0F
:102E2000B1F0F7CFB2F0F8CFB3F0AAC0F6FFABC065
:102E3000F7FFACC0F8FF0001AD5302E1AE5307E06D
:102E40000900F550EE6EAD07F8E2AE07F9D7B1C054
:102E5000F6FFB2C0F7FFB3C0F8FF0001AF07000EE6
:062E6000B05BBFD71200B9
:0A2E6600D9CFE6FFDACFE6FFE1CF97
:102E7000D9FFE2CFDAFFE652E652E652E652D950E7
:102E8000FB0F146EFF0EDA20156E14C0DEFFDD6E30
:102E9000DECFE6FFDDCFE6FFFB0EDBCFE6FFFC0E6D
:102EA000DBCFE6FFFD0EDBCFE6FFBAC0E6FFBBC01F
:102EB000E6FF03EC07F0146E070EE15C02E2E16A44
:102EC000E552E16E1450020EF3CFDBFF030EF4CF98
:102ED000DBFF020EDBCF14F0030EDBCF15F014C0C6
:102EE000F3FF15C0F4FF040EE15C02E2E16AE55273
:0E2EF000E16EE552E5CFDAFFE7CFD9FF120021
:022EFE00D9CF2A
:102F0000E6FFDACFE6FFE1CFD9FFE2CFDAFFAC6A26
:102F1000AB6AFD0EDBB0AC88DBA202D0AC8CAB8C14
:102F2000DBB4AC8EDBA602D0AB8801D0AB8ADBB8B9
:102F3000AC849E98DBBAAB86DBAC02D09D8A01D014
:102F40009D9A9E9ADBAE02D09D8801D09D98FB0E83
:102F5000DB50AF6EFB0EFC0EDBCF15F015C014F08E
:102F6000156A1450B06EAC8AAB8E949C948EAC50A3
:102F7000100B04E0AC50800B01E1948CE552E5CFDE
:082F8000DAFFE7CFD9FF1200D0
:082F8800D9CFE6FFDACFE6FF26
:102F9000E1CFD9FFE2CFDAFFFB0EDBCF14F0FC0E5E
:102FA000DBCF15F00001800E15141AE1FB0EDBCF0C
:102FB000E9FFFC0EDBCFEAFFEECFF3FFEDCFF4FF2E
:102FC000EE2A000EEF22F3CFE9FFF4CFEAFFFD0E69
:102FD000DBCFEFFFEF50156AF36E15C0F4FF10D092
:102FE000FB0EDB50FE0806E1FD0EDBCFE6FFFAEC40
:102FF00019F005D0FD0EDBCFE6FF03EC00F0E55243
:0C300000E552E5CFDAFFE7CFD9FF120060
:04300C000450090261
:10301000F3CF00F0F4CF01F00A02F3500126000EC6
:10302000F420026E04500B02F3500226000EF4202E
:10303000036E04500C02F350032605500902F350AE
:103040000126F4500222000E032205500A02F3501A
:103050000226F450032205500B02F35003260650BB
:103060000902F3500226F450032206500A02F350DC
:0C307000032607500902F350032612004B
:04307C00D9CFE6FFC3
:10308000E1CFD9FFFE0EDB50A96EA69EA69CA680BE
:10309000A850E552E7CFD9FF1200D9CFE6FFE1CF24
:1030A000D9FFE652DF6AA69CA6B2FED7FE0EDB5021
:1030B000A96EFD0EDB50A86EA69EA684F2AE03D0CC
:1030C000F29E010EDF6E550EA76EAA0EA76EA682A7
:1030D000A694A6B2FED7DF5001E0F28EE552E5528B
:0630E000E7CFD9FF12004A
:0A30E600D9CFE6FFDACFE6FFE1CF15
:1030F000D9FFE2CFDAFFE652E652FC0EDBCF14F046
:10310000FD0EDBCF15F0060ED89014361536E80408
:10311000FBE114C0DEFF15C0DDFF010EDB50BE6E0B
:10312000DF50E840E8403F0B300B146ECF0EBD146B
:103130001410BD6EE552E552E552E5CFDAFFE7CF58
:04314000D9FF1200A1
:0C314400036A026A016A006A200EE76E4E
:10315000D890043605360636073600360136023674
:1031600003360950005C0A5001580B5002580C50AD
:10317000035809E30950005E0A50015A0B50025AE5
:0C3180000C50035A042AE72EE4D712007A
:04318C00D9CFE6FFB2
:10319000DACFE6FFE1CFD9FFE2CFDAFFFD0EDB5059
:1031A0007E0BCD6EFD0EDBAC02D0CD8E01D0CD9E60
:1031B000CF6ACE6A9E90DBAE02D09D8001D09D90FA
:0E31C000CD80E552E5CFDAFFE7CFD9FF120050
:0231CE00D9CF57
:1031D000E6FFDACFE6FFE1CFD9FFE2CFDAFFE65232
:1031E000F20E0101FF17ABAC03D0FF91ABB0FF8132
:1031F000ABB4FF85ABB2FF87AE50DF6EDF50E55258
:0C320000E552E5CFDAFFE7CFD9FF12005E
:04320C00D9CFE6FF31
:10321000DACFE6FFE1CFD9FFE2CFDAFFE652E6529E
:10322000FC0EDBCFDEFFDBCFDDFF010EDB50CF6E10
:10323000DF50CE6EE552E552E552E5CFDAFFE7CF3B
:04324000D9FF1200A0
:0C324400D9CFE6FFDACFE6FFE1CFD9FFDB
:10325000E2CFDAFFE652E652FC0EDBCFDEFFDBCF39
:10326000DDFF010EDB50D76EDF50D66EE552E55222
:0C327000E552E5CFDAFFE7CFD9FF1200EE
:04327C00D9CFE6FFC1
:10328000DACFE6FFE1CFD9FFE2CFDAFFFD0EDB5068
:103290007F0BD56ED76AD66AF294FD0EDBAE02D0F4
:1032A000F28A01D0F29AD58EE552E5CFDAFFE7CF68
:0432B000D9FF120030
:0C32B400D9CFE6FFDACFE6FFE1CFD9FF6B
:1032C000E2CFDAFFFD0EDB50FB0BCA6ECC6A9E929A
:1032D000FD0EDBAE02D09D8201D09D92CA84E552E4
:0A32E000E5CFDAFFE7CFD9FF1200B7
:0632EA00D9CFE6FFDACFA8
:1032F000E6FFE1CFD9FFE2CFDAFF0C0EBD129494C6
:10330000CA94FD0EDB50CB6ECA84E552E5CFDAFFDE
:0A331000E7CFD9FF120094941200D9
:06331A00FF0EE350266ED9
:10332000EF0E01D0F30EE76EE72E94EF19F00C0EBE
:10333000256EE76AE72E9AEF19F0252E99EF19F01E
:08334000262E92EF19F0120095
:08334800036A026A100EE76E31
:10335000D89006360736023603360B50025C0C5006
:10336000035805E30B50025E0C50035A062AE72E61
:04337000F0D7120080
:0C337400F36AF46AFF0EE124E96EFF0E1C
:10338000E220EA6EED6607D02F0EEF6404D03A0E0D
:08339000EF6001D0F32A1200E6
:08339800FF0EE350266E480E03
:1033A00001D04C0EE76EE72EFED7E76AE72EFED778
:0833B000262EF7D700001200E1
:0833B800000EF36E00EE00F0C0
:1033C000060E01D81200EA6002D0EE6AFCD7F35074
:0833D000E9601200EE6AFCD76F
:0833D80015EE00F025EE00F0F7
:1033E000F86A0F9CE4EC16F007EC00F048EC14F0DF
:0433F000FBD71200F5
:0C33F400FF0EE350ACBA04D0AF6AAB8E01
:10340000AC8A949CACA2FED7AD6EF36EF46A120047
:10341000FF0EE350266E1B0E00D001D0200EE76E8B
:0C342000E72EFED7262EFAD700D01200AF
:04342C00FF0EE3505C
:10343000E84E1200000000D000D000D0E82EFAD7ED
:02344000120078
:0E3442003031323334353637383961626364E5
:03345000656600AE
:02345300FEFF7A
:02345500000075
:020000040030CA
:0100010008F6
:0100020018E5
:010003001EDE
:01000500807A
:010006008178
:010008000FE8
:01000900C036
:01000A000FE6
:01000B00E014
:01000C000FE4
:01000D0040B2
:00000001FF
