:020000040000FA
:0600000013EF26F01200D0
:020006001200E6
:06000800C1EF1EF0120022
:02000E001200DE
:0400100000000000EC
:0400140027010000C0
:0600180064EF1FF012006E
:02001E000400DC
:10002000A34C0000CF00000002000000A14C000023
:10003000CD0000000200000014000000C400000019
:100040000400000010000000C000000004000000D8
:10005000CFEC06F001010051002BE96EEA6AE9BE1F
:10006000EA68AE0EE926010EEA22FE0EDBCFEFFFB4
:10007000022B280E005D01E1006B1E0EE76E0219D7
:10008000E8AE02D0023503D0E750D880025504E232
:10009000FE0502E109EC07F0D4EF06F0CFEC06F024
:1000A000E65201010151012BE96EEA6AE9BEEA68F4
:1000B000AE0EE926010EEA22EFCFDFFF0207280E7F
:1000C000015D01E1016B140EE76E0219E8AE02D08A
:1000D000E73402D0E750025D05E2FE5103E1D8ECBF
:1000E00006F0E552DF50E552D4EF06F0CFEC06F013
:1000F000280EE66EB4EC25F0E552550EE66E3C0E89
:10010000E66E000EC0EC06F0FE0EDB5008E1F0ECEF
:1001100006F0500EE66E3C0EE66E000E07D0F0ECD8
:1001200006F04B0EE66E3C0EE66E000EC7EC06F0D7
:10013000330EE66E3C0EE66E000EC0EC06F02B0EA3
:10014000E66E3C0EE66E000EC0EC06F0F0EC06F03B
:100150001B0EE66E3C0EE66E000EC7EC06F0D4EF0A
:1001600006F012EC07F0F30EE66E3B0EE66E000EA4
:1001700034EC07F00001C0A30FD087EC14F0006E40
:10018000016A00BE016804EC07F0E30EE66E3B0E68
:10019000E66E000EFEEC06F00001C0A507D0D50EFD
:1001A000E66E3B0EE66E000EC0EC06F00001C1519B
:1001B000E66EE66ACA0EE66E3B0EE66E000EC7EC11
:1001C00006F0C70EE66E3B0EE66E000EC0EC06F0C3
:1001D0000001010EC26F120012EC07F09C0EE66ED9
:1001E0003B0EE66E000E34EF07F091EC07F0810E47
:1001F000E66E3B0EE66E000EC0EF06F091EC07F0E7
:10020000610EE66E3B0EE66E000EC0EF06F091EC5E
:1002100007F0F0EC06F0420EE66E3B0EE66E000EC6
:10022000C7EF06F0CFEC06F078EC07F0FB0EDBCF63
:10023000E6FFFC0EDBCFE6FFFD0EDBCFE6FF0EECAC
:1002400023F0E552E552E552F90EDBCFE6FFFA0E58
:10025000DBCFE6FF110EE66E3B0EE66E000EC7EC3E
:1002600006F0D4EF06F0CFEC06F0120EE1260C0EED
:10027000DB6A0D0EDB6A200EF36E0E0EF3CFDBFF92
:10028000C10EF36E0F0EF3CFDBFF0A0EE126FD0E5B
:10029000DBCFE6FF6FEC16F0EECF00F0EECF01F013
:1002A000EECF02F0EECF03F0EECF04F0EECF05F08C
:1002B000EECF06F0EECF07F0EECF08F0EECF09F06C
:1002C000EECF0AF00B6E0B0EE15E0B5000C0DFFFAD
:1002D000010E01C0DBFF020E02C0DBFF030E03C0F4
:1002E000DBFF040E04C0DBFF050E05C0DBFF060EBE
:1002F00006C0DBFF070E07C0DBFF080E08C0DBFFF0
:10030000090E09C0DBFF0A0E0AC0DBFFDB5001E16A
:10031000C9D0DF50100A08E0380A1CE1E4EC06F00E
:10032000800E306E410E04D0E4EC06F0306A400ED0
:10033000316E2BEC07F011EC18F00C0E29C0DBFF2E
:100340000D0E2AC0DBFF0E0E2BC0DBFF0F0E2CC0E4
:10035000DBFF0ED00C0EDB6A0D0EDB6A840EF36E33
:100360000E0EF3CFDBFF420EF36E0F0EF3CFDBFF6B
:100370000C0EDBCF29F00D0EDBCF2AF00E0EDBCFFB
:100380002BF00F0EDBCF2CF0D1EC18F0100E2BC0A1
:10039000DBFF0C0EDBCF04F00D0EDBCF05F00E0EF5
:1003A000DBCF06F00F0EDBCF07F04AEC07F004C0FE
:1003B00029F005C02AF006C02BF007C02CF064EC31
:1003C00018F088EC07F0100EDBCF10F010C02BF007
:1003D00056EC17F029C00CF02AC00DF02BC00EF01F
:1003E0002CC00FF04AEC07F064EC18F029C008F0BC
:1003F0002AC009F02BC00AF02CC00BF029C02EF047
:100400002AC02FF02BC030F02CC031F02BEC07F0BD
:100410007AEC17F0D1EC18F0110E2BC0DBFF78EC62
:1004200007F00B0EDB6ADBCF00F0080EE76E00185A
:10043000E8AE02D0E73402D0E750005C1CE2D9CF2E
:1004400000F0DACF01F00B0EDBCF02F0036A02BE40
:1004500003683AEC07F0E66EE66A0C0EE66E3B0EB9
:10046000E66E000E96EC07F0046E050EE15E045099
:100470000B0EDB2AD8D7110EDBCFE6FFE66A100E93
:10048000DBCF00F0016A00BE016804EC07F0F00E5B
:10049000E66E3A0EE66E000E96EC07F0026E070E60
:1004A000E15E0250120EE15C02E2E16AE552E16EA9
:1004B000D4EF06F0CFEC06F01AEC07F0D20EE66EA1
:1004C0003A0EE66E000EC0EC06F00001C151E66E79
:1004D000E66AB60EE66E3A0EE66E000EC7EC06F061
:1004E000D4EF06F0CFEC06F0020EE126010EDE6E30
:1004F000DD6AFD0EDB50060A5BE0030A51E0010AEB
:1005000030E0060A18E0030A58E1FE0EDB500BE16A
:10051000E8C1DEFFE9C1DDFF000EDB500101E85F4D
:10052000010EDB50E95B6EEC07F0B20EE66E3A0EA0
:10053000E66E000E2BD0FE0EDB500BE1EAC1DEFFB3
:10054000EBC1DDFF000EDB500101EA5F010EDB5065
:10055000EB5B6EEC07F0AC0EE66E3A0EE66E000E4C
:1005600015D0FE0EDB500BE1ECC1DEFFEDC1DDFF6F
:10057000000EDB500101EC5F010EDB50ED5B6EEC19
:1005800007F0A70EE66E3A0EE66E000EE66EFE0E61
:10059000DBCFE6FF47DE006E060EE15E00500DD0B9
:1005A000EEC1E6FFFE0EDBCFE6FF5DDEE55204D0D6
:1005B000FE0EDBCFE6FF7EDFE552020EE15C02E2DB
:1005C000E16AE552E16ED4EF06F00101036B046BC2
:1005D00012000101E76BFD6BE5EF02F0E0DBE65294
:1005E0000001C091DF6ADFCF00F0100EE76E001847
:1005F000E8AE02D0E73402D0E750005C30E2DFCF53
:10060000E6FF65EC24F0E552E66EDFCFE9FFEA6A2B
:10061000E9BEEA6873EC07F0E552E750EF6EDFCF12
:10062000E9FFEA6AE9BEEA6873EC07F0EF5003E11C
:100630000001C08114D0DF5010E1FF0E0101D65D32
:100640000CE19F0EE66E3A0EE66E000EE66EC8DB1B
:1006500069EC22F099EC07F002D0DF2AC4D7E5520A
:10066000A3D39494060EE66E81EC25F0E552F90EC4
:10067000E66E9CEC25F0E552E80EE66E030EE66EA3
:100680009AEC24F0E552E5526DEC16F0000904E115
:100690000001C0834AEC16F0ABEC07F0000902E160
:1006A0000001C085C0C000F0016A00BE0168ACDB7B
:1006B000920EE66E3A0EE66E000EA0DB8FDF0101B1
:1006C000E86BE96BEA6BEB6BEC6BED6B82DF0101C6
:1006D000006B016B026B0001C26B010169DBE5522B
:1006E00012005DDBFE0EDB500A081FE00101035122
:1006F000006E016AD890015004E6AA0E005C000E5C
:10070000015808E38E0EE66E3A0EE66E000E38DBF8
:1007100060DF15D00351032BEA6A040FE96E010E66
:10072000EA22FE0EDBCFEFFF0AD001010351EA6A95
:10073000040FE96E010EEA22EF6A010EE76F34D36F
:100740002EDB060EE1260101E75139E0010A06E041
:10075000E7C100F0016A00AE1BD119D127D9E76EBD
:10076000050EE7CFDBFFDB50070A1DE0010A18E0AA
:10077000030A14E0010A10E0070A0CE0010A08E08D
:10078000030A04E0010A17E1ECDC15D037DD13D0D1
:100790003EDD11D0010E05D0020E03D0040E01D0B3
:1007A000060E7FDB08D0DF6A0A0EDF5C04E2060E6D
:1007B00078DBDF2AF9D70101E76B07DFF0D00151C1
:1007C000005D04E06BDCE66E8CDFE5520001C35196
:1007D00016E0C3A106D0010EE66EE66EAFDB0001A7
:1007E000C371C3A304D0020ED5DA0001C373C3A53D
:1007F00004D0040ECFDA0001C375070EC317000141
:100800002C0ED880C455010EC55508E2010E00011A
:10081000C01504E0A6DC0001C46BC56B00013C0EF2
:10082000D880C455000EC55508E2010E0001C01560
:1008300004E1D2DC0001C46BC56B0001C6513C0869
:100840000BE2020E0001C01507E0010EC01504E026
:100850000001C66B4AEC16F00001C7513C080BE2E0
:10086000040E0001C01507E0010EC01504E00001F0
:10087000C76BB9EC0BF0020E0001C01539E0010E98
:10088000C01536E0C25134E0DF6A87EC14F0DF5C5B
:100890002FE2D7DAEECF00F0EFCF01F0B5DADFCFFD
:1008A000E6FFA8EC16F0E552E552E7CF01F0E5527D
:1008B000E7CF00F0F3CF02F0F4CF03F0F3500018CD
:1008C00002E10350011812E0DFCFE6FFA8EC16F0BA
:1008D000E552F3CF00F0F4CF01F0B3DAF3CFEEFF3F
:1008E00001C0EDFFDFCFEEF1050E54DADF2ACDD7E0
:1008F000040E0001C01553E0010EC01550E0C251B6
:100900004EE0C1EC0CF0010E28C0DBFF020E29C046
:10091000DBFF030E2AC0DBFF040E2BC0DBFF010E42
:10092000DBCF00F0020EDBCF01F0030EDBCF02F0D5
:10093000040EDBCF03F000C02EF001C02FF002C088
:1009400030F003C031F0F9C129F0FAC12AF0FBC13F
:100950002BF0FCC12CF0F8EC18F0010A05E1010EB7
:10096000DB500101F95D1BE0010EDBCFF9F1020E56
:10097000DBCFFAF1030EDBCFFBF1040EDBCFFCF192
:10098000070E08DA080E06DA090E04DA08D0016844
:100990003BDA540EE66E3A0EE66E000E2FDA060EC5
:1009A000E15C02E2E16AE552E16EFED1F8D90A0E9D
:1009B000E1260101FD51040A01E16AD10D0A01E1BC
:1009C0000ED1010A01E1EDD00F0A01E1C4D0040A01
:1009D00001E1B0D0060A01E192D0030A01E183D01F
:1009E000040A33E0030A0FE0010A01E085D1CAD905
:1009F0004B0EE66E3A0EE66E000EBCD901E07CD1DD
:100A00000101010ED8D0BED9420EE66E3A0EE66E56
:100A1000000EB0D917E0160E96DA2B0EE66E3A0EDF
:100A2000E66E000EE2D901E067D11A0EE66E010E05
:100A3000E66ED6D991EC1FF0E552E552E552E5524B
:100A400000094FE10101020EB6D09CD91F0EE66EDF
:100A50003A0EE66E000E8ED904E10101FD6B010E27
:100A60004CD190D90F0EE66E3A0EE66E000E82D98A
:100A700003E10101040E9FD085D9000EE66E3A0E07
:100A8000E66E000E77D903E10101030E94D07AD906
:100A9000F20EE66E390EE66E000E6CD903E101012E
:100AA000050E89D06FD9E30EE66E390EE66E000EA4
:100AB00061D903E10101060E7ED064D9D50EE66E40
:100AC000390EE66E000E56D903E10101080E73D00F
:100AD00059D9D30EE66E390EE66E000E4BD901E100
:100AE0000BD10101D3D00CDA04E10101FD6B020E40
:100AF00004D17B0E0101045D01E1FED0C7D000DA14
:100B000013E10101FD6B0A0E006E016AC4C02AF0F8
:100B1000C5C02BF02F6E01C030F0CBEC25F02A5071
:100B2000E66EB4EC25F0E5D07B0E0101045D01E139
:100B3000E3D0ACD027D9B30EE66E390EE66E000EC8
:100B400019D903E10101070E36D07B0E0101045DC6
:100B500001E1D2D09BD016D9A80EE66E390EE66E12
:100B6000000E08D904E10101FD6B030EC6D00AD9BD
:100B70009B0EE66E390EE66E000EFCD804E1010114
:100B8000FD6B040EBAD0FED88F0EE66E390EE66EFF
:100B9000000EF0D804E10101FD6B050EAED001019D
:100BA00075D0F0D8810EE66E390EE66E000EE2D8F2
:100BB00004E10101090EFD6F9FD0E4D8760EE66EC8
:100BC000390EE66E000ED6D804E10101FD6B070E6A
:100BD00094D07B0E0101045D01E18ED057D0D2D8B4
:100BE000680EE66E390EE66E000EC4D801E184D0C0
:100BF000080EA9D95F0EE66E390EE66E000EF5D826
:100C000044E10C0EE66E010EE66E4FD955D94DD972
:100C100039D90001C16BDF6A53D9E8AE02D0E7349D
:100C200002D0E750005C13E20A0EC103F3CFC1F01B
:100C3000D950020F006EDACF01F0DFCF02F0036A65
:100C400002BE036817D9D00FC127DF2AE5D7C151EB
:100C5000006E016AFF0E001806E1015004E1E6682B
:100C6000030EE66E0AD0C151006E016AD8900036BC
:100C70000136D89000360136C7D89AEC24F0E552F8
:100C8000E5520101FD6B060E38D00101FD6B34D039
:100C9000080E59D9560EE66E390EE66E000EA5D82E
:100CA0002BE10101FE0501E1B4D8F5EC00F00C0EDA
:100CB000E66E010EE66E94D8FFD892D8E3D8DF6ACC
:100CC000FFD8E8AE02D0E73402D0E750005C0BE278
:100CD000DFCFE9FFEA6AE9BEEA6805D9EF50E66EC0
:100CE000F6D8DF2AEDD7E66AF2D878DC0101FD6B91
:100CF0005FD8E552000E01D0FF0E006E0A0EE15CD7
:100D000002E2E16AE552E16E00504ED048D8FE0E94
:100D1000DB50040A1CE0050A0EE0030A24E101018D
:100D2000FF0EEA5DFF0EEB5903E2EA2B000EEB2308
:100D30000001C3831ED00101FF0EE85DFF0EE959DB
:100D400003E2E82B000EE9230001C38112D0010168
:100D5000FF0EEC5DFF0EED5903E2EC2B000EED23D0
:100D60000001C38506D0400EE66E390EE66E000E19
:100D700007D81AD0E66EB1EC1FF0DBD800091200DC
:100D8000D5D8E5D0040EE66E010EE66E1200CED880
:100D900099EF07F0E66E010EE66E9EEF07F0D9CFF1
:100DA000E6FFE1CFD9FF1200E552E7CFD9FF1200ED
:100DB000010EFE6FFE0EE66EE668110EE66EEBECBF
:100DC00023F0E552E5521200080EDBCF2AF0090E9F
:100DD000DBCF2BF065EC17F09BD82E6A2F6A120040
:100DE000D60EE66E010EE66E1200E66EF6EC1FF011
:100DF000006E070EE15E00500009120097D8026EE7
:100E0000050EE15E0250120000C0E6FF01C0E6FFE1
:100E10001200FE6BFE0EE66EE668130EE66EEBEC5D
:100E200023F095D07ED8060EE66EE66A040EE66ED6
:100E3000E66A1200FE0EDBCFE6FF76EC00F0E5522C
:100E40001200EA6ADF34FE0BEA36E96EEF0EE9269D
:100E5000010EEA22120000C029F001C02AF002C0EF
:100E60002BF003C02CF0120061D8006E070EE15E7B
:100E70000050120000500224E96E01500320EA6E77
:100E8000EF501200E8EC1FF0E552E552010EF3CFEF
:100E9000DBFF12002E6A2F6AC80E306E420E316ED2
:100EA0001200E66EE66A9EEF07F0D950020FE66E7A
:100EB000000EDA20E66E1200C7EC1FF0E55247D0B4
:100EC000DFCF00F0010EDB50E76E00181200DFCF1D
:100ED000E6FF74EC24F0E552E5521200DECFE6FFA7
:100EE000DDCFE6FF1200D60EE926010EEA2212003F
:100EF000A1DF2B0EE66E3B0EE66E000EC0EF06F095
:100F000041DFC30EE66E390EE66E000EBAEF06F054
:100F100029C000F02AC001F02BC002F02CC003F061
:100F20001200E66A76EC00F0E5521200E66E0EEF73
:100F300023F0006E050EE15E0050120072EC02F02C
:100F4000E552E5521200E66EE66AC2EF06F0E5529F
:060F5000E552E55212001B
:0A0F56009294928680868096B9EF8F
:100F60000BF0D9CFE6FFE1CFD9FF020EE126010E4B
:100F7000DB6A800EDF6EDF50000812E2FE0EDB50EF
:100F8000DF1403E09286808602D092968096808459
:100F900000000000000000008094DF90DF42EBD7EB
:100FA000928680868084000000000000000080504F
:100FB000080B01E0010EE76E010EE7CFDBFF809426
:100FC000010EDB5000D0006E020EE15C02E2E16A2D
:100FD000E552E16E0050E552E7CFD9FF1200D9CFBC
:100FE000E6FFE1CFD9FF020EE126010EDB6A928611
:100FF0008086800EDF6EDF50000810E2808480A6BD
:1010000007D0010EDB50DF10E76E010EE7CFDBFFEC
:10101000809400000000DF90DF42EDD7FE0EDB5031
:1010200003E09296809602D09286808680840000AB
:10103000000000000000809492868086010EDB5044
:1010400000D0006E020EE15C02E2E16AE552E16E60
:101050000050E552E7CFD9FF120092868086809437
:10106000000000000000000080840000000000007C
:10107000000092968096000000000000000080941E
:10108000000000000000000080840000000000005C
:10109000000092868086000000000000000080941E
:1010A0001200D9CFE6FFE1CFD9FFE65292868086C3
:1010B000000000000000000080940000000000001C
:1010C0000000DF6A090EDF5C0CE280840000000093
:1010D0000000000080940000000000000000DF2AF3
:1010E000F1D7BBDFE552E552E7CFD9FF12000CEC98
:1010F0000DF0E652DF6AD5DF1E0E43EC0DF0DF5037
:10110000E55208EF0DF0BAEC0DF0070EE66E29DFA0
:10111000E552DF6E49EC0DF00001AE6F53EC0DF0BF
:10112000DF50E55208EF0DF0BAEC0DF0060E43EC7F
:101130000DF0FE0EDBCFE6FF14DFE552DF26DF50B9
:10114000E55208EF0DF00CEC0DF0050EE126DF6A1C
:1011500084DFFE0EDB50010A04E0010A05E1030E04
:1011600001D0050E43EC0DF0010EDB6A020EDB6AC6
:10117000010EDBCF00F0020EDBCF01F0026AD89047
:101180000250000A06E6400E005C9C0E0158000E5C
:1011900002580DE280A60DD0040EE66E2FEC26F06C
:1011A000E552010EDB2A020EE3E3DB2AE1D780B62B
:1011B000DF2A49EC0DF0E76E040EE7CFDBFF49ECC8
:1011C0000DF0E76E030EE7CFDBFF040EDB50006E81
:1011D000016A016E006A030EDB5000010024B06F4B
:1011E000000E0120B16F53EC0DF0030E4FEC0DF02B
:1011F000040E4FEC0DF0FE0E4FEC0DF0900EE66E6F
:101200003C0EE66E000EE66E0EEC23F0006E090E4C
:10121000E15E0050DF50006E050EE15C02E2E16A23
:10122000E552E16E0050F4D3F7DB300EE126DE6AC2
:10123000DE6A800EDE6EC00EDD6EDD52DD52540EB3
:10124000F36E040EF3CFDBFFE30EF36E050EF3CF68
:10125000DBFF250EF36E060EF3CFDBFF3D0EF36EC4
:10126000070EF3CFDBFFA20EF36E080EF3CFDBFF0A
:10127000E70EF36E090EF3CFDBFF3B0EF36E0A0EA3
:10128000F3CFDBFFB60EF36E0B0EF3CFDBFF0A0ED0
:10129000F36E0C0E6FEC0DF00D0EF3CFDBFF230E93
:1012A000F36E0E0EF3CFDBFF3C0EF36E0F0EF3CF9B
:1012B000DBFFAC0EF36E100EF3CFDBFFC50EF36E4B
:1012C000110EF3CFDBFFA70EF36E120EF3CFDBFF91
:1012D000380EF36E130E6FEC0DF0140EF3CFDBFF30
:1012E000A30EF36E150EF3CFDBFF1E0EF36E160E7C
:1012F000F3CFDBFFC20EF36E170EF3CFDBFF0A0E48
:10130000F36E180EECDB190EF3CFDBFF230EF36E3A
:101310001A0EF3CFDBFF3C0EF36E1B0EF3CFDBFF99
:10132000C9DB1C0EEECFDBFF1D0EEECFDBFF1E0E6A
:10133000EECFDBFF1F0EEECFDBFFC3DB200EEECFC9
:10134000DBFF210EEECFDBFF220EEECFDBFF230E05
:10135000EECFDBFF140EDBCF00F0150EDBCF01F07C
:10136000160EDBCF02F0170EDBCF03F0200EDBCF23
:1013700029F0210EDBCF2AF0220EDBCF2BF0230E3B
:10138000DBCF2CF0180EDBCF2EF0190EDBCF2FF0B9
:101390001A0EDBCF30F01B0EF7DB21DBFCDA7BEC27
:1013A00017F02C0E29C0DBFF2D0E2AC0DBFF2E0EFE
:1013B0002BC0DBFF2F0E2CC0DBFF080EDBCF29F08C
:1013C000090EDBCF2AF00A0EDBCF2BF00B0EDBCFA2
:1013D0002CF0E4DAE3DA03DB040EDBCF29F0050EB0
:1013E000DBCF2AF0060EDBCF2BF0070EDBCF2CF085
:1013F000D5DAE0DA79DBEECF0CF0EECF0DF0EECF00
:101400000EF0EFCF0FF00CC02EF00DC02FF00EC07D
:1014100030F00FC031F07BEC17F0240E29C0DBFF59
:10142000250E2AC0DBFF260E2BC0DBFF270E2CC0AB
:10143000DBFF2C0EDBCF08F02D0EDBCF09F02E0EDC
:10144000DBCF0AF02F0EDBCF0BF02E6A2F6AC80E0F
:10145000306E410E79DB0C0EDBCF10F00D0EDBCFC2
:1014600011F00E0EDBCF12F00F0EDBCF13F0E6DA29
:1014700095DA29C014F02AC015F02BC016F02CC044
:1014800017F047DB25DB13C02CF07BEC17F09EDA5E
:1014900040DB97DA240EDBCF18F0250EDBCF19F0F6
:1014A000260EDBCF1AF0270EE3DA7BEC17F0280EBE
:1014B00029C0DBFF290E2AC0DBFF2A0E2BC0DBFF71
:1014C0002B0E2CC0DBFFADDA93DA2CDBFFEC18F02F
:1014D000010A0EE1280EDB6A290EDB6AC80EF36EE4
:1014E0002A0EF3CFDBFF420EF36E2B0EF3CFDBFFA2
:1014F00098DACD0E2E6ECC0E2F6E306E3D0E316E04
:1015000011DB08EC19F0010A14E1CD0EF36E280E80
:10151000F3CFDBFFCC0EF36E290EF3CFDBFFCC0E47
:10152000F36E2A0EF3CFDBFF3D0EF36E2B0EF3CFDF
:10153000DBFFC7DA2C0EDBCFEEFF2D0EDBCFEEFF8D
:101540002E0EDBCFEEFF2F0EDBCFEEFFB3DA280E31
:10155000DBCFEEFF290EDBCFEEFF2A0EDBCFEEFF57
:101560002B0EDBCFEEFF300EE15C02E2E16AE552CA
:10157000E16E4ED251DA080EE126390E046E280EC5
:10158000056E290E066E3F0E076E296A2A6AF00E56
:101590002B6E400E2C6EF70EDBCF2EF0F80EDBCF4D
:1015A0002FF0F90EDBCF30F0FA0EEEDA0FDACD0EB7
:1015B000146E4C0E156E6D0E166E430E176EF70EF2
:1015C000DBCF18F0F80EDBCF19F0F90EDBCF1AF0F5
:1015D000FA0E4EDA14C029F015C02AF016C02BF00E
:1015E00017C02CF07BEC17F029C010F02AC011F0C6
:1015F0002BC012F02CC013F08CDA0CC029F00DC0F7
:101600002AF00EC02BF00FC02CF011EC18F0D2D93C
:1016100029C0E6FF2AC0E6FF2BC0E6FF2CC0E6FF8C
:10162000D950FB0FE96EFF0EDA20EA6EE8D95AECCA
:1016300023F0E552E552E552E552E552E7CF03F0DB
:10164000E552E7CF02F0E552E7CF01F0E552E7CFF0
:1016500000F028C020F029C021F02AC022F02BC0C1
:1016600023F02E6A2F6A306A400E316E28C029F0AE
:1016700021C02AF022C02BF023C02CF07AEC17F006
:1016800029C01CF02AC01DF02BC01EF02CC01FF07A
:1016900082D97BEC17F029C0DEFF2AC0DEFF2BC009
:1016A000DEFF2CC0DDFFDD52DD521EDAEECF08F08A
:1016B000EECF09F0EECF0AF0EFCF0BF0390E2E6E21
:1016C000280E2F6E290E306E3F0E3EDACD0E2E6E96
:1016D0004C0E2F6E6D0E306E430E316E64EC18F0B2
:1016E0002ADA840E106E920E116E020E126E410EE8
:1016F000136EFAD9EECF14F0EECF15F0EECF16F050
:10170000EFCF17F014C02EF015C02FF016C030F038
:1017100017C031F0DDD92C6E7AEC17F057D93BD9D0
:1017200011EC18F0040E29C0DBFF050E2AC0DBFF08
:10173000060E2BC0DBFF070E2CC0DBFF040EDBCF39
:1017400000F0050EDBCF01F0060EDBCF02F0070E36
:10175000DBCF03F000C028F001C029F002C02AF05E
:1017600003C02BF0080EE15C02E2E16AE552E16E93
:101770004FD152D9180EE12694DC040EDB6A010E1B
:10178000E66E69D9B0C0DEFFB1C0DDFFE66A63D99D
:10179000020EB0C0DBFF030EB1C0DBFF040EDB5056
:1017A00010E07FDC040E7BD97F0EE66E3C0EE66E09
:1017B000000EE66E0EEC23F0006E050EE15E0050AA
:1017C000D5D0000EDFCF2AF0010EDBCF2BF065EC79
:1017D00017F00C0E29C0DBFF0D0E2AC0DBFF0E0E2A
:1017E0002BC0DBFF0F0E2CC0DBFF020EDBCF2AF07D
:1017F000030EDBCF2BF065EC17F0100E29C0DBFFDA
:10180000110E2AC0DBFF120E2BC0DBFF130E2CC003
:10181000DBFFD950100FE66E000EDA20E66ED950CD
:101820000C0FE66E000EDA20E66EFEDCE552E552A5
:10183000E552E552D950100FE96EDACFEAFFDFD852
:10184000D9500C0FE96EDACFEAFFD9D893DE006EDB
:10185000080EE15E0050140E28C0DBFF150E29C0F3
:10186000DBFF160E2AC0DBFF170E2BC0DBFF9A0E24
:10187000F36E100EF3CFDBFF990EF36E110EF3CF64
:10188000DBFF9D0EF36E120EF3CFDBFF410EF36E06
:10189000130EF3CFDBFFD2D8D1EC18F0080E2BC01B
:1018A000DBFF100EDBCF04F0110EDBCF05F0120EC4
:1018B000DBCF06F0130E63D9080E1BD90A0E2BC01E
:1018C000DBFF140EDBCF29F0150EDBCF2AF0160E4E
:1018D000DBCF2BF0170EDBCF2CF0D1EC18F0090E7C
:1018E0002BC0DBFF140EDBCF04F0150EDBCF05F0B1
:1018F000160EDBCF06F0170E42D9090EFAD80B0EE2
:101900002BC0DBFFCCD8090EDBCF00F0016A00BE94
:10191000016800C0E6FF01C0E6FF0C0EDBCF29F036
:101920000D0EDBCF2AF00E0EDBCF2BF00F0EDBCF30
:101930002CF0D1EC18F02B50E66EE66A0A0EAFD808
:10194000080EDBCF02F0036A02BE036802C0E6FFA6
:1019500003C0E6FF5A0EE66E3C0EE66E000EE66E23
:101960000EEC23F0046E0D0EE15E0450040EDB500D
:10197000006E180EE15C02E2E16AE552E16E005091
:1019800047D0F7DEAAC028F0ABC029F0ACC02AF0DF
:10199000ADC02BF01200BDD892EF0DF01C0EDBCFC6
:1019A0002EF01D0EDBCF2FF01E0EDBCF30F01F0E02
:1019B000C4EF0DF0EDD8ADD8D4D87BEC17F09BEF89
:1019C0000DF0CFD864EC18F09BEF0DF029C00CF0AF
:1019D0002AC00DF02BC00EF02CC00FF0120029C051
:1019E00004F02AC005F02BC006F02CC007F012004E
:1019F0002E6A2F6AC80E306E420E316E1200EECF84
:101A0000E6FFEECFE6FFEECFE6FFEFCFE6FF1200F8
:101A1000E552E7CFD9FF1200D9CFE6FFE1CFD9FFDA
:101A20001200280EDBCF00F0290EDBCF01F02A0ECA
:101A3000DBCF02F02B0EDBCF03F01200100EDBCF5A
:101A400029F0110EDBCF2AF0120EDBCF2BF0130E94
:101A5000DBCF2CF01200A3EC08F0E552006E040E70
:101A6000DBCFE7FF0050E726040EE7CFDBFF1200D5
:101A7000DBCF1BF018C02EF019C02FF01AC030F0C9
:101A80001BC031F01200E66EB1EC07F0E552DF2624
:101A90001200010EE66EEFEC07F0E5521200DBCF0C
:101AA000E6FFE66A1200E66AEFEC07F0E552000195
:101AB000AF6F1200FD0EDBCFE9FFFE0EDBCFEAFFBA
:101AC0001200FB0EDBCFE9FFFC0EDBCFEAFF1200BA
:101AD00010C029F011C02AF012C02BF01200F3CF71
:101AE000DBFFD70EF36E1200D9CFE9FFDACFEAFFA2
:101AF0001200DBCF10F010C02BF056EC17F066DFB1
:101B000077DF64EC18F044D846DF7AEC17F0D1EFB9
:101B100018F029C02EF02AC02FF02BC030F02CC0B6
:101B200031F0120000C029F001C02AF002C02BF0F1
:101B300003C02CF0120029C000F02AC001F02BC015
:101B400002F02CC003F01200316E08C029F009C069
:101B50002AF00AC02BF00BC02CF07AEC17F0EFEF54
:101B60000CF004C029F005C02AF006C02BF007C015
:101B70002CF0120051DFE652DF6A2DEF08F0DBCFC8
:101B800007F036DFE1EF0CF0DBCF31F064EF18F057
:101B900029C008F02AC009F02BC00AF02CC00BF0B5
:021BA000120031
:0E1BA2000DEC13F0FB0EDBCFF3FFDB06F35070
:101BB00000090AE05BEC13F0FA0EC6EC13F0F3E157
:101BC000011CF1E1010E01D0000E3CEF13F00DEC11
:101BD00013F03B0EE12402E3E168E652E16E010EF0
:101BE000DB6A020EDB6AF90EDBCFF6FFFA0EDBCF03
:101BF000F7FFFB0EDBCFF8FF0800F550DF6EDF507C
:101C000002E160EF12F0250EDF5C02E053EF12F00C
:101C1000030EDB6A040EDB6A050EDB6A060EDB6A66
:101C2000070EDB6A75EC12F02D0EDF5C0CE02B0E5C
:101C3000DF5C09E0200EDF5C06E0230EDF5C03E0E2
:101C4000300EDF5C1AE1DF50300A14E0130A0FE0B7
:101C5000030A0AE00B0A05E0060AE4E1030EDB8052
:101C6000E1D7030EDB82DED7030EDB84DBD7030E66
:101C7000DB86D8D7030EDB88D5D72A0EDF5C1BE1C5
:101C800071EC12F0BFEC12F010E0030EDB802A685A
:101C90002B68130EDBCF2FF0140EDBCF30F0ECEC03
:101CA00019F0040E28C0DBFF03D0130EA8EC12F0CD
:101CB00075EC12F00BD0090EDB6A16EC13F003E0A2
:101CC0008AEC13F0FAD7090EA8EC12F0030EDBB081
:101CD000DB982E0EDF5C1BE175EC12F02A0EDF5C48
:101CE0000BE171EC12F0BFEC12F003E1130EFAEC11
:101CF00012F075EC12F00BD0090EDB6A16EC13F043
:101D000003E08AEC13F0FAD7090EFAEC12F0680E31
:101D1000DF5C07E175EC12F0680EDF5C1DE1030E7D
:101D200018D0740EDF5C17E07A0EDF5C14E0480E0A
:101D3000DF5C06E0540EDF5C03E05A0EDF5C02E17C
:101D4000020E07D06C0EDF5C03E06A0EDF5C04E17C
:101D5000010E4DEC13F0C9DBDF506E0A01E17FD3B9
:101D60001E0A01E192D1200A01E18FD13F0A01E16F
:101D700049D11A0A01E146D10D0A01E143D1200AF5
:101D800001E140D13A0A01E13DD1200A01E13AD115
:101D9000260A01E135D10D0A01E132D11A0A01E129
:101DA000D9D0200A4AE0300A1FE0460A0EE0250A90
:101DB00001E083D3D950F90FE96EFF0EDA20EA6E05
:101DC000010EEE5E000EEE5AEE5A5BEC13F0250E9D
:101DD000E66E95DB03E1011C01E169D357EC13F0DA
:101DE00001E26BD3DB2A69D3080EDB6A040EDB50F9
:101DF000010806E2040EDB041FEC13F0DB508BDB62
:101E0000080EDB5009E0030EDB50010B05E172DB2D
:101E100001E04DD3080EDB6A64DBEFCFDFFFCFECD0
:101E200013F003E1011C01E142D357EC13F001E38D
:101E3000DB2A60DB01E141D33AD3070EDB50020815
:101E40000FE19BEC13F0030E62EC13F00E0EEECFDD
:101E5000DBFF0F0EEECFDBFF100EEECFDBFF20D04F
:101E6000F70EDBCF03F0F80EDBCF04F0020E035EBB
:101E7000000E045AF70E03C0DBFFF80E04C0DBFFB0
:101E800003C0E9FF04C0EAFF52EC13F0026A0E0E31
:101E900000C0DBFF0F0E01C0DBFF100E02C0DBFF36
:101EA0000E0EDBCFE6FF0F0EDBCFE6FF100EDBCF13
:101EB000E6FF17EC20F0E552E552E552130E29C07B
:101EC000DBFF140E2AC0DBFF060EDB5005E0130E0D
:101ED00096EC13F001E26ADBBAEC13F002E2130EA7
:101EE00037DB7DEC13F006E0040E96EC13F002E213
:101EF000050E2EDB030EDBB005D0FCDA01E0D7D2F5
:101F0000080EDB6A090EDB6A0E0EDBCFF6FF0F0E42
:101F1000DBCFF7FF100EDBCFF8FF0800F550DF6EC8
:101F2000DF5014E0C0EC13F011E2CFEC13F003E14A
:101F3000011C01E1BCD2BBDB01E3DB2A090EDB2A79
:101F4000D9500E0FE96E000ECBDBE7D7D3DA01E1F3
:101F5000B4D2ADD2C6DA110EEECFDBFF120EEDCF4A
:101F6000DBFF110EDBCFE6FF120EDBCFE6FFE8EC66
:101F70001FF0E552E552130EF3CFDBFF140EF4CF42
:101F8000DBFF060EDB5004E0130ED0DB01E20EDBBC
:101F9000BAEC13F002E2130EDBDAAFDB05E0040E5D
:101FA000C5DB02E2050ED4DA030EDBB005D0A2DAFF
:101FB00001E07DD2080EDB6A090EDB6A110EDBCF71
:101FC000E9FF120EDBCFEAFFEFCFDFFFDF5014E0B7
:101FD000D7DB12E2E4DB03E1011C01E168D267DB3D
:101FE00001E3DB2A090EDB2A110EDB2ADBCFE9FF36
:101FF000120EE8E3DB2AE6D77DDA01E15ED257D2A2
:10200000030EDB8E070EDB0410E195DB040E5ADBBA
:102010000A0EEECFDBFF0B0EEECFDBFF0C0EEECF8A
:10202000DBFF0D0EEECFDBFF6CD0070EDB5003089D
:102030002CE1030EDBAE0DD0B2DA020E76DAEFCF72
:1020400000F0016A026A036A00AE39D001680268D2
:1020500035D0F70EDBCF01F0F80EDBCF02F0020E29
:10206000015E000E025AF70E01C0DBFFF80E02C03F
:10207000DBFF01C0E9FF02C0EAFFEFCF00F00A0E6C
:1020800000C0DBFF0B0EDB6A38D0070EDB50020806
:1020900009E1030EDBAE04D059DB02AE10D00ED046
:1020A00055DB0DD0030EDBAE12D079DA020E3DDA2D
:1020B000F9DA026A036A01AE02D002680368E2DA62
:1020C0000C0E02C0DBFF0D0E03C0DBFF1AD0F70EB3
:1020D000DBCF02F0F80EDBCF03F0020E025E000E43
:1020E000035AF70E02C0DBFFF80E03C0DBFF02C08D
:1020F000E9FF03C0EAFFD6DAC5DA0C0EDB6A0D0E83
:10210000DB6A060EDB5005E1010EF36E050EF3CF20
:10211000DBFF150EDB6A160EDB6AD950370F006E37
:10212000000EDA20016E390E00C0DBFF3A0E01C04E
:10213000DBFF380EDB6A080EDB6A0A0EAEDADF5010
:10214000780A12E0200A10E0280A0CE0200A0AE0CF
:102150003F0A06E00D0A02E0200A08E1020E05D05F
:10216000080E03D0080EDF26100E97DA030EDBBE32
:1021700002D0DB92DB94DB50800B24E08ADAD8902B
:10218000030EEB50000A08E6000EEE5C000EEE585F
:10219000000EEE58000EEE5815E213DA2D682E6888
:1021A0002F6830682DEC24F00A0E24C0DBFF0B0EE4
:1021B00025C0DBFF0C0E26C0DBFF0D0E27C0DBFFAA
:1021C0002D0E08D0030EDBA202D02B0E03D0DBA411
:1021D00008D0200EF36E170EF3CFDBFF150EDB2AAF
:1021E00002D0170EDB6A050EDB5003E1B7D901E11F
:1021F00089D0900E006E4C0E016E000E026E070E1E
:10220000DBCF03F0046A056A066A03C02DF004C040
:102210002EF005C02FF006C030F0D3D9C9EC24F061
:1022200000502424F36E01502520F46E0250262025
:10223000F86EF4CFF7FFF3CFF6FF0800090EF5CFE5
:10224000DBFF580EDF5C0FE1610EF36E090E7BD9E8
:102250000AE3200E006E090EDBCFE7FF0050E75EB9
:10226000090EE7CFDBFF070EDBCF00F0016A026A41
:10227000036A0FDA00C02DF001C02EF002C02FF06B
:1022800003C030F0EECF28F0EECF29F0EECF2AF0E9
:10229000EFCF2BF0C9EC24F02BC0EDFF2AC0EDFFEF
:1022A00029C0EDFF28C0EFFF390EDBCFE9FFDB06C9
:1022B0003A0EDBCFEAFF01E2DB06090EDBCFEFFFD0
:1022C000150EDB2A4BD995E1030EDBA61DD06F0E50
:1022D000DF5C06E1C1D918E3150EDB285BDA14D008
:1022E000780EDF5C09E0580EDF5C06E0620EDF5C12
:1022F00003E0420EDF5C08E1020EF36E160EF3CF30
:10230000DBFF02D0150EDB6A030EDB50100B0EE074
:10231000040EDBCF00F0050EDB50D880005406E23F
:10232000060EDB5003E1040EDB5034DA95D90AE2E5
:10233000050EDBCFE7FF150EDB50E75E050EE7CF9E
:10234000DBFF02D0050EDB6A040EDBCF00F0160EB9
:1023500045D9D880005414E2160EDBCFE6FF150EE7
:10236000DBCFE6FF040EDBCFE6FF050EDB50E552C8
:10237000E75CE552D880E754E552D880E7545FD94E
:10238000030EDB50010B0BE1080EDB5008E0B2D866
:1023900001E08DD0080EDB50BED8080EDB6A170EA8
:1023A000DB5007E088D9170EF1D903E1011C01E1E8
:1023B0007ED0160EDB5016E07ED9300EE66E9FD82A
:1023C00002E1011C74E077D9DFCFE6FFEBEC23F0EC
:1023D000E552E552E552F4CF01F00001F31C02E1B1
:1023E000011C65E0050EDBCF00F0160EDB50D88037
:1023F000005409E2050EDBCFE7FF160EDB50E75E67
:10240000050EE7CFDBFF300EE66E050ECBD94FE1B0
:10241000390EDB2ADBCFE9FF3A0E01E3DB2ADBCF03
:10242000EAFF090EEFCFDBFFDB500EE044D9090EC7
:10243000ADD902E1011C3BE0390EDB2ADBCFE9FF1D
:102440003A0EEDE3DB2AEBD755D831E1160EDBCFA0
:10245000E6FF080EC3D8E552E7245DD82ED0070E5C
:10246000DB50030A1CE0010A14E0030A07E07BD9F1
:10247000DBCFEEFF020EDBCFEDFF1FD0F5D8056AF4
:1024800003AE02D0046805682CD8BCD805C0EEFFA6
:1024900014D0EAD803BE046824D8B4D80ED063D9C7
:1024A000DBCFEFFF0AD07BD905E1011C03E1F36824
:1024B000F46810D0FCD801E3DB2A79D9FCEF0DF0E9
:1024C000010EDBCF00F0020EDBCF01F000C0F3FF06
:1024D00001C0F4FF3B0EE15C02E2E16AE552E16E0D
:1024E000CBD029D9020E62EF13F061D90800F55064
:1024F000DF6E1200200EE66E080ED2EF13F0EBEC4A
:1025000023F0E552E552E552F3CF00F0F4CF01F0AD
:102510000001F31C1200006E016AD950010F4DD961
:102520000050EE260150ED221200045E000E055A06
:10253000F70E04C0DBFFF80E05C0DBFF04C0E9FFA7
:1025400005C0EAFF1200DBCFF4FFF350F45C120089
:10255000DB50E76E040EE7CFDBFF12000A0EDBCF85
:1025600000F00B0EDBCF01F00C0EDBCF02F00D0EF6
:10257000DBCF03F000500110021003101200130E05
:10258000EECFDBFF140EEDCFDBFF130EDBCF00F041
:10259000140EDBCF01F00001800E01141200F70EC3
:1025A000DBCF04F0F80EDBCF05F01200050EDB5098
:1025B000E66ED950130F01D9E552E750EE6EED6A81
:1025C00012000A0EDBCF28F00B0EDBCF29F00C0E29
:1025D000DBCF2AF00D0EDBCF2BF01200DBCFE6FFB6
:1025E000150EDBCFE6FF050EDB50E552E724E55282
:1025F000E7241200DB50CED8010EF36E060EF3CFA7
:10260000DBFF1200EE50EFCFEAFFE96E02C0EEFFF3
:1026100003C0EEFF04C0EEFF1200D9CFE6FFDACF11
:10262000E6FFE1CFD9FFE2CFDAFF1200DFCFE6FF0E
:10263000E66AE1EC25F0E552E552F3501200E76E50
:10264000080EE7CFDBFF1200EECF00F0EECF01F077
:10265000EFCF02F0036A1200050EDBCF00F0150E7B
:10266000DB50D88000541200010EDBCF02F0020EC6
:10267000DBCF03F0046A1200E552E5CFDAFFE7CFC3
:10268000D9FF12000A0E00C0DBFF0B0E01C0DBFFFA
:102690001200D9500A0FDDEF13F0F36E070EF3CFDF
:1026A000DBFF1200EECF00F0EFCF01F01200010EC1
:1026B000DB2A020E1200FC0EDBCFE6FFFD0EDBCFA5
:1026C000E6FF1200005E000E015AF70E00C0DBFFAD
:1026D000F80E01C0DBFF00C0E9FF01C0EAFF1200F5
:1026E000DA20EA6EEF2AEECFF6FF000EEF22EECFF1
:1026F000F7FFEF22EECFF8FF1200040EDBCFE6FF6C
:10270000130EDB50E552E75C9ADFDB5004DF060E68
:10271000DB501200090EDB500A0DF350DF24D00FFE
:10272000E76E090EE7CFDBFF75EF12F0DB50F36EBB
:10273000050EA3EF12F0F70EDBCF00F0F80EDBCFA3
:1027400001F01200DFCFE6FF7FEF12F028DF030E6B
:10275000ECDE24EF13F0D1EC0DF0E552E552E5523A
:10276000E55200091200BDDEEE50EFCFEAFFE96E40
:10277000010E1200130EDB50F36E040EA3EF12F0E5
:10278000040EDB50F36E090EA3EF12F0DBCFE6FF71
:102790007FEF12F0E76E050EE7CFDBFF12008BDF55
:1027A000A2EF13F0DBCFE6FF86DFABEF13F0D950DB
:1027B000F90FE96EFF0E70EF13F0E96E000EDA20EC
:0427C000EA6E1200AB
:0C27C40080909290300E4EDB9280080E48
:1027D0004BDB80B0010C200E47DB000C0DDB809042
:1027E0009290010E1BDBFE0EDB5002E1300E16DB79
:1027F0009280080E13DBFE0EDB0402E1300E0EDBCE
:1028000000D341DB80909290010E08DB9280080E8D
:1028100005DB8050010BDF6E280E00DBDF50E55238
:10282000F0D231DB0ADBE8AE02D0E73402D0E75069
:10283000005C12E2FE0EDBA003D0010EE66E01D0BA
:10284000E66ACCDFE552FE0EDB407F0BE76EFE0E44
:10285000E7CFDBFFDF2AE6D7E552D3D2CDDA030E8E
:10286000E126DF6A010EDB6A020EDB6AE6DAE8AE19
:1028700002D0E73402D0E750005C13E2C2DFE76E1B
:10288000020EE7CFDBFF010EDB407F0BE76E010E90
:10289000E7CFDBFF020EDB5002E0010EDB8EDF2A0A
:1028A000E5D7010EDBCFE6FF0FD8E552010EDB5076
:1028B000006E030EE15C02E2E16AE552E16E005057
:1028C000A0D20001CF6B120097DAE652FE0EDB5069
:1028D0000001CF19DF6ED20E006E430E016E000EA6
:1028E000026EDFCF03F0046A056A00500324F36E22
:1028F00001500420F46E02500520F86EF4CFF7FF6B
:10290000F3CFF6FF0800F5CFCFF0E5527AD2000101
:10291000D051120071DAFE0EDBCFD0F072D2B3DAF2
:10292000BE0E87DACEDFDFCF00F0090EE76E0018AB
:10293000E8AE02D0E73402D0E750005C10E28EDF50
:10294000E66EDFCFE9FFEA6AE9BEEA68600EE926D3
:10295000000EEA22E552E750EF6EDF2AE4D70001CD
:10296000CF51E5524ED27ADF000901E1010C000C93
:1029700029DFCC0E5EDA0A0EE66EF3EC25F0E552A6
:10298000440E19EF17F07FDAEEDF00090BE01F0E9F
:10299000E66EF3EC25F0E552DF2AFF0EDF5CF4E192
:1029A000010E01D0000EE5522CD226DA070EE126E8
:1029B000020EDB6A030EDB6A040EDB6A050EDB68BF
:1029C0000001726BFFDE00095DE1F00E32DA040EE9
:1029D000DB6A29DAE8AE02D0E73402D0E750005CC7
:1029E00074E2060EDB6A030EDB6A1DDAE8AE02D083
:1029F000E73402D0E750005C5BE203DFDF6E01DF0B
:102A0000E76E010EE7CFDBFFDF5037E1010EDB5051
:102A100034E1020EDB50E76E050EE7CFDBFFDBCFC4
:102A200000F000017151E76E0018E8AE02D0E73403
:102A300002D0E750005C13E21CDAE9BEEA6803DA70
:102A40000CE0010EF36E030EDB5004E0D890F33679
:102A5000E806FCE1F350000906E1DF6A15D0050E37
:102A6000DB50715D03E1010EDF6E0ED0DF6A050EF3
:102A7000DBCF71F0010E726F07D0DF5005E0010E61
:102A8000DB5002E0010E3CD0060EDB407F0BE76E10
:102A9000060EE7CFDBFFDF5002E0060EDB8EDFCF56
:102AA000E6FF9CDEE552020EDB2A030EDB2A9DD7F1
:102AB000E0D9E9BEEA68690EE926000EEA22060EB0
:102AC000DBCFEFFF040EDB2A84D7FBDE040EDB6ACC
:102AD000AAD9E8AE02D0E73402D0E750005C0AE29F
:102AE000C8D9E9BEEA68AFD9E66EEEDEE552040E5B
:102AF000DB2AEED70001CF5102E0CF5101D0000E0A
:102B0000006E070EE15C02E2E16AE552E16E005000
:102B100078D172D9030EE126010EDB6AE66AFADE8D
:102B2000E55200017169010E726F4CDE000902E08E
:102B3000010E45D0000172513CE037DFDF6EDF50FF
:102B400002E0DF503CD0020EDB6A6DD9E8AE02D065
:102B5000E73402D0E750005C29E2020EDBCFE9FF48
:102B6000EA6AE9BEEA686FD9E66E010EDBCFE9FFDB
:102B7000EA6AE9BEEA680B0EEA02F3CFEAFFE9026D
:102B8000F3CFE9FFF450EA26730EE926000EEA229D
:102B900075D9020EDBCF02F0036A02BE03685DD96D
:102BA000E552E750EF6E020EDB2ACFD7010EDB2A8B
:102BB000C1D7010EDBCFE6FFADDEE552000E006EA1
:102BC000030EE15C02E2E16AE552E16E005019D1C8
:102BD00013D9040EE1265BD902E2010E52D05CD972
:102BE000EF6AF0DD550E25D9DF6A080EDF5C12E2D0
:102BF000F7D844D9DF500F01E924E96E000EEA202E
:102C0000EA6E010EEFCFDBFFDBCFE6FF0ADEE55217
:102C1000DF2AEBD784DE000902E0020E32D0000189
:102C20006151E66ED950020FE96EDACFEAFFE55244
:102C3000E750EE6EED6A020EDBCF00F0030EDBCF45
:102C400001F000C001F0006A020E00C0DBFF030EBD
:102C500001C0DBFF6051006E016AD950020FE96EBE
:102C6000DACFEAFF0050EE260150ED2219D9020E0C
:102C7000DBCFEEFF030EDBCFEDFF0ED9010EEF6EC3
:102C8000000E006E040EE15C02E2E16AE552E16EC4
:102C90000050B7D0B1D8150EE126130EDB6A68DEFE
:102CA00072DE000913E1130EB0D8E76E0018E8AE2B
:102CB00002D0E73402D0E750005C08E2130EDBCF0D
:102CC000E6FF86DFE552130EDB2AEDD7150EE15C39
:102CD00002E2E16AE552E16E94D089EF15F08CD8FA
:102CE000D6D802E2FE0EDB6A7BD8EECF00F0EECF44
:102CF00001F0EECF02F0EECF03F0EECF04F0EECF16
:102D000005F0EECF06F0EECF07F0EECF08F0EECFF5
:102D100009F0EFCF0AF0D9CFE9FFDACFEAFFED50A3
:102D2000ED500AC0EDFF09C0EDFF08C0EDFF07C080
:102D3000EDFF06C0EDFF05C0EDFF04C0EDFF03C0D1
:102D4000EDFF02C0EDFF01C0EDFF00C0EFFF59D065
:102D500053D89DD802E2FE0EDB6AA2D8EECF00F077
:102D6000EFCF01F000C0F3FF01C0F4FF4AD08BD8D1
:102D700064D8E8AE02D0E73402D0E750005C19E234
:102D80002FD87CD8DFCF02F0036A02BE036865D873
:102D9000EF50E66EE66A3B0EE66E390EE66E000E0A
:102DA000E66E0EEC23F0046E050EE15E0450DF2AA1
:102DB000DFD772D8EF50E66EE66A72D8EECFE6FF44
:102DC000EFCFE6FF2C0EE66E390EE66E000EE66ED5
:102DD0000EEC23F0006E070EE15E0050E55211D0BC
:102DE000FE0EDB500B0DF3CFE9FFF4CFEAFF730EBD
:102DF000E926000EEA221200D9CFE6FFE1CFD9FF83
:102E00001200E552E7CFD9FF1200DBCF00F000C07F
:102E1000E6FF7DDDE552E7CF00F01200E66E3DEC07
:102E200026F0E5521200DBCF00F0080EE76E001826
:102E30001200E66EF6DCE5521200DFCF00F0080E5D
:102E4000E76E00181200690EE926000EEA22EF5024
:102E50001200E926000EEA22120000500224E96E58
:102E600001500320EA6E1200E66E2FEC26F0E552C8
:102E70001200040EDBCFE9FFEA6A1200E9CF00F08E
:102E8000EACF01F01200B8DFE652DF6A1200FE0E50
:102E9000BCDFD88000541200A3DF0A0E29EF17F020
:082EA0009FDF080E29EF17F077
:082EA800339E05D0339E2BAED2
:102EB00002D02B6C338E2BC025F0246A376A366A19
:102EC000860E266E276A82EF19F0339E08D0339E55
:102ED0002BAE05D02A6C2B1EE86A2B22338E2BC01A
:102EE00025F02AC024F0376A366A8E0E266E276ACD
:102EF00082EF19F0317E336ABEEC19F0D6EC19F08E
:102F000033B666EF19F033A20AD033AA03D033BE2A
:102F100066EF19F033A472EF19F06FEF19F033AACE
:102F200005D033AC72EF19F06FEF19F033A00AD06F
:102F300033A808D033BE04D033A402D07BEF19F0FD
:102F40007FEF19F0366A276A31502C5C356E10E33A
:102F500029C037F02AC024F02BC025F02CC034F053
:102F60002EC029F02FC02AF030C02BF0333A09D000
:102F70002EC037F02FC024F030C025F031C034F01F
:102F8000356C339E33BC338E34C026F033B0AEEF95
:102F900019F01A0E3560AEEF19F0266A2C6A33A4C8
:102FA00008D0296C2A1E2B1E2C1EE86A2A222B22EE
:102FB0002C2233AC08D0376C241E251E261EE86A4E
:102FC000242225222622286A355207E02C342B326F
:102FD0002A3229322832352EF9D7295037262A505D
:102FE00024222B5025222C50262228C036F0339E36
:102FF00026AE0BD0366C371E241E251E261EE86A10
:103000003722242225222622338E26A006D0D880DD
:103010002532243237323632342A34C026F082EF59
:1030200019F0336ABEEC19F0D6EC19F033B666EF3E
:1030300019F033A205D033BA66EF19F06DEF19F02D
:1030400033BA79EF19F033A005D033B866EF19F031
:1030500079EF19F033B86DEF19F0276A7F0E2C2441
:10306000266EE86A27223150265EE86A275A1A0E31
:10307000346E2C6A366A376A246A256A2E50295EB5
:103080002F502A5A30502B5A000E2C5A09E72E5036
:1030900029262F502A2230502B22000E2C2201D01C
:1030A000368AD89029362A362B362C36D8903636A2
:1030B000373624362536342EE1D72B502A102910E6
:1030C000D8A4368A82EF19F0336ABEEC19F0D6EC38
:1030D00019F033B666EF19F033A205D033B866EFB6
:1030E00019F06DEF19F033AA05D033B066EF19F07F
:1030F0006DEF19F033B002D033A802D079EF19F098
:10310000276A31502C24266EE86A27227E0E265E1E
:10311000E86A275A366A376A246A256A30502B02D1
:10312000F4CF25F0F3CF24F02F502B02F3503726A5
:10313000F4502422000E252230502A02F350372664
:10314000F4502422000E25222E502B02F350362656
:10315000F4503722000E242225222F502A02F35049
:103160003626F4503722000E242225223050290220
:10317000F3503626F4503722000E242225222E50FA
:103180002A02F4503626000E3722242225222F5000
:103190002902F4503626000E37222422252282EFFF
:1031A00019F0336ABEEC19F033B6DBEF18F033A236
:1031B0000AD033B403D07F0E2B6E19D0800E2B6E45
:1031C00016D02B6A14D033B0FCD7870E2C60F1D701
:1031D0007E0E2C64F6D7860E2C5C04E0D8902B3241
:1031E0002C2AF9D733A403D02B6C2BAEEAD71200CC
:1031F00011EC19F033B6000C33B0010C000C11ECDB
:1032000019F033B6000C33B0000C33B4000C010CD1
:1032100011EC19F033B6000C33B0000C33A4000CE1
:10322000010C336ABEEC19F0D6EC19F033B612007B
:1032300033AE08D033A004D033A802D033801200BC
:103240003390120031502C5C0BE130502B5C08E1C4
:103250002F502A5C05E12E50295C02E133801200D8
:10326000D8A002D0338E10D02C5031C02CF0316E4B
:103270002B5030C02BF0306E2A502FC02AF02F6E0A
:1032800029502EC029F02E6E31502C5C10E0FF0F1B
:1032900009E0339033B403D033AE3384120033AE3D
:1032A00033941200312AD89030322F322E322E50E1
:1032B000295E2F502A5A30502B5A2BBEEAD7D8906D
:1032C00029362A362B362C2EF8D7C8D77F0E2C6EEF
:1032D000FF0E2B6E2A6E296E12007F0E33BEFF0E7C
:1032E0002C6E02D07F0E2C6E800E2B6E2A6A296AFD
:1032F000F3D733AE04D0800E2C6E2B6AF7D72C6A2E
:103300002B6AF4D72550241037103610F8E027BE6A
:10331000F0D725BE0CD026502710EBE0D8903636DB
:103320003736243625362606D8A02706F2D727506A
:10333000D4E12628D2E036AE11D07F0E361402E159
:1033400037A00CD0372AE86A2422252207E3D88048
:10335000253224323732262A2628BFE02650C9E0FB
:1033600037C029F024C02AF025342B6E26302C6E6D
:103370002B322C9E33BE2C8E6CEF19F02B362C3654
:1033800002E33384337E06E133802C6A2B6A2A6A97
:10339000296A12002C2803E0D8802B321200D89022
:1033A0002B3202E13382120033861200303631367E
:1033B00002E3338C337E06E13388316A306A2F6A48
:1033C0002E6A1200312803E0D88030321200D890E3
:1033D0003032EAE1338A12002BC037F02AC036F0CF
:1033E0002A502F02F4CF29F0F3CF28F02B503002CF
:1033F000F4CF2BF0F3CF2AF02F02F3502926F4500C
:103400002A22E86A2B2236503002F3502926F45043
:103410002A22E86A2B2230AE12EF1AF036502A5ECA
:1034200037502B5A37AE000C2F502A5E30502B5A93
:02343000000C8E
:0E343200D9CFE6FFDACFE6FFE1CFD9FFE2CF38
:10344000DAFF260EE12402E3E168E652E16ED9508C
:10345000050FE1D9CEEC20F0006E060EE15C02E231
:10346000E16AE552E16E0050DF6E800EDF5C05E040
:103470000B0EDB5012E0DF0410E0210E0001CB6FD9
:10348000CC6B010EDB68020EDB68030EDB687F0E7F
:10349000F36E040EF3CFDBFF8FD1040EDF5C0EE181
:1034A0003EDA010EEECFDBFF020EEECFDBFF030EA6
:1034B000EECFDBFF040EEECFDBFF7ED1DF0410E1A9
:1034C000210E0001CB6FCC6B010EDB6A020EDB6AB2
:1034D000800EF36E030EF3CFDBFF040EDB686CD1BE
:1034E000D9500C0F98D93CEC20F0006E060EE15C30
:1034F00002E2E16AE552E16E0050FA0E28C0DBFFFD
:10350000FB0E29C0DBFFFC0E2AC0DBFFFD0E2BC02B
:10351000DBFFA6D9F30E2E6E040E2F6E350E306E25
:103520003F0E87D9FFEC18F0010A09E1B3D984D91D
:103530007AEC17F067D9EDD984D9ACD916D00C0E36
:10354000DB060D0E01E2DB068BD92E6A2F6A306A8C
:103550003F0E6FD976D9160EDBCF04F0170EDBCFF6
:1035600005F0180EDBCF06F0190E66D964EC18F0E2
:1035700049D9CFD97BEC17F01A0E29C0DBFF1B0EFF
:103580002AC0DBFF1C0E2BC0DBFF1D0E2CC0DBFF97
:10359000160EDBCF29F0170EDBCF2AF0180EDBCF8B
:1035A0002BF0190EDBCF2CF01A0EDBCF2EF01B0EFA
:1035B000DBCF2FF01C0EDBCF30F01D0EDBCF31F058
:1035C00011EC18F01FD9120E29C0DBFF130E2AC010
:1035D000DBFF140E2BC0DBFF150E2CC0DBFF4DD91B
:1035E000120EDBCF2EF0130EDBCF2FF0140EDBCF3D
:1035F00030F0150E62D90E0E29C0DBFF0F0E2AC067
:10360000DBFF100E2BC0DBFF110E2CC0DBFF3D0ECD
:10361000F36E1E0EF3CFDBFF7E0EF36E1F0EF3CFA5
:10362000DBFF0D0EF36E200EF3CFDBFFBF0EF36E4C
:10363000210EF3CFDBFF0E0EDBCF00F00F0EDBCF42
:1036400001F0100EDBCF02F0110EDBCF03F03A0ECB
:103650002E6E3F0E2F6ED40E306EC00EEAD87BEC6D
:1036600017F0220E29C0DBFF230E2AC0DBFF240E39
:103670002BC0DBFF250E2CC0DBFF0E0EDBCF29F0AD
:103680000F0EDBCF2AF0100EDBCF2BF0110EDBCFAD
:103690002CF01E0EDBCF2EF01F0EDBCF2FF0200EF6
:1036A000DBCF30F0210E09D9220EDBCF2EF0230E16
:1036B000DBCF2FF0240EDBCF30F0250EDBCF31F047
:1036C00011EC18F007D9120EDBCF00F0130EDBCF90
:1036D00001F0140EDBCF02F0150EDBCF03F0CDD8D6
:1036E000010EDBCF2EF0020EDBCF2FF0030EDBCF6F
:1036F00030F0040EE2D829C004F02AC005F02BC037
:1037000006F02CC007F078D8046A800E056E310EE2
:10371000066E3F0E076EC9D829C008F02AC009F00E
:103720002BC00AF02CC00BF0CCD8E1D864EC18F018
:1037300069D8830E146E800E156E5E0E166EB90E6D
:10374000176EB3D829C018F02AC019F02BC01AF090
:103750002CC01BF0B6D814C029F015C02AF016C032
:103760002BF017C02CF064EC18F029C010F02AC020
:1037700011F02BC012F02CC013F0010EDBCF1CF0A7
:10378000020EDBCF1DF0030EDBCF1EF0040EDBCFED
:103790001FF01CC02EF01DC02FF01EC030F01FC047
:1037A00031F07BEC17F029C00CF02AC00DF02BC0D3
:1037B0000EF02CC00FF020D8010EDBCF00F0020E6F
:1037C000DBCF01F0030EDBCF02F0040EDBCF03F002
:1037D00000C028F001C029F002C02AF003C02BF07D
:1037E000260EE15C02E2E16AE552E16EE552E5CFC8
:1037F000DAFFE7CFD9FF120064D882D87BEC17F04C
:103800006AEF1CF029C000F02AC001F02BC002F0C2
:103810002CC003F01200E66E000EDA20E66E7FD8B0
:10382000EECFE6FFEECFE6FFEECFE6FFEFCFE6FF0F
:103830001200316E80EF1CF0DBCF07F06AD877EF13
:103840001CF07AEC17F0160E29C0DBFF170E2AC009
:10385000DBFF180E2BC0DBFF190E2CC0DBFF1200A4
:10386000FA0EDBCF00F0FB0EDBCF01F0FC0EDBCF5E
:1038700002F0FD0EDBCF03F01200120EDBCF29F0B9
:10388000130EDBCF2AF0140EDBCF2BF0150EDBCF9F
:103890002CF01200FA0EDBCF04F0FB0EDBCF05F0AC
:1038A000FC0EDBCF06F0FD0E12000C0EDBCF2AF073
:1038B0000D0EDBCF2BF067EF17F0DBCF31F064EFAD
:1038C00018F029C02EF02AC02FF02BC030F02CC0E9
:1038D00031F01200010E29C0DBFF020E2AC0DBFF0F
:1038E000030E2BC0DBFF040E2CC0DBFF120004C054
:1038F00029F005C02AF006C02BF007C02CF01200FA
:1039000000C029F001C02AF002C02BF003C02CF047
:1039100012002E6A2F6A306A3F0E316E1200D950A3
:0C392000FA0FE96EFF0EDA20EA6E1200CA
:04392C00202D202505
:10393000303458202D2025580D0A002530325800EB
:103940004572726F723A20696E76616C6964207399
:10395000656E736F72006E6577636F6E663D0063B0
:10396000757272656E743D00747970653D76617232
:103970006961626C65006D6F64653D666C6F6F6454
:10398000006465766963653D70776D6F757400647A
:1039900065766963653D656C65630064657669633A
:1039A000653D7761746572006465766963653D673E
:1039B000617300636F6D6D616E643D6375727265F6
:1039C0006E7400636F6D6D616E643D7265717565D7
:1039D0007374007D00636F6E74726F6C2E6261731E
:1039E000696300636F6E6669672E63757272656ED8
:1039F000740068626561742E726571756573740018
:103A000073656E736F722E72657175657374006382
:103A10006F6E6669672E726573706F6E7365006393
:103A20006F6E6669672E6C69737400746172676586
:103A3000743D686F6C6C69652D7574696C6D6F6E23
:103A40002E007461726765743D2A0078706C2D6376
:103A50006D6E640078706C5F68616E646C65723A5C
:103A600064656661756C74202D20737461746520C3
:103A70002564202D2057452053484F554C44204E57
:103A8000455645522042452048455245200052584F
:103A90004F006E6F6465636F6E663D25690A006452
:103AA000656661756C7400656C656300776174654B
:103AB000720067617300747970653D766172696147
:103AC000626C650A63757272656E743D25690A7D64
:103AD0000A0073656E736F722E62617369630A7B8D
:103AE0000A6465766963653D70776D6F75740A0069
:103AF0000A747970653D74656D700A6375727265DC
:103B00006E743D25692E25690A7D0A0025303258DC
:103B1000000A747970653D636F756E740A6375721F
:103B200072656E743D25750A7D0A0073656E736F4C
:103B3000722E62617369630A7B0A646576696365E4
:103B40003D00636F6E6669672E63757272656E7491
:103B50000A7B0A6E6577636F6E663D25730A7D0A80
:103B600000636F6E6669672E6C6973740A7B0A72F4
:103B700065636F6E663D6E6577636F6E660A7D0A7C
:103B800000636F6E6669672E656E640A7B0A696EF4
:103B900074657276616C3D310A7D0A00636F6E66F2
:103BA00069672E62617369630A7B0A696E74657264
:103BB00076616C3D310A76657273696F6E3D256979
:103BC0002E25690A7D0A007D0A0070776D6F757475
:103BD0003D25690A0068756D6973656E736F723D86
:103BE000310A0074656D7073656E736F72733D2575
:103BF000690A0068626561742E62617369630A7B99
:103C00000A696E74657276616C3D350A7665727309
:103C1000696F6E3D25692E25690A002E25730A7489
:103C200061726765743D2A0A7D0A007574696C6D5E
:103C30006F6E000A7B0A686F703D310A736F757290
:103C400063653D686F6C6C69652D0074726967000F
:103C5000737461740078706C2D0053485478782028
:103C6000543A25692E256920432052483A2564207C
:103C700044657750743A2025692E25690D0A005352
:103C800048547878206572726F723A2025580A007D
:103C90005265616420666F72206D6F6465202564D3
:103CA00020726573756C74656420696E20253032EE
:063CB000582530325800D7
:0A3CB600410EE66EE66A28D9460EBC
:103CC000E66E010EE66E23D9E66A020EE66E1FD995
:103CD00005D831EC03F0A0EC03F0FDD7D9CFE6FF17
:103CE000E1CFD9FFE652DF6AD388D38AD38C9B8C8D
:103CF0000F0EC16EEF0E926E070E936EDE0E946E77
:103D0000330EE66EE66A7C0EE66EA6EC23F0E55214
:103D1000E552E552DF50DF2A006E050EE76E00180F
:103D2000E8AE02D0E73402D0E750005C0DE2320E7C
:103D3000E66EB4EC25F0E5528098320EE66EB4ECF7
:103D400025F0E5528088E6D7970EE66E65EC25F003
:103D5000E552CBD8F50EE66EEDEC24F0E552CED868
:103D6000F19EF19CF19AF198F292F288F090F0862F
:103D7000F092F088F28CF28EE552E552E7CFD9FF4F
:103D80001200DACFE4FFE2CFDAFFE9CFE4FFEACFB7
:103D9000E4FFF6CFE4FFF7CFE4FFF8CFE4FFF5CF81
:103DA000E4FFF3CFE4FFF4CFE4FFFACFE4FFFBCF6F
:103DB000E4FF00EE24F0140EE80403E3EECFE4FF8A
:103DC000FBD700EE00F0240EE80403E3EECFE4FF9F
:103DD000FBD7E6529EAA08D00EEC25F0E66E28EC42
:103DE00000F0E5529E9A48D0F2A205D00001020EE2
:103DF000C86FF2920DD0F0A005D00001020EC96F7D
:103E0000F09006D0F0A206D00001020ECA6FF09228
:103E1000809832D0F2A408D068D8F2940001C42B64
:103E2000000EC523C62BC72B9EA026D067D89E9018
:103E30000001C85109E0C8078088C85105E18150D8
:103E4000010B02E1020E68D80001C95109E0C9075F
:103E50008088C95105E18150020B02E1010E5CD856
:103E60000001CA5109E0CA078088CA5105E18150A2
:103E7000040B02E1040E50D8E55200EE23F0240EAC
:103E8000E80403E3E5CFEDFFFBD700EE37F0140EB7
:103E9000E80403E3E5CFEDFFFBD7E5CFFBFFE5CF7C
:103EA000FAFFE5CFF4FFE5CFF3FFE5CFF5FFE5CF70
:103EB000F8FFE5CFF7FFE5CFF6FFE5CFEAFFE5CF67
:103EC000E9FFE5CFDAFF1100D8CFE4FFE0CFE4FF50
:103ED000E46EDACFE4FFE652E552E5CFDAFFE550D3
:103EE000E5CFE0FFE5CFD8FF1000EE0EE66E850EC1
:103EF000E66E49EC25F0E552E5521200E00EE66E62
:103F0000B10EE66E2DEC25F0E552E552120074EC90
:103F100024F0E552E5521200E66E86EC06F0E5521A
:023F200012008D
:0E3F2200D9CFE6FFDACFE6FFFA0EE3CFD9FFE4
:103F3000FB0EE3CFDAFFFC0EE3CFE9FFFD0EE3CF8C
:103F4000EAFFDE50EF5C02E1EE66FBD7F36EFF0E98
:103F5000E3CFDAFFE552FF0EE3CFD9FFE552F3508E
:103F60001200FD0EE3CFF6FFFE0EE3CFF7FFFF0ECC
:103F7000E3CFF8FFFB0EE3CFE9FFFC0EE3CFEAFF50
:103F8000EE500900F55C02E1F566FAD71200D9CFD0
:103F9000E6FFDACFE6FFFA0EE3CFD9FFFB0EE3CF61
:103FA000DAFFFC0EE3CFE9FFFD0EE3CFEAFFE9CF36
:103FB000F3FFEACFF4FFDECFEFFFEE66FCD7FF0E94
:103FC000E3CFDAFFE552FF0EE3CFD9FFE55212004F
:103FD000FE0EE3CFE9FFFF0EE3CFEAFFF36AF46AD8
:103FE000EE5203E0F34AF42AFBD71200FD0EE3CFB2
:103FF000F6FFFE0EE3CFF7FFFF0EE3CFF8FFFB0E59
:10400000E3CFE9FFFC0EE3CFEAFFF90EE35003E153
:10401000FA0EE3500BE0F90EE30602E2FA0EE306B5
:10402000EE500900F55C02E1F566EFD71200FF0ED5
:10403000E3CFF8FFE552FF0EE3CFF7FFE552FF0EA7
:10404000E3CFF6FFE552E66AE66AE66A0900F55252
:1040500009E0FD0EE32A05E1FE0EE32A02E1FF0E70
:10406000E32AF4D7FD0EE3CF29F0FE0EE3CF2AF0CA
:08407000FF0EE3CF2BF012005C
:08407800D9CFE6FFDACFE6FF25
:10408000E1CFD9FFE2CFDAFF0C0EE12402E3E168D1
:10409000E652E16ED950FA0FE96EFF0EDA20EA6EB1
:1040A000010EEECFDBFF020EEECFDBFF030EEECFF5
:1040B000DBFF040EEECFDBFF63D8D950010FE96EB2
:1040C000000EDA20EA6EEECFE6FFEECFE6FFEECF8F
:1040D000E6FFEFCFE6FFCEEC20F0006E060EE15CCF
:1040E00002E2E16AE552E16E0050DF6E850EDF14F8
:1040F00004E04DD8EE6AED6A23D0090EDBCF00F064
:104100000A0EDBCF01F0820E0026FF0E01223FD8FF
:1041100000C0EEFF01C0EDFF7E0EF36E090EF3CF7F
:10412000DBFF0A0EDB6AD950010FE66E000EDA20C3
:10413000E66E26D85CEC21F0E552E552E552E552F8
:10414000010EDBCF00F0020EDBCF01F0030EDBCF60
:1041500002F0040EDBCF03F000C028F001C029F00C
:1041600002C02AF003C02BF00C0EE15C02E2E16A0F
:10417000E552E16EE552E5CFDAFFE7CFD9FF120055
:10418000D950050FE66E000EDA20E66E1200F80E2A
:0C419000DBCFE9FFF90EDBCFEAFF1200E5
:04419C00D9CFE6FF92
:1041A000DACFE6FFE1CFD9FFE2CFDAFFE6520068CF
:1041B00001687F0E026E036AD950FA0FE96EFF0E96
:1041C000DA20EA6EEE500016EE500116EE5002169E
:1041D000EE5003166AD800C0EEFF01C0EEFF02C029
:1041E000EEFF03C0EEFFFD0EDB50800B02E0010E80
:1041F00001D0000EE66E59D8060EE926000EEA221E
:10420000E552E750EF6EFC0EDBCF00F0FD0EDBCF8A
:1042100001F0D89000360136FC0E00C0DBFFFD0E29
:1042200001C0DBFFDB50E66E40D8040EE926000E2D
:10423000EA22E552E750EE6EED6AFD0EDB50006EAD
:10424000016AFF0E001818E1015016E12ED8EECFDA
:1042500000F0EECF01F0EECF02F0EFCF03F0005010
:1042600001100210031006E0210E0001CB6FCC6B91
:10427000800E0BD0040E09D0FD0EDB5008E115D8DE
:10428000EE6AEE6AEE6AEE6A010EDF6E06D0020E8C
:10429000DF6E0BD8EE52EE52EE8EDF50E552E55255
:1042A000E5CFDAFFE7CFD9FF1200F80EDBCFE9FF49
:0842B000F90EDBCFEAFF12005A
:0842B800D9CFE6FFDACFE6FFE3
:1042C000E1CFD9FFE2CFDAFF5BD8013411E2005031
:1042D000FE08000E01540CE276D805E06CD8800E82
:1042E000EE6EEE6847D067D8800EEE6E7F0E0ED071
:1042F00047D8D890015004E6010E005C000E01582A
:104300000BE261D805E057D8EE6A800EEE6E32D02F
:1043100052D8EE6AEE6A2ED047D8EECF00F0EECF3C
:1043200001F0EECF02F0EFCF03F032D800C0EEFF85
:1043300001C0EEFF02C0EEFF03C0EEFF21D8005027
:10434000010B05E025D8020E3AD8EF8E04D020D814
:10435000020E35D8EF9E14D8D8900132003218D80A
:10436000030E2DD800C0EFFF1AD804E011D8030EB9
:1043700026D8EF8EE552E5CFDAFFE7CFD9FF12005E
:1043800013D8040E1CD8EECF00F0EFCF01F01200CE
:10439000FA0EDBCFE9FFFB0EDBCFEAFF120004D8F9
:1043A000060E0DD8EF501200FC0EDBCFE9FFFD0E1C
:1043B000DBCFEAFF1200ECDFEE6AEE6A1200E926BC
:1043C000000EEA221200220E0001CB6FCC6BCFEF61
:0243D00021F0DA
:0E43D200005EBCE2613FDD83C29C7E20A3FD45
:1043E0001F419DC3217FFCA2401E5F01E3BD3E60D3
:1043F00082DC237D9FC1421CFEA0E1BF5D0380DE05
:104400003C62BEE0025CDF81633D7C22C09E1D43B6
:10441000A1FF4618FAA427799BC584DA3866E5BB64
:104420005907DB856739BAE406581947A5FB782692
:10443000C49A653BD987045AB8E6A7F91B45C698C4
:104440007A24F8A6441A99C7257B3A6486D85B0576
:10445000E7B98CD2306EEDB3510F4E10F2AC2F7124
:1044600093CD114FADF3702ECC92D38D6F31B2EC52
:104470000E50AFF1134DCE90722C6D33D18F0C5284
:10448000B0EE326C8ED0530DEFB1F0AE4C1291CF36
:104490002D73CA947628ABF517490856B4EA6937E4
:1044A000D58B5709EBB536688AD495CB2977F4AA12
:1044B0004816E9B7550B88D6346A2B7597C94A1444
:1044C000F6A8742AC896154BA9F7B6E80A54D789F6
:0244D0006B354A
:0E44D200D9CFE6FFDACFE6FFE1CFD9FFE2CF88
:1044E000DAFFE652E652E652E652D950F90F006E74
:1044F000FF0EDA20016E020E00C0DBFF030E01C0CA
:10450000DBFF020EDBCFE6FF030EDBCFE6FFF90E8B
:10451000DBCFE6FFFA0EDBCFE6FFFB0EDBCFE6FFDD
:10452000D950FC0FE66EFF0EDA20E66EE7EC0DF0D8
:10453000006E070EE15C02E2E16AE552E16E0050B6
:10454000F3CFDEFFF4CFDDFFFC0EDBCFE9FFFD0E86
:10455000DBCFEAFFEF6ADECF00F0DDCF01F000C075
:10456000F3FF01C0F4FF040EE15C02E2E16AE552F0
:0E457000E16EE552E5CFDAFFE7CFD9FF12008A
:02457E001E0E0F
:10458000F66E000EF76E000EF86E00010900F55091
:10459000BB6F0900F550BC6F03E1BB6701D03DD094
:1045A0000900F550B66F0900F550B76F0900F550D6
:1045B000B86F09000900F550E96E0900F550EA6E80
:1045C000090009000900F550B96F0900F550BA6FEC
:1045D00009000900F6CFBDF0F7CFBEF0F8CFBFF06D
:1045E000B6C0F6FFB7C0F7FFB8C0F8FF0001B95377
:1045F00002E1BA5307E00900F550EE6EB907F8E2A0
:10460000BA07F9D7BDC0F6FFBEC0F7FFBFC0F8FFBD
:0C4610000001BB07000EBC5BBFD712000E
:04461C00D9CFE6FF0D
:10462000DACFE6FFE1CFD9FFE2CFDAFFE652E6527A
:10463000E652E652D950FB0F006EFF0EDA20016EF3
:1046400000C0DEFFDD6EDECFE6FFDDCFE6FFFB0E56
:10465000DBCFE6FFFC0EDBCFE6FFFD0EDBCFE6FF98
:10466000CDC0E6FFCEC0E6FFE7EC0DF0006E070E12
:10467000E15C02E2E16AE552E16E0050020EF3CF26
:10468000DBFF030EF4CFDBFF020EDBCF00F0030EE7
:10469000DBCF01F000C0F3FF01C0F4FF040EE15CCA
:1046A00002E2E16AE552E16EE552E5CFDAFFE7CFDB
:0446B000D9FF12001C
:0C46B400D9CFE6FFDACFE6FFE1CFD9FF57
:1046C000E2CFDAFFE150FA0FE96EFF0EE220EA6E68
:1046D000EECFE6FFEECFE6FFEECFE6FFEFCFE6FF51
:1046E00019EC1AF0E552E552E552E55228C004F003
:1046F00029C005F02AC006F02BC007F0D90E2E6E97
:104700005B0E2F6EDE0E306E3E0E316E28C029F02D
:1047100005C02AF006C02BF007C02CF064EC18F09E
:1047200029C000F02AC001F02BC002F02CC003F019
:1047300029C028F02AC029F02BC02AF02CC02BF069
:0C474000E552E5CFDAFFE7CFD9FF120009
:04474C00D9CFE6FFDC
:10475000DACFE6FFE1CFD9FFE2CFDAFFAC6AAB6A8E
:10476000FD0EDBB0AC88DBA202D0AC8CAB8CDBB432
:10477000AC8EDBA602D0AB8801D0AB8ADBB8AC84B0
:104780009E98DBBAAB86DBAC02D09D8A01D09D9AA5
:104790009E9ADBAE02D09D8801D09D98FB0EDB5027
:1047A000AF6EFB0EFC0EDBCF01F001C000F0016A22
:1047B0000050B06EAC8AAB8E949C948EAC50100BB3
:1047C00004E0AC50800B01E1948CE552E5CFDAFFB8
:0647D000E7CFD9FF120043
:0A47D600D9CFE6FFDACFE6FFE1CF0E
:1047E000D9FFE2CFDAFFFB0EDBCF00F0FC0EDBCF10
:1047F00001F00001800E01141AE1FB0EDBCFE9FF8E
:10480000FC0EDBCFEAFFEECFF3FFEDCFF4FFEE2A95
:10481000000EEF22F3CFE9FFF4CFEAFFFD0EDBCF6E
:10482000EFFFEF50016AF36E01C0F4FF10D0FB0EF2
:10483000DB50FE0806E1FD0EDBCFE6FF21EC26F0A3
:1048400005D0FD0EDBCFE6FF03EC00F0E552E552AC
:0A485000E5CFDAFFE7CFD9FF120031
:06485A0028502D02F3CFEF
:1048600024F0F4CF25F02E02F3502526000EF4207C
:10487000266E28502F02F3502626000EF420276EB5
:1048800028503002F350272629502D02F3502526B8
:10489000F4502622000E272229502E02F3502626FD
:1048A000F450272229502F02F35027262A502D0298
:1048B000F3502626F45027222A502E02F3502726A2
:0A48C0002B502D02F35027261200A2
:0648CA00D9CFE6FFE1CFAB
:1048D000D9FFFE0EDB50A96EA69EA69CA680A8500E
:1048E000E552E7CFD9FF1200D9CFE6FFE1CFD9FFDC
:1048F000E652DF6AA69CA6B2FED7FE0EDB50A96E7A
:10490000FD0EDB50A86EA69EA684F2AE03D0F29EEA
:10491000010EDF6E550EA76EAA0EA76EA682A69494
:10492000A6B2FED7DF5001E0F28EE552E552E7CFA6
:04493000D9FF120099
:0C493400D9CFE6FFDACFE6FFE1CFD9FFD4
:10494000E2CFDAFFE652E652FC0EDBCF00F0FD0EBE
:10495000DBCF01F0060ED89000360136E804FBE10B
:1049600000C0DEFF01C0DDFF010EDB50BE6EDF5078
:10497000E840E8403F0B300B006ECF0EBD14001036
:10498000BD6EE552E552E552E5CFDAFFE7CFD9FF3C
:02499000120013
:0E499200276A266A256A246A200EE76ED890EE
:1049A000283629362A362B3624362536263627361B
:1049B0002D50245C2E5025582F5026583050275803
:1049C00009E32D50245E2E50255A2F50265A305080
:0A49D000275A282AE72EE4D7120028
:0649DA00D9CFE6FFDACFA1
:1049E000E6FFE1CFD9FFE2CFDAFFFD0EDB507E0B11
:1049F000CD6EFD0EDBAC02D0CD8E01D0CD9ECF6A48
:104A0000CE6A9E90DBAE02D09D8001D09D90CD807D
:0C4A1000E552E5CFDAFFE7CFD9FF120036
:044A1C00D9CFE6FF09
:104A2000DACFE6FFE1CFD9FFE2CFDAFFE652F20EAE
:104A30000101FF17ABAC03D0FF91ABB0FF81ABB46A
:104A4000FF85ABB2FF87AE50DF6EDF50E552E55217
:0A4A5000E5CFDAFFE7CFD9FF12002F
:064A5A00D9CFE6FFDACF20
:104A6000E6FFE1CFD9FFE2CFDAFFE652E652FC0ED5
:104A7000DBCFDEFFDBCFDDFF010EDB50CF6EDF5083
:104A8000CE6EE552E552E552E5CFDAFFE7CFD9FF2A
:024A9000120012
:0E4A9200D9CFE6FFDACFE6FFE1CFD9FFE2CFC2
:104AA000DAFFE652E652FC0EDBCFDEFFDBCFDDFFA6
:104AB000010EDB50D76EDF50D66EE552E552E5525F
:0A4AC000E5CFDAFFE7CFD9FF1200BF
:064ACA00D9CFE6FFDACFB0
:104AD000E6FFE1CFD9FFE2CFDAFFFD0EDB507F0B1F
:104AE000D56ED76AD66AF294FD0EDBAE02D0F28A9A
:104AF00001D0F29AD58EE552E5CFDAFFE7CFD9FFA4
:024B00001200A1
:0E4B0200D9CFE6FFDACFE6FFE1CFD9FFE2CF51
:104B1000DAFFFD0EDB50FB0BCA6ECC6A9E92FD0ED7
:104B2000DBAE02D09D8201D09D92CA84E552E5CFD2
:084B3000DAFFE7CFD9FF120004
:084B3800D9CFE6FFDACFE6FF5A
:104B4000E1CFD9FFE2CFDAFF0C0EBD129494CA94E4
:104B5000FD0EDB50CB6ECA84E552E5CFDAFFE7CF1E
:084B6000D9FF12009494120029
:084B6800FF0EE350396EEF0E61
:104B700001D0F30EE76EE72EBBEF25F00C0E386E7A
:104B8000E76AE72EC1EF25F0382EC0EF25F0392E69
:064B9000B9EF25F0120050
:0A4B9600276A266A100EE76ED89019
:104BA0002A362B36263627362F50265C305027588B
:104BB00005E32F50265E3050275A2A2AE72EF0D7D9
:024BC0001200E1
:0E4BC200F36AF46AFF0EE124E96EFF0EE220B2
:104BD000EA6EED6607D02F0EEF6404D03A0EEF6058
:064BE00001D0F32A1200CF
:0A4BE600FF0EE350396E480E01D0B7
:104BF0004C0EE76EE72EFED7E76AE72EFED7392E7A
:064C0000F7D700001200CE
:0A4C0600000EF36E00EE00F0060E43
:104C100001D81200EA6002D0EE6AFCD7F350E960D6
:064C20001200EE6AFCD751
:0A4C260015EE00F025EE00F0F86A2C
:104C3000339CBFEC22F007EC00F05BEC1EF0FBD7DE
:024C4000120060
:0E4C4200FF0EE350ACBA04D0AF6AAB8EAC8A62
:0E4C5000949CACA2FED7AD6EF36EF46A120017
:024C5E00FF0E47
:104C6000E350396E1B0E00D001D0200EE76EE72E08
:0A4C7000FED7392EFAD700D012004B
:064C7A00FF0EE350E84EBE
:104C80001200000000D000D000D0E82EFAD71200A9
:104C900030313233343536373839616263646566B2
:014CA0000013
:024CA100FEFF14
:024CA30000000F
:020000040030CA
:0100010008F6
:0100020018E5
:010003001EDE
:01000500807A
:010006008178
:010008000FE8
:01000900C036
:01000A000FE6
:01000B00E014
:01000C000FE4
:01000D0040B2
:00000001FF
