:020000040000FA
:06000000E9EF24F01200FC
:020006001200E6
:060008009DEF1DF0120047
:02000E001200DE
:0400100000000000EC
:03001400270100C1
:060018003FEF1EF0120094
:02001E000400DC
:100020004F4A0000DB000000020000004D4A0000C3
:10003000D90000000200000014000000D4000000FD
:100040000300000010000000FB010000040000009D
:100050004FEC06F001010051002BE96EEA6AE9BE9F
:10006000EA68AE0EE926010EEA22FE0EDBCFEFFFB4
:10007000022B280E005D01E1006B1E0EE76E0219D7
:10008000E8AE02D0023503D0E750D880025504E232
:10009000FA0502E183EC06F054EF06F04FEC06F0AF
:1000A000E65201010151012BE96EEA6AE9BEEA68F4
:1000B000AE0EE926010EEA22EFCFDFFF0207280E7F
:1000C000015D01E1016B140EE76E0219E8AE02D08A
:1000D000E73402D0E750025D05E2FA5103E158EC43
:1000E00006F0E552DF50E55254EF06F04FEC06F013
:1000F000280EE66E8AEC24F0E552820EE66E3A0E89
:10010000E66E000E45EC06F0FE0EDB5008E170ECEA
:1001100006F07D0EE66E3A0EE66E000E07D070EC2D
:1001200006F0780EE66E3A0EE66E000E4CEC06F027
:10013000600EE66E3A0EE66E000E45EC06F0580EC6
:10014000E66E3A0EE66E000E45EC06F070EC06F038
:10015000480EE66E3A0EE66E000E4CEC06F054EFDA
:1001600006F013EC07F0200EE66E3A0EE66E000E77
:10017000B0EC06F00101FBA30FD083EC13F0006E8E
:10018000016A00BE016898EC06F0100EE66E3A0EA9
:10019000E66E000EB6EC06F00101FC51E66EE66A72
:1001A000050EE66E3A0EE66E000E4CEC06F0020E00
:1001B000E66E3A0EE66E000E45EC06F00101010E09
:1001C000FD6F120013EC07F0D70EE66E390EE66EE7
:1001D000000EB0EF06F093EC06F0BC0EE66E390EA2
:1001E000E66E000E45EF06F093EC06F09C0EE66E10
:1001F000390EE66E000E45EF06F093EC06F070EC5B
:1002000006F07D0EE66E390EE66E000E4CEF06F03F
:100210004FEC06F0FAEC06F0FB0EDBCFE6FFFC0E2F
:10022000DBCFE6FFFD0EDBCFE6FFE4EC21F0E5528D
:10023000E552E552F90EDBCFE6FFFA0EDBCFE6FF23
:100240004C0EE66E390EE66E000E4CEC06F054EFE6
:1002500006F04FEC06F0120EE1260C0EDB6A0D0ED6
:10026000DB6A200EF36E0E0EF3CFDBFFC10EF36ED2
:100270000F0EF3CFDBFF0A0EE126FD0EDBCFE6FF0C
:100280006BEC15F0EECF00F0EECF01F0EECF02F008
:10029000EECF03F0EECF04F0EECF05F0EECF06F098
:1002A000EECF07F0EECF08F0EECF09F0EECF0AF078
:1002B0000B6E0B0EE15E0B5000C0DFFF010E01C0A4
:1002C000DBFF020E02C0DBFF030E03C0DBFF040EE8
:1002D00004C0DBFF050E05C0DBFF060E06C0DBFF1A
:1002E000070E07C0DBFF080E08C0DBFF090E09C0C0
:1002F000DBFF0A0E0AC0DBFFDB5001E1C9D0DF5093
:10030000100A08E0380A1CE164EC06F0800E306E3A
:10031000410E04D064EC06F0306A400E316EA7EC5A
:1003200006F00DEC17F00C0E29C0DBFF0D0E2AC0F5
:10033000DBFF0E0E2BC0DBFF0F0E2CC0DBFF0ED041
:100340000C0EDB6A0D0EDB6A840EF36E0E0EF3CF1D
:10035000DBFF420EF36E0F0EF3CFDBFF0C0EDBCF95
:1003600029F00D0EDBCF2AF00E0EDBCF2BF00F0E97
:10037000DBCF2CF0CDEC17F0100E2BC0DBFF0C0EFA
:10038000DBCF04F00D0EDBCF05F00E0EDBCF06F059
:100390000F0EDBCF07F0CCEC06F004C029F005C04F
:1003A0002AF006C02BF007C02CF060EC17F00AEC26
:1003B00007F0100EDBCF10F010C02BF052EC16F04F
:1003C00029C00CF02AC00DF02BC00EF02CC00FF08D
:1003D000CCEC06F060EC17F029C008F02AC009F058
:1003E0002BC00AF02CC00BF029C02EF02AC02FF031
:1003F0002BC030F02CC031F0A7EC06F076EC16F0F4
:10040000CDEC17F0110E2BC0DBFFFAEC06F00B0E53
:10041000DB6ADBCF00F0080EE76E0018E8AE02D012
:10042000E73402D0E750005C1CE2D9CF00F0DACF0D
:1004300001F00B0EDBCF02F0036A02BE0368BCECD6
:1004400006F0E66EE66A470EE66E390EE66E000EC0
:100450001AEC07F0046E050EE15E04500B0EDB2A69
:10046000D8D7110EDBCFE6FFE66A100EDBCF00F027
:10047000016A00BE016898EC06F02B0EE66E390E9C
:10048000E66E000E1AEC07F0026E070EE15E0250F7
:10049000120EE15C02E2E16AE552E16E54EF06F011
:1004A0004FEC06F08CEC06F00D0EE66E390EE66EA3
:1004B000000E45EC06F00101FC51E66EE66AF10E15
:1004C000E66E380EE66E000E4CEC06F054EF06F0C9
:1004D0004FEC06F0020EE126010EDE6EDD6AFD0E27
:1004E000DB50100A5BE0180A51E00C0A30E0060A03
:1004F00018E0030A58E1FE0EDB500BE1E8C1DEFF15
:10050000E9C1DDFF000EDB500101E85F010EDB50A9
:10051000E95BF0EC06F0ED0EE66E380EE66E000ECE
:100520002BD0FE0EDB500BE1EAC1DEFFEBC1DDFF9D
:10053000000EDB500101EA5F010EDB50EB5BF0ECDB
:1005400006F0E70EE66E380EE66E000E15D0FE0ED3
:10055000DB500BE1ECC1DEFFEDC1DDFF000EDB5037
:100560000101EC5F010EDB50ED5BF0EC06F0E20EFA
:10057000E66E380EE66E000EE66EFE0EDBCFE6FF90
:1005800047DE006E060EE15E00500DD0EEC1E6FFC4
:10059000FE0EDBCFE6FF5DDEE55204D0FE0EDBCFC4
:1005A000E6FF7EDFE552020EE15C02E2E16AE5521F
:1005B000E16E7AD30101036B046B12000101E76B5A
:1005C000F96BDAEF02F06BDBE6520101FB6BDF6ADD
:1005D000DFCF00F0100EE76E0018E8AE02D0E7346F
:1005E00002D0E750005C30E2DFCFE6FF3BEC23F0C7
:1005F000E552E66EDFCFE9FFEA6AE9BEEA68F5ECAC
:1006000006F0E552E750EF6EDFCFE9FFEA6AE9BE98
:10061000EA68F5EC06F0EF5003E10101FB8114D02C
:10062000DF5010E1FF0E0101D65D0CE1DA0EE66E3F
:10063000380EE66E000EE66E53DB3FEC21F01DEC4B
:1006400007F002D0DF2AC4D7E5522ED39494060EC9
:10065000E66E57EC24F0E552F90EE66E72EC24F0EB
:10066000E552E80EE66E030EE66E70EC23F0E552FE
:10067000E55269EC15F0000904E10101FB8346EC49
:1006800015F0A1DF0101E86BE96BEA6BEB6BEC6B3A
:10069000ED6B94DF0101006B016B026B0101FD6BDF
:1006A000010106DBE5521200FADAFE0EDB500A0801
:1006B0001FE001010351006E016AD890015004E669
:1006C000AA0E005C000E015808E3D60EE66E380E46
:1006D000E66E000EDADA72DF15D00351032BEA6AF8
:1006E000040FE96E010EEA22FE0EDBCFEFFF0AD007
:1006F00001010351EA6A040FE96E010EEA22EF6A72
:10070000010EE76FD1D2CBDA020EE1260101E751EB
:1007100039E0010A06E0E7C100F0016A00AEBDD091
:10072000BBD0C9D8E76E010EE7CFDBFFDB50070A6D
:100730001DE0010A18E0030A14E0010A10E0070AAC
:100740000CE0010A08E0030A04E0010A17E109DDF0
:1007500015D04ADD13D051DD11D0010E05D0020EA7
:1007600003D0040E01D0100E1EDB08D0DF6A0A0E83
:10077000DF5C04E2100E17DBDF2AF9D70101E76B1B
:1007800019DF92D00151005D04E088DCE66E8CDF59
:10079000E5520101FE5116E0FEA106D0010EE66E03
:1007A000E66E50DB0101FE71FEA304D0020EA6DA54
:1007B0000101FE73FEA504D0040EA0DA0101FE754E
:1007C000070EFE1700012C0ED880D455010ED5550A
:1007D00008E2010E0101FB1504E0C3DC0001D46B4B
:1007E000D56B00013C0ED880D455000ED55508E2DB
:1007F000010E0101FB1504E1E5DC0001D46BD56BB2
:100800000001D6513C080BE2020E0101FB1507E086
:10081000010EFB1504E00001D66B46EC15F0020E4C
:100820000101FB1541E0010EFB153EE0FD513CE0EE
:10083000DF6A83EC13F0DF5C37E27FDAEECF00F0A3
:10084000EFCF01F075DADFCFE6FFA4EC15F0E5524B
:10085000E552E7CF01F0E552E7CF00F0F3CF02F029
:10086000F4CF03F0F350001802E10350011812E036
:10087000DFCFE6FFA4EC15F0E552F3CF00F0F4CFA4
:1008800001F05BDAF3CFEEFF01C0EDFFDFCFEEF159
:10089000080E34DADF2ACDD701684ADA9C0EE66EFC
:1008A000380EE66E000E62DA020EE15C02E2E16AE8
:1008B000E552E16EF9D1F3D90A0EE1260101F951B1
:1008C000040A01E16AD10D0A01E10ED1010A01E138
:1008D000EDD00F0A01E1C4D0040A01E1B0D0060A4C
:1008E00001E192D0030A01E183D0040A33E0030A54
:1008F0000FE0010A01E085D1CAD9930EE66E380EE9
:10090000E66E000EBCD901E07CD10101010ED8D009
:10091000BED98A0EE66E380EE66E000EB0D917E02C
:10092000160E95DA730EE66E380EE66E000EDDD901
:1009300001E067D11A0EE66E010EE66ED1D967ECC2
:100940001EF0E552E552E552E55200094FE1010182
:10095000020EB6D09CD9670EE66E380EE66E000E1B
:100960008ED904E10101F96B010E4CD190D9570EDB
:10097000E66E380EE66E000E82D903E10101040E28
:100980009FD085D9480EE66E380EE66E000E77D9F8
:1009900003E10101030E94D07AD93A0EE66E380EC7
:1009A000E66E000E6CD903E10101050E89D06FD906
:1009B0002B0EE66E380EE66E000E61D903E10101E2
:1009C000060E7ED064D91D0EE66E380EE66E000E61
:1009D00056D903E10101080E73D059D91B0EE66EFA
:1009E000380EE66E000E4BD901E10BD10101D3D0D8
:1009F00009DA04E10101F96B020E04D17B0E010159
:100A0000045D01E1FED0C7D0FDD913E10101F96B0E
:100A10000A0E006E016AD4C02AF0D5C02BF02F6EEA
:100A200001C030F0A1EC24F02A50E66E8AEC24F0EC
:100A3000E5D07B0E0101045D01E1E3D0ACD027D904
:100A4000FB0EE66E370EE66E000E19D903E10101CA
:100A5000070E36D07B0E0101045D01E1D2D09BD0A0
:100A600016D9F00EE66E370EE66E000E08D904E1D8
:100A70000101F96B030EC6D00AD9E30EE66E370EFC
:100A8000E66E000EFCD804E10101F96B040EBAD049
:100A9000FED8D70EE66E370EE66E000EF0D804E1F3
:100AA0000101F96B050EAED0010175D0F0D8C90E69
:100AB000E66E370EE66E000EE2D804E10101090E83
:100AC000F96F9FD0E4D8BE0EE66E370EE66E000ECC
:100AD000D6D804E10101F96B070E94D07B0E010119
:100AE000045D01E18ED057D0D2D8B00EE66E370E3D
:100AF000E66E000EC4D801E184D0080EA8D9A70E76
:100B0000E66E370EE66E000EF0D844E10C0EE66E8F
:100B1000010EE66E4CD952D94AD936D90101FC6B87
:100B2000DF6A50D9E8AE02D0E73402D0E750005C6B
:100B300013E20A0EFC03F3CFFCF1D950020F006E52
:100B4000DACF01F0DFCF02F0036A02BE036814D9E6
:100B5000D00FFC27DF2AE5D7FC51006E016AFF0E9B
:100B6000001806E1015004E1E668030EE66E0AD0C3
:100B7000FC51006E016AD89000360136D8900036DC
:100B80000136D6D870EC23F0E552E5520101F96B3D
:100B9000060E38D00101F96B34D0080E58D99E0EDC
:100BA000E66E370EE66E000EA0D82BE10101FA05C5
:100BB00001E1A9D8EBEC00F00C0EE66E010EE66E3A
:100BC0008FD8FCD88DD8E0D8DF6AFCD8E8AE02D048
:100BD000E73402D0E750005C0BE2DFCFE9FFEA6ABE
:100BE000E9BEEA6802D9EF50E66EF3D8DF2AEDD706
:100BF000E66AEFD8E8DC0101F96B5AD8E552000E3D
:100C000001D0FF0E006E0A0EE15C02E2E16AE552DD
:100C1000E16E005049D043D8FE0EDB50040A1CE0C0
:100C2000050A0EE0030A24E10101FF0EEA5DFF0E52
:100C3000EB5903E2EA2B000EEB230101FE831ED0E9
:100C40000101FF0EE85DFF0EE95903E2E82B000EFB
:100C5000E9230101FE8112D00101FF0EEC5DFF0EC0
:100C6000ED5903E2EC2B000EED230101FE8506D0C9
:100C7000880EE66E370EE66E000E07D815D0E66ECB
:100C800087EC1EF0DAD800091200D4D8E4D0040EA4
:100C9000E66E010EE66E1200CDD81DEF07F0D9CF3B
:100CA000E6FFE1CFD9FF1200E552E7CFD9FF1200EE
:100CB000010EFA6FFE0EE66EE668110EE66EC1ECEE
:100CC00022F0E552E5521200080EDBCF2AF0090EA1
:100CD000DBCF2BF061EC16F09DD82E6A2F6A120044
:100CE000D60EE66E010EE66E1200E66ECCEC1EF03D
:100CF000006E070EE15E005000091200E66E010E64
:100D0000E66E22EF07F0FA6BFE0EE66EE668130E53
:100D1000E66EC1EC22F09FD0FE0EDBCFE6FF76EC54
:100D200000F0E5521200E66A76EC00F0E55212009F
:100D300000C0E6FF01C0E6FF1200EA6ADF34FE0BE6
:100D4000EA36E96EEF0EE926010EEA22120000C033
:100D500029F001C02AF002C02BF003C02CF01200D1
:100D600069D8006E070EE15E0050120063D8026E73
:100D7000050EE15E0250120000500224E96E01509F
:100D80000320EA6EEF501200BEEC1EF0E552E55271
:100D9000010EF3CFDBFF12002E6A2F6AC80E306EF1
:100DA000420E316E1200E66EE66A22EF07F0D9506D
:100DB000020FE66E000EDA20E66E12009DEC1EF0C9
:100DC000E55249D0DFCF00F0010EDB50E76E00188E
:100DD0001200DFCFE6FF4AEC23F0E552E5521200A5
:100DE000DECFE6FFDDCFE6FF1200D60EE926010ECC
:100DF000EA22120091DF660EE66E390EE66E000EF4
:100E000045EF06F044DF0B0EE66E380EE66E000E80
:100E10003FEF06F029C000F02AC001F02BC002F01D
:100E20002CC003F012007FDF040EE66EE66AE66E69
:100E3000E66A1200E66EE4EF21F0006E050EE15E58
:100E40000050120068EC02F0E552E5521200E66E26
:0E0E5000E66A47EF06F0E552E552E552120061
:020E5E006BEC3B
:100E60000CF0FB0EDBCFF3FFDB06F35000090AE0CA
:100E7000B9EC0CF0FA0E24EC0DF0F3E1011CF1E1F9
:100E8000010E01D0000E9AEF0CF06BEC0CF03B0E53
:100E9000E12402E3E168E652E16E010EDB6A020E34
:100EA000DB6AF90EDBCFF6FFFA0EDBCFF7FFFB0EA6
:100EB000DBCFF8FF0800F550DF6EDF5002E1BEEF38
:100EC0000BF0250EDF5C02E0B1EF0BF0030EDB6AE6
:100ED000040EDB6A050EDB6A060EDB6A070EDB6AB0
:100EE000D3EC0BF02D0EDF5C0CE02B0EDF5C09E089
:100EF000200EDF5C06E0230EDF5C03E0300EDF5CDB
:100F00001AE1DF50300A14E0130A0FE0030A0AE086
:100F10000B0A05E0060AE4E1030EDB80E1D7030ECD
:100F2000DB82DED7030EDB84DBD7030EDB86D8D76C
:100F3000030EDB88D5D72A0EDF5C1BE1CFEC0BF06C
:100F40001DEC0CF010E0030EDB802A682B68130EFA
:100F5000DBCF2FF0140EDBCF30F010EC19F0040EC5
:100F600028C0DBFF03D0130E06EC0CF0D3EC0BF023
:100F70000BD0090EDB6A74EC0CF003E0E8EC0CF02B
:100F8000FAD7090E06EC0CF0030EDBB0DB982E0E40
:100F9000DF5C1BE1D3EC0BF02A0EDF5C0BE1CFEC46
:100FA0000BF01DEC0CF003E1130E58EC0CF0D3EC3D
:100FB0000BF00BD0090EDB6A74EC0CF003E0E8ECEC
:100FC0000CF0FAD7090E58EC0CF0680EDF5C07E164
:100FD000D3EC0BF0680EDF5C1DE1030E18D0740E2D
:100FE000DF5C17E07A0EDF5C14E0480EDF5C06E0A1
:100FF000540EDF5C03E05A0EDF5C02E1020E07D004
:101000006C0EDF5C03E06A0EDF5C04E1010EABEC0A
:101010000CF0C9DBDF506E0A01E17FD31E0A01E14B
:1010200092D1200A01E18FD13F0A01E149D11A0A88
:1010300001E146D10D0A01E143D1200A01E140D18D
:101040003A0A01E13DD1200A01E13AD1260A01E143
:1010500035D10D0A01E132D11A0A01E1D9D0200AB5
:101060004AE0300A1FE0460A0EE0250A01E083D379
:10107000D950F90FE96EFF0EDA20EA6E010EEE5E2E
:10108000000EEE5AEE5AB9EC0CF0250EE66E95DB2A
:1010900003E1011C01E169D3B5EC0CF001E26BD373
:1010A000DB2A69D3080EDB6A040EDB50010806E276
:1010B000040EDB047DEC0CF0DB508BDB080EDB5008
:1010C00009E0030EDB50010B05E172DB01E04DD3BB
:1010D000080EDB6A64DBEFCFDFFF2DEC0DF003E1E0
:1010E000011C01E142D3B5EC0CF001E3DB2A60DB2B
:1010F00001E141D33AD3070EDB5002080FE1F9ECCE
:101100000CF0030EC0EC0CF00E0EEECFDBFF0F0E5A
:10111000EECFDBFF100EEECFDBFF20D0F70EDBCFE4
:1011200003F0F80EDBCF04F0020E035E000E045A4B
:10113000F70E03C0DBFFF80E04C0DBFF03C0E9FFBE
:1011400004C0EAFFB0EC0CF0026A0E0E00C0DBFF38
:101150000F0E01C0DBFF100E02C0DBFF0E0EDBCF57
:10116000E6FF0F0EDBCFE6FF100EDBCFE6FFEDEC68
:101170001EF0E552E552E552130E29C0DBFF140EB6
:101180002AC0DBFF060EDB5005E0130EF4EC0CF07A
:1011900001E26ADB18EC0DF002E2130E37DBDBEC48
:1011A0000CF006E0040EF4EC0CF002E2050E2EDB6F
:1011B000030EDBB005D0FCDA01E0D7D2080EDB6A03
:1011C000090EDB6A0E0EDBCFF6FF0F0EDBCFF7FF4B
:1011D000100EDBCFF8FF0800F550DF6EDF5014E093
:1011E0001EEC0DF011E22DEC0DF003E1011C01E10C
:1011F000BCD2BBDB01E3DB2A090EDB2AD9500E0F80
:10120000E96E000ECBDBE7D7D3DA01E1B4D2ADD281
:10121000C6DA110EEECFDBFF120EEDCFDBFF110EA3
:10122000DBCFE6FF120EDBCFE6FFBEEC1EF0E55291
:10123000E552130EF3CFDBFF140EF4CFDBFF060EE7
:10124000DB5004E0130ED0DB01E20EDB18EC0DF0F6
:1012500002E2130EDBDAAFDB05E0040EC5DB02E2CF
:10126000050ED4DA030EDBB005D0A2DA01E07DD2A0
:10127000080EDB6A090EDB6A110EDBCFE9FF120EE6
:10128000DBCFEAFFEFCFDFFFDF5014E0D7DB12E266
:10129000E4DB03E1011C01E168D267DB01E3DB2A47
:1012A000090EDB2A110EDB2ADBCFE9FF120EE8E381
:1012B000DB2AE6D77DDA01E15ED257D2030EDB8E60
:1012C000070EDB0410E195DB040E5ADB0A0EEECFAD
:1012D000DBFF0B0EEECFDBFF0C0EEECFDBFF0D0EB8
:1012E000EECFDBFF6CD0070EDB5003082CE1030EC2
:1012F000DBAE0DD0B2DA020E76DAEFCF00F0016A83
:10130000026A036A00AE39D00168026835D0F70E70
:10131000DBCF01F0F80EDBCF02F0020E015E000E13
:10132000025AF70E01C0DBFFF80E02C0DBFF01C05E
:10133000E9FF02C0EAFFEFCF00F00A0E00C0DBFFBA
:101340000B0EDB6A38D0070EDB50020809E1030EF2
:10135000DBAE04D059DB02AE10D00ED055DB0DD081
:10136000030EDBAE12D079DA020E3DDAF9DA026A48
:10137000036A01AE02D002680368E2DA0C0E02C012
:10138000DBFF0D0E03C0DBFF1AD0F70EDBCF02F040
:10139000F80EDBCF03F0020E025E000E035AF70ECA
:1013A00002C0DBFFF80E03C0DBFF02C0E9FF03C091
:1013B000EAFFD6DAC5DA0C0EDB6A0D0EDB6A060E22
:1013C000DB5005E1010EF36E050EF3CFDBFF150ECA
:1013D000DB6A160EDB6AD950370F006E000EDA207A
:1013E000016E390E00C0DBFF3A0E01C0DBFF380E84
:1013F000DB6A080EDB6A0A0EAEDADF50780A12E00A
:10140000200A10E0280A0CE0200A0AE03F0A06E061
:101410000D0A02E0200A08E1020E05D0080E03D0F2
:10142000080EDF26100E97DA030EDBBE02D0DB9229
:10143000DB94DB50800B24E08ADAD890030EEB506B
:10144000000A08E6000EEE5C000EEE58000EEE58A4
:10145000000EEE5815E213DA2D682E682F683068FA
:1014600003EC23F00A0E24C0DBFF0B0E25C0DBFFCC
:101470000C0E26C0DBFF0D0E27C0DBFF2D0E08D0A3
:10148000030EDBA202D02B0E03D0DBA408D0200E6B
:10149000F36E170EF3CFDBFF150EDB2A02D0170E0B
:1014A000DB6A050EDB5003E1B7D901E189D03C0EC0
:1014B000006E4A0E016E000E026E070EDBCF03F0C7
:1014C000046A056A066A03C02DF004C02EF005C048
:1014D0002FF006C030F0D3D99FEC23F00050242425
:1014E000F36E01502520F46E02502620F86EF4CFE2
:1014F000F7FFF3CFF6FF0800090EF5CFDBFF580E1C
:10150000DF5C0FE1610EF36E090E7BD90AE3200E5A
:10151000006E090EDBCFE7FF0050E75E090EE7CF54
:10152000DBFF070EDBCF00F0016A026A036A0FDA05
:1015300000C02DF001C02EF002C02FF003C030F02B
:10154000EECF28F0EECF29F0EECF2AF0EFCF2BF040
:101550009FEC23F02BC0EDFF2AC0EDFF29C0EDFF6B
:1015600028C0EFFF390EDBCFE9FFDB063A0EDBCFF9
:10157000EAFF01E2DB06090EDBCFEFFF150EDB2AE7
:101580004BD995E1030EDBA61DD06F0EDF5C06E1A3
:10159000C1D918E3150EDB285BDA14D0780EDF5CB6
:1015A00009E0580EDF5C06E0620EDF5C03E0420EED
:1015B000DF5C08E1020EF36E160EF3CFDBFF02D004
:1015C000150EDB6A030EDB50100B0EE0040EDBCFB2
:1015D00000F0050EDB50D880005406E2060EDB500A
:1015E00003E1040EDB5034DA95D90AE2050EDBCFB5
:1015F000E7FF150EDB50E75E050EE7CFDBFF02D0FD
:10160000050EDB6A040EDBCF00F0160E45D9D8803C
:10161000005414E2160EDBCFE6FF150EDBCFE6FF1B
:10162000040EDBCFE6FF050EDB50E552E75CE5522A
:10163000D880E754E552D880E7545FD9030EDB50D9
:10164000010B0BE1080EDB5008E0B2D801E08DD0B1
:10165000080EDB50BED8080EDB6A170EDB5007E021
:1016600088D9170EF1D903E1011C01E17ED0160ED5
:10167000DB5016E07ED9300EE66E9FD802E1011CE9
:1016800074E077D9DFCFE6FFC1EC22F0E552E552F6
:10169000E552F4CF01F00001F31C02E1011C65E00A
:1016A000050EDBCF00F0160EDB50D880005409E2A7
:1016B000050EDBCFE7FF160EDB50E75E050EE7CF2A
:1016C000DBFF300EE66E050ECBD94FE1390EDB2A7B
:1016D000DBCFE9FF3A0E01E3DB2ADBCFEAFF090E9D
:1016E000EFCFDBFFDB500EE044D9090EADD902E1AC
:1016F000011C3BE0390EDB2ADBCFE9FF3A0EEDE3BC
:10170000DB2AEBD755D831E1160EDBCFE6FF080E0A
:10171000C3D8E552E7245DD82ED0070EDB50030A6C
:101720001CE0010A14E0030A07E07BD9DBCFEEFFDF
:10173000020EDBCFEDFF1FD0F5D8056A03AE02D055
:10174000046805682CD8BCD805C0EEFF14D0EAD8D0
:1017500003BE046824D8B4D80ED063D9DBCFEFFF22
:101760000AD07BD905E1011C03E1F368F46810D0CD
:10177000FCD801E3DB2A79D95AEF07F0010EDBCF61
:1017800000F0020EDBCF01F000C0F3FF01C0F4FF58
:101790003B0EE15C02E2E16AE552E16ECBD029D971
:1017A000020EC0EF0CF061D90800F550DF6E120098
:1017B000200EE66E080E30EF0DF0C1EC22F0E5527F
:1017C000E552E552F3CF00F0F4CF01F00001F31C35
:1017D0001200006E016AD950010F4DD90050EE265B
:1017E0000150ED221200045E000E055AF70E04C0EF
:1017F000DBFFF80E05C0DBFF04C0E9FF05C0EAFF10
:101800001200DBCFF4FFF350F45C1200DB50E76E04
:10181000040EE7CFDBFF12000A0EDBCF00F00B0E49
:10182000DBCF01F00C0EDBCF02F00D0EDBCF03F0AF
:1018300000500110021003101200130EEECFDBFF58
:10184000140EEDCFDBFF130EDBCF00F0140EDBCF59
:1018500001F00001800E01141200F70EDBCF04F03E
:10186000F80EDBCF05F01200050EDB50E66ED95006
:10187000130F01D9E552E750EE6EED6A12000A0E21
:10188000DBCF28F00B0EDBCF29F00C0EDBCF2AF0DC
:101890000D0EDBCF2BF01200DBCFE6FF150EDBCFFA
:1018A000E6FF050EDB50E552E724E552E72412007F
:1018B000DB50CED8010EF36E060EF3CFDBFF120025
:1018C000EE50EFCFEAFFE96E02C0EEFF03C0EEFF7D
:1018D00004C0EEFF1200D9CFE6FFDACFE6FFE1CF7A
:1018E000D9FFE2CFDAFF1200DFCFE6FFE66AB7ECFE
:1018F00024F0E552E552F3501200E76E080EE7CFF0
:10190000DBFF1200EECF00F0EECF01F0EFCF02F0E0
:10191000036A1200050EDBCF00F0150EDB50D880F5
:1019200000541200010EDBCF02F0020EDBCF03F0F9
:10193000046A1200E552E5CFDAFFE7CFD9FF1200C3
:101940000A0E00C0DBFF0B0E01C0DBFF1200D950F6
:101950000A0F3BEF0DF0F36E070EF3CFDBFF120023
:10196000EECF00F0EFCF01F01200010EDB2A020EE5
:101970001200FC0EDBCFE6FFFD0EDBCFE6FF120010
:10198000005E000E015AF70E00C0DBFFF80E01C02A
:10199000DBFF00C0E9FF01C0EAFF1200DA20EA6EB7
:1019A000EF2AEECFF6FF000EEF22EECFF7FFEF2289
:1019B000EECFF8FF1200040EDBCFE6FF130EDB5074
:1019C000E552E75C9ADFDB5004DF060EDB501200C5
:1019D000090EDB500A0DF350DF24D00FE76E090E1D
:1019E000E7CFDBFFD3EF0BF0DB50F36E050E01EF1B
:1019F0000CF0F70EDBCF00F0F80EDBCF01F0120099
:101A0000DFCFE6FFDDEF0BF028DF030EECDE82EF29
:101A10000CF02FEC07F0E552E552E552E5520009D3
:101A20001200BDDEEE50EFCFEAFFE96E010E1200AC
:101A3000130EDB50F36E040E01EF0CF0040EDB50BE
:101A4000F36E090E01EF0CF0DBCFE6FFDDEF0BF0DC
:101A5000E76E050EE7CFDBFF12008BDF00EF0DF026
:101A6000DBCFE6FF86DF09EF0DF0D950F90FE96E05
:101A7000FF0ECEEF0CF0E96E000EDA20EA6E1200D7
:101A800021EC12F0E652948A9450DF6E94989450B0
:101A9000DF6E8B9A8250DF6E829A949A948A829833
:101AA00082888298948AE5521DEF12F0D9CFE6FF22
:101AB000E1CFD9FF020EE126010EDB6A800EDF6E58
:101AC000DF50000811E2FE0EDB50DF1402E0948AC2
:101AD00002D0829A949A82880000000000000000E0
:101AE0008298DF90DF42ECD7948A82880000000061
:101AF000000000008250200B01E0010EE76E010E95
:101B0000E7CFDBFF8298010EDB5000D0006E020EA3
:101B1000E15C02E2E16AE552E16E0050E552E7CF96
:101B2000D9FF1200D9CFE6FFE1CFD9FF020EE1269F
:101B3000010EDB6A948A800EDF6EDF50000810E22F
:101B4000828882AA07D0010EDB50DF10E76E010EFB
:101B5000E7CFDBFF829800000000DF90DF42EDD787
:101B6000FE0EDB5003E0829A949A01D0948A828818
:101B700000000000000000008298948A010EDB50F3
:101B800000D0006E020EE15C02E2E16AE552E16E15
:101B90000050E552E7CFD9FF1200948A82980000E6
:101BA000000000000000828800000000000000002B
:101BB000829A949A000000000000000082980000C1
:101BC000000000000000828800000000000000000B
:101BD000948A000000000000000082981200D9CF13
:101BE000E6FFE1CFD9FFE652948A00000000000032
:101BF000000082980000000000000000DF6A090E6B
:101C0000DF5C0CE282880000000000000000829887
:101C10000000000000000000DF2AF1D7BEDFE5521F
:101C2000E552E7CFD9FF120021EC12F0E652DF6A4D
:101C3000D6DF1E0E75EC12F0DF26DF50E5521DEFE9
:101C400012F0D1EC12F0070E75EC12F0DF6E7AECA8
:101C500012F00001AA6F85EC12F0E552EED3D1EC40
:101C600012F0060E75EC12F0DF26FE0EDBCFE6FF5B
:101C70001DDFE552DF26DF50E552DFD3E2DB060E43
:101C8000E126DE6ADD6A89DFFE0EDB50010A0BE029
:101C9000010A16E1030E75EC12F0006E016A00AE47
:101CA00009D0016807D0050E75EC12F0006E016ACC
:101CB00000BE016880EC12F00050EE260150ED22CB
:101CC000020EDB6A030EDB6A020EDBCF00F0030EAE
:101CD000DBCF01F0026AD8900250000A06E6400EFF
:101CE000005C9C0E0158000E02580DE282AA11D031
:101CF000040EE66E05EC25F0E552020EDB2A030E1B
:101D0000E3E3DB2AE1D782AA04D0010EDE26000E2F
:101D1000DD22F0DBE76E050EE7CFDBFFEBDBE76EE6
:101D2000040EE7CFDBFF050EDB50006E016A016E8B
:101D3000006A040EDB5000010024AC6F000E01208D
:101D4000AD6FE3DB006E060EE15C02E2E16AE55294
:101D5000E16E005072D375DB300EE126DE6ADE6A7A
:101D6000800EDE6EC00EDD6EDD52DD52540EF36E5F
:101D7000040EF3CFDBFFE30EF36E050EF3CFDBFFB4
:101D8000250EF36E060EF3CFDBFF3D0EF36E070E4E
:101D9000F3CFDBFFA20EF36E080EF3CFDBFFE70EEF
:101DA000F36E090EF3CFDBFF3B0EF36E0A0EF3CF9B
:101DB000DBFFB60EF36E0B0EF3CFDBFF0A0EF36EF6
:101DC0000C0ECFDB0D0EF3CFDBFF230EF36E0E0EEA
:101DD000F3CFDBFF3C0EF36E0F0EF3CFDBFFAC0E49
:101DE000F36E100EF3CFDBFFC50EF36E110EF3CFC3
:101DF000DBFFA70EF36E120EF3CFDBFF380EF36E90
:101E0000130EAFDB140EF3CFDBFFA30EF36E150E34
:101E1000F3CFDBFF1E0EF36E160EF3CFDBFFC20E09
:101E2000F36E170EF3CFDBFF0A0EF36E180E99DB7D
:101E3000190EF3CFDBFF230EF36E1A0EF3CFDBFF89
:101E40003C0EF36E1B0EF3CFDBFF6FDB1C0EEECFF1
:101E5000DBFF1D0EEECFDBFF1E0EEECFDBFF1F0EF6
:101E6000EECFDBFF69DB200EEECFDBFF210EEECFE6
:101E7000DBFF220EEECFDBFF230EEECFDBFF140ED7
:101E8000DBCF00F0150EDBCF01F0160EDBCF02F03A
:101E9000170EDBCF03F0200EDBCF29F0210EDBCFB6
:101EA0002AF0220EDBCF2BF0230EDBCF2CF0180E06
:101EB000DBCF2EF0190EDBCF2FF01A0EDBCF30F078
:101EC0001B0E78DBA8DA72DB2C0E29C0DBFF2D0E8F
:101ED0002AC0DBFF2E0E2BC0DBFF2F0E2CC0DBFF3A
:101EE000080EDBCF29F0090EDBCF2AF00A0EDBCF7C
:101EF0002BF00B0EDBCF2CF079DA78DA8CDA040ECB
:101F0000DBCF29F0050EDBCF2AF0060EDBCF2BF05E
:101F1000070EDBCF2CF06ADA29DBF2DAEECF0CF019
:101F2000EECF0DF0EECF0EF0EFCF0FF00CC02EF095
:101F30000DC02FF00EC030F00FC031F077EC16F06E
:101F4000240E29C0DBFF250E2AC0DBFF260E2BC086
:101F5000DBFF270E2CC0DBFF2C0EDBCF08F02D0E95
:101F6000DBCF09F02E0EDBCF0AF02F0EDBCF0BF00C
:101F70002E6A2F6AC80E306E410E06DB0C0EDBCFC8
:101F800010F00D0EDBCF11F00E0EDBCF12F00F0EA6
:101F9000DBCF13F07ADA2ADA29C014F02AC015F060
:101FA0002BC016F02CC017F018DACDDA13C02CF0C5
:101FB00077EC16F054DA11DA49DA60EC17F034DA1B
:101FC000240EDBCF18F0250EDBCF19F0260EDBCF69
:101FD0001AF0270E74DA77EC16F0280E29C0DBFF12
:101FE000290E2AC0DBFF2A0E2BC0DBFF2B0E2CC0D4
:101FF000DBFF3EDAAFDA06DA23EC18F0010A0EE175
:10200000280EDB6A290EDB6AC80EF36E2A0EF3CFA8
:10201000DBFF420EF36E2B0EF3CFDBFF29DACD0E82
:102020002E6ECC0E2F6E306E3D0E316EEBD92CEC39
:1020300018F0010A14E1CD0EF36E280EF3CFDBFF8A
:10204000CC0EF36E290EF3CFDBFFCC0EF36E2A0E0F
:10205000F3CFDBFF3D0EF36E2B0EF3CFDBFF6CDA1D
:102060002C0EDBCFEEFF2D0EDBCFEEFF2E0EDBCFE7
:10207000EEFF2F0EDBCFEEFF58DA280EDBCFEEFFA0
:10208000290EDBCFEEFF2A0EDBCFEEFF2B0EDBCFD0
:10209000EEFF300EE15C02E2E16AE552E16ECDD185
:1020A000D0D9080EE126390E046E280E056E290ED1
:1020B000066E3F0E076E296A2A6AF00E2B6E400EDE
:1020C0002C6EF70EDBCF2EF0F80EDBCF2FF0F90ED3
:1020D000DBCF30F0FA0E6EDAC2D9CD0E146E4C0E94
:1020E000156E6D0E166E430E176EF70EDBCF18F0E1
:1020F000F80EDBCF19F0F90EDBCF1AF0FA0EDFD9AC
:1021000014C029F015C02AF016C02BF017C02CF00F
:1021100077EC16F029C010F02AC011F02BC012F095
:102120002CC013F05AD90CC029F00DC02AF00EC0F3
:102130002BF00FC02CF00DEC17F018DA29C0E6FFD9
:102140002AC0E6FF2BC0E6FF2CC0E6FFD950FB0FEC
:10215000E96EFF0EDA20EA6EEECFE6FFEECFE6FF85
:10216000EECFE6FFEFCFE6FF30EC22F0E552E5528E
:10217000E552E552E552E7CF03F0E552E7CF02F032
:10218000E552E7CF01F0E552E7CF00F028C020F09C
:1021900029C021F02AC022F02BC023F02E6A2F6A1A
:1021A000306A400E316E28C029F021C02AF022C0CA
:1021B0002BF023C02CF076EC16F029C01CF02AC0BE
:1021C0001DF02BC01EF02CC01FF0F0D929C0DEFF7F
:1021D0002AC0DEFF2BC0DEFF2CC0DDFFDD52DD524A
:1021E0008FD9EECF08F0EECF09F0EECF0AF0EFCFA7
:1021F0000BF0390E2E6E280E2F6E290E306E3F0E0C
:10220000C3D9CD0E2E6E4C0E2F6E6D0E306E430E5A
:10221000316E60EC17F008D9840E106E920E116EBC
:10222000020E126E410E136E6BD9EECF14F0EECF8C
:1022300015F0EECF16F0EFCF17F014C02EF015C04A
:102240002FF016C030F017C031F07DD92C6E76EC2F
:1022500016F005D9C2D8D6D80DEC17F0040E29C057
:10226000DBFF050E2AC0DBFF060E2BC0DBFF070ECF
:102270002CC0DBFF040EDBCF00F0050EDBCF01F03E
:10228000060EDBCF02F0070EDBCF03F000C028F014
:1022900001C029F002C02AF003C02BF0080EE15C57
:1022A00002E2E16AE552E16EC8D0CBD8180EE12611
:1022B00096DC0C0EDB6A010EE66EF4D8ACC0DEFFD5
:1022C000ADC0DDFFE66AEED8020EACC0DBFF030E48
:1022D000ADC0DBFF0C0EDB5002E081DC64D0000EF1
:1022E000DFCF2AF0010EDBCF2BF061EC16F0100EE1
:1022F00029C0DBFF110E2AC0DBFF120E2BC0DBFF53
:10230000130E2CC0DBFF020EDBCF2AF0030EDBCF57
:102310002BF061EC16F0140E29C0DBFF150E2AC05D
:10232000DBFF160E2BC0DBFF170E2CC0DBFFD950D6
:10233000140FE66E000EDA20E66ED950100FE66E2E
:10234000000EDA20E66E07DDE552E552E552E55271
:102350009CD8CDEC17F02B50E66EDFD8E552E75055
:10236000EF6E140EDBCF02F0150EDBCF03F0160E6E
:10237000DBCF04F0170EDBCF05F0ECD802C029F05C
:1023800003C02AF004C02BF005C02CF060EC17F05D
:10239000F4EC17F02AC000F02BC001F09BD82AC043
:1023A000EEFF01C0EDFF0C0EDB50006E180EE15C7D
:1023B00002E2E16AE552E16E00503FD042D88AD88D
:1023C000EECF00F0EFCF01F000C0F3FF01C0F4FF4B
:1023D00034D037D8A2D8EF5030D029C02EF02AC040
:1023E0002FF02BC030F02CC031F012001C0EDBCFD0
:1023F0002EF01D0EDBCF2FF01E0EDBCF30F01F0EA8
:10240000DAEF12F000C029F001C02AF002C02BF070
:1024100003C02CF0120029C004F02AC005F02BC024
:1024200006F02CC007F0120029C000F02AC001F00D
:102430002BC002F02CC003F01200E552E7CFD9FF09
:102440001200D9CFE6FFE1CFD9FF120004C029F076
:1024500005C02AF006C02BF007C02CF0120029C0DE
:102460000CF02AC00DF02BC00EF02CC00FF01200A3
:10247000280EDBCF00F0290EDBCF01F02A0EDBCFD8
:1024800002F02B0EDBCF03F01200100EDBCF29F091
:10249000110EDBCF2AF0120EDBCF2BF0130EDBCFA9
:1024A0002CF012003EEC0EF0E552006E0C0EDBCF6D
:1024B000E7FF0050E7260C0EE7CFDBFF1200DBCF73
:1024C0001BF018C02EF019C02FF01AC030F01BC03E
:1024D00031F01200FE0EEA6ADB34FE0BEA36E96EDA
:1024E000B20EE926000EEA221200E66E56EC0DF05E
:1024F000E5521200010EE66E92EC0DF0E55212006C
:10250000D9CFE9FFDACFEAFF1200E66A92EC0DF0CC
:10251000E5520001AB6FDF501200FE0EDB50EA6A9D
:10252000C00FE96E000EEA221200FD0EDBCFE9FFBC
:10253000FE0EDBCFEAFF1200FB0EDBCFE9FFFC0E45
:10254000DBCFEAFF120010C029F011C02AF012C040
:102550002BF012002E6A2F6AC80E306E420E316EBA
:102560001200F3CFDBFFD70EF36E120029C008F084
:102570002AC009F02BC00AF02CC00BF02EDF66DF5A
:1025800077EC16F014EF12F0316E08C029F009C094
:102590002AF00AC02BF00BC02CF076EC16F00BEFF3
:1025A00012F04FDFE652DF6ACDEF0DF016DF2ADFC3
:0C25B00077EF16F0DBCF31F060EF17F092
:0425BC0080909290E9
:1025C000300E4EDB9280080E4BDB80B0010C200EEB
:1025D00047DB000C0DDB80909290010E1BDBFE0EA2
:1025E000DB5002E1300E16DB9280080E13DBFE0E8C
:1025F000DB0402E1300E0EDB00D341DB80909290D1
:10260000010E08DB9280080E05DB8050010BDF6EA7
:10261000280E00DBDF50E552F0D231DB0ADBE8AEFA
:1026200002D0E73402D0E750005C12E2FE0EDBA0DD
:1026300003D0010EE66E01D0E66ACCDFE552FE0E55
:10264000DB407F0BE76EFE0EE7CFDBFFDF2AE6D72E
:10265000E552D3D2CDDA030EE126DF6A010EDB6A42
:10266000020EDB6AE6DAE8AE02D0E73402D0E750C9
:10267000005C13E2C2DFE76E020EE7CFDBFF010E64
:10268000DB407F0BE76E010EE7CFDBFF020EDB5076
:1026900002E0010EDB8EDF2AE5D7010EDBCFE6FF7D
:1026A0000FD8E552010EDB50006E030EE15C02E232
:1026B000E16AE552E16E0050A0D20001DB6B12002E
:1026C00097DAE652FE0EDB500001DB19DF6E7E0E5C
:1026D000006E410E016E000E026EDFCF03F0046A41
:1026E000056A00500324F36E01500420F46E02507A
:1026F0000520F86EF4CFF7FFF3CFF6FF0800F5CF13
:10270000DBF0E5527AD20001DC51120071DAFE0EE4
:10271000DBCFDCF072D2B3DABE0E87DACEDFDFCFEA
:1027200000F0090EE76E0018E8AE02D0E73402D0E0
:10273000E750005C10E28EDFE66EDFCFE9FFEA6A69
:10274000E9BEEA68600EE926000EEA22E552E7508B
:10275000EF6EDF2AE4D70001DB51E5524ED27ADF7B
:10276000000901E1010C000C29DFCC0E5EDA0A0E33
:10277000E66EC9EC24F0E552440E15EF16F07FDA50
:10278000EEDF00090BE01F0EE66EC9EC24F0E55207
:10279000DF2AFF0EDF5CF4E1010E01D0000EE552EE
:1027A0002CD226DA070EE126020EDB6A030EDB6A64
:1027B000040EDB6A050EDB680001726BFFDE0009A8
:1027C0005DE1F00E32DA040EDB6A29DAE8AE02D0FF
:1027D000E73402D0E750005C74E2060EDB6A030EB9
:1027E000DB6A1DDAE8AE02D0E73402D0E750005CC5
:1027F0005BE203DFDF6E01DFE76E010EE7CFDBFF99
:10280000DF5037E1010EDB5034E1020EDB50E76EA2
:10281000050EE7CFDBFFDBCF00F000017151E76E63
:102820000018E8AE02D0E73402D0E750005C13E2B3
:102830001CDAE9BEEA6803DA0CE0010EF36E030E5F
:10284000DB5004E0D890F336E806FCE1F3500009D1
:1028500006E1DF6A15D0050EDB50715D03E1010E64
:10286000DF6E0ED0DF6A050EDBCF71F0010E726FE6
:1028700007D0DF5005E0010EDB5002E0010E3CD036
:10288000060EDB407F0BE76E060EE7CFDBFFDF5067
:1028900002E0060EDB8EDFCFE6FF9CDEE552020E85
:1028A000DB2A030EDB2A9DD7E0D9E9BEEA68690E70
:1028B000E926000EEA22060EDBCFEFFF040EDB2A2C
:1028C00084D7FBDE040EDB6AAAD9E8AE02D0E73477
:1028D00002D0E750005C0AE2C8D9E9BEEA68AFD985
:1028E000E66EEEDEE552040EDB2AEED70001DB5188
:1028F00002E0DB5101D0000E006E070EE15C02E247
:10290000E16AE552E16E005078D172D9030EE126FA
:10291000010EDB6AE66AFADEE55200017169010E1A
:10292000726F4CDE000902E0010E45D000017251C9
:102930003CE037DFDF6EDF5002E0DF503CD0020EBC
:10294000DB6A6DD9E8AE02D0E73402D0E750005C14
:1029500029E2020EDBCFE9FFEA6AE9BEEA686FD935
:10296000E66E010EDBCFE9FFEA6AE9BEEA680B0E0C
:10297000EA02F3CFEAFFE902F3CFE9FFF450EA26D7
:10298000730EE926000EEA2275D9020EDBCF02F0A3
:10299000036A02BE03685DD9E552E750EF6E020E8E
:1029A000DB2ACFD7010EDB2AC1D7010EDBCFE6FF32
:1029B000ADDEE552000E006E030EE15C02E2E16A5C
:1029C000E552E16E005019D113D9040EE1265BD90E
:1029D00002E2010E52D05CD9EF6AF0DD550E25D926
:1029E000DF6A080EDF5C12E2F7D844D9DF500F012E
:1029F000E924E96E000EEA20EA6E010EEFCFDBFF5C
:102A0000DBCFE6FF0ADEE552DF2AEBD784DE0009E2
:102A100002E0020E32D000016151E66ED950020F81
:102A2000E96EDACFEAFFE552E750EE6EED6A020E8C
:102A3000DBCF00F0030EDBCF01F000C001F0006A35
:102A4000020E00C0DBFF030E01C0DBFF6051006E11
:102A5000016AD950020FE96EDACFEAFF0050EE2684
:102A60000150ED2219D9020EDBCFEEFF030EDBCFB2
:102A7000EDFF0ED9010EEF6E000E006E040EE15C4C
:102A800002E2E16AE552E16E0050B7D0B1D8150E0E
:102A9000E126130EDB6A68DE72DE000913E1130E15
:102AA000B0D8E76E0018E8AE02D0E73402D0E750A5
:102AB000005C08E2130EDBCFE6FF86DFE552130E63
:102AC000DB2AEDD7150EE15C02E2E16AE552E16E28
:102AD00094D085EF14F08CD8D6D802E2FE0EDB6AD3
:102AE0007BD8EECF00F0EECF01F0EECF02F0EECFCC
:102AF00003F0EECF04F0EECF05F0EECF06F0EECF10
:102B000007F0EECF08F0EECF09F0EFCF0AF0D9CF03
:102B1000E9FFDACFEAFFED50ED500AC0EDFF09C042
:102B2000EDFF08C0EDFF07C0EDFF06C0EDFF05C0DB
:102B3000EDFF04C0EDFF03C0EDFF02C0EDFF01C0DB
:102B4000EDFF00C0EFFF59D053D89DD802E2FE0E32
:102B5000DB6AA2D8EECF00F0EFCF01F000C0F3FFA8
:102B600001C0F4FF4AD08BD864D8E8AE02D0E73475
:102B700002D0E750005C19E22FD87CD8DFCF02F0FA
:102B8000036A02BE036865D8EF50E66EE66A830EFC
:102B9000E66E370EE66E000EE66EE4EC21F0046E93
:102BA000050EE15E0450DF2ADFD772D8EF50E66EE3
:102BB000E66A72D8EECFE6FFEFCFE6FF740EE66E60
:102BC000370EE66E000EE66EE4EC21F0006E070EA6
:102BD000E15E0050E55211D0FE0EDB500B0DF3CF3D
:102BE000E9FFF4CFEAFF730EE926000EEA22120095
:102BF000D9CFE6FFE1CFD9FF1200E552E7CFD9FFE9
:102C00001200DBCF00F000C0E6FF7DDDE552E7CF2C
:102C100000F01200E66E13EC25F0E5521200DBCF57
:102C200000F0080EE76E00181200E66EF6DCE552C2
:102C30001200DFCF00F0080EE76E00181200690ED8
:102C4000E926000EEA22EF501200E926000EEA22E1
:102C5000120000500224E96E01500320EA6E1200B7
:102C6000E66E05EC25F0E5521200040EDBCFE9FF1D
:102C7000EA6A1200E9CF00F0EACF01F01200B8DFF3
:102C8000E652DF6A1200FE0EBCDFD880005412004C
:102C9000A3DF0A0E25EF16F09FDF080E25EF16F0D2
:102CA000339E05D0339E2BAE02D02B6C338E2BC0BF
:102CB00025F0246A376A366A860E266E276AA6EFE2
:102CC00018F0339E08D0339E2BAE05D02A6C2B1EF5
:102CD000E86A2B22338E2BC025F02AC024F0376AF5
:102CE000366A8E0E266E276AA6EF18F0317E336A9A
:102CF000E2EC18F0FAEC18F033B68AEF18F033A2D1
:102D00000AD033AA03D033BE8AEF18F033A496EF6B
:102D100018F093EF18F033AA05D033AC96EF18F003
:102D200093EF18F033A00AD033A808D033BE04D0F4
:102D300033A402D09FEF18F0A3EF18F0366A276A89
:102D400031502C5C356E10E329C037F02AC024F0D6
:102D50002BC025F02CC034F02EC029F02FC02AF053
:102D600030C02BF0333A09D02EC037F02FC024F0FA
:102D700030C025F031C034F0356C339E33BC338E17
:102D800034C026F033B0D2EF18F01A0E3560D2EF0F
:102D900018F0266A2C6A33A408D0296C2A1E2B1E30
:102DA0002C1EE86A2A222B222C2233AC08D0376C46
:102DB000241E251E261EE86A242225222622286A91
:102DC000355207E02C342B322A3229322832352E64
:102DD000F9D7295037262A5024222B5025222C504F
:102DE000262228C036F0339E26AE0BD0366C371E16
:102DF000241E251E261EE86A37222422252226228A
:102E0000338E26A006D0D88025322432373236328F
:102E1000342A34C026F0A6EF18F0336AE2EC18F03A
:102E2000FAEC18F033B68AEF18F033A205D033BAB3
:102E30008AEF18F091EF18F033BA9DEF18F033A035
:102E400005D033B88AEF18F09DEF18F033B891EF42
:102E500018F0276A7F0E2C24266EE86A272231504C
:102E6000265EE86A275A1A0E346E2C6A366A376A6A
:102E7000246A256A2E50295E2F502A5A30502B5A28
:102E8000000E2C5A09E72E5029262F502A223050A6
:102E90002B22000E2C2201D0368AD89029362A36D1
:102EA0002B362C36D8903636373624362536342E07
:102EB000E1D72B502A102910D8A4368AA6EF18F093
:102EC000336AE2EC18F0FAEC18F033B68AEF18F037
:102ED00033A205D033B88AEF18F091EF18F033AA77
:102EE00005D033B08AEF18F091EF18F033B002D06C
:102EF00033A802D09DEF18F0276A31502C24266E9B
:102F0000E86A27227E0E265EE86A275A366A376A02
:102F1000246A256A30502B02F4CF25F0F3CF24F039
:102F20002F502B02F3503726F4502422000E252276
:102F300030502A02F3503726F4502422000E252266
:102F40002E502B02F3503626F4503722000E242246
:102F500025222F502A02F3503626F4503722000E35
:102F60002422252230502902F3503626F4503722ED
:102F7000000E242225222E502A02F4503626000E5E
:102F80003722242225222F502902F4503626000E03
:102F9000372224222522A6EF18F0336AE2EC18F03B
:102FA00033B6D7EF17F033A20AD033B403D07F0E75
:102FB0002B6E19D0800E2B6E16D02B6A14D033B026
:102FC000FCD7870E2C60F1D77E0E2C64F6D7860EC8
:102FD0002C5C04E0D8902B322C2AF9D733A403D0F0
:102FE0002B6C2BAEEAD71200336AE2EC18F033B642
:102FF000FEEF17F033A20ED033B405D07F0E2B6E48
:10300000FF0E2A6E1FD0800E2B6E2A6A1BD02B6AF1
:103010002A6A18D033B0FBD78F0E2C60EDD77E0E06
:103020002C64F5D78E0E2C5C05E0D8902B322A321A
:103030002C2AF8D733A406D02A6C2B1EE86A2B2240
:103040002BAEE5D7120035EC18F033B6000C33B0D8
:10305000000C33B4000C010C35EC18F033B6000C46
:1030600033B0000C33A4000C010C336AE2EC18F00E
:10307000FAEC18F033B6120033AE08D033A004D007
:1030800033A802D0338012003390120031502C5CF0
:103090000BE130502B5C08E12F502A5C05E12E50EB
:1030A000295C02E133801200D8A002D0338E10D008
:1030B0002C5031C02CF0316E2B5030C02BF0306EC4
:1030C0002A502FC02AF02F6E29502EC029F02E6EC4
:1030D00031502C5C10E0FF0F09E0339033B403D083
:1030E00033AE3384120033AE33941200312AD890B9
:1030F00030322F322E322E50295E2F502A5A305025
:103100002B5A2BBEEAD7D89029362A362B362C2EAE
:10311000F8D7C8D77F0E2C6EFF0E2B6E2A6E296E45
:1031200012007F0E33BEFF0E2C6E02D07F0E2C6E6F
:10313000800E2B6E2A6A296AF3D733AE04D0800E34
:103140002C6E2B6AF7D72C6A2B6AF4D725502410E3
:1031500037103610F8E027BEF0D725BE0CD0265029
:103160002710EBE0D890363637362436253626063B
:10317000D8A02706F2D72750D4E12628D2E036AED1
:1031800011D07F0E361402E137A00CD0372AE86A3E
:103190002422252207E3D880253224323732262AFA
:1031A0002628BFE02650C9E037C029F024C02AF005
:1031B00025342B6E26302C6E2B322C9E33BE2C8E5B
:1031C00090EF18F02B362C3602E33384337E06E181
:1031D00033802C6A2B6A2A6A296A12002C2803E0A1
:1031E000D8802B321200D8902B3202E133821200A9
:1031F000338612003036313602E3338C337E06E1FB
:103200003388316A306A2F6A2E6A1200312803E04F
:10321000D88030321200D8903032EAE1338A12007E
:103220002BC037F02AC036F02A502F02F4CF29F0F5
:10323000F3CF28F02B503002F4CF2BF0F3CF2AF04D
:103240002F02F3502926F4502A22E86A2B22365006
:103250003002F3502926F4502A22E86A2B2230AE9D
:1032600036EF19F036502A5E37502B5A37AE000C25
:0A3270002F502A5E30502B5A000C3C
:06327A00D9CFE6FFDACF18
:10328000E6FFE1CFD9FFE2CFDAFF260EE12402E329
:10329000E168E652E16ED950050FE1D9A4EC1FF0C8
:1032A000006E060EE15C02E2E16AE552E16E00505A
:1032B000DF6E800EDF5C05E00B0EDB5012E0DF04FA
:1032C00010E0210E0001D76FD86B010EDB68020EF3
:1032D000DB68030EDB687F0EF36E040EF3CFDBFFBB
:1032E0008FD1040EDF5C0EE13EDA010EEECFDBFF84
:1032F000020EEECFDBFF030EEECFDBFF040EEECFB0
:10330000DBFF7ED1DF0410E1210E0001D76FD86B07
:10331000010EDB6A020EDB6A800EF36E030EF3CF42
:10332000DBFF040EDB686CD1D9500C0F98D912EC7E
:103330001FF0006E060EE15C02E2E16AE552E16E0A
:103340000050FA0E28C0DBFFFB0E29C0DBFFFC0E8D
:103350002AC0DBFFFD0E2BC0DBFFA6D9F30E2E6EBD
:10336000040E2F6E350E306E3F0E87D923EC18F009
:10337000010A09E1B3D984D976EC16F067D9EDD901
:1033800084D9ACD916D00C0EDB060D0E01E2DB069B
:103390008BD92E6A2F6A306A3F0E6FD976D9160EF6
:1033A000DBCF04F0170EDBCF05F0180EDBCF06F0F5
:1033B000190E66D960EC17F049D9CFD977EC16F021
:1033C0001A0E29C0DBFF1B0E2AC0DBFF1C0E2BC010
:1033D000DBFF1D0E2CC0DBFF160EDBCF29F0170E16
:1033E000DBCF2AF0180EDBCF2BF0190EDBCF2CF041
:1033F0001A0EDBCF2EF01B0EDBCF2FF01C0EDBCF17
:1034000030F01D0EDBCF31F00DEC17F01FD9120E8E
:1034100029C0DBFF130E2AC0DBFF140E2BC0DBFF1D
:10342000150E2CC0DBFF4DD9120EDBCF2EF0130E84
:10343000DBCF2FF0140EDBCF30F0150E62D90E0E5D
:1034400029C0DBFF0F0E2AC0DBFF100E2BC0DBFFF5
:10345000110E2CC0DBFF3D0EF36E1E0EF3CFDBFF13
:103460007E0EF36E1F0EF3CFDBFF0D0EF36E200EFC
:10347000F3CFDBFFBF0EF36E210EF3CFDBFF0E0E9B
:10348000DBCF00F00F0EDBCF01F0100EDBCF02F030
:10349000110EDBCF03F03A0E2E6E3F0E2F6ED40EC0
:1034A000306EC00EEAD877EC16F0220E29C0DBFF92
:1034B000230E2AC0DBFF240E2BC0DBFF250E2CC001
:1034C000DBFF0E0EDBCF29F00F0EDBCF2AF0100E44
:1034D000DBCF2BF0110EDBCF2CF01E0EDBCF2EF04E
:1034E0001F0EDBCF2FF0200EDBCF30F0210E09D9DD
:1034F000220EDBCF2EF0230EDBCF2FF0240EDBCFFE
:1035000030F0250EDBCF31F00DEC17F007D9120E9D
:10351000DBCF00F0130EDBCF01F0140EDBCF02F097
:10352000150EDBCF03F0CDD8010EDBCF2EF0020E4F
:10353000DBCF2FF0030EDBCF30F0040EE2D829C032
:1035400004F02AC005F02BC006F02CC007F078D894
:10355000046A800E056E310E066E3F0E076EC9D8E6
:1035600029C008F02AC009F02BC00AF02CC00BF0CB
:10357000CCD8E1D860EC17F069D8830E146E800EB9
:10358000156E5E0E166EB90E176EB3D829C018F000
:103590002AC019F02BC01AF02CC01BF0B6D814C0EA
:1035A00029F015C02AF016C02BF017C02CF060ECE3
:1035B00017F029C010F02AC011F02BC012F02CC057
:1035C00013F0010EDBCF1CF0020EDBCF1DF0030E5B
:1035D000DBCF1EF0040EDBCF1FF01CC02EF01DC091
:1035E0002FF01EC030F01FC031F077EC16F029C06C
:1035F0000CF02AC00DF02BC00EF02CC00FF020D81C
:10360000010EDBCF00F0020EDBCF01F0030EDBCFAB
:1036100002F0040EDBCF03F000C028F001C029F057
:1036200002C02AF003C02BF0260EE15C02E2E16A40
:10363000E552E16EE552E5CFDAFFE7CFD9FF1200A0
:1036400064D882D877EC16F08EEF1BF029C000F01A
:103650002AC001F02BC002F02CC003F01200E66E6D
:10366000000EDA20E66E7FD8EECFE6FFEECFE6FF63
:10367000EECFE6FFEFCFE6FF1200316EA4EF1BF0B6
:10368000DBCF07F06AD89BEF1BF076EC16F0160E36
:1036900029C0DBFF170E2AC0DBFF180E2BC0DBFF93
:1036A000190E2CC0DBFF1200FA0EDBCF00F0FB0E70
:1036B000DBCF01F0FC0EDBCF02F0FD0EDBCF03F021
:1036C0001200120EDBCF29F0130EDBCF2AF0140EFE
:1036D000DBCF2BF0150EDBCF2CF01200FA0EDBCF78
:1036E00004F0FB0EDBCF05F0FC0EDBCF06F0FD0E89
:1036F00012000C0EDBCF2AF00D0EDBCF2BF063EFA8
:1037000016F0DBCF31F060EF17F029C02EF02AC0A1
:103710002FF02BC030F02CC031F01200010E29C068
:10372000DBFF020E2AC0DBFF030E2BC0DBFF040E03
:103730002CC0DBFF120004C029F005C02AF006C02F
:103740002BF007C02CF0120000C029F001C02AF0B5
:1037500002C02BF003C02CF012002E6A2F6A306AD0
:103760003F0E316E1200D950FA0FE96EFF0EDA20CB
:04377000EA6E1200EB
:0C377400202D2025303458202D20255811
:103780000D0A0025303258004572726F723A206976
:103790006E76616C69642073656E736F72006E651E
:1037A00077636F6E663D0063757272656E743D007F
:1037B000747970653D7661726961626C65006D6FE8
:1037C00064653D666C6F6F64006465766963653D32
:1037D00070776D6F7574006465766963653D656CBF
:1037E0006563006465766963653D77617465720041
:1037F0006465766963653D67617300636F6D6D61D4
:103800006E643D63757272656E7400636F6D6D6199
:103810006E643D72657175657374007D00636F6ED3
:1038200074726F6C2E626173696300636F6E666998
:10383000672E63757272656E740068626561742EBE
:10384000726571756573740073656E736F722E7235
:1038500065717565737400636F6E6669672E726556
:1038600073706F6E736500636F6E6669672E6C6947
:103870007374007461726765743D686F6C6C696520
:103880002D7574696C6D6F6E2E007461726765744E
:103890003D2A0078706C2D636D6E640078706C5FEB
:1038A00068616E646C65723A64656661756C7420FB
:1038B0002D207374617465202564202D20574520C8
:1038C00053484F554C44204E4556455220424520C2
:1038D00048455245200052584F0064656661756C3A
:1038E0007400656C6563007761746572006761736D
:1038F00000747970653D7661726961626C650A6316
:10390000757272656E743D25690A7D0A0073656E75
:10391000736F722E62617369630A7B0A64657669EC
:1039200063653D70776D6F75740A000A7479706510
:103930003D74656D700A63757272656E743D2569BC
:103940002E25690A7D0A0025303258000A747970E4
:10395000653D636F756E740A63757272656E743D52
:1039600025750A7D0A0073656E736F722E6261732E
:1039700069630A7B0A6465766963653D00636F6EFF
:103980006669672E63757272656E740A7B0A6E656E
:1039900077636F6E663D25730A7D0A00636F6E66FE
:1039A00069672E6C6973740A7B0A7265636F6E6651
:1039B0003D6E6577636F6E660A7D0A00636F6E66A3
:1039C00069672E656E640A7B0A696E74657276613A
:1039D0006C3D310A7D0A00636F6E6669672E626115
:1039E0007369630A7B0A696E74657276616C3D3136
:1039F0000A76657273696F6E3D25692E25690A7DA9
:103A00000A007D0A0070776D6F75743D25690A00A4
:103A100074656D7073656E736F72733D25690A000E
:103A200068626561742E62617369630A7B0A696EFC
:103A300074657276616C3D350A76657273696F6E76
:103A40003D25692E25690A002E25730A7461726767
:103A500065743D2A0A7D0A007574696C6D6F6E008D
:103A60000A7B0A686F703D310A736F757263653D3A
:103A7000686F6C6C69652D0074726967007374619E
:073A8000740078706C2D004A
:083A880005D826EC03F083ECE5
:103A900003F0FDD7D9CFE6FFE1CFD9FFE652DF6AC9
:103AA000D388D38AD38C9B8C0F0EC16EEF0E926E8F
:103AB000070E936EDE0E946E330EE66EE66A7C0E93
:103AC000E66E7CEC22F0E552E552E552DF50DF2A4B
:103AD000006E050EE76E0018E8AE02D0E73402D0A3
:103AE000E750005C0DE2320EE66E8AEC24F0E552FF
:103AF0008098320EE66E8AEC24F0E5528088E6D794
:103B0000970EE66E3BEC24F0E552CAD8F50EE66E51
:103B1000C3EC23F0E552CDD8F19EF19CF19AF198D7
:103B2000F292F288F090F086F092F088F28CF28EA9
:103B3000E552E552E7CFD9FF1200DACFE4FFE2CF3A
:103B4000DAFFE9CFE4FFEACFE4FFF6CFE4FFF7CFF7
:103B5000E4FFF8CFE4FFF5CFE4FFF3CFE4FFF4CFC9
:103B6000E4FFFACFE4FFFBCFE4FF00EE24F0140EF5
:103B7000E80403E3EECFE4FFFBD700EE00F0240EF1
:103B8000E80403E3EECFE4FFFBD7E6529EAA08D099
:103B9000E4EC23F0E66E28EC00F0E5529E9A47D064
:103BA000F2A205D00001020ED16FF2920DD0F0A06A
:103BB00005D00001020ED26FF09006D0F0A206D020
:103BC0000001020ED36FF092809831D0F2A407D09A
:103BD00067D8F2940001D42B000ED523D62B9EA0DB
:103BE00026D067D89E900001D15109E0D107808886
:103BF000D15105E18150010B02E1020E63D80001B1
:103C0000D25109E0D2078088D25105E18150020BE0
:103C100002E1010E57D80001D35109E0D307808893
:103C2000D35105E18150040B02E1040E4BD8E5525B
:103C300000EE23F0240EE80403E3E5CFEDFFFBD70D
:103C400000EE37F0140EE80403E3E5CFEDFFFBD7F9
:103C5000E5CFFBFFE5CFFAFFE5CFF4FFE5CFF3FFBC
:103C6000E5CFF5FFE5CFF8FFE5CFF7FFE5CFF6FFAE
:103C7000E5CFEAFFE5CFE9FFE5CFDAFF1100D8CFC6
:103C8000E4FFE0CFE4FFE46EDACFE4FFE652E55272
:103C9000E5CFDAFFE550E5CFE0FFE5CFD8FF100034
:103CA000EE0EE66E850EE66E1FEC24F0E552E55250
:103CB0001200E00EE66EB10EE66E03EC24F0E55263
:0E3CC000E5521200E66E0BEC06F0E552120023
:023CCE00D9CF4C
:103CD000E6FFDACFE6FFFA0EE3CFD9FFFB0EE3CF24
:103CE000DAFFFC0EE3CFE9FFFD0EE3CFEAFFDE5083
:103CF000EF5C02E1EE66FBD7F36EFF0EE3CFDAFF77
:103D0000E552FF0EE3CFD9FFE552F3501200FD0E4E
:103D1000E3CFF6FFFE0EE3CFF7FFFF0EE3CFF8FF92
:103D2000FB0EE3CFE9FFFC0EE3CFEAFFEE50090004
:103D3000F55C02E1F566FAD71200D9CFE6FFDACFDB
:103D4000E6FFFA0EE3CFD9FFFB0EE3CFDAFFFC0E5E
:103D5000E3CFE9FFFD0EE3CFEAFFE9CFF3FFEACFC0
:103D6000F4FFDECFEFFFEE66FCD7FF0EE3CFDAFF06
:103D7000E552FF0EE3CFD9FFE5521200FE0EE3CF6E
:103D8000E9FFFF0EE3CFEAFFF36AF46AEE5203E0C5
:103D9000F34AF42AFBD71200FD0EE3CFF6FFFE0E26
:103DA000E3CFF7FFFF0EE3CFF8FFFB0EE3CFE9FF12
:103DB000FC0EE3CFEAFFF90EE35003E1FA0EE35005
:103DC0000BE0F90EE30602E2FA0EE306EE500900FC
:103DD000F55C02E1F566EFD71200FF0EE3CFF8FFC6
:103DE000E552FF0EE3CFF7FFE552FF0EE3CFF6FFFC
:103DF000E552E66AE66AE66A0900F55209E0FD0E58
:103E0000E32A05E1FE0EE32A02E1FF0EE32AF4D7DE
:103E1000FD0EE3CF29F0FE0EE3CF2AF0FF0EE3CF35
:043E20002BF0120071
:0C3E2400D9CFE6FFDACFE6FFE1CFD9FFEF
:103E3000E2CFDAFF0C0EE12402E3E168E652E16E24
:103E4000D950FA0FE96EFF0EDA20EA6E010EEECFBE
:103E5000DBFF020EEECFDBFF030EEECFDBFF040E27
:103E6000EECFDBFF63D8D950010FE96E000EDA20E8
:103E7000EA6EEECFE6FFEECFE6FFEECFE6FFEFCF46
:103E8000E6FFA4EC1FF0006E060EE15C02E2E16AC0
:103E9000E552E16E0050DF6E850EDF1404E04DD870
:103EA000EE6AED6A23D0090EDBCF00F00A0EDBCFFD
:103EB00001F0820E0026FF0E01223FD800C0EEFF67
:103EC00001C0EDFF7E0EF36E090EF3CFDBFF0A0E8D
:103ED000DB6AD950010FE66E000EDA20E66E26D8B6
:103EE00032EC20F0E552E552E552E552010EDBCF0F
:103EF00000F0020EDBCF01F0030EDBCF02F0040E68
:103F0000DBCF03F000C028F001C029F002C02AF086
:103F100003C02BF00C0EE15C02E2E16AE552E16EB7
:103F2000E552E5CFDAFFE7CFD9FF1200D950050FF0
:103F3000E66E000EDA20E66E1200F80EDBCFE9FF27
:083F4000F90EDBCFEAFF1200CD
:083F4800D9CFE6FFDACFE6FF56
:103F5000E1CFD9FFE2CFDAFFE652006801687F0EB9
:103F6000026E036AD950FA0FE96EFF0EDA20EA6E8C
:103F7000EE500016EE500116EE500216EE500316EB
:103F80006AD800C0EEFF01C0EEFF02C0EEFF03C022
:103F9000EEFFFD0EDB50800B02E0010E01D0000EA3
:103FA000E66E59D8060EE926000EEA22E552E750E1
:103FB000EF6EFC0EDBCF00F0FD0EDBCF01F0D890F2
:103FC00000360136FC0E00C0DBFFFD0E01C0DBFF3A
:103FD000DB50E66E40D8040EE926000EEA22E552D8
:103FE000E750EE6EED6AFD0EDB50006E016AFF0ECB
:103FF000001818E1015016E12ED8EECF00F0EECFF8
:1040000001F0EECF02F0EFCF03F0005001100210EC
:10401000031006E0210E0001D76FD86B800E0BD085
:10402000040E09D0FD0EDB5008E115D8EE6AEE6AE9
:10403000EE6AEE6A010EDF6E06D0020EDF6E0BD85E
:10404000EE52EE52EE8EDF50E552E552E5CFDAFF4A
:10405000E7CFD9FF1200F80EDBCFE9FFF90EDBCF77
:04406000EAFF120061
:0C406400D9CFE6FFDACFE6FFE1CFD9FFAD
:10407000E2CFDAFF5BD8013411E20050FE08000EF7
:1040800001540CE276D805E06CD8800EEE6EEE6836
:1040900047D067D8800EEE6E7F0E0ED047D8D890EE
:1040A000015004E6010E005C000E01580BE261D8DD
:1040B00005E057D8EE6A800EEE6E32D052D8EE6A26
:1040C000EE6A2ED047D8EECF00F0EECF01F0EECF63
:1040D00002F0EFCF03F032D800C0EEFF01C0EEFFD8
:1040E00002C0EEFF03C0EEFF21D80050010B05E037
:1040F00025D8020E3AD8EF8E04D020D8020E35D83B
:10410000EF9E14D8D8900132003218D8030E2DD863
:1041100000C0EFFF1AD804E011D8030E26D8EF8EA6
:10412000E552E5CFDAFFE7CFD9FF120013D8040E2E
:104130001CD8EECF00F0EFCF01F01200FA0EDBCF6B
:10414000E9FFFB0EDBCFEAFF120004D8060E0DD804
:10415000EF501200FC0EDBCFE9FFFD0EDBCFEAFFD4
:104160001200ECDFEE6AEE6A1200E926000EEA2287
:0E4170001200220E0001D76FD86BA5EF20F0D1
:02417E00005EE1
:10418000BCE2613FDD83C29C7E20A3FD1F419DC335
:10419000217FFCA2401E5F01E3BD3E6082DC237DE7
:1041A0009FC1421CFEA0E1BF5D0380DE3C62BEE019
:1041B000025CDF81633D7C22C09E1D43A1FF461847
:1041C000FAA427799BC584DA3866E5BB5907DB85F5
:1041D0006739BAE406581947A5FB7826C49A653BA7
:1041E000D987045AB8E6A7F91B45C6987A24F8A6D9
:1041F000441A99C7257B3A6486D85B05E7B98CD207
:10420000306EEDB3510F4E10F2AC2F7193CD114FB4
:10421000ADF3702ECC92D38D6F31B2EC0E50AFF166
:10422000134DCE90722C6D33D18F0C52B0EE326C98
:104230008ED0530DEFB1F0AE4C1291CF2D73CA94C6
:104240007628ABF517490856B4EA6937D58B570974
:10425000EBB536688AD495CB2977F4AA4816E9B726
:10426000550B88D6346A2B7597C94A14F6A8742A58
:0E427000C896154BA9F7B6E80A54D7896B35E6
:02427E00D9CF96
:10428000E6FFDACFE6FFE1CFD9FFE2CFDAFFE65271
:10429000E652E652E652D950F90F006EFF0EDA20D0
:1042A000016E020E00C0DBFF030E01C0DBFF020E39
:1042B000DBCFE6FF030EDBCFE6FFF90EDBCFE6FF39
:1042C000FA0EDBCFE6FFFB0EDBCFE6FFD950FC0F8B
:1042D000E66EFF0EDA20E66E45EC07F0006E070E84
:1042E000E15C02E2E16AE552E16E0050F3CFDEFFED
:1042F000F4CFDDFFFC0EDBCFE9FFFD0EDBCFEAFFE5
:10430000EF6ADECF00F0DDCF01F000C0F3FF01C0A7
:10431000F4FF040EE15C02E2E16AE552E16EE5526F
:0A432000E5CFDAFFE7CFD9FF120066
:06432A001E0EF66E000EEF
:10433000F76E000EF86E00010900F550CC6F090011
:10434000F550CD6F03E1CC6701D03DD00900F550A9
:10435000C76F0900F550C86F0900F550C96F090013
:104360000900F550E96E0900F550EA6E09000900F0
:104370000900F550CA6F0900F550CB6F090009001C
:10438000F6CFCEF0F7CFCFF0F8CFD0F0C7C0F6FF22
:10439000C8C0F7FFC9C0F8FF0001CA5302E1CB5300
:1043A00007E00900F550EE6ECA07F8E2CB07F9D72F
:1043B000CEC0F6FFCFC0F7FFD0C0F8FF0001CC079A
:0843C000000ECD5BBFD7120017
:0843C800D9CFE6FFDACFE6FFD2
:1043D000E1CFD9FFE2CFDAFFE652E652E652E652EB
:1043E000D950FB0F006EFF0EDA20016E00C0DEFF19
:1043F000DD6EDECFE6FFDDCFE6FFFB0EDBCFE6FFB7
:10440000FC0EDBCFE6FFFD0EDBCFE6FFD9C0E6FFFB
:10441000DAC0E6FF45EC07F0006E070EE15C02E251
:10442000E16AE552E16E0050020EF3CFDBFF030EAE
:10443000F4CFDBFF020EDBCF00F0030EDBCF01F089
:1044400000C0F3FF01C0F4FF040EE15C02E2E16A88
:10445000E552E16EE552E5CFDAFFE7CFD9FF120072
:10446000D9CFE6FFDACFE6FFE1CFD9FFE2CFDAFF1F
:10447000E150FA0FE96EFF0EE220EA6EEECFE6FFA2
:10448000EECFE6FFEECFE6FFEFCFE6FF3DEC19F013
:10449000E552E552E552E55228C004F029C005F086
:1044A0002AC006F02BC007F0D90E2E6E5B0E2F6EC1
:1044B000DE0E306E3E0E316E28C029F005C02AF0A7
:1044C00006C02BF007C02CF060EC17F029C000F0FC
:1044D0002AC001F02BC002F02CC003F029C028F044
:1044E0002AC029F02BC02AF02CC02BF0E552E5CFD2
:0844F000DAFFE7CFD9FF12004B
:0844F800D9CFE6FFDACFE6FFA1
:10450000E1CFD9FFE2CFDAFFAC6AAB6AFD0EDBB0D8
:10451000AC88DBA202D0AC8CAB8CDBB4AC8EDBA65F
:1045200002D0AB8801D0AB8ADBB8AC849E98DBBAF2
:10453000AB86DBAC02D09D8A01D09D9A9E9ADBAE01
:1045400002D09D8801D09D98FB0EDB50AF6EFB0E14
:10455000FC0EDBCF01F001C000F0016A0050B06E2C
:10456000AC8AAB8E949C948EAC50100B04E0AC5093
:10457000800B01E1948CE552E5CFDAFFE7CFD9FF5C
:02458000120027
:0E458200D9CFE6FFDACFE6FFE1CFD9FFE2CFD7
:10459000DAFFFB0EDBCF00F0FC0EDBCF01F00001F9
:1045A000800E01141AE1FB0EDBCFE9FFFC0EDBCF1E
:1045B000EAFFEECFF3FFEDCFF4FFEE2A000EEF227D
:1045C000F3CFE9FFF4CFEAFFFD0EDBCFEFFFEF50B3
:1045D000016AF36E01C0F4FF10D0FB0EDB50FE0841
:1045E00006E1FD0EDBCFE6FFF7EC24F005D0FD0E73
:1045F000DBCFE6FF03EC00F0E552E552E5CFDAFF52
:06460000E7CFD9FF120014
:0A46060028502D02F3CF24F0F4CF6A
:1046100025F02E02F3502526000EF420266E285099
:104620002F02F3502626000EF420276E2850300269
:10463000F350272629502D02F3502526F450262228
:10464000000E272229502E02F3502626F45027224E
:1046500029502F02F35027262A502D02F3502626E8
:10466000F45027222A502E02F35027262B502D02D9
:06467000F35027261200A2
:0A467600D9CFE6FFE1CFD9FFFE0E19
:10468000DB50A96EA69EA69CA680A850E552E7CF57
:10469000D9FF1200D9CFE6FFE1CFD9FFE652DF6A9A
:1046A000A69CA6B2FED7FE0EDB50A96EFD0EDB5017
:1046B000A86EA69EA684F2AE03D0F29E010EDF6E17
:1046C000550EA76EAA0EA76EA682A694A6B2FED716
:1046D000DF5001E0F28EE552E552E7CFD9FF12003C
:1046E000D9CFE6FFDACFE6FFE1CFD9FFE2CFDAFF9D
:1046F000E652E652FC0EDBCF00F0FD0EDBCF01F000
:10470000060ED89000360136E804FBE100C0DEFF5B
:1047100001C0DDFF010EDB50BE6EDF50E840E84017
:104720003F0B300B006ECF0EBD140010BD6EE55276
:0E473000E552E552E5CFDAFFE7CFD9FF1200E0
:02473E00276AE8
:10474000266A256A246A200EE76ED8902836293614
:104750002A362B3624362536263627362D50245C2D
:104760002E5025582F5026583050275809E32D50E9
:10477000245E2E50255A2F50265A3050275A282A68
:06478000E72EE4D7120051
:0A478600D9CFE6FFDACFE6FFE1CF5E
:10479000D9FFE2CFDAFFFD0EDB507E0BCD6EFD0EB2
:1047A000DBAC02D0CD8E01D0CD9ECF6ACE6A9E907A
:1047B000DBAE02D09D8001D09D90CD80E552E5CF4B
:0847C000DAFFE7CFD9FF120078
:0847C800D9CFE6FFDACFE6FFCE
:1047D000E1CFD9FFE2CFDAFFE652F20E0101FF1777
:1047E000ABAC03D0FF91ABB0FF81ABB4FF85ABB2F4
:1047F000FF87AE50DF6EDF50E552E552E5CFDAFFBE
:06480000E7CFD9FF120012
:0A480600D9CFE6FFDACFE6FFE1CFDD
:10481000D9FFE2CFDAFFE652E652FC0EDBCFDEFF35
:10482000DBCFDDFF010EDB50CF6EDF50CE6EE552E9
:0E483000E552E552E5CFDAFFE7CFD9FF1200DF
:02483E00D9CFD0
:10484000E6FFDACFE6FFE1CFD9FFE2CFDAFFE652AB
:10485000E652FC0EDBCFDEFFDBCFDDFF010EDB50CF
:10486000D76EDF50D66EE552E552E552E5CFDAFF5E
:06487000E7CFD9FF1200A2
:0A487600D9CFE6FFDACFE6FFE1CF6D
:10488000D9FFE2CFDAFFFD0EDB507F0BD56ED76A82
:10489000D66AF294FD0EDBAE02D0F28A01D0F29A13
:0E48A000D58EE552E5CFDAFFE7CFD9FF120043
:0248AE00D9CF60
:1048B000E6FFDACFE6FFE1CFD9FFE2CFDAFFFD0E68
:1048C000DB50FB0BCA6ECC6A9E92FD0EDBAE02D0B3
:1048D0009D8201D09D92CA84E552E5CFDAFFE7CFF1
:0448E000D9FF1200EA
:0C48E400D9CFE6FFDACFE6FFE1CFD9FF25
:1048F000E2CFDAFF0C0EBD129494CA94FD0EDB5089
:10490000CB6ECA84E552E5CFDAFFE7CFD9FF1200BC
:044910009494120069
:0C491400FF0EE350396EEF0E01D0F30EE1
:10492000E76EE72E91EF24F00C0E386EE76AE72E63
:1049300097EF24F0382E96EF24F0392E8FEF24F0E5
:02494000120063
:0E494200276A266A100EE76ED8902A362B36AA
:10495000263627362F50265C3050275805E32F5037
:0E496000265E3050275A2A2AE72EF0D7120082
:02496E00F36AEA
:10497000F46AFF0EE124E96EFF0EE220EA6EED66B6
:1049800007D02F0EEF6404D03A0EEF6001D0F32A67
:02499000120013
:0E499200FF0EE350396E480E01D04C0EE76E5A
:1049A000E72EFED7E76AE72EFED7392EF7D70000AD
:0249B0001200F3
:0E49B200000EF36E00EE00F0060E01D81200AB
:1049C000EA6002D0EE6AFCD7F350E9601200EE6AAA
:0249D000FCD712
:0E49D20015EE00F025EE00F0F86A339C95EC2F
:0E49E00021F007EC00F044EC1DF0FBD71200B4
:0249EE00FF0EBA
:1049F000E350ACBA04D0AF6AAB8EAC8A949CACA244
:0A4A0000FED7AD6EF36EF46A1200EB
:064A0A00FF0EE350396EBF
:104A10001B0E00D001D0200EE76EE72EFED7392EF8
:064A2000FAD700D01200DD
:0A4A2600FF0EE350E84E12000000FE
:0C4A300000D000D000D0E82EFAD7120011
:044A3C0030313233B0
:0D4A400034353637383961626364656600CD
:024A4D00FEFF6A
:014A4F000066
:014A50000065
:020000040030CA
:0100010008F6
:0100020018E5
:010003001EDE
:01000500807A
:010006008178
:010008000FE8
:01000900C036
:01000A000FE6
:01000B00E014
:01000C000FE4
:01000D0040B2
:00000001FF
