:020000040000FA
:060000002DEF2BF01200B1
:020006001200E6
:06000800E0EF23F01200FE
:02000E001200DE
:0400100000000000EC
:0400140027010000C0
:060018009AEF24F0120033
:02001E000400DC
:10002000D7560000CF00000002000000D5560000A7
:10003000CD0000000200000014000000C400000019
:100040000400000010000000C000000004000000D8
:10005000D9CFE6FFE1CFD9FF01010051002BE96EB6
:10006000EA6AE9BEEA68AE0EE926010EEA22FE0E51
:10007000DBCFEFFF022B280E005D01E1006B1E0EAF
:10008000E76E0219E8AE02D0023503D0E750D880FF
:1000900002550DE2FE050BE1FE6BFE0EE66EE66814
:1000A000130EE66E05EC29F0E552E552E552E552F5
:1000B000E7CFD9FF1200D9CFE6FFE1CFD9FFE65253
:1000C00001010151012BE96EEA6AE9BEEA68AE0E50
:1000D000E926010EEA22EFCFDFFF0207280E015DBD
:1000E00001E1016B140EE76E0219E8AE02D0E734AD
:1000F00002D0E750025D0EE2FE510CE1010EFE6FF0
:10010000FE0EE66EE668110EE66E05EC29F0E5528D
:10011000E552E552DF50E552E552E7CFD9FF120034
:10012000D9CFE6FFE1CFD9FF280EE66ECEEC2AF05C
:10013000E5529A0EE66E460EE66E000EE66E28EC6E
:1001400028F0E552E552E552FE0EDB500AE1D60EEC
:10015000E66E010EE66E950EE66E460EE66E000E3B
:1001600009D0D60EE66E010EE66E900EE66E460ED5
:10017000E66E000EE66E28EC28F0006E050EE15EDD
:100180000050780EE66E460EE66E000EE66E28EC27
:1001900028F0E552E552E552700EE66E460EE66E28
:1001A000000EE66E28EC28F0E552E552E552D60E38
:1001B000E66E010EE66E600EE66E460EE66E000E10
:1001C000E66E28EC28F0006E050EE15E0050E55268
:1001D000E7CFD9FF1200E66AA3DFE552060EE66E0E
:1001E000E66A040EE66EE66A380EE66E460EE66EC7
:1001F000000EE66E28EC28F0006E070EE15E00505F
:100200000001C0A316D09EEC18F0006E016A00BE7B
:10021000016800C0E6FF01C0E6FF280EE66E460E4C
:10022000E66E000EE66E28EC28F0026E050EE15E2A
:1002300002500001C0A50BD01A0EE66E460EE66E07
:10024000000EE66E28EC28F0E552E552E55200017A
:10025000C151E66EE66A0F0EE66E460EE66E000EC1
:10026000E66E28EC28F0006E050EE15E00500C0EE4
:10027000E66E460EE66E000EE66E28EC28F0E552BD
:10028000E552E5520001010EC26F1200E66A48DF36
:10029000E552060EE66EE66A040EE66EE66AE10ECA
:1002A000E66E450EE66E000EE66E28EC28F0006E57
:1002B000070EE15E00501200E66A32DFE552C60E1C
:1002C000E66E450EE66E000EE66E28EC28F0E5526E
:1002D000E552E5521200E66A23DFE552A60EE66E0D
:1002E000450EE66E000EE66E28EC28F0E552E5526B
:1002F000E5521200E66A14DFE552D60EE66E010EF4
:10030000E66E870EE66E450EE66E000EE66E28EC93
:1003100028F0006E050EE15E00501200D9CFE6FF16
:10032000E1CFD9FFFE0EDBCFE6FFFADEE552700E1D
:10033000E66E450EE66E000EE66E28EC28F0E552FD
:10034000E552E552FB0EDBCFE6FFFC0EDBCFE6FF0E
:10035000FD0EDBCFE6FF28EC28F0E552E552E55232
:10036000F90EDBCFE6FFFA0EDBCFE6FF560EE66EA8
:10037000450EE66E000EE66E28EC28F0006E050EC7
:10038000E15E0050E552E7CFD9FF1200D9CFE6FF7A
:10039000E1CFD9FF120EE1260C0EDB6A0D0EDB6AEF
:1003A000200EF36E0E0EF3CFDBFFC10EF36E0F0EB9
:1003B000F3CFDBFF0A0EE126FD0EDBCFE6FF34ECC8
:1003C0001BF0EECF00F0EECF01F0EECF02F0EECF5B
:1003D00003F0EECF04F0EECF05F0EECF06F0EECF57
:1003E00007F0EECF08F0EECF09F0EECF0AF00B6E7B
:1003F0000B0EE15E0B5000C0DFFF010E01C0DBFF02
:10040000020E02C0DBFF030E03C0DBFF040E04C0BC
:10041000DBFF050E05C0DBFF060E06C0DBFF070E87
:1004200007C0DBFF080E08C0DBFF090E09C0DBFFB9
:100430000A0E0AC0DBFFDB5001E11AD1DF50100ABF
:1004400018E0380A42E1080EDBCF2AF0090EDBCFB4
:100450002BF038EC1CF029C000F02AC001F02BC0B2
:1004600002F02CC003F02E6A2F6A800E306E410E0F
:1004700014D0080EDBCF2AF0090EDBCF2BF038ECBE
:100480001CF029C000F02AC001F02BC002F02CC0E3
:1004900003F02E6A2F6A306A400E316E00C029F0D8
:1004A00001C02AF002C02BF003C02CF0E4EC1CF0D9
:1004B0000C0E29C0DBFF0D0E2AC0DBFF0E0E2BC079
:1004C000DBFF0F0E2CC0DBFF0ED00C0EDB6A0D0E17
:1004D000DB6A840EF36E0E0EF3CFDBFF420EF36E7B
:1004E0000F0EF3CFDBFF0C0EDBCF29F00D0EDBCFB1
:1004F0002AF00E0EDBCF2BF00F0EDBCF2CF0A4EC8E
:100500001DF0100E2BC0DBFF0C0EDBCF04F00D0E28
:10051000DBCF05F00E0EDBCF06F00F0EDBCF07F0C2
:100520002E6A2F6AC80E306E420E316E04C029F05A
:1005300005C02AF006C02BF007C02CF037EC1DF0E8
:1005400029C000F02AC001F02BC002F02CC003F03B
:10055000100EDBCF10F010C02BF029EC1CF029C0DE
:100560000CF02AC00DF02BC00EF02CC00FF02E6A3C
:100570002F6AC80E306E420E316E37EC1DF029C066
:1005800008F02AC009F02BC00AF02CC00BF029C0DB
:100590002EF02AC02FF02BC030F02CC031F000C05C
:1005A00029F001C02AF002C02BF003C02CF04DEC62
:1005B0001CF0A4EC1DF0110E2BC0DBFFFE0EDBCFF8
:1005C000E6FFAEDDE552700EE66E450EE66E000EFD
:1005D000E66E28EC28F0E552E552E5520B0EDB6A98
:1005E000DBCF00F0080EE76E0018E8AE02D0E7346B
:1005F00002D0E750005C22E2D9CF00F0DACF01F060
:100600000B0EDBCF02F0036A02BE03680050022427
:10061000E96E01500320EA6EEF50E66EE66A510E75
:10062000E66E450EE66E000EE66E28EC28F0046ECF
:10063000050EE15E04500B0EDB2AD2D7110EDBCF84
:10064000E6FFE66A100EDBCF00F0016A00BE01682B
:1006500000C0E6FF01C0E6FF350EE66E450EE66E11
:10066000000EE66E28EC28F0026E070EE15E0250E6
:10067000120EE15C02E2E16AE552E16EE552E7CF7B
:10068000D9FF1200D9CFE6FFE1CFD9FFFE0EDBCFB5
:10069000E6FF46DDE552170EE66E450EE66E000EED
:1006A000E66E28EC28F0E552E552E5520001C15112
:1006B000E66EE66AFB0EE66E440EE66E000EE66E31
:1006C00028EC28F0006E050EE15E0050E552E7CF01
:1006D000D9FF1200D9CFE6FFE1CFD9FF080EE126FE
:1006E00096EC11F028C0DEFF29C0DEFF2AC0DEFF35
:1006F0002BC0DDFFDD52DD52DECF29F0DECF2AF048
:10070000DECF2BF0DDCF2CF0DD52DD52A4EC1DF05E
:10071000040E2BC0DBFFD9CFE9FFDACFEAFFEECF23
:1007200004F0EECF05F0EECF06F0EFCF07F02E6A23
:100730002F6AC80E306E420E316E04C029F005C01B
:100740002AF006C02BF007C02CF037EC1DF029C0B2
:1007500000F02AC001F02BC002F02CC003F0040E00
:10076000DBCF10F010C02BF029EC1CF029C00CF0EE
:100770002AC00DF02BC00EF02CC00FF02E6A2F6A8D
:10078000C80E306E420E316E37EC1DF029C008F0F5
:100790002AC009F02BC00AF02CC00BF029C02EF0A3
:1007A0002AC02FF02BC030F02CC031F000C029F04F
:1007B00001C02AF002C02BF003C02CF04DEC1CF05D
:1007C000A4EC1DF0060E2BC0DBFFDECF29F0DECF40
:1007D0002AF0DECF2BF0DDCF2CF0DD52DD52A4EC81
:1007E0001DF0050E2BC0DBFFD9CFE9FFDACFEAFF02
:1007F000EECF04F0EECF05F0EECF06F0EFCF07F02E
:100800002E6A2F6AC80E306E420E316E04C029F077
:1008100005C02AF006C02BF007C02CF037EC1DF005
:1008200029C000F02AC001F02BC002F02CC003F058
:10083000050EDBCF10F010C02BF029EC1CF029C006
:100840000CF02AC00DF02BC00EF02CC00FF02E6A59
:100850002F6AC80E306E420E316E37EC1DF029C083
:1008600008F02AC009F02BC00AF02CC00BF029C0F8
:100870002EF02AC02FF02BC030F02CC031F000C079
:1008800029F001C02AF002C02BF003C02CF04DEC7F
:100890001CF0A4EC1DF0070E2BC0DBFFFE0EDBCF1F
:1008A000E6FF3EDCE552DB0EE66E440EE66E000E21
:1008B000E66E28EC28F0E552E552E552060EDBCF55
:1008C000E6FFE66A040EDBCF00F0016A00BE0168B5
:1008D00000C0E6FF01C0E6FFC00EE66E440EE66E05
:1008E000000EE66E28EC28F0026E070EE15E025064
:1008F000FE0EDBCFE6FF14DCE5529C0EE66E440EE6
:10090000E66E000EE66E28EC28F0E552E552E55260
:10091000DFCFE6FFE66A800EE66E440EE66E000E5E
:10092000E66E28EC28F0006E050EE15E0050FE0E2B
:10093000DBCFE6FF90EC00F0E5525C0EE66E440E75
:10094000E66E000EE66E28EC28F0E552E552E55220
:10095000070EDBCFE6FFE66A050EDBCF00F0016A8B
:1009600000BE016800C0E6FF01C0E6FFC00EE66EF3
:10097000440EE66E000EE66E28EC28F0026E070EBE
:10098000E15E0250080EE15C02E2E16AE552E16ECE
:10099000E552E7CFD9FF1200D9CFE6FFE1CFD9FF6B
:1009A000020EE126010EDE6EDD6AFD0EDB50070A47
:1009B00068E0010A61E0030A57E0010A34E0060A30
:1009C0001AE0030A63E1FE0EDB500BE1E8C1DEFF33
:1009D000E9C1DDFF000EDB500101E85F010EDB50D5
:1009E000E95BDECFE6FFDDCFE6FF580EE66E440E94
:1009F000E66E000E2FD0FE0EDB500BE1EAC1DEFFEB
:100A0000EBC1DDFF000EDB500101EA5F010EDB50A0
:100A1000EB5BDECFE6FFDDCFE6FF520EE66E440E67
:100A2000E66E000E17D0FE0EDB500BE1ECC1DEFFD0
:100A3000EDC1DDFF000EDB500101EC5F010EDB506C
:100A4000ED5BDECFE6FFDDCFE6FF4D0EE66E440E3A
:100A5000E66E000EE66EFE0EDBCFE6FF5FDC006E9C
:100A6000060EE15E005012D0EEC1E6FFFE0EDBCFB7
:100A7000E6FF8CDCE55209D0FE0EDBCFE6FF02DE9E
:100A800004D0FE0EDBCFE6FF25DEE552020EE15C70
:100A900002E2E16AE552E16EE552E7CFD9FF1200CA
:100AA0000101036B046B12000101E76BFD6B50EF5A
:100AB00005F0D9CFE6FFE1CFD9FFE6520001C091A2
:100AC000DF6ADFCF00F0100EE76E0018E8AE02D04C
:100AD000E73402D0E750005C39E2DFCFE6FF7FEC7D
:100AE00029F0E552E66EDFCFE9FFEA6AE9BEEA687F
:100AF000D60EE926010EEA22E552E750EF6EDFCF6F
:100B0000E9FFEA6AE9BEEA68D60EE926010EEA22A2
:100B1000EF5003E10001C08119D0DF5015E1FF0E55
:100B20000101D65D11E1450EE66E440EE66E000E43
:100B3000E66ED60EE66E010EE66E83EC27F0006ED2
:100B4000050EE15E005002D0DF2ABBD7E552E55228
:100B5000E7CFD9FF12009494060EE66E9BEC2AF0C4
:100B6000E552F90EE66EB6EC2AF0E552E80EE66EB6
:100B7000030EE66EB4EC29F0E552E55232EC1BF0C0
:100B8000000904E10001C08302EC1BF0E8EC0AF06C
:100B9000000902E10001C085C0C000F0016A00BE8A
:100BA000016800C0E6FF01C0E6FF380EE66E440EA5
:100BB000E66E000EE66E28EC28F0026E050EE15E91
:100BC000025077DF0101E86BE96BEA6BEB6BEC6BD2
:100BD000ED6B6ADF0101006B016B026B0001C26B00
:100BE0000101010EFE6FFE0EE66EE668110EE66E66
:100BF00005EC29F0E552E552E5521200D9CFE6FFA7
:100C0000E1CFD9FFFE0EDB500A0824E001010351B9
:100C1000006E016AD890015004E6AA0E005C000E36
:100C200001580DE3340EE66E440EE66E000EE66EDD
:100C300028EC28F0E552E552E55236DF15D0035195
:100C4000032BEA6A040FE96E010EEA22FE0EDBCFE7
:100C5000EFFF0AD001010351EA6A040FE96E010EA9
:100C6000EA22EF6A010EE76FE552E7CFD9FF1200E3
:100C7000D9CFE6FFE1CFD9FF060EE1260101E7510A
:100C800044E0010A06E0E7C100F0016A00AE4ED17F
:100C90004CD166D9E76E050EE7CFDBFFDB50070AC4
:100CA00024E0010A1BE0030A17E0010A13E0070A27
:100CB0000FE0010A0AE0030A05E0010A22E1EBEC79
:100CC00000F01FD06BEC01F01CD07AEC01F019D0D1
:100CD000010E05D0020E03D0040E01D0060EE66E02
:100CE000E66A5ADEE552E5520CD0DF6A0A0EDF5C96
:100CF00008E2060EE66EE66A4FDEE552E552DF2AAE
:100D0000F5D70101E76BCCDE21D10151005D05E093
:100D10005BEC00F0E66E72DFE5520001C35122E0A9
:100D2000C3A108D0010EE66EE66E36DEE552E5524E
:100D30000001C371C3A309D0020EE66E010EE66E78
:100D40002BDEE552E5520001C373C3A509D0040EA2
:100D5000E66E010EE66E20DEE552E5520001C37537
:100D6000070EC31700012C0ED880C455010EC555BF
:100D700009E2010E0001C01505E0EBEC00F00001F6
:100D8000C46BC56B00013C0ED880C455000EC55520
:100D900009E2010E0001C01505E146EC01F0000179
:100DA000C46BC56B0001C6513C080BE2020E00018A
:100DB000C01507E0010EC01504E00001C66B02EC8F
:100DC0001BF00001C7513C080BE2040E0001C015E6
:100DD00007E0010EC01504E00001C76BC6EC10F07F
:100DE000020E0001C01551E0010EC0154EE0C251C7
:100DF0004CE0DF6A9EEC18F0DF5C47E2EA6ADF3421
:100E0000FE0BEA36E96EEF0EE926010EEA22EECF7E
:100E100000F0EFCF01F000C0E6FF01C0E6FFDFCF3A
:100E2000E6FF87EC1BF0E552E552E7CF01F0E55213
:100E3000E7CF00F0F3CF02F0F4CF03F0F350001847
:100E400002E1035001181FE0DFCFE6FF87EC1BF043
:100E5000E552F3CF00F0F4CF01F0EA6ADF34FE0B85
:100E6000EA36E96EEF0EE926010EEA22F3CFEEFF35
:100E700001C0EDFFDFCFEEF1050EE66E010EE66E6E
:100E80008BDDE552E552DF2AB5D7040E0001C0150F
:100E90005DE0010EC0155AE0C25158E096EC11F029
:100EA000010E28C0DBFF020E29C0DBFF030E2AC0A3
:100EB000DBFF040E2BC0DBFF010EDBCF00F0020EC8
:100EC000DBCF01F0030EDBCF02F0040EDBCF03F02B
:100ED00000C02EF001C02FF002C030F003C031F08E
:100EE000F9C129F0FAC12AF0FBC12BF0FCC12CF0AA
:100EF000CBEC1DF0010A05E1010EDB500101F95DAB
:100F000025E0010EDBCFF9F1020EDBCFFAF1030E83
:100F1000DBCFFBF1040EDBCFFCF1070EE66E010E1A
:100F2000E66E3ADDE552E55211D0016800C0E6FFF9
:100F300001C0E6FFFA0EE66E430EE66E000EE66EA8
:100F400028EC28F0026E050EE15E0250060EE15C10
:100F500002E2E16AE552E16EE552E7CFD9FF120005
:100F6000D9CFE6FFE1CFD9FF0A0EE1260101FD51FD
:100F7000040A01E169D20D0A01E1D4D1010A01E1BB
:100F80009FD10F0A01E158D1040A01E13AD1060AC2
:100F900001E10CD1030A01E1EDD0040A57E0030A94
:100FA00019E0010A01E0C8D2040EE66E010EE66EF9
:100FB000F10EE66E430EE66E000EE66ECBEC24F00C
:100FC000006E050EE15E0050000901E0B5D201019E
:100FD000010E8AD1040EE66E010EE66EE80EE66E94
:100FE000430EE66E000EE66ECBEC24F0006E050EAE
:100FF000E15E0050000927E0160EE66EE66A040E78
:10100000E66E010EE66ED10EE66E430EE66E000E43
:10101000E66E10EC25F0006E070EE15E0050000950
:1010200001E08AD21A0EE66E010EE66ED60EE66E6C
:10103000010EE66EABEC24F0E552E552E552E552C6
:10104000000901E095D00101020E4ED1040EE66EBA
:10105000010EE66EC50EE66E430EE66E000EE66EFF
:10106000CBEC24F0006E050EE15E0050000904E1B7
:101070000101FD6B010E61D2040EE66E010EE66EFB
:10108000B50EE66E430EE66E000EE66ECBEC24F077
:10109000006E050EE15E0050000903E10101040E3F
:1010A00023D1040EE66E010EE66EA60EE66E430E2A
:1010B000E66E000EE66ECBEC24F0006E050EE15EEF
:1010C0000050000903E10101030E0ED1040EE66E8B
:1010D000010EE66E980EE66E430EE66E000EE66EAC
:1010E000CBEC24F0006E050EE15E0050000903E138
:1010F0000101050EF9D0040EE66E010EE66E890EB2
:10110000E66E430EE66E000EE66ECBEC24F0006E4B
:10111000050EE15E0050000903E10101060EE4D076
:10112000040EE66E010EE66E7B0EE66E430EE66E74
:10113000000EE66ECBEC24F0006E050EE15E005072
:10114000000903E10101080ECFD0040EE66E010E86
:10115000E66E790EE66E430EE66E000EE66ECBECA2
:1011600024F0006E050EE15E0050000901E1E4D1BB
:10117000010168D1040EE66E010EE66E690EE66EA0
:10118000430EE66E000EE66ECBEC24F0006E050E0C
:10119000E15E0050000904E10101FD6B020ECDD1BA
:1011A0007B0E0101045D01E1C7D14CD1040EE66E56
:1011B000010EE66E690EE66E430EE66E000EE66EFA
:1011C000CBEC24F0006E050EE15E0050000913E147
:1011D0000101FD6B0A0E006E016AC4C02AF0C5C091
:1011E0002BF02F6E01C030F0E5EC2AF02A50E66EAD
:1011F000CEEC2AF09ED17B0E0101045D01E19CD171
:1012000021D1040EE66E010EE66E590EE66E430E17
:10121000E66E000EE66ECBEC24F0006E050EE15E8D
:101220000050000903E10101070E5ED07B0E0101B1
:10123000045D01E181D106D1040EE66E010EE66E79
:101240004E0EE66E430EE66E000EE66ECBEC24F01C
:10125000006E050EE15E0050000904E10101FD6B26
:10126000030E6BD1040EE66E010EE66E410EE66EC5
:10127000430EE66E000EE66ECBEC24F0006E050E1B
:10128000E15E0050000904E10101FD6B040E55D13F
:10129000040EE66E010EE66E350EE66E430EE66E49
:1012A000000EE66ECBEC24F0006E050EE15E005001
:1012B000000904E10101FD6B050E3FD10101C2D01F
:1012C000040EE66E010EE66E270EE66E430EE66E27
:1012D000000EE66ECBEC24F0006E050EE15E0050D1
:1012E000000904E10101090EFD6F26D1040EE66E2E
:1012F000010EE66E1C0EE66E430EE66E000EE66E06
:10130000CBEC24F0006E050EE15E0050000904E114
:101310000101FD6B070E11D17B0E0101045D01E19E
:101320000BD190D0040EE66E010EE66E0E0EE66E48
:10133000430EE66E000EE66ECBEC24F0006E050E5A
:10134000E15E0050000901E1F7D0080EE66EE66AA2
:10135000040EE66E010EE66E050EE66E430EE66EB8
:10136000000EE66E10EC25F0006E070EE15E0050F8
:10137000000967E10C0EE66E010EE66ED950020F11
:10138000E66E000EDA20E66EE1EC24F0E552E5525E
:10139000E552E552D950020FE66E000EDA20E66EF5
:1013A00002EC25F0E552E552010EF3CFDBFF000120
:1013B000C16BDF6ADFCF00F0010EDB50E76E001873
:1013C000E8AE02D0E73402D0E750005C19E20A0E22
:1013D000C103F3CFC1F0D950020F006EDACF01F094
:1013E000DFCF02F0036A02BE036800500224E96EF8
:1013F00001500320EA6EEF50D00FC127DF2ADAD761
:10140000C151006E016AFF0E001806E1015004E1AF
:10141000E668030EE66E0DD0C151006E016AD890E9
:1014200000360136D8900036013600C0E6FF01C014
:10143000E6FFB4EC29F0E552E5520101FD6B060E22
:101440007CD00101FD6B78D0080EE66EE66A040ED2
:10145000E66E010EE66EFC0EE66E420EE66E000EC5
:10146000E66E10EC25F0006E070EE15E00500009FC
:1014700063E10101FE050BE1FE6BFE0EE66EE66820
:10148000130EE66E05EC29F0E552E552E5525CECF0
:1014900001F00C0EE66E010EE66ED60EE66E010E43
:1014A000E66EE1EC24F0E552E552E552E552D60E47
:1014B000E66E010EE66E02EC25F0E552E552010EF5
:1014C000F3CFDBFFDF6ADFCF00F0010EDB50E76E0A
:1014D0000018E8AE02D0E73402D0E750005C13E217
:1014E000DFCFE9FFEA6AE9BEEA68D60EE926010E17
:1014F000EA22EF50E66EDFCFE6FF8EEC29F0E552F0
:10150000E552DF2AE0D7E66ADFCFE6FF8EEC29F06E
:10151000E552E55259EC05F00101FD6B010EFE6F3D
:10152000FE0EE66EE668110EE66E05EC29F0E55259
:10153000E552E552000E01D0FF0E006E0A0EE15C8E
:1015400002E2E16AE552E16E0050E552E7CFD9FFD1
:101550001200D9CFE6FFE1CFD9FFFE0EDB50040A1F
:101560001CE0050A0EE0030A24E10101FF0EEA5D1A
:10157000FF0EEB5903E2EA2B000EEB230001C383BD
:1015800023D00101FF0EE85DFF0EE95903E2E82BCD
:10159000000EE9230001C38117D00101FF0EEC5DAD
:1015A000FF0EED5903E2EC2B000EED230001C38585
:1015B0000BD0E60EE66E420EE66E000EE66E28ECEE
:1015C00028F0E552E552E552E552E7CFD9FF120087
:1015D0009294928680868096C6EF10F0D9CFE6FF6F
:1015E000E1CFD9FF020EE126010EDB6A800EDF6E2D
:1015F000DF50000812E2FE0EDB50DF1403E092869B
:10160000808602D0929680968084000000000000C0
:1016100000008094DF90DF42EBD792868086808442
:1016200000000000000000008050080B01E0010EE7
:10163000E76E010EE7CFDBFF8094010EDB5000D098
:10164000006E020EE15C02E2E16AE552E16E0050DA
:10165000E552E7CFD9FF1200D9CFE6FFE1CFD9FF9E
:10166000020EE126010EDB6A92868086800EDF6E16
:10167000DF50000810E2808480A607D0010EDB5006
:10168000DF10E76E010EE7CFDBFF80940000000063
:10169000DF90DF42EDD7FE0EDB5003E0929680969E
:1016A00002D0928680868084000000000000000046
:1016B000809492868086010EDB5000D0006E020E70
:1016C000E15C02E2E16AE552E16E0050E552E7CFEB
:1016D000D9FF1200928680868094000000000000EE
:1016E00000008084000000000000000092968096B8
:1016F00000000000000000008094000000000000D6
:1017000000008084000000000000000092868086B7
:10171000000000000000000080941200D9CFE6FF16
:10172000E1CFD9FFE65292868086000000000000DB
:10173000000080940000000000000000DF6A090E35
:10174000DF5C0CE280840000000000000000809458
:101750000000000000000000DF2AF1D7BBDFE552E7
:10176000E552E7CFD9FF1200D9CFE6FFE1CFD9FF8D
:10177000E652DF6AD3DF1E0EE66E30DFE552DF266B
:10178000DF50E552E552E7CFD9FF1200D9CFE6FF8F
:10179000E1CFD9FFE652DF6A9DDF070EE66E1EDF5E
:1017A000E552DF6E010EE66E57DFE5520001AE6FC7
:1017B000E66A52DFE5520001AF6FDF50E552E552B5
:1017C000E7CFD9FF1200D9CFE6FFE1CFD9FFE6522C
:1017D000DF6A80DF060EE66E01DFE552DF26FE0ED1
:1017E000DBCFE6FFFBDEE552DF26DF50E552E552B8
:1017F000E7CFD9FF1200D9CFE6FFE1CFD9FF050E21
:10180000E126DF6A67DFFE0EDB50010A04E0010A11
:1018100007E1030E01D0050EE66EE0DEE552DF269D
:10182000010EDB6A020EDB6A010EDBCF00F0020E56
:10183000DBCF01F0026AD8900250000A06E6400EA3
:10184000005C9C0E0158000E02580DE280A60DD0DF
:10185000040EE66E49EC2BF0E552010EDB2A020E77
:10186000E3E3DB2AE1D780B6DF2A010EE66EF4DE81
:10187000E552E76E040EE7CFDBFF010EE66EECDE0D
:10188000E552E76E030EE7CFDBFF040EDB50006E80
:10189000016A016E006A030EDB5000010024B06F84
:1018A000000E0120B16FE66AD7DEE5520001AF6F8E
:1018B000030EDBCFE6FFE66A040EDBCFE6FFE66A47
:1018C000FE0EDBCFE6FFE66A9F0EE66E460EE66E84
:1018D000000EE66E28EC28F0006E090EE15E005066
:1018E000DF50006E050EE15C02E2E16AE552E16E56
:1018F0000050E552E7CFD9FF1200D9CFE6FFE1CF84
:10190000D9FF300EE126DE6ADE6A800EDE6EC00E82
:10191000DD6EDD52DD52540EF36E040EF3CFDBFFAD
:10192000E30EF36E050EF3CFDBFF250EF36E060E0E
:10193000F3CFDBFF3D0EF36E070EF3CFDBFFA20EFE
:10194000F36E080EF3CFDBFFE70EF36E090EF3CF55
:10195000DBFF3B0EF36E0A0EF3CFDBFFB60EF36E2A
:101960000B0EF3CFDBFF0A0EF36E0C0EF3CFDBFF93
:10197000D70EF36E0D0EF3CFDBFF230EF36E0E0EBC
:10198000F3CFDBFF3C0EF36E0F0EF3CFDBFFAC0E9D
:10199000F36E100EF3CFDBFFC50EF36E110EF3CF17
:1019A000DBFFA70EF36E120EF3CFDBFF380EF36EE4
:1019B000130EF3CFDBFFD70EF36E140EF3CFDBFF66
:1019C000A30EF36E150EF3CFDBFF1E0EF36E160E95
:1019D000F3CFDBFFC20EF36E170EF3CFDBFF0A0E61
:1019E000F36E180EF3CFDBFFD70EF36E190EF3CFA5
:1019F000DBFF230EF36E1A0EF3CFDBFF3C0EF36E0C
:101A00001B0EF3CFDBFFFD0EDBCFE9FFFE0EDBCFBE
:101A1000EAFF1C0EEECFDBFF1D0EEECFDBFF1E0E2E
:101A2000EECFDBFF1F0EEECFDBFFFB0EDBCFE9FFC0
:101A3000FC0EDBCFEAFF200EEECFDBFF210EEECF58
:101A4000DBFF220EEECFDBFF230EEECFDBFF140E0B
:101A5000DBCF00F0150EDBCF01F0160EDBCF02F06E
:101A6000170EDBCF03F0200EDBCF29F0210EDBCFEA
:101A70002AF0220EDBCF2BF0230EDBCF2CF0180E3A
:101A8000DBCF2EF0190EDBCF2FF01A0EDBCF30F0AC
:101A90001B0EDBCF31F037EC1DF029C004F02AC05B
:101AA00005F02BC006F02CC007F029C02EF02AC08C
:101AB0002FF02BC030F02CC031F000C029F001C055
:101AC0002AF002C02BF003C02CF04EEC1CF02C0EC0
:101AD00029C0DBFF2D0E2AC0DBFF2E0E2BC0DBFF43
:101AE0002F0E2CC0DBFF080EDBCF29F0090EDBCF59
:101AF0002AF00A0EDBCF2BF00B0EDBCF2CF01C0EE6
:101B0000DBCF2EF01D0EDBCF2FF01E0EDBCF30F023
:101B10001F0EDBCF31F037EC1DF01C0EDBCF2EF0AB
:101B20001D0EDBCF2FF01E0EDBCF30F01F0EDBCFF4
:101B300031F037EC1DF029C004F02AC005F02BC0AD
:101B400006F02CC007F0040EDBCF29F0050EDBCF2A
:101B50002AF0060EDBCF2BF0070EDBCF2CF01C0E8D
:101B6000DBCF2EF01D0EDBCF2FF01E0EDBCF30F0C3
:101B70001F0EDBCF31F037EC1DF029C008F02AC072
:101B800009F02BC00AF02CC00BF029C02EF02AC09F
:101B90002FF02BC030F02CC031F004C029F005C06C
:101BA0002AF006C02BF007C02CF04EEC1CF029C028
:101BB00000F02AC001F02BC002F02CC003F0D9CFF6
:101BC000E9FFDACFEAFFEECF0CF0EECF0DF0EECF6B
:101BD0000EF0EFCF0FF00CC02EF00DC02FF00EC0A6
:101BE00030F00FC031F04EEC1CF0240E29C0DBFFAA
:101BF000250E2AC0DBFF260E2BC0DBFF270E2CC0D4
:101C0000DBFF2C0EDBCF08F02D0EDBCF09F02E0E04
:101C1000DBCF0AF02F0EDBCF0BF02E6A2F6AC80E37
:101C2000306E410E316E08C029F009C02AF00AC09A
:101C30002BF00BC02CF04DEC1CF029C004F02AC096
:101C400005F02BC006F02CC007F00C0EDBCF10F017
:101C50000D0EDBCF11F00E0EDBCF12F00F0EDBCF2F
:101C600013F0100EDBCF29F0110EDBCF2AF0120E8D
:101C7000DBCF2BF0130EDBCF2CF01C0EDBCF2EF0C6
:101C80001D0EDBCF2FF01E0EDBCF30F01F0EDBCF93
:101C900031F037EC1DF029C014F02AC015F02BC02C
:101CA00016F02CC017F029C02EF02AC02FF02BC040
:101CB00030F02CC031F010C029F011C02AF012C051
:101CC0002BF013C02CF04EEC1CF029C00CF02AC0F5
:101CD0000DF02BC00EF02CC00FF029C02EF02AC042
:101CE0002FF02BC030F02CC031F004C029F005C01B
:101CF0002AF006C02BF007C02CF037EC1DF029C0ED
:101D000000F02AC001F02BC002F02CC003F0240E1A
:101D1000DBCF18F0250EDBCF19F0260EDBCF1AF043
:101D2000270EDBCF1BF018C02EF019C02FF01AC001
:101D300030F01BC031F04EEC1CF0280E29C0DBFF48
:101D4000290E2AC0DBFF2A0E2BC0DBFF2B0E2CC076
:101D5000DBFF280EDBCF00F0290EDBCF01F02A0ECF
:101D6000DBCF02F02B0EDBCF03F02E6A2F6AC80EFA
:101D7000306E420E316E00C029F001C02AF002C060
:101D80002BF003C02CF0D2EC1DF0010A0EE1280E5E
:101D9000DB6A290EDB6AC80EF36E2A0EF3CFDBFF77
:101DA000420EF36E2B0EF3CFDBFF280EDBCF00F0DD
:101DB000290EDBCF01F02A0EDBCF02F02B0EDBCF9A
:101DC00003F0CD0E2E6ECC0E2F6E306E3D0E316EAA
:101DD00000C029F001C02AF002C02BF003C02CF093
:101DE000DBEC1DF0010A14E1CD0EF36E280EF3CFEB
:101DF000DBFFCC0EF36E290EF3CFDBFFCC0EF36EC0
:101E00002A0EF3CFDBFF3D0EF36E2B0EF3CFDBFF7D
:101E1000FB0EDBCFE9FFFC0EDBCFEAFF2C0EDBCFA6
:101E2000EEFF2D0EDBCFEEFF2E0EDBCFEEFF2F0EE3
:101E3000DBCFEEFFFD0EDBCFE9FFFE0EDBCFEAFFCF
:101E4000280EDBCFEEFF290EDBCFEEFF2A0EDBCF15
:101E5000EEFF2B0EDBCFEEFF300EE15C02E2E16A1B
:101E6000E552E16EE552E7CFD9FF1200D9CFE6FF88
:101E7000E1CFD9FF080EE126390E046E280E056E5B
:101E8000290E066E3F0E076E296A2A6AF00E2B6E27
:101E9000400E2C6EF70EDBCF2EF0F80EDBCF2FF0BE
:101EA000F90EDBCF30F0FA0EDBCF31F037EC1DF05E
:101EB00029C00CF02AC00DF02BC00EF02CC00FF082
:101EC000CD0E146E4C0E156E6D0E166E430E176E03
:101ED000F70EDBCF18F0F80EDBCF19F0F90EDBCFE1
:101EE0001AF0FA0EDBCF1BF018C02EF019C02FF03D
:101EF0001AC030F01BC031F014C029F015C02AF010
:101F000016C02BF017C02CF04EEC1CF029C010F0BE
:101F10002AC011F02BC012F02CC013F029C02EF0F3
:101F20002AC02FF02BC030F02CC031F00CC029F0AB
:101F30000DC02AF00EC02BF00FC02CF0E4EC1CF00A
:101F400029C008F02AC009F02BC00AF02CC00BF001
:101F500029C02EF02AC02FF02BC030F02CC031F059
:101F600004C029F005C02AF006C02BF007C02CF0F1
:101F70004EEC1CF029C000F02AC001F02BC002F08A
:101F80002CC003F029C0E6FF2AC0E6FF2BC0E6FF05
:101F90002CC0E6FFD950FB0FE96EFF0EDA20EA6E87
:101FA000EECFE6FFEECFE6FFEECFE6FFEFCFE6FFA8
:101FB00074EC28F0E552E552E552E552E552E7CFE0
:101FC00003F0E552E7CF02F0E552E7CF01F0E5522A
:101FD000E7CF00F028C020F029C021F02AC022F06D
:101FE0002BC023F02E6A2F6A306A400E316E28C053
:101FF00029F021C02AF022C02BF023C02CF04DEC98
:102000001CF029C01CF02AC01DF02BC01EF02CC0F3
:102010001FF029C02EF02AC02FF02BC030F02CC0AA
:1020200031F000C029F001C02AF002C02BF003C03B
:102030002CF04EEC1CF029C0DEFF2AC0DEFF2BC0C6
:10204000DEFF2CC0DDFFDD52DD52D9CFE9FFDACF54
:10205000EAFFEECF08F0EECF09F0EECF0AF0EFCFB7
:102060000BF0390E2E6E280E2F6E290E306E3F0E9D
:10207000316E08C029F009C02AF00AC02BF00BC04D
:102080002CF04DEC1CF029C004F02AC005F02BC048
:1020900006F02CC007F0CD0E2E6E4C0E2F6E6D0E7E
:1020A000306E430E316E37EC1DF029C000F02AC0AF
:1020B00001F02BC002F02CC003F0840E106E920EC3
:1020C000116E020E126E410E136ED9CFE9FFDACFF8
:1020D000EAFFEECF14F0EECF15F0EECF16F0EFCF13
:1020E00017F014C02EF015C02FF016C030F017C036
:1020F00031F010C029F011C02AF012C02BF02C6E64
:102100004DEC1CF029C00CF02AC00DF02BC00EF0D5
:102110002CC00FF029C02EF02AC02FF02BC030F0B9
:102120002CC031F000C029F001C02AF002C02BF011
:1021300003C02CF0E4EC1CF0040E29C0DBFF050EFC
:102140002AC0DBFF060E2BC0DBFF070E2CC0DBFF17
:10215000040EDBCF00F0050EDBCF01F0060EDBCF67
:1021600002F0070EDBCF03F000C028F001C029F019
:1021700002C02AF003C02BF0080EE15C02E2E16A23
:10218000E552E16EE552E7CFD9FF1200D9CFE6FF65
:10219000E1CFD9FF140EE1268EEC0BF0040EDB6AC2
:1021A000010EE66EFBEC0BF0E552006E040EDBCF89
:1021B000E7FF0050E726040EE7CFDBFFB0C0DEFFED
:1021C000B1C0DDFFE66AFBEC0BF0E552006E040ED9
:1021D000DBCFE7FF0050E726040EE7CFDBFF020E60
:1021E000B0C0DBFF030EB1C0DBFF040EDB5003E029
:1021F0008EEC0BF08DD0000EDFCF2AF0010EDBCF7E
:102200002BF038EC1CF0080E29C0DBFF090E2AC0A9
:10221000DBFF0A0E2BC0DBFF0B0E2CC0DBFF020E18
:10222000DBCF2AF0030EDBCF2BF038EC1CF00C0ECA
:1022300029C0DBFF0D0E2AC0DBFF0E0E2BC0DBFF1B
:102240000F0E2CC0DBFFD9500C0FE66E000EDA200B
:10225000E66ED950080FE66E000EDA20E66E7DECD1
:102260000CF0E552E552E552E552D9500C0FE96EFB
:10227000DACFEAFFEECFE6FFEECFE6FFEECFE6FFE6
:10228000EFCFE6FFD950080FE96EDACFEAFFEECFC5
:10229000E6FFEECFE6FFEECFE6FFEFCFE6FFE6DDAF
:1022A000006E080EE15E0050100E28C0DBFF110E1C
:1022B00029C0DBFF120E2AC0DBFF130E2BC0DBFF91
:1022C000080EDBCF29F0090EDBCF2AF00A0EDBCF98
:1022D0002BF00B0EDBCF2CF0A4EC1DF02BC0AAF0E2
:1022E0000C0EDBCFAAF00D0EDBCFABF00E0EDBCF6A
:1022F000ACF00F0EDBCFADF0100EDBCFAAF0110E5D
:10230000DBCFABF0120EDBCFACF0130EDBCFADF0BA
:10231000040EDB50006E140EE15C02E2E16AE5524D
:10232000E16E0050E552E7CFD9FF12002FDFAAC0BF
:1023300028F0ABC029F0ACC02AF0ADC02BF01200E1
:10234000DCEC16F0FB0EDBCFF3FFDB06F3500009ED
:102350000AE02AEC17F0FA0E95EC17F0F3E1011CF5
:10236000F1E1010E01D0000E0BEF17F0DCEC16F0DE
:102370003B0EE12402E3E168E652E16E010EDB6A06
:10238000020EDB6AF90EDBCFF6FFFA0EDBCFF7FFAA
:10239000FB0EDBCFF8FF0800F550DF6EDF5002E1E7
:1023A0002FEF16F0250EDF5C02E022EF16F0030E91
:1023B000DB6A040EDB6A050EDB6A060EDB6A070EBB
:1023C000DB6A44EC16F02D0EDF5C0CE02B0EDF5CBC
:1023D00009E0200EDF5C06E0230EDF5C03E0300E38
:1023E000DF5C1AE1DF50300A14E0130A0FE0030A41
:1023F0000AE00B0A05E0060AE4E1030EDB80E1D700
:10240000030EDB82DED7030EDB84DBD7030EDB8615
:10241000D8D7030EDB88D5D72A0EDF5C1BE140EC52
:1024200016F08EEC16F010E0030EDB802A682B68A5
:10243000130EDBCF2FF0140EDBCF30F0BFEC1EF00D
:10244000040E28C0DBFF03D0130E77EC16F044EC2B
:1024500016F00BD0090EDB6AE5EC16F003E059EC40
:1024600017F0FAD7090E77EC16F0030EDBB0DB9805
:102470002E0EDF5C1BE144EC16F02A0EDF5C0BE154
:1024800040EC16F08EEC16F003E1130EC9EC16F0DA
:1024900044EC16F00BD0090EDB6AE5EC16F003E015
:1024A00059EC17F0FAD7090EC9EC16F0680EDF5C8C
:1024B00007E144EC16F0680EDF5C1DE1030E18D056
:1024C000740EDF5C17E07A0EDF5C14E0480EDF5C10
:1024D00006E0540EDF5C03E05A0EDF5C02E1020E00
:1024E00007D06C0EDF5C03E06A0EDF5C04E1010ED6
:1024F0001CEC17F0C9DBDF506E0A01E17FD31E0A26
:1025000001E192D1200A01E18FD13F0A01E149D1D5
:102510001A0A01E146D10D0A01E143D1200A01E185
:1025200040D13A0A01E13DD1200A01E13AD1260A1F
:1025300001E135D10D0A01E132D11A0A01E1D9D008
:10254000200A4AE0300A1FE0460A0EE0250A01E0B0
:1025500083D3D950F90FE96EFF0EDA20EA6E010E2F
:10256000EE5E000EEE5AEE5A2AEC17F0250EE66EDD
:1025700095DB03E1011C01E169D326EC17F001E2D0
:102580006BD3DB2A69D3080EDB6A040EDB5001082B
:1025900006E2040EDB04EEEC16F0DB508BDB080EDB
:1025A000DB5009E0030EDB50010B05E172DB01E0BB
:1025B0004DD3080EDB6A64DBEFCFDFFF9EEC17F034
:1025C00003E1011C01E142D326EC17F001E3DB2A11
:1025D00060DB01E141D33AD3070EDB5002080FE183
:1025E0006AEC17F0030E31EC17F00E0EEECFDBFFA6
:1025F0000F0EEECFDBFF100EEECFDBFF20D0F70E7D
:10260000DBCF03F0F80EDBCF04F0020E035E000E0A
:10261000045AF70E03C0DBFFF80E04C0DBFF03C053
:10262000E9FF04C0EAFF21EC17F0026A0E0E00C0B9
:10263000DBFF0F0E01C0DBFF100E02C0DBFF0E0E32
:10264000DBCFE6FF0F0EDBCFE6FF100EDBCFE6FFA2
:1026500031EC25F0E552E552E552130E29C0DBFFBF
:10266000140E2AC0DBFF060EDB5005E0130E65ECEE
:1026700017F001E26ADB89EC17F002E2130E37DB98
:102680004CEC17F006E0040E65EC17F002E2050EC4
:102690002EDB030EDBB005D0FCDA01E0D7D2080E4A
:1026A000DB6A090EDB6A0E0EDBCFF6FF0F0EDBCF07
:1026B000F7FF100EDBCFF8FF0800F550DF6EDF509C
:1026C00014E08FEC17F011E29EEC17F003E1011C0F
:1026D00001E1BCD2BBDB01E3DB2A090EDB2AD950C6
:1026E0000E0FE96E000ECBDBE7D7D3DA01E1B4D2EF
:1026F000ADD2C6DA110EEECFDBFF120EEDCFDBFF4F
:10270000110EDBCFE6FF120EDBCFE6FF02EC25F069
:10271000E552E552130EF3CFDBFF140EF4CFDBFFCF
:10272000060EDB5004E0130ED0DB01E20EDB89EC79
:1027300017F002E2130EDBDAAFDB05E0040EC5DBB7
:1027400002E2050ED4DA030EDBB005D0A2DA01E016
:102750007DD2080EDB6A090EDB6A110EDBCFE9FFC2
:10276000120EDBCFEAFFEFCFDFFFDF5014E0D7DB45
:1027700012E2E4DB03E1011C01E168D267DB01E363
:10278000DB2A090EDB2A110EDB2ADBCFE9FF120E52
:10279000E8E3DB2AE6D77DDA01E15ED257D2030E09
:1027A000DB8E070EDB0410E195DB040E5ADB0A0E0C
:1027B000EECFDBFF0B0EEECFDBFF0C0EEECFDBFF21
:1027C0000D0EEECFDBFF6CD0070EDB5003082CE1C3
:1027D000030EDBAE0DD0B2DA020E76DAEFCF00F0E8
:1027E000016A026A036A00AE39D00168026835D016
:1027F000F70EDBCF01F0F80EDBCF02F0020E015E28
:10280000000E025AF70E01C0DBFFF80E02C0DBFF1C
:1028100001C0E9FF02C0EAFFEFCF00F00A0E00C0DE
:10282000DBFF0B0EDB6A38D0070EDB50020809E134
:10283000030EDBAE04D059DB02AE10D00ED055DB58
:102840000DD0030EDBAE12D079DA020E3DDAF9DAE2
:10285000026A036A01AE02D002680368E2DA0C0E73
:1028600002C0DBFF0D0E03C0DBFF1AD0F70EDBCF7B
:1028700002F0F80EDBCF03F0020E025E000E035AE8
:10288000F70E02C0DBFFF80E03C0DBFF02C0E9FF5A
:1028900003C0EAFFD6DAC5DA0C0EDB6A0D0EDB6A7E
:1028A000060EDB5005E1010EF36E050EF3CFDBFFE4
:1028B000150EDB6A160EDB6AD950370F006E000E5C
:1028C000DA20016E390E00C0DBFF3A0E01C0DBFFDB
:1028D000380EDB6A080EDB6A0A0EAEDADF50780AC1
:1028E00012E0200A10E0280A0CE0200A0AE03F0A61
:1028F00006E00D0A02E0200A08E1020E05D0080EEB
:1029000003D0080EDF26100E97DA030EDBBE02D0CE
:10291000DB92DB94DB50800B24E08ADAD890030E44
:10292000EB50000A08E6000EEE5C000EEE58000EBA
:10293000EE58000EEE5815E213DA2D682E682F6857
:10294000306847EC29F00A0E24C0DBFF0B0E25C0CF
:10295000DBFF0C0E26C0DBFF0D0E27C0DBFF2D0EAC
:1029600008D0030EDBA202D02B0E03D0DBA408D0CC
:10297000200EF36E170EF3CFDBFF150EDB2A02D00D
:10298000170EDB6A050EDB5003E1B7D901E189D0F0
:10299000C40E006E560E016E000E026E070EDBCFE7
:1029A00003F0046A056A066A03C02DF004C02EF025
:1029B00005C02FF006C030F0D3D9E3EC29F0005069
:1029C0002424F36E01502520F46E02502620F86E68
:1029D000F4CFF7FFF3CFF6FF0800090EF5CFDBFFCA
:1029E000580EDF5C0FE1610EF36E090E7BD90AE32E
:1029F000200E006E090EDBCFE7FF0050E75E090EE8
:102A0000E7CFDBFF070EDBCF00F0016A026A036A43
:102A10000FDA00C02DF001C02EF002C02FF003C06D
:102A200030F0EECF28F0EECF29F0EECF2AF0EFCF46
:102A30002BF0E3EC29F02BC0EDFF2AC0EDFF29C0FD
:102A4000EDFF28C0EFFF390EDBCFE9FFDB063A0EC2
:102A5000DBCFEAFF01E2DB06090EDBCFEFFF150E4D
:102A6000DB2A4BD995E1030EDBA61DD06F0EDF5C90
:102A700006E1C1D918E3150EDB285BDA14D0780E15
:102A8000DF5C09E0580EDF5C06E0620EDF5C03E00D
:102A9000420EDF5C08E1020EF36E160EF3CFDBFF91
:102AA00002D0150EDB6A030EDB50100B0EE0040E95
:102AB000DBCF00F0050EDB50D880005406E2060E96
:102AC000DB5003E1040EDB5034DA95D90AE2050E3F
:102AD000DBCFE7FF150EDB50E75E050EE7CFDBFF30
:102AE00002D0050EDB6A040EDBCF00F0160E45D9CE
:102AF000D880005414E2160EDBCFE6FF150EDBCFB4
:102B0000E6FF040EDBCFE6FF050EDB50E552E75C87
:102B1000E552D880E754E552D880E7545FD9030ED8
:102B2000DB50010B0BE1080EDB5008E0B2D801E0EE
:102B30008DD0080EDB50BED8080EDB6A170EDB50B6
:102B400007E088D9170EF1D903E1011C01E17ED01D
:102B5000160EDB5016E07ED9300EE66E9FD802E1ED
:102B6000011C74E077D9DFCFE6FF05EC29F0E552D0
:102B7000E552E552F4CF01F00001F31C02E1011C23
:102B800065E0050EDBCF00F0160EDB50D880005458
:102B900009E2050EDBCFE7FF160EDB50E75E050E00
:102BA000E7CFDBFF300EE66E050ECBD94FE1390ED5
:102BB000DB2ADBCFE9FF3A0E01E3DB2ADBCFEAFFBA
:102BC000090EEFCFDBFFDB500EE044D9090EADD983
:102BD00002E1011C3BE0390EDB2ADBCFE9FF3A0EB4
:102BE000EDE3DB2AEBD755D831E1160EDBCFE6FF5C
:102BF000080EC3D8E552E7245DD82ED0070EDB506F
:102C0000030A1CE0010A14E0030A07E07BD9DBCFCA
:102C1000EEFF020EDBCFEDFF1FD0F5D8056A03AE45
:102C200002D0046805682CD8BCD805C0EEFF14D0CB
:102C3000EAD803BE046824D8B4D80ED063D9DBCF59
:102C4000EFFF0AD07BD905E1011C03E1F368F468CA
:102C500010D0FCD801E3DB2A79D9CBEF11F0010EBB
:102C6000DBCF00F0020EDBCF01F000C0F3FF01C0AC
:102C7000F4FF3B0EE15C02E2E16AE552E16ECBD08B
:102C800029D9020E31EF17F061D90800F550DF6E37
:102C90001200200EE66E080EA1EF17F005EC29F0E9
:102CA000E552E552E552F3CF00F0F4CF01F0000118
:102CB000F31C1200006E016AD950010F4DD900506B
:102CC000EE260150ED221200045E000E055AF70EAA
:102CD00004C0DBFFF80E05C0DBFF04C0E9FF05C040
:102CE000EAFF1200DBCFF4FFF350F45C1200DB507C
:102CF000E76E040EE7CFDBFF12000A0EDBCF00F019
:102D00000B0EDBCF01F00C0EDBCF02F00D0EDBCF94
:102D100003F000500110021003101200130EEECF4A
:102D2000DBFF140EEDCFDBFF130EDBCF00F0140E34
:102D3000DBCF01F00001800E01141200F70EDBCF93
:102D400004F0F80EDBCF05F01200050EDB50E66E46
:102D5000D950130F01D9E552E750EE6EED6A12001B
:102D60000A0EDBCF28F00B0EDBCF29F00C0EDBCFE9
:102D70002AF00D0EDBCF2BF01200DBCFE6FF150E95
:102D8000DBCFE6FF050EDB50E552E724E552E724F2
:102D90001200DB50CED8010EF36E060EF3CFDBFF30
:102DA0001200EE50EFCFEAFFE96E02C0EEFF03C063
:102DB000EEFF04C0EEFF1200D9CFE6FFDACFE6FF48
:102DC000E1CFD9FFE2CFDAFF1200DFCFE6FFE66AFC
:102DD000FBEC2AF0E552E552F3501200E76E080EC4
:102DE000E7CFDBFF1200EECF00F0EECF01F0EFCF28
:102DF00002F0036A1200050EDBCF00F0150EDB5067
:102E0000D88000541200010EDBCF02F0020EDBCF9F
:102E100003F0046A1200E552E5CFDAFFE7CFD9FFED
:102E200012000A0E00C0DBFF0B0E01C0DBFF120018
:102E3000D9500A0FACEF17F0F36E070EF3CFDBFF9C
:102E40001200EECF00F0EFCF01F01200010EDB2AEE
:102E5000020E1200FC0EDBCFE6FFFD0EDBCFE6FF1D
:102E60001200005E000E015AF70E00C0DBFFF80EE4
:102E700001C0DBFF00C0E9FF01C0EAFF1200DA2059
:102E8000EA6EEF2AEECFF6FF000EEF22EECFF7FF4D
:102E9000EF22EECFF8FF1200040EDBCFE6FF130E99
:102EA000DB50E552E75C9ADFDB5004DF060EDB50B7
:102EB0001200090EDB500A0DF350DF24D00FE76E2D
:102EC000090EE7CFDBFF44EF16F0DB50F36E050E83
:102ED00072EF16F0F70EDBCF00F0F80EDBCF01F04B
:102EE0001200DFCFE6FF4EEF16F028DF030EECDE18
:102EF000F3EF16F0A0EC11F0E552E552E552E55281
:102F000000091200BDDEEE50EFCFEAFFE96E010EC0
:102F10001200130EDB50F36E040E72EF16F0040E67
:102F2000DB50F36E090E72EF16F0DBCFE6FF4EEFCB
:102F300016F0E76E050EE7CFDBFF12008BDF71EFB7
:102F400017F0DBCFE6FF86DF7AEF17F0D950F90FE5
:102F5000E96EFF0E3FEF17F0E96E000EDA20EA6E21
:022F600012005D
:0E2F620080909290300EE66E49EC2BF0E55216
:102F70009280080EE66E49EC2BF0E55280B0010C11
:102F8000200EE66E49EC2BF0E552000CD9CFE6FF9F
:102F9000E1CFD9FF80909290010EE66E57EC2BF0B6
:102FA000E552FE0EDB5005E1300EE66E57EC2BF0DD
:102FB000E5529280080EE66E57EC2BF0E552FE0EBD
:102FC000DB0405E1300EE66E57EC2BF0E552E552DE
:102FD000E7CFD9FF1200D9CFE6FFE1CFD9FFE65204
:102FE000DF6A80909290010EE66E57EC2BF0E5526E
:102FF0009280080EE66E57EC2BF0E5528050010BE4
:10300000DF6E280EE66E57EC2BF0E552DF50E552EE
:10301000E552E7CFD9FF1200D9CFE6FFE1CFD9FFC4
:10302000E652DF6ADFCF00F0080EE76E0018E8AE68
:1030300002D0E73402D0E750005C12E2FE0EDBA0C3
:1030400003D0010EE66E01D0E66AA0DFE552FE0E67
:10305000DB407F0BE76EFE0EE7CFDBFFDF2AE2D718
:10306000E552E552E7CFD9FF1200D9CFE6FFE1CF15
:10307000D9FF030EE126DF6A010EDB6A020EDB6A6E
:10308000DFCF00F0080EE76E0018E8AE02D0E7349C
:1030900002D0E750005C13E29EDFE76E020EE7CF3E
:1030A000DBFF010EDB407F0BE76E010EE7CFDBFF9E
:1030B000020EDB5002E0010EDB8EDF2AE1D7010EAB
:1030C000DBCFE6FF12D8E552010EDB50006E030E97
:1030D000E15C02E2E16AE552E16E0050E552E7CFC1
:1030E000D9FF12000001CF6B1200D9CFE6FFE1CF6C
:1030F000D9FFE652FE0EDB500001CF19DF6E060E3F
:10310000006E4E0E016E000E026EDFCF03F0046AF9
:10311000056A00500324F36E01500420F46E02503F
:103120000520F86EF4CFF7FFF3CFF6FF0800F5CFD8
:10313000CFF0E552E552E7CFD9FF12000001D051A0
:103140001200D9CFE6FFE1CFD9FFFE0EDBCFD0F0E2
:10315000E552E7CFD9FF1200D9CFE6FFE1CFD9FF83
:10316000E652DF6ABE0EE66E57DFE552BBDFDFCF09
:1031700000F0090EE76E0018E8AE02D0E73402D086
:10318000E750005C10E271DFE66EDFCFE9FFEA6A2C
:10319000E9BEEA68600EE926000EEA22E552E75031
:1031A000EF6EDF2AE4D70001CF51E552E552E7CFB9
:1031B000D9FF12005ADF000901E1010C000CD1DE39
:1031C000CC0EE66E29DFE5520A0EE66E0DEC2BF012
:1031D000E552440EE66E20DFE5521200D9CFE6FF3D
:1031E000E1CFD9FFE652DF6AE5DF00090BE01F0EF1
:1031F000E66E0DEC2BF0E552DF2AFF0EDF5CF4E10A
:10320000010E01D0000EE552E552E7CFD9FF1200C2
:10321000D9CFE6FFE1CFD9FF070EE126020EDB6A28
:10322000030EDB6A040EDB6A050EDB680001726BBD
:1032300098DE00096FE1F00EE66EEEDEE552040E58
:10324000DB6ADBCF00F0080EE76E0018E8AE02D0B4
:10325000E73402D0E750005C01E382D0060EDB6A5F
:10326000030EDB6ADBCF00F0080EE76E0018E8AE55
:1032700002D0E73402D0E750005C62E2ACDEDF6EE1
:10328000AADEE76E010EE7CFDBFFDF503EE1010E65
:10329000DB503BE1020EDB50E76E050EE7CFDBFFB4
:1032A000DBCF00F000017151E76E0018E8AE02D0EC
:1032B000E73402D0E750005C1AE2040EDBCFE9FFEE
:1032C000EA6AE9BEEA68690EE926000EEA22EF50D2
:1032D0000CE0010EF36E030EDB5004E0D890F336E1
:1032E000E806FCE1F350000906E1DF6A15D0050E9F
:1032F000DB50715D03E1010EDF6E0ED0DF6A050E5B
:10330000DBCF71F0010E726F07D0DF5005E0010EC8
:10331000DB5002E0010E4AD0060EDB407F0BE76E69
:10332000060EE7CFDBFFDF5002E0060EDB8EDFCFBD
:10333000E6FF2CDEE552020EDB2A030EDB2A92D7D3
:10334000040EDBCFE9FFEA6AE9BEEA68690EE92606
:10335000000EEA22060EDBCFEFFF040EDB2A71D748
:10336000C1DE040EDB6ADBCF00F0080EE76E00184A
:10337000E8AE02D0E73402D0E750005C11E2040E60
:10338000DBCFE9FFEA6AE9BEEA68690EE926000ECA
:10339000EA22EF50E66EA9DEE552040EDB2AE3D7FF
:1033A0000001CF5102E0CF5101D0000E006E070E98
:1033B000E15C02E2E16AE552E16E0050E552E7CFDE
:1033C000D9FF1200D9CFE6FFE1CFD9FF030EE126E6
:1033D000010EDB6AE66AB5DEE55200017169010E95
:1033E000726FBFDD000902E0010E55D0000172517D
:1033F0004CE00EDFDF6EDF5002E0DF504CD0020EFB
:10340000DB6ADBCF00F0080EE76E0018E8AE02D0F2
:10341000E73402D0E750005C35E2020EDBCFE9FF73
:10342000EA6AE9BEEA68690EE926000EEA22EF5070
:10343000E66E010EDBCFE9FFEA6AE9BEEA680B0E31
:10344000EA02F3CFEAFFE902F3CFE9FFF450EA26FC
:10345000730EE926000EEA22E9CF00F0EACF01F070
:10346000020EDBCF02F0036A02BE036800500224A2
:10347000E96E01500320EA6EE552E750EF6E020E4E
:10348000DB2ABFD7010EDB2AB1D7010EDBCFE6FF67
:1034900058DEE552000E006E030EE15C02E2E16AC6
:1034A000E552E16E0050E552E7CFD9FF1200D9CFC7
:1034B000E6FFE1CFD9FF040EE126FE0EDBCF00F0E0
:1034C00000C0E6FF3BDEE552E7CF00F0D8800054B5
:1034D00002E2010E8BD0FE0EDB500B0DF3CFE9FFA5
:1034E000F4CFEAFF730EE926000EEA220A0EE9265F
:1034F000000EEA22EF6A35DD550EE66E8DDDE552EF
:10350000DF6A080EDF5C1FE2FE0EDB500B0DF3CF0F
:10351000E9FFF4CFEAFF730EE926000EEA22E9CFB5
:1035200000F0EACF01F0DF500F01E924E96E000E50
:10353000EA20EA6E010EEFCFDBFFDBCFE6FF6CDDAA
:10354000E552DF2ADED708DE000902E0020E4ED087
:1035500000016151E66ED950020FE96EDACFEAFF41
:10356000E552E750EE6EED6A020EDBCF00F0030E7F
:10357000DBCF01F000C001F0006A020E00C0DBFFEB
:10358000030E01C0DBFF6051006E016AD950020FCB
:10359000E96EDACFEAFF0050EE260150ED22FE0E72
:1035A000DB500B0DF3CFE9FFF4CFEAFF730EE926F2
:1035B000000EEA22080EE926000EEA22020EDBCFF8
:1035C000EEFF030EDBCFEDFFFE0EDB500B0DF3CF56
:1035D000E9FFF4CFEAFF730EE926000EEA220A0E95
:1035E000E926000EEA22010EEF6E000E006E040EB8
:1035F000E15C02E2E16AE552E16E0050E552E7CF9C
:10360000D9FF1200D9CFE6FFE1CFD9FF150EE12691
:10361000130EDB6AD4DDE2DD00091AE1130EDBCF05
:1036200000F000C0E6FF8ADDE552E7CF00F0E76E6C
:103630000018E8AE02D0E73402D0E750005C08E2A0
:10364000130EDBCFE6FF33DFE552130EDB2AE6D79E
:10365000150EE15C02E2E16AE552E16EE552E7CF68
:10366000D9FF1200E2EF19F0D9CFE6FFE1CFD9FF81
:10367000FE0EDBCF00F000C0E6FF60DDE552E7CFD5
:1036800000F0D880005402E2FE0EDB6AFE0EDB5032
:103690000B0DF3CFE9FFF4CFEAFF730EE926000E1E
:1036A000EA22EECF00F0EECF01F0EECF02F0EECF47
:1036B00003F0EECF04F0EECF05F0EECF06F0EECF44
:1036C00007F0EECF08F0EECF09F0EFCF0AF0D9CF38
:1036D000E9FFDACFEAFFED50ED500AC0EDFF09C077
:1036E000EDFF08C0EDFF07C0EDFF06C0EDFF05C010
:1036F000EDFF04C0EDFF03C0EDFF02C0EDFF01C010
:10370000EDFF00C0EFFFE552E7CFD9FF1200D9CFA0
:10371000E6FFE1CFD9FFFE0EDBCF00F000C0E6FFF1
:103720000DDDE552E7CF00F0D880005402E2FE0E36
:10373000DB6AFE0EDB500B0DF3CFE9FFF4CFEAFF9F
:10374000730EE926000EEA22080EE926000EEA2290
:10375000EECF00F0EFCF01F000C0F3FF01C0F4FFA7
:10376000E552E7CFD9FF1200D9CFE6FFE1CFD9FF6D
:10377000E652DF6ADFCF00F0080EE76E0018E8AE11
:1037800002D0E73402D0E750005C2BE2FE0EDB50A3
:103790000B0DF3CFE9FFF4CFEAFF730EE926000E1D
:1037A000EA22E9CF00F0EACF01F0DFCF02F0036AAE
:1037B00002BE036800500224E96E01500320EA6E45
:1037C000EF50E66EE66AE10EE66E420EE66E000E21
:1037D000E66E28EC28F0046E050EE15E0450DF2A48
:1037E000C9D7FE0EDB500B0DF3CFE9FFF4CFEAFF94
:1037F000730EE926000EEA220A0EE926000EEA22DE
:10380000EF50E66EE66AFE0EDB500B0DF3CFE9FFDC
:10381000F4CFEAFF730EE926000EEA22080EE9262D
:10382000000EEA22EECFE6FFEFCFE6FFD20EE66E05
:10383000420EE66E000EE66E28EC28F0006E070ED3
:0E384000E15E0050E552E552E7CFD9FF1200DD
:02384E00339EA7
:1038500005D0339E2BAE02D02B6C338E2BC025F0BF
:10386000246A376A366A860E266E276A55EF1EF07E
:10387000339E08D0339E2BAE05D02A6C2B1EE86AEF
:103880002B22338E2BC025F02AC024F0376A366AEB
:103890008E0E266E276A55EF1EF0317E336A91EC4C
:1038A0001EF0A9EC1EF033B639EF1EF033A20AD099
:1038B00033AA03D033BE39EF1EF033A445EF1EF018
:1038C00042EF1EF033AA05D033AC45EF1EF042EFB5
:1038D0001EF033A00AD033A808D033BE04D033A4DE
:1038E00002D04EEF1EF052EF1EF0366A276A3150BA
:1038F0002C5C356E10E329C037F02AC024F02BC0B1
:1039000025F02CC034F02EC029F02FC02AF030C092
:103910002BF0333A09D02EC037F02FC024F030C03E
:1039200025F031C034F0356C339E33BC338E34C057
:1039300026F033B081EF1EF01A0E356081EF1EF0D5
:10394000266A2C6A33A408D0296C2A1E2B1E2C1E32
:10395000E86A2A222B222C2233AC08D0376C241E92
:10396000251E261EE86A242225222622286A355290
:1039700007E02C342B322A3229322832352EF9D75F
:10398000295037262A5024222B5025222C5026221B
:1039900028C036F0339E26AE0BD0366C371E241E60
:1039A000251E261EE86A3722242225222622338E4F
:1039B00026A006D0D8802532243237323632342A37
:1039C00034C026F055EF1EF0336A91EC1EF0A9ECDE
:1039D0001EF033B639EF1EF033A205D033BA39EFFB
:1039E0001EF040EF1EF033BA4CEF1EF033A005D0AE
:1039F00033B839EF1EF04CEF1EF033B840EF1EF035
:103A0000276A7F0E2C24266EE86A27223150265E14
:103A1000E86A275A1A0E346E2C6A366A376A246AA4
:103A2000256A2E50295E2F502A5A30502B5A000EEC
:103A30002C5A09E72E5029262F502A2230502B22AB
:103A4000000E2C2201D0368AD89029362A362B3601
:103A50002C36D8903636373624362536342EE1D7F4
:103A60002B502A102910D8A4368A55EF1EF0336A3D
:103A700091EC1EF0A9EC1EF033B639EF1EF033A224
:103A800005D033B839EF1EF040EF1EF033AA05D051
:103A900033B039EF1EF040EF1EF033B002D033A840
:103AA00002D04CEF1EF0276A31502C24266EE86AB3
:103AB00027227E0E265EE86A275A366A376A246A0B
:103AC000256A30502B02F4CF25F0F3CF24F02F508D
:103AD0002B02F3503726F4502422000E25223050BA
:103AE0002A02F3503726F4502422000E25222E50AD
:103AF0002B02F3503626F4503722000E24222522C2
:103B00002F502A02F3503626F4503722000E24227A
:103B1000252230502902F3503626F4503722000E69
:103B2000242225222E502A02F4503626000E372257
:103B3000242225222F502902F4503626000E372247
:103B40002422252255EF1EF0336A91EC1EF033B685
:103B5000AEEF1DF033A20AD033B403D07F0E2B6E2C
:103B600019D0800E2B6E16D02B6A14D033B0FCD730
:103B7000870E2C60F1D77E0E2C64F6D7860E2C5C57
:103B800004E0D8902B322C2AF9D733A403D02B6C25
:103B90002BAEEAD71200E4EC1DF033B6000C33B0C4
:103BA000010C000CE4EC1DF033B6000C33B0000C3B
:103BB00033B4000C010CE4EC1DF033B6000C33B050
:103BC000000C33A4000C010C336A91EC1EF0A9EC3C
:103BD0001EF033B6120033AE08D033A004D033A8A1
:103BE00002D0338012003390120031502C5C0BE174
:103BF00030502B5C08E12F502A5C05E12E50295CE7
:103C000002E133801200D8A002D0338E10D02C50A5
:103C100031C02CF0316E2B5030C02BF0306E2A505A
:103C20002FC02AF02F6E29502EC029F02E6E315051
:103C30002C5C10E0FF0F09E0339033B403D033AEB7
:103C40003384120033AE33941200312AD8903032CC
:103C50002F322E322E50295E2F502A5A30502B5A96
:103C60002BBEEAD7D89029362A362B362C2EF8D7F9
:103C7000C8D77F0E2C6EFF0E2B6E2A6E296E120097
:103C80007F0E33BEFF0E2C6E02D07F0E2C6E800E88
:103C90002B6E2A6A296AF3D733AE04D0800E2C6EBD
:103CA0002B6AF7D72C6A2B6AF4D7255024103710CB
:103CB0003610F8E027BEF0D725BE0CD026502710CE
:103CC000EBE0D89036363736243625362606D8A08F
:103CD0002706F2D72750D4E12628D2E036AE11D0FD
:103CE0007F0E361402E137A00CD0372AE86A24226E
:103CF000252207E3D880253224323732262A262887
:103D0000BFE02650C9E037C029F024C02AF025348E
:103D10002B6E26302C6E2B322C9E33BE2C8E3FEF1A
:103D20001EF02B362C3602E33384337E06E13380DB
:103D30002C6A2B6A2A6A296A12002C2803E0D88090
:103D40002B321200D8902B3202E1338212003386DC
:103D500012003036313602E3338C337E06E133888D
:103D6000316A306A2F6A2E6A1200312803E0D88047
:103D700030321200D8903032EAE1338A12002BC080
:103D800037F02AC036F02A502F02F4CF29F0F3CFB3
:103D900028F02B503002F4CF2BF0F3CF2AF02F0273
:103DA000F3502926F4502A22E86A2B22365030029A
:103DB000F3502926F4502A22E86A2B2230AEE5EF90
:103DC0001EF036502A5E37502B5A37AE000C2F505B
:083DD0002A5E30502B5A000C52
:083DD800D9CFE6FFDACFE6FFC8
:103DE000E1CFD9FFE2CFDAFF260EE12402E3E1685A
:103DF000E652E16ED950050FE1D9E8EC25F0006EEE
:103E0000060EE15C02E2E16AE552E16E0050DF6E0F
:103E1000800EDF5C05E00B0EDB5012E0DF0410E0EB
:103E2000210E0001CB6FCC6B010EDB68020EDB684C
:103E3000030EDB687F0EF36E040EF3CFDBFF8FD132
:103E4000040EDF5C0EE13EDA010EEECFDBFF020E68
:103E5000EECFDBFF030EEECFDBFF040EEECFDBFF7A
:103E60007ED1DF0410E1210E0001CB6FCC6B010E7F
:103E7000DB6A020EDB6A800EF36E030EF3CFDBFF0C
:103E8000040EDB686CD1D9500C0F98D956EC25F094
:103E9000006E060EE15C02E2E16AE552E16E00505E
:103EA000FA0E28C0DBFFFB0E29C0DBFFFC0E2AC088
:103EB000DBFFFD0E2BC0DBFFA6D9F30E2E6E040E2A
:103EC0002F6E350E306E3F0E87D9D2EC1DF0010AF1
:103ED00009E1B3D984D94DEC1CF067D9EDD984D967
:103EE000ACD916D00C0EDB060D0E01E2DB068BD929
:103EF0002E6A2F6A306A3F0E6FD976D9160EDBCF45
:103F000004F0170EDBCF05F0180EDBCF06F0190E0C
:103F100066D937EC1DF049D9CFD94EEC1CF01A0EFA
:103F200029C0DBFF1B0E2AC0DBFF1C0E2BC0DBFFF2
:103F30001D0E2CC0DBFF160EDBCF29F0170EDBCFDA
:103F40002AF0180EDBCF2BF0190EDBCF2CF01A0E57
:103F5000DBCF2EF01B0EDBCF2FF01C0EDBCF30F0B3
:103F60001D0EDBCF31F0E4EC1CF01FD9120E29C07E
:103F7000DBFF130E2AC0DBFF140E2BC0DBFF150E78
:103F80002CC0DBFF4DD9120EDBCF2EF0130EDBCF92
:103F90002FF0140EDBCF30F0150E62D90E0E29C0B3
:103FA000DBFF0F0E2AC0DBFF100E2BC0DBFF110E54
:103FB0002CC0DBFF3D0EF36E1E0EF3CFDBFF7E0E3B
:103FC000F36E1F0EF3CFDBFF0D0EF36E200EF3CF5B
:103FD000DBFFBF0EF36E210EF3CFDBFF0E0EDBCF48
:103FE00000F00F0EDBCF01F0100EDBCF02F0110E50
:103FF000DBCF03F03A0E2E6E3F0E2F6ED40E306ED6
:10400000C00EEAD84EEC1CF0220E29C0DBFF230EB6
:104010002AC0DBFF240E2BC0DBFF250E2CC0DBFFEC
:104020000E0EDBCF29F00F0EDBCF2AF0100EDBCF08
:104030002BF0110EDBCF2CF01E0EDBCF2EF01F0E5F
:10404000DBCF2FF0200EDBCF30F0210E09D9220E6E
:10405000DBCF2EF0230EDBCF2FF0240EDBCF30F0A2
:10406000250EDBCF31F0E4EC1CF007D9120EDBCFCC
:1040700000F0130EDBCF01F0140EDBCF02F0150EB3
:10408000DBCF03F0CDD8010EDBCF2EF0020EDBCF5D
:104090002FF0030EDBCF30F0040EE2D829C004F07D
:1040A0002AC005F02BC006F02CC007F078D8046AAF
:1040B000800E056E310E066E3F0E076EC9D829C000
:1040C00008F02AC009F02BC00AF02CC00BF0CCD8A5
:1040D000E1D837EC1DF069D8830E146E800E156E92
:1040E0005E0E166EB90E176EB3D829C018F02AC02E
:1040F00019F02BC01AF02CC01BF0B6D814C029F050
:1041000015C02AF016C02BF017C02CF037EC1DF0AC
:1041100029C010F02AC011F02BC012F02CC013F0EF
:10412000010EDBCF1CF0020EDBCF1DF0030EDBCF48
:104130001EF0040EDBCF1FF01CC02EF01DC02FF0B0
:104140001EC030F01FC031F04EEC1CF029C00CF046
:104150002AC00DF02BC00EF02CC00FF020D8010E9D
:10416000DBCF00F0020EDBCF01F0030EDBCF02F05D
:10417000040EDBCF03F000C028F001C029F002C01C
:104180002AF003C02BF0260EE15C02E2E16AE55260
:10419000E16EE552E5CFDAFFE7CFD9FF120064D830
:1041A00082D84EEC1CF03DEF21F029C000F02AC06F
:1041B00001F02BC002F02CC003F01200E66E000EDE
:1041C000DA20E66E7FD8EECFE6FFEECFE6FFEECF49
:1041D000E6FFEFCFE6FF1200316E53EF21F0DBCFA9
:1041E00007F06AD84AEF21F04DEC1CF0160E29C0FA
:1041F000DBFF170E2AC0DBFF180E2BC0DBFF190EEA
:104200002CC0DBFF1200FA0EDBCF00F0FB0EDBCF81
:1042100001F0FC0EDBCF02F0FD0EDBCF03F012004D
:10422000120EDBCF29F0130EDBCF2AF0140EDBCFFA
:104230002BF0150EDBCF2CF01200FA0EDBCF04F0C2
:10424000FB0EDBCF05F0FC0EDBCF06F0FD0E1200FF
:104250000C0EDBCF2AF00D0EDBCF2BF03AEF1CF06B
:10426000DBCF31F037EF1DF029C02EF02AC02FF040
:104270002BC030F02CC031F01200010E29C0DBFF42
:10428000020E2AC0DBFF030E2BC0DBFF040E2CC086
:10429000DBFF120004C029F005C02AF006C02BF095
:1042A00007C02CF0120000C029F001C02AF002C0A3
:1042B0002BF003C02CF012002E6A2F6A306A3F0EDA
:1042C000316E1200D950FA0FE96EFF0EDA20EA6E55
:0242D0001200DA
:0E42D200202D2025303458202D2025580D0A8F
:1042E0000025303258004572726F723A20696E763E
:1042F000616C69642073656E736F72006E657763BD
:104300006F6E663D0063757272656E743D00747900
:1043100070653D7661726961626C65006D6F6465A0
:104320003D666C6F6F64006465766963653D7077A8
:104330006D6F7574006465766963653D656C656372
:10434000006465766963653D7761746572006465D4
:10435000766963653D67617300636F6D6D616E645F
:104360003D63757272656E7400636F6D6D616E642E
:104370003D72657175657374007D00636F6E747254
:104380006F6C2E626173696300636F6E6669672E7E
:1043900063757272656E740068626561742E726511
:1043A00071756573740073656E736F722E726571CB
:1043B0007565737400636F6E6669672E72657370DE
:1043C0006F6E736500636F6E6669672E6C697374D8
:1043D000007461726765743D686F6C6C69652D75FA
:1043E00074696C6D6F6E2E007461726765743D2A1E
:1043F0000078706C2D636D6E640078706C5F68611E
:104400006E646C65723A64656661756C74202D200B
:104410007374617465202564202D2057452053480E
:104420004F554C44204E4556455220424520484564
:104430005245200052584F006E6F6465636F6E6680
:104440003D25690A0064656661756C7400656C657C
:1044500063007761746572006761730073656E73E2
:104460006F722E62617369630A7B0A6465766963A1
:10447000653D7368745F646577706F696E740A0078
:10448000747970653D68756D69646974790A6375DE
:104490007272656E743D25690A7D0A0073656E73DC
:1044A0006F722E62617369630A7B0A646576696361
:1044B000653D7368745F68756D69646974790A0035
:1044C000747970653D74656D700A63757272656E9E
:1044D000743D25692E25690A7D0A0073656E736F28
:1044E000722E62617369630A7B0A6465766963652B
:1044F0003D7368745F74656D700A00747970653D12
:104500007661726961626C650A63757272656E7458
:104510003D25690A7D0A0073656E736F722E6261B4
:104520007369630A7B0A6465766963653D70776DBC
:104530006F75740A000A747970653D74656D700A50
:1045400063757272656E743D25692E25690A7D0A50
:104550000025303258000A747970653D636F756EBE
:10456000740A63757272656E743D25750A7D0A0062
:1045700073656E736F722E62617369630A7B0A647E
:1045800065766963653D00636F6E6669672E637566
:104590007272656E740A7B0A6E6577636F6E663D34
:1045A00025730A7D0A00636F6E6669672E6C6973F6
:1045B000740A7B0A7265636F6E663D6E6577636F22
:1045C0006E660A7D0A00636F6E6669672E656E64AB
:1045D0000A7B0A696E74657276616C3D310A7D0AE8
:1045E00000636F6E6669672E62617369630A7B0A96
:1045F000696E74657276616C3D310A7665727369B5
:104600006F6E3D25692E25690A7D0A007D0A0070BE
:10461000776D6F75743D25690A0068756D697365FE
:104620006E736F723D310A0074656D7073656E73E1
:104630006F72733D25690A0068626561742E62615C
:104640007369630A7B0A696E74657276616C3D35C5
:104650000A76657273696F6E3D25692E25690A00B9
:104660002E25730A7461726765743D2A0A7D0A00FB
:104670007574696C6D6F6E000A7B0A686F703D31EE
:104680000A736F757263653D686F6C6C69652D00A8
:104690007472696700737461740078706C2D0052D5
:1046A00065616420666F72206D6F646520256420EB
:1046B000726573756C74656420696E20253032589C
:0546C000253032580016
:0A46C600410EE66EE66A8EEC29F064
:1046D000E552E552460EE66E010EE66E8EEC29F0CE
:1046E000E552E552E66A020EE66E8EEC29F0E552DE
:1046F000E55205D8ABEC05F038EC06F0FDD7D9CF84
:10470000E6FFE1CFD9FFE652DF6AD388D38AD38CA4
:104710009B8C0F0EC16EEF0E926E070E936EDE0E27
:10472000946E330EE66EE66A7C0EE66EC0EC28F000
:10473000E552E552E552DF50DF2A006E050EE76EC6
:104740000018E8AE02D0E73402D0E750005C0DE27A
:10475000320EE66ECEEC2AF0E5528098320EE66E0E
:10476000CEEC2AF0E5528088E6D7970EE66E7FEC15
:104770002AF0E552EE0EE66E850EE66E63EC2AF048
:10478000E552E552F50EE66E07EC2AF0E552E00E32
:10479000E66EB10EE66E47EC2AF0E552E552F19E68
:1047A000F19CF19AF198F292F288F090F086F092F2
:1047B000F088F28CF28EE552E552E7CFD9FF120075
:1047C000DACFE4FFE2CFDAFFE9CFE4FFEACFE4FF9C
:1047D000F6CFE4FFF7CFE4FFF8CFE4FFF5CFE4FF37
:1047E000F3CFE4FFF4CFE4FFFACFE4FFFBCFE4FF25
:1047F00000EE24F0140EE80403E3EECFE4FFFBD751
:1048000000EE00F0240EE80403E3EECFE4FFFBD754
:10481000E6529EAA08D028EC2AF0E66E28EC00F0BA
:10482000E5529E9A5FD0F2A205D00001020EC86F39
:10483000F2920DD0F0A005D00001020EC96FF090E9
:1048400006D0F0A206D00001020ECA6FF092809846
:1048500049D0F2A40FD0EE0EE66E850EE66E63EC44
:104860002AF0E552E552F2940001C42B000EC52354
:10487000C62BC72B9EA036D0E00EE66EB10EE66EBC
:1048800047EC2AF0E552E5529E900001C8510CE039
:10489000C8078088C85108E18150010B05E1020E6C
:1048A000E66EA9EC0AF0E5520001C9510CE0C90717
:1048B0008088C95108E18150020B05E1010EE66EC6
:1048C000A9EC0AF0E5520001CA510CE0CA07808841
:1048D000CA5108E18150040B05E1040EE66EA9EC13
:1048E0000AF0E552E55200EE23F0240EE80403E35B
:1048F000E5CFEDFFFBD700EE37F0140EE80403E33D
:10490000E5CFEDFFFBD7E5CFFBFFE5CFFAFFE5CF26
:10491000F4FFE5CFF3FFE5CFF5FFE5CFF8FFE5CFF7
:10492000F7FFE5CFF6FFE5CFEAFFE5CFE9FFE5CFFB
:10493000DAFF1100D8CFE4FFE0CFE4FFE46EDACF76
:10494000E4FFE652E552E5CFDAFFE550E5CFE0FFC0
:06495000E5CFD8FF1000C6
:0A495600D9CFE6FFDACFE6FFFA0E34
:10496000E3CFD9FFFB0EE3CFDAFFFC0EE3CFE9FF85
:10497000FD0EE3CFEAFFDE50EF5C02E1EE66FBD70F
:10498000F36EFF0EE3CFDAFFE552FF0EE3CFD9FF60
:10499000E552F3501200FD0EE3CFF6FFFE0EE3CF1B
:1049A000F7FFFF0EE3CFF8FFFB0EE3CFE9FFFC0EAE
:1049B000E3CFEAFFEE500900F55C02E1F566FAD7B5
:1049C0001200D9CFE6FFDACFE6FFFA0EE3CFD9FF28
:1049D000FB0EE3CFDAFFFC0EE3CFE9FFFD0EE3CFE2
:1049E000EAFFE9CFF3FFEACFF4FFDECFEFFFEE6699
:1049F000FCD7FF0EE3CFDAFFE552FF0EE3CFD9FF7E
:104A0000E5521200FE0EE3CFE9FFFF0EE3CFEAFF0F
:104A1000F36AF46AEE5203E0F34AF42AFBD7120079
:104A2000FD0EE3CFF6FFFE0EE3CFF7FFFF0EE3CF61
:104A3000F8FFFB0EE3CFE9FFFC0EE3CFEAFFF90E30
:104A4000E35003E1FA0EE3500BE0F90EE30602E255
:104A5000FA0EE306EE500900F55C02E1F566EFD7C9
:104A60001200FF0EE3CFF8FFE552FF0EE3CFF7FF92
:104A7000E552FF0EE3CFF6FFE552E66AE66AE66A24
:104A80000900F55209E0FD0EE32A05E1FE0EE32AD6
:104A900002E1FF0EE32AF4D7FD0EE3CF29F0FE0E6C
:0C4AA000E3CF2AF0FF0EE3CF2BF0120052
:044AAC00D9CFE6FF79
:104AB000DACFE6FFE1CFD9FFE2CFDAFF0C0EE12437
:104AC00002E3E168E652E16ED950FA0FE96EFF0E9B
:104AD000DA20EA6E010EEECFDBFF020EEECFDBFF37
:104AE000030EEECFDBFF040EEECFDBFF63D8D95011
:104AF000010FE96E000EDA20EA6EEECFE6FFEECF90
:104B0000E6FFEECFE6FFEFCFE6FFE8EC25F0006E24
:104B1000060EE15C02E2E16AE552E16E0050DF6EF2
:104B2000850EDF1404E04DD8EE6AED6A23D0090E3D
:104B3000DBCF00F00A0EDBCF01F0820E0026FF0E65
:104B400001223FD800C0EEFF01C0EDFF7E0EF36EE4
:104B5000090EF3CFDBFF0A0EDB6AD950010FE66EB8
:104B6000000EDA20E66E26D876EC26F0E552E55205
:104B7000E552E552010EDBCF00F0020EDBCF01F073
:104B8000030EDBCF02F0040EDBCF03F000C028F0F1
:104B900001C029F002C02AF003C02BF00C0EE15C2A
:104BA00002E2E16AE552E16EE552E5CFDAFFE7CFD6
:104BB000D9FF1200D950050FE66E000EDA20E66E1E
:104BC0001200F80EDBCFE9FFF90EDBCFEAFF12008F
:104BD000D9CFE6FFDACFE6FFE1CFD9FFE2CFDAFFA8
:104BE000E652006801687F0E026E036AD950FA0F20
:104BF000E96EFF0EDA20EA6EEE500016EE50011656
:104C0000EE500216EE5003166AD800C0EEFF01C047
:104C1000EEFF02C0EEFF03C0EEFFFD0EDB50800B87
:104C200002E0010E01D0000EE66E59D8060EE9260C
:104C3000000EEA22E552E750EF6EFC0EDBCF00F0EB
:104C4000FD0EDBCF01F0D89000360136FC0E00C01F
:104C5000DBFFFD0E01C0DBFFDB50E66E40D8040E2B
:104C6000E926000EEA22E552E750EE6EED6AFD0EEF
:104C7000DB50006E016AFF0E001818E1015016E1CA
:104C80002ED8EECF00F0EECF01F0EECF02F0EFCF56
:104C900003F0005001100210031006E0210E000185
:104CA000CB6FCC6B800E0BD0040E09D0FD0EDB5009
:104CB00008E115D8EE6AEE6AEE6AEE6A010EDF6E62
:104CC00006D0020EDF6E0BD8EE52EE52EE8EDF50A3
:104CD000E552E552E5CFDAFFE7CFD9FF1200F80E33
:0C4CE000DBCFE9FFF90EDBCFEAFF12008A
:044CEC00D9CFE6FF37
:104CF000DACFE6FFE1CFD9FFE2CFDAFF5BD80134AC
:104D000011E20050FE08000E01540CE276D805E0D6
:104D10006CD8800EEE6EEE6847D067D8800EEE6ECF
:104D20007F0E0ED047D8D890015004E6010E005CEB
:104D3000000E01580BE261D805E057D8EE6A800EEC
:104D4000EE6E32D052D8EE6AEE6A2ED047D8EECF51
:104D500000F0EECF01F0EECF02F0EFCF03F032D84B
:104D600000C0EEFF01C0EEFF02C0EEFF03C0EEFF89
:104D700021D80050010B05E025D8020E3AD8EF8E5D
:104D800004D020D8020E35D8EF9E14D8D890013226
:104D9000003218D8030E2DD800C0EFFF1AD804E057
:104DA00011D8030E26D8EF8EE552E5CFDAFFE7CF14
:104DB000D9FF120013D8040E1CD8EECF00F0EFCFAD
:104DC00001F01200FA0EDBCFE9FFFB0EDBCFEAFFAA
:104DD000120004D8060E0DD8EF501200FC0EDBCFE7
:104DE000E9FFFD0EDBCFEAFF1200ECDFEE6AEE6AB0
:104DF0001200E926000EEA221200220E0001CB6FFB
:064E0000CC6BE9EF26F087
:0A4E0600005EBCE2613FDD83C29C48
:104E10007E20A3FD1F419DC3217FFCA2401E5F0198
:104E2000E3BD3E6082DC237D9FC1421CFEA0E1BF4A
:104E30005D0380DE3C62BEE0025CDF81633D7C227C
:104E4000C09E1D43A1FF4618FAA427799BC584DAAA
:104E50003866E5BB5907DB856739BAE40658194758
:104E6000A5FB7826C49A653BD987045AB8E6A7F90A
:104E70001B45C6987A24F8A6441A99C7257B3A643C
:104E800086D85B05E7B98CD2306EEDB3510F4E106A
:104E9000F2AC2F7193CD114FADF3702ECC92D38D18
:104EA0006F31B2EC0E50AFF1134DCE90722C6D33CA
:104EB000D18F0C52B0EE326C8ED0530DEFB1F0AEFC
:104EC0004C1291CF2D73CA947628ABF5174908562A
:104ED000B4EA6937D58B5709EBB536688AD495CBD8
:104EE0002977F4AA4816E9B7550B88D6346A2B758A
:104EF00097C94A14F6A8742AC896154BA9F7B6E8BC
:064F00000A54D7896B354D
:0A4F0600D9CFE6FFDACFE6FFE1CFD6
:104F1000D9FFE2CFDAFFE652E652E652E652D95026
:104F2000F90F006EFF0EDA20016E020E00C0DBFFEB
:104F3000030E01C0DBFF020EDBCFE6FF030EDBCF6B
:104F4000E6FFF90EDBCFE6FFFA0EDBCFE6FFFB0E46
:104F5000DBCFE6FFD950FC0FE66EFF0EDA20E66EDF
:104F6000B6EC11F0006E070EE15C02E2E16AE55278
:104F7000E16E0050F3CFDEFFF4CFDDFFFC0EDBCFA0
:104F8000E9FFFD0EDBCFEAFFEF6ADECF00F0DDCFF9
:104F900001F000C0F3FF01C0F4FF040EE15C02E287
:104FA000E16AE552E16EE552E5CFDAFFE7CFD9FFDE
:024FB0001200ED
:0E4FB2001E0EF66E000EF76E000EF86E000179
:104FC0000900F550BB6F0900F550BC6F03E1BB67EA
:104FD00001D03DD00900F550B66F0900F550B76F0C
:104FE0000900F550B86F09000900F550E96E090095
:104FF000F550EA6E090009000900F550B96F090083
:10500000F550BA6F09000900F6CFBDF0F7CFBEF03A
:10501000F8CFBFF0B6C0F6FFB7C0F7FFB8C0F8FFD3
:105020000001B95302E1BA5307E00900F550EE6EF2
:10503000B907F8E2BA07F9D7BDC0F6FFBEC0F7FF5F
:10504000BFC0F8FF0001BB07000EBC5BBFD712005A
:10505000D9CFE6FFDACFE6FFE1CFD9FFE2CFDAFF23
:10506000E652E652E652E652D950FB0F006EFF0EB2
:10507000DA20016E00C0DEFFDD6EDECFE6FFDDCFA1
:10508000E6FFFB0EDBCFE6FFFC0EDBCFE6FFFD0EFF
:10509000DBCFE6FFCDC0E6FFCEC0E6FFB6EC11F0F9
:1050A000006E070EE15C02E2E16AE552E16E00503B
:1050B000020EF3CFDBFF030EF4CFDBFF020EDBCFDC
:1050C00000F0030EDBCF01F000C0F3FF01C0F4FFDE
:1050D000040EE15C02E2E16AE552E16EE552E5CFE1
:0850E000DAFFE7CFD9FF12004F
:0850E800D9CFE6FFDACFE6FFA5
:1050F000E1CFD9FFE2CFDAFFE150FA0FE96EFF0E00
:10510000E220EA6EEECFE6FFEECFE6FFEECFE6FF5F
:10511000EFCFE6FFECEC1EF0E552E552E552E5522A
:1051200028C004F029C005F02AC006F02BC007F003
:10513000D90E2E6E5B0E2F6EDE0E306E3E0E316E71
:1051400028C029F005C02AF006C02BF007C02CF0BB
:1051500037EC1DF029C000F02AC001F02BC002F08E
:105160002CC003F029C028F02AC029F02BC02AF057
:105170002CC02BF0E552E5CFDAFFE7CFD9FF1200C4
:10518000D9CFE6FFDACFE6FFE1CFD9FFE2CFDAFFF2
:10519000AC6AAB6AFD0EDBB0AC88DBA202D0AC8C93
:1051A000AB8CDBB4AC8EDBA602D0AB8801D0AB8A73
:1051B000DBB8AC849E98DBBAAB86DBAC02D09D8AB0
:1051C00001D09D9A9E9ADBAE02D09D8801D09D9819
:1051D000FB0EDB50AF6EFB0EFC0EDBCF01F001C00F
:1051E00000F0016A0050B06EAC8AAB8E949C948E35
:1051F000AC50100B04E0AC50800B01E1948CE552F4
:0A520000E5CFDAFFE7CFD9FF120077
:06520A00D9CFE6FFDACF68
:10521000E6FFE1CFD9FFE2CFDAFFFB0EDBCF00F0F4
:10522000FC0EDBCF01F00001800E01141AE1FB0E31
:10523000DBCFE9FFFC0EDBCFEAFFEECFF3FFEDCFD4
:10524000F4FFEE2A000EEF22F3CFE9FFF4CFEAFFDE
:10525000FD0EDBCFEFFFEF50016AF36E01C0F4FFEC
:1052600010D0FB0EDB50FE0806E1FD0EDBCFE6FFA3
:105270003BEC2BF005D0FD0EDBCFE6FF03EC00F09E
:0E528000E552E552E5CFDAFFE7CFD9FF120085
:02528E002850A6
:105290002D02F3CF24F0F4CF25F02E02F350252673
:1052A000000EF420266E28502F02F3502626000E02
:1052B000F420276E28503002F350272629502D0263
:1052C000F3502526F4502622000E272229502E02C4
:1052D000F3502626F450272229502F02F350272678
:1052E0002A502D02F3502626F45027222A502E024F
:0E52F000F35027262B502D02F35027261200D4
:0252FE00D9CF06
:10530000E6FFE1CFD9FFFE0EDB50A96EA69EA69C5C
:10531000A680A850E552E7CFD9FF1200D9CFE6FF0B
:10532000E1CFD9FFE652DF6AA69CA6B2FED7FE0EF9
:10533000DB50A96EFD0EDB50A86EA69EA684F2AED1
:1053400003D0F29E010EDF6E550EA76EAA0EA76E59
:10535000A682A694A6B2FED7DF5001E0F28EE552F7
:08536000E552E7CFD9FF12006E
:08536800D9CFE6FFDACFE6FF22
:10537000E1CFD9FFE2CFDAFFE652E652FC0EDBCFF7
:1053800000F0FD0EDBCF01F0060ED890003601369E
:10539000E804FBE100C0DEFF01C0DDFF010EDB50D1
:1053A000BE6EDF50E840E8403F0B300B006ECF0E82
:1053B000BD140010BD6EE552E552E552E5CFDAFFAF
:0653C000E7CFD9FF120047
:0A53C600276A266A256A246A200E71
:1053D000E76ED890283629362A362B3624362536DD
:1053E000263627362D50245C2E5025582F5026580F
:1053F0003050275809E32D50245E2E50255A2F5047
:0E540000265A3050275A282AE72EE4D71200E9
:02540E00D9CFF4
:10541000E6FFDACFE6FFE1CFD9FFE2CFDAFFFD0EFC
:10542000DB507E0BCD6EFD0EDBAC02D0CD8E01D0FD
:10543000CD9ECF6ACE6A9E90DBAE02D09D8001D019
:105440009D90CD80E552E5CFDAFFE7CFD9FF12007E
:10545000D9CFE6FFDACFE6FFE1CFD9FFE2CFDAFF1F
:10546000E652F20E0101FF17ABAC03D0FF91ABB0D7
:10547000FF81ABB4FF85ABB2FF87AE50DF6EDF506C
:0E548000E552E552E5CFDAFFE7CFD9FF120083
:02548E00D9CF74
:10549000E6FFDACFE6FFE1CFD9FFE2CFDAFFE6524F
:1054A000E652FC0EDBCFDEFFDBCFDDFF010EDB5073
:1054B000CF6EDF50CE6EE552E552E552E5CFDAFF12
:0654C000E7CFD9FF120046
:0A54C600D9CFE6FFDACFE6FFE1CF11
:1054D000D9FFE2CFDAFFE652E652FC0EDBCFDEFF69
:1054E000DBCFDDFF010EDB50D76EDF50D66EE5520D
:0E54F000E552E552E5CFDAFFE7CFD9FF120013
:0254FE00D9CF04
:10550000E6FFDACFE6FFE1CFD9FFE2CFDAFFFD0E0B
:10551000DB507F0BD56ED76AD66AF294FD0EDBAEF8
:1055200002D0F28A01D0F29AD58EE552E5CFDAFFA9
:06553000E7CFD9FF1200D5
:0A553600D9CFE6FFDACFE6FFE1CFA0
:10554000D9FFE2CFDAFFFD0EDB50FB0BCA6ECC6A4F
:105550009E92FD0EDBAE02D09D8201D09D92CA8448
:0C556000E552E5CFDAFFE7CFD9FF1200DB
:04556C00D9CFE6FFAE
:10557000DACFE6FFE1CFD9FFE2CFDAFF0C0EBD12A2
:105580009494CA94FD0EDB50CB6ECA84E552E5CFED
:0C559000DAFFE7CFD9FF1200949412005C
:04559C00FF0EE350CB
:1055A000396EEF0E01D0F30EE76EE72ED5EF2AF03D
:1055B0000C0E386EE76AE72EDBEF2AF0382EDAEFB2
:0A55C0002AF0392ED3EF2AF0120072
:0655CA00276A266A100E9C
:1055D000E76ED8902A362B36263627362F50265C93
:1055E0003050275805E32F50265E3050275A2A2A7C
:0655F000E72EF0D71200C7
:0A55F600F36AF46AFF0EE124E96E87
:10560000FF0EE220EA6EED6607D02F0EEF6404D0A5
:0A5610003A0EEF6001D0F32A1200F9
:06561A00FF0EE350396EA3
:10562000480E01D04C0EE76EE72EFED7E76AE72E54
:0A563000FED7392EF7D70000120054
:06563A00000EF36E00EE0D
:1056400000F0060E01D81200EA6002D0EE6AFCD724
:0A565000F350E9601200EE6AFCD787
:06565A0015EE00F025EE44
:1056600000F0F86A339CD9EC27F007EC00F063EC0B
:0656700023F0FBD712003D
:0A567600FF0EE350ACBA04D0AF6A97
:10568000AB8EAC8A949CACA2FED7AD6EF36EF46A7E
:02569000120006
:0E569200FF0EE350396E1B0E00D001D0200E2B
:0E56A000E76EE72EFED7392EFAD700D01200A3
:0256AE00FF0EED
:1056B000E350E84E1200000000D000D000D0E82EE9
:0456C000FAD7120003
:0C56C4003031323334353637383961620A
:0556D000636465660043
:0256D500FEFFD6
:0256D7000000D1
:020000040030CA
:0100010008F6
:0100020018E5
:010003001EDE
:01000500807A
:010006008178
:010008000FE8
:01000900C036
:01000A000FE6
:01000B00E014
:01000C000FE4
:01000D0040B2
:00000001FF
