:020000040000FA
:06000000A4EF0DF0120058
:020006001200E6
:060008007CEF08F012007D
:02000E001200DE
:02001000FEFFF1
:060018001CEF09F01200CC
:02001E000200DE
:10002000911B0000600000005F0000001000000055
:08003000D700000002000000EF
:0800380058EC05F0FB0EDBCFD4
:10004000F3FFDB06F35000090AE0A6EC05F0FA0E18
:1000500011EC06F0F3E1151CF1E1010E01D0000EE8
:1000600087EF05F058EC05F03B0EE12402E3E16870
:10007000E652E16E010EDB6A020EDB6AF90EDBCF9F
:10008000F6FFFA0EDBCFF7FFFB0EDBCFF8FF080021
:10009000F550DF6EDF5002E1ABEF04F0250EDF5CC0
:1000A00002E09EEF04F0030EDB6A040EDB6A050E2D
:1000B000DB6A060EDB6A070EDB6AC0EC04F02D0E6D
:1000C000DF5C0CE02B0EDF5C09E0200EDF5C06E05D
:1000D000230EDF5C03E0300EDF5C1AE1DF50300AF4
:1000E00014E0130A0FE0030A0AE00B0A05E0060A0F
:1000F000E4E1030EDB80E1D7030EDB82DED7030EE3
:10010000DB84DBD7030EDB86D8D7030EDB88D5D79D
:100110002A0EDF5C1BE1BCEC04F00AEC05F010E0F9
:10012000030EDB8006680768130EDBCF0DF0140E9C
:10013000DBCF0EF0E3EC0AF0040E04C0DBFF03D0CB
:10014000130EF3EC04F0C0EC04F00BD0090EDB6AE4
:1001500061EC05F003E0D5EC05F0FAD7090EF3ECFD
:1001600004F0030EDBB0DB982E0EDF5C1BE1C0EC6D
:1001700004F02A0EDF5C0BE1BCEC04F00AEC05F0A5
:1001800003E1130E45EC05F0C0EC04F00BD0090EB2
:10019000DB6A61EC05F003E0D5EC05F0FAD7090E57
:1001A00045EC05F0680EDF5C07E1C0EC04F0680E7A
:1001B000DF5C1DE1030E18D0740EDF5C17E07A0ED1
:1001C000DF5C14E0480EDF5C06E0540EDF5C03E009
:1001D0005A0EDF5C02E1020E07D06C0EDF5C03E01A
:1001E0006A0EDF5C04E1010E98EC05F0C9DBDF501C
:1001F0006E0A01E17FD31E0A01E192D1200A01E1DA
:100200008FD13F0A01E149D11A0A01E146D10D0A15
:1002100001E143D1200A01E140D13A0A01E13DD197
:10022000200A01E13AD1260A01E135D10D0A01E1A6
:1002300032D11A0A01E1D9D0200A4AE0300A1FE07F
:10024000460A0EE0250A01E083D3D950F90FE96E82
:10025000FF0EDA20EA6E010EEE5E000EEE5AEE5A46
:10026000A6EC05F0250EE66E95DB03E1151C01E119
:1002700069D3A2EC05F001E26BD3DB2A69D3080E47
:10028000DB6A040EDB50010806E2040EDB046AECB4
:1002900005F0DB508BDB080EDB5009E0030EDB5072
:1002A000010B05E172DB01E04DD3080EDB6A64DB74
:1002B000EFCFDFFF1AEC06F003E1151C01E142D39A
:1002C000A2EC05F001E3DB2A60DB01E141D33AD384
:1002D000070EDB5002080FE1E6EC05F0030EADEC73
:1002E00005F00E0EEECFDBFF0F0EEECFDBFF100E94
:1002F000EECFDBFF20D0F70EDBCF17F0F80EDBCF11
:1003000018F0020E175E000E185AF70E17C0DBFF2A
:10031000F80E18C0DBFF17C0E9FF18C0EAFF9DEC1C
:1003200005F0166A0E0E14C0DBFF0F0E15C0DBFFC2
:10033000100E16C0DBFF0E0EDBCFE6FF0F0EDBCF7D
:10034000E6FF100EDBCFE6FF78EC0CF0E552E5524D
:10035000E552130E05C0DBFF140E06C0DBFF060ED0
:10036000DB5005E0130EE1EC05F001E26ADB05EC81
:1003700006F002E2130E37DBC8EC05F006E0040ECF
:10038000E1EC05F002E2050E2EDB030EDBB005D03A
:10039000FCDA01E0D7D2080EDB6A090EDB6A0E0E2A
:1003A000DBCFF6FF0F0EDBCFF7FF100EDBCFF8FF32
:1003B0000800F550DF6EDF5014E00BEC06F011E2A0
:1003C0001AEC06F003E1151C01E1BCD2BBDB01E332
:1003D000DB2A090EDB2AD9500E0FE96E000ECBDBAB
:1003E000E7D7D3DA01E1B4D2ADD2C6DA110EEECF3F
:1003F000DBFF120EEDCFDBFF110EDBCFE6FF120E9F
:10040000DBCFE6FF6AEC0CF0E552E552130EF3CFBA
:10041000DBFF140EF4CFDBFF060EDB5004E0130EFF
:10042000D0DB01E20EDB05EC06F002E2130EDBDAB4
:10043000AFDB05E0040EC5DB02E2050ED4DA030EE5
:10044000DBB005D0A2DA01E07DD2080EDB6A090E2E
:10045000DB6A110EDBCFE9FF120EDBCFEAFFEFCF35
:10046000DFFFDF5014E0D7DB12E2E4DB03E1151C11
:1004700001E168D267DB01E3DB2A090EDB2A110EFA
:10048000DB2ADBCFE9FF120EE8E3DB2AE6D77DDAD1
:1004900001E15ED257D2030EDB8E070EDB0410E1C2
:1004A00095DB040E5ADB0A0EEECFDBFF0B0EEECF10
:1004B000DBFF0C0EEECFDBFF0D0EEECFDBFF6CD0C3
:1004C000070EDB5003082CE1030EDBAE0DD0B2DAD1
:1004D000020E76DAEFCF14F0156A166A176A14AEB8
:1004E00039D01568166835D0F70EDBCF15F0F80E49
:1004F000DBCF16F0020E155E000E165AF70E15C071
:10050000DBFFF80E16C0DBFF15C0E9FF16C0EAFFDF
:10051000EFCF14F00A0E14C0DBFF0B0EDB6A38D0ED
:10052000070EDB50020809E1030EDBAE04D059DBF5
:1005300016AE10D00ED055DB0DD0030EDBAE12D0B0
:1005400079DA020E3DDAF9DA166A176A15AE02D0C8
:1005500016681768E2DA0C0E16C0DBFF0D0E17C026
:10056000DBFF1AD0F70EDBCF16F0F80EDBCF17F05B
:10057000020E165E000E175AF70E16C0DBFFF80EBD
:1005800017C0DBFF16C0E9FF17C0EAFFD6DAC5DAED
:100590000C0EDB6A0D0EDB6A060EDB5005E1010E68
:1005A000F36E050EF3CFDBFF150EDB6A160EDB6A6A
:1005B000D950370F146E000EDA20156E390E14C0A4
:1005C000DBFF3A0E15C0DBFF380EDB6A080EDB6A74
:1005D0000A0EAEDADF50780A12E0200A10E0280A8C
:1005E0000CE0200A0AE03F0A06E00D0A02E0200AB9
:1005F00008E1020E05D0080E03D0080EDF26100E0B
:1006000097DA030EDBBE02D0DB92DB94DB50800B6B
:1006100024E08ADAD890030EEB50000A08E6000EB8
:10062000EE5C000EEE58000EEE58000EEE5815E28D
:1006300013DA0B680C680D680E6832EC0CF00A0EC9
:1006400000C0DBFF0B0E01C0DBFF0C0E02C0DBFFA6
:100650000D0E03C0DBFF2D0E08D0030EDBA202D06F
:100660002B0E03D0DBA408D0200EF36E170EF3CFB1
:10067000DBFF150EDB2A02D0170EDB6A050EDB50FE
:1006800003E1B7D901E189D0800E146E1B0E156EFF
:10069000000E166E070EDBCF17F0186A196A1A6A79
:1006A00017C00BF018C00CF019C00DF01AC00EF0F6
:1006B000D3D99DEC0CF014500024F36E155001209A
:1006C000F46E16500220F86EF4CFF7FFF3CFF6FF6A
:1006D0000800090EF5CFDBFF580EDF5C0FE1610E5D
:1006E000F36E090E7BD90AE3200E146E090EDBCFE0
:1006F000E7FF1450E75E090EE7CFDBFF070EDBCF05
:1007000014F0156A166A176A0FDA14C00BF015C0D8
:100710000CF016C00DF017C00EF0EECF04F0EECFC7
:1007200005F0EECF06F0EFCF07F09DEC0CF007C020
:10073000EDFF06C0EDFF05C0EDFF04C0EFFF390E71
:10074000DBCFE9FFDB063A0EDBCFEAFF01E2DB0697
:10075000090EDBCFEFFF150EDB2A4BD995E1030E17
:10076000DBA61DD06F0EDF5C06E1C1D918E3150EC4
:10077000DB285BDA14D0780EDF5C09E0580EDF5C12
:1007800006E0620EDF5C03E0420EDF5C08E1020E71
:10079000F36E160EF3CFDBFF02D0150EDB6A030EED
:1007A000DB50100B0EE0040EDBCF14F0050EDB5017
:1007B000D880145406E2060EDB5003E1040EDB5031
:1007C00034DA95D90AE2050EDBCFE7FF150EDB50D0
:1007D000E75E050EE7CFDBFF02D0050EDB6A040EF5
:1007E000DBCF14F0160E45D9D880145414E2160E3F
:1007F000DBCFE6FF150EDBCFE6FF040EDBCFE6FF17
:10080000050EDB50E552E75CE552D880E754E5522F
:10081000D880E7545FD9030EDB50010B0BE1080EC3
:10082000DB5008E0B2D801E08DD0080EDB50BED816
:10083000080EDB6A170EDB5007E088D9170EF1D9D6
:1008400003E1151C01E17ED0160EDB5016E07ED9C7
:10085000300EE66E9FD802E1151C74E077D9DFCF29
:10086000E6FFF0EC0BF0E552E552E552F4CF15F05F
:100870000001F31C02E1151C65E0050EDBCF14F04E
:10088000160EDB50D880145409E2050EDBCFE7FFCB
:10089000160EDB50E75E050EE7CFDBFF300EE66E8F
:1008A000050ECBD94FE1390EDB2ADBCFE9FF3A0E3B
:1008B00001E3DB2ADBCFEAFF090EEFCFDBFFDB50E2
:1008C0000EE044D9090EADD902E1151C3BE0390E0A
:1008D000DB2ADBCFE9FF3A0EEDE3DB2AEBD755D875
:1008E00031E1160EDBCFE6FF080EC3D8E552E72450
:1008F0005DD82ED0070EDB50030A1CE0010A14E07D
:10090000030A07E07BD9DBCFEEFF020EDBCFEDFF62
:100910001FD0F5D8196A17AE02D0186819682CD8FC
:10092000BCD819C0EEFF14D0EAD817BE186824D876
:10093000B4D80ED063D9DBCFEFFF0AD07BD905E165
:10094000151C03E1F368F46810D0FCD801E3DB2A3E
:1009500079D947EF00F0010EDBCF14F0020EDBCFA8
:1009600015F014C0F3FF15C0F4FF3B0EE15C02E28A
:10097000E16AE552E16ECBD029D9020EADEF05F068
:1009800061D90800F550DF6E1200200EE66E080EE9
:100990001DEF06F0F0EC0BF0E552E552E552F3CF17
:1009A00014F0F4CF15F00001F31C1200146E156A58
:1009B000D950010F4DD91450EE261550ED221200DA
:1009C000185E000E195AF70E18C0DBFFF80E19C09A
:1009D000DBFF18C0E9FF19C0EAFF1200DBCFF4FF0C
:1009E000F350F45C1200DB50E76E040EE7CFDBFF40
:1009F00012000A0EDBCF14F00B0EDBCF15F00C0E3D
:100A0000DBCF16F00D0EDBCF17F0145015101610BB
:100A100017101200130EEECFDBFF140EEDCFDBFF2D
:100A2000130EDBCF14F0140EDBCF15F00001800E97
:100A300015141200F70EDBCF18F0F80EDBCF19F00B
:100A40001200050EDB50E66ED950130F01D9E552A6
:100A5000E750EE6EED6A12000A0EDBCF04F00B0ECB
:100A6000DBCF05F00C0EDBCF06F00D0EDBCF07F071
:100A70001200DBCFE6FF150EDBCFE6FF050EDB50E5
:100A8000E552E724E552E7241200DB50CED8010EF0
:100A9000F36E060EF3CFDBFF1200EE50EFCFEAFF4E
:100AA000E96E16C0EEFF17C0EEFF18C0EEFF120091
:100AB000D9CFE6FFDACFE6FFE1CFD9FFE2CFDAFF09
:100AC0001200DFCFE6FFE66A82EC0DF0E552E55258
:100AD000F3501200E76E080EE7CFDBFF1200EECFF7
:100AE00014F0EECF15F0EFCF16F0176A1200050ED6
:100AF000DBCF14F0150EDB50D88014541200010E19
:100B0000DBCF16F0020EDBCF17F0186A1200E552A9
:100B1000E5CFDAFFE7CFD9FF12000A0E14C0DBFFE2
:100B20000B0E15C0DBFF1200D9500A0F28EF06F09C
:100B3000F36E070EF3CFDBFF1200EECF14F0EFCF12
:100B400015F01200010EDB2A020E1200FC0EDBCFA4
:100B5000E6FFFD0EDBCFE6FF1200145E000E155A15
:100B6000F70E14C0DBFFF80E15C0DBFF14C0E9FF61
:100B700015C0EAFF1200DA20EA6EEF2AEECFF6FF88
:100B8000000EEF22EECFF7FFEF22EECFF8FF1200BC
:100B9000040EDBCFE6FF130EDB50E552E75C9ADF75
:100BA000DB5004DF060EDB501200090EDB500A0D8D
:100BB000F350DF24D00FE76E090EE7CFDBFFC0EF65
:100BC00004F0DB50F36E050EEEEF04F0F70EDBCF12
:100BD00014F0F80EDBCF15F01200DFCFE6FFCAEFFE
:100BE00004F028DF030EECDE6FEF05F01CEC00F0E4
:100BF000E552E552E552E55200091200BDDEEE5025
:100C0000EFCFEAFFE96E010E1200130EDB50F36E18
:100C1000040EEEEF04F0040EDB50F36E090EEEEF5F
:100C200004F0DBCFE6FFCAEF04F0E76E050EE7CF76
:100C3000DBFF12008BDFEDEF05F0DBCFE6FF86DF99
:100C4000F6EF05F0D950F90FE96EFF0EBBEF05F096
:0A0C5000E96E000EDA20EA6E1200D1
:060C5A00D9CFE6FFE1CF57
:100C6000D9FF0001CA6BCB6BC96BFD0EDBCFCCF09B
:100C7000FE0EDBCFCDF0F90EDBCFCEF0FA0EDBCFE0
:100C8000CFF0FB0EDBCFD0F0FC0EDBCFD1F0E55286
:100C9000E7CFD9FF1200D9CFE6FFE1CFD9FFE65267
:100CA000DF6A0001C95125E1010EC96F640EE66ECD
:100CB000150EE66E000EE66E5FEC0BF0E552E552A7
:100CC000E5520001C90515E1DF2A500EE66E55EC2C
:100CD0000DF0E552DFCF14F00A0EE76E1418E8AEFF
:100CE00002D0143403D0E750D8801454EAE2000153
:100CF000C96BE552E552E7CFD9FF1200D9CFE6FF25
:100D0000E1CFD9FF060EE126C6DF020E0001C95D64
:100D100001E0FAD0FA0EDB5049E0FB0EDBCFDEFF3C
:100D2000DBCFDDFFDBCF14F0FC0EDBCF15F00001D5
:100D3000800E15140EE006680768FB0EDBCF0DF081
:100D4000FC0EDBCF0EF0E3EC0AF004C0DEFF05C0C2
:100D5000DDFF640E146E156A0D6E15C00EF0DECF49
:100D600006F0DDCF07F0BDEC0AF0020E06C0DBFF97
:100D7000030E07C0DBFF020EDBCF16F0030EDBCF46
:100D800017F0640E1702F3CF17F01602F3CF16F028
:100D9000F4501726F350DE5C146E1750DD58156EB4
:100DA000040E14C0DBFF050E15C0DBFF510EE66E0E
:100DB000150EE66E000EE66E5FEC0BF0E552E552A6
:100DC000E552CEC0E6FFCFC0E6FFD0C0E6FFD1C0FF
:100DD000E6FF380EE66E150EE66E000EE66E5FEC70
:100DE0000BF0146E070EE15E14502A0EE66E150E1F
:100DF000E66E000EE66E5FEC0BF0E552E552E55252
:100E0000CCC0E6FFCDC0E6FF050EE66E150EE66E21
:100E1000000EE66E5FEC0BF0146E050EE15E1450F2
:100E2000D10EE66E140EE66E000EE66E5FEC0BF071
:100E3000E552E552E552FD0EDBCFE6FFFE0EDBCFBD
:100E4000E6FFC30EE66E140EE66E000EE66E5FEC75
:100E50000BF0146E050EE15E1450B10EE66E140E2A
:100E6000E66E000EE66E5FEC0BF0E552E552E552E1
:100E7000FA0EDB502CE0FB0EDBCF14F0FC0EDBCFC8
:100E800015F00001800E15140BE0AF0EE66E140E87
:100E9000E66E000EE66E5FEC0BF0E552E552E552B1
:100EA000040EDBCFE6FF050EDBCFE6FF020EDBCF45
:100EB000E6FF030EDBCFE6FFA70EE66E140EE66E2E
:100EC000000EE66E5FEC0BF0146E070E10D0FB0EFA
:100ED000DBCFE6FFFC0EDBCFE6FFA40EE66E140EC2
:100EE000E66E000EE66E5FEC0BF0146E050EE15E32
:100EF0001450830EE66E140EE66E000EE66E5FEC86
:100F00000BF0E552E552E552060EE15C02E2E16AC1
:100F1000E552E16EE552E7CFD9FF1200D9CFE6FFE7
:100F2000E1CFD9FF0001CA2B000ECB23FE0EDB5010
:100F3000440A18E00D0A09E00A0A17E1C90502E0AF
:100F4000C9511DE1020EC96F1AD0020EC95D17E129
:100F5000020ECA1914E1CB5112E1030EC96F2DEC38
:100F600009F00DD0CA6BCB6BC96BC951010A07E1FF
:100F7000FE0EDB504E0803E1C96BCA6BCB6BE5522A
:060F8000E7CFD9FF1200CB
:0A0F8600D9CFE6FFE1CFD9FF050E39
:100F9000E1266BD80D0EE66E080EE66E010EE66ECB
:100FA000E66AE66ADDEC09F0146E050EE15E1450A7
:100FB000E66A72EC09F0E55204C0BDF005C0BEF06F
:100FC0000001D56BD66B030EDB6A040EDB6A04C02E
:100FD00014F005C015F0166A176A04C0E6FF05C0D4
:100FE000E6FF16C0E6FF17C0E6FF7D0EE66E000EB8
:100FF000E66E2DEC06F0186E060EE15E185000014C
:10100000670ED8806055010E6155F9E28098606BDB
:10101000616B030ED5C0DBFF040ED6C0DBFFE66AB2
:10102000030EDBCF14F0040EDBCF15F00C0E15020F
:10103000F3CF15F01402F3CF14F0F4501526F3CFCC
:10104000E6FF15C0E6FF650EE66E000EE66E7EEC6E
:1010500006F0166E050EE15E1650030EDB50000121
:10106000D55F040EDB50D65BCAD7D9CFE6FFE1CF00
:10107000D9FFE652DF6AD388D38AD38C9B8C0F0EBC
:10108000C16EEF0E926E070E936EDE0E946E330EEF
:10109000E66EE66A7C0EE66EABEC0BF0E552E552CE
:1010A000E552970EE66E39EC0DF0E552EE0EE66E67
:1010B000850EE66E1DEC0DF0E552E552F50EE66E7E
:1010C000C1EC0CF0E552E00EE66EB10EE66E01ECFE
:1010D0000DF0E552E552F19EF19CF19AF198F292F1
:1010E000F288F090F086F092F088F28CF28EE55261
:1010F000E552E7CFD9FF1200DACFE4FFE2CFDAFF03
:10110000E9CFE4FFEACFE4FFF6CFE4FFF7CFE4FF57
:10111000F5CFE4FFF3CFE4FFF4CFE4FFFACFE4FF31
:1011200000EE00F0140EE80403E3EECFE4FFFBD77B
:1011300000EE14F0070EE80403E3EECFE4FFFBD764
:10114000E6529EAA08D0E2EC0CF0E66E8EEC07F0B8
:10115000E5529E9A4DD0F2A205D00001020ED26F48
:10116000F2920DD0F0A005D00001020ED36FF090E6
:1011700006D0F0A206D00001020ED46FF092809843
:1011800037D0F2A40FD0EE0EE66E850EE66E1DECA3
:101190000DF0E552E552F2940001602B000E612340
:1011A000622B632B9EA024D0E00EE66EB10EE66E9D
:1011B00001EC0DF0E552E5529E900001D25105E0A0
:1011C000D2078088D25101E18150D35105E0D30785
:1011D0008088D35101E18150D4510AE0D40780883E
:1011E000D45106E18150040B03E1D52B000ED62328
:1011F000E55200EE1AF0070EE80403E3E5CFEDFF39
:10120000FBD700EE13F0140EE80403E3E5CFEDFF87
:10121000FBD7E5CFFAFFE5CFF4FFE5CFF3FFE5CF4E
:10122000F5FFE5CFF7FFE5CFF6FFE5CFEAFFE5CF26
:10123000E9FFE5CFDAFF1100D8CFE4FFE0CFE4FF0C
:10124000E46EDACFE4FFE652E552E5CFDAFFE5508F
:10125000E5CFE0FFE5CFD8FF1000680E146E140E46
:10126000156E166A14C0E6FFE66E16C0E6FF5FEC68
:0A1270000BF0E552E552E5521200C2
:06127A00D9CFE6FFE1CF31
:10128000D9FFFE0EDB50A96EA69EA69CA680A85094
:10129000E552E7CFD9FF1200D9CFE6FFE1CFD9FF62
:1012A000E652DF6AA69CA6B2FED7FE0EDB50A96E00
:1012B000FD0EDB50A86EA69EA684F2AE03D0F29E71
:1012C000010EDF6E550EA76EAA0EA76EA682A6941B
:1012D000A6B2FED7DF5001E0F28EE552E552E7CF2D
:1012E000D9FF1200D9CFE6FFE1CFD9FF060EE126E4
:1012F000DE6ADE6ADE6ADD6ADD52DD52040EDB6A1A
:10130000DBCF14F0E76E1418E8AE02D0E73402D059
:10131000E750145C3EE2D9CFE9FFDACFEAFFEECF27
:1013200014F0EECF15F0EECF16F0EFCF17F0080E59
:101330001F0B07E0D8901436153616361736E80618
:10134000F9E114C0DFFF010E15C0DBFF020E16C06D
:10135000DBFF030E17C0DBFFFE0EDBCFE6FF8DDFEA
:10136000E552E76E050EE7CFDBFFDBCF14F0156A21
:10137000166A176A1450DE261550DE221650DE2239
:101380001750DD22DD52DD52FE0EDB2A040EDB2A71
:10139000B7D7DECF04F0DECF05F0DECF06F0DDCF2D
:1013A00007F0DD52DD52060EE15C02E2E16AE55231
:1013B000E16EE552E7CFD9FF1200D9CFE6FFE1CFCA
:1013C000D9FF020EE126030EDF6EDFCF14F01434D6
:1013D00041E20F0E146E156A166A176AD950FA0F99
:1013E000E96EFF0EDA20EA6EEE501416EE50151676
:1013F000EE501616EE501716010E14C0DBFFDBCFB1
:10140000E6FFFE0EDB50DF24E66E46DFE552E552D6
:10141000FA0EDBCF14F0FB0EDBCF15F0FC0EDBCFAA
:1014200016F0FD0EDBCF17F0080ED89017321632EB
:1014300015321432E806F9E1FA0E14C0DBFFFB0E98
:1014400015C0DBFFFC0E16C0DBFFFD0E17C0DBFF77
:10145000DF06BBD7020EE15C02E2E16AE552E16E13
:08146000E552E7CFD9FF1200AD
:08146800436F736D20536F6C9C
:1014700061722073657474696E6773206D656E7533
:101480003A0A00220A207D0A205D0A7D2C0A227475
:101490006F6B656E223A2274657374696E672A22D7
:1014A0000A7D0A0025690025692E25303269002D44
:1014B000002263757272656E745F76616C75652269
:1014C0003A2200226964223A222573222C0A202023
:1014D0000022626F6479223A7B0A20227665727359
:1014E000696F6E223A22312E302E30222C0A2022B1
:1014F0006461746173747265616D73223A5B0A2072
:101500007B0A2020002268656164657273223A7B41
:1015100022582D506163687562654170694B657929
:10152000223A222573227D2C0A0022706172616D9D
:1015300073223A7B7D2C0A00227265736F75726389
:1015400065223A222F66656564732F2575222C0A61
:10155000007B0A226D6574686F64223A227075748C
:10156000222C0A00433231362E35322E3233332EBE
:0A1570003132322F383038310A00D2
:06157A00096A0EAEC6EF87
:101580000AF00D6C0E1EE86A0E22091E07AECEEFA1
:101590000AF0066C071EE86A0722091E6CEC0DF0C3
:1015A00007BEDEEF0AF009AE000C066C071EE86A03
:1015B0000722026C031EE86A0322000C09BED5EF65
:1015C0000AF00A88FF0C07C013F006C012F006509C
:1015D0000D02F4CF05F0F3CF04F007500E02F4CF64
:1015E00007F0F3CF06F00D02F3500526F450062263
:1015F000E86A072212500E02F3500526F450062224
:10160000E86A07220EAE09EF0BF01250065E135087
:10161000075A13AE000C0D50065E0E50075A000C10
:101620001E0EF66E000EF76E000EF86E0001090039
:10163000F550C46F0900F550C56F03E1C46701D0D0
:101640003DD00900F550BF6F0900F550C06F09008B
:10165000F550C16F09000900F550E96E0900F55019
:10166000EA6E090009000900F550C26F0900F55043
:10167000C36F09000900F6CFC6F0F7CFC7F0F8CF67
:10168000C8F0BFC0F6FFC0C0F7FFC1C0F8FF00013F
:10169000C25302E1C35307E00900F550EE6EC207E2
:1016A000F8E2C307F9D7C6C0F6FFC7C0F7FFC8C046
:0E16B000F8FF0001C407000EC55BBFD7120093
:0216BE00D9CF82
:1016C000E6FFDACFE6FFE1CFD9FFE2CFDAFFE6525D
:1016D000E652E652E652D950FB0F146EFF0EDA20A6
:1016E000156E14C0DEFFDD6EDECFE6FFDDCFE6FF58
:1016F000FB0EDBCFE6FFFC0EDBCFE6FFFD0EDBCF04
:10170000E6FFD7C0E6FFD8C0E6FF32EC00F0146E6B
:10171000070EE15C02E2E16AE552E16E1450020E4E
:10172000F3CFDBFF030EF4CFDBFF020EDBCF14F0B1
:10173000030EDBCF15F014C0F3FF15C0F4FF040E49
:10174000E15C02E2E16AE552E16EE552E5CFDAFFE3
:06175000E7CFD9FF1200F3
:0A175600D9CFE6FFDACFE6FFE1CFBE
:10176000D9FFE2CFDAFFAC6AAB6AFD0EDBB0AC8822
:10177000DBA202D0AC8CAB8CDBB4AC8EDBA602D08F
:10178000AB8801D0AB8ADBB8AC849E98DBBAAB8661
:10179000DBAC02D09D8A01D09D9A9E9ADBAE02D02E
:1017A0009D8801D09D98FB0EDB50AF6EFB0EFC0EAA
:1017B000DBCF15F015C014F0156A1450B06EAC8A6A
:1017C000AB8E949C948EAC50100B04E0AC50800B0C
:1017D00001E1948CE552E5CFDAFFE7CFD9FF1200A3
:1017E000D9CFE6FFDACFE6FFE1CFD9FFE2CFDAFFCC
:1017F000FB0EDBCF14F0FC0EDBCF15F00001800EEA
:1018000015141AE1FB0EDBCFE9FFFC0EDBCFEAFF7C
:10181000EECFF3FFEDCFF4FFEE2A000EEF22F3CF71
:10182000E9FFF4CFEAFFFD0EDBCFEFFFEF50156AC3
:10183000F36E15C0F4FF10D0FB0EDB50FE0806E17E
:10184000FD0EDBCFE6FFB2EC0DF005D0FD0EDBCFD9
:10185000E6FF03EC00F0E552E552E5CFDAFFE7CF13
:04186000D9FF12009A
:0C18640004500B02F3CF00F0F4CF01F0B1
:101870000C02F3500126000EF420026E04500D02FB
:10188000F3500226000EF420036E04500E02F350B3
:10189000032605500B02F3500126F4500222000EDD
:1018A000032205500C02F3500226F4500322055087
:1018B0000D02F350032606500B02F3500226F4509B
:1018C000032206500C02F350032607500B02F3507C
:0418D00003261200D9
:0C18D400FE0EE3CFE9FFFF0EE3CFEAFFBA
:1018E000F36AF46AEE5203E0F34AF42AFBD71200DB
:1018F000FF0EE3CFF8FFE552FF0EE3CFF7FFE5520F
:10190000FF0EE3CFF6FFE552E66AE66AE66A0900F3
:10191000F55209E0FD0EE32A05E1FE0EE32A02E19D
:10192000FF0EE32AF4D7FD0EE3CF05F0FE0EE3CF62
:0A19300006F0FF0EE3CF07F01200EF
:06193A00036A026A016A63
:10194000006A200EE76ED890043605360636073654
:1019500000360136023603360B50005C0C5001583D
:101960000D5002580E50035809E30B50005E0C5006
:10197000015A0D50025A0E50035A042AE72EE4D79A
:02198000120053
:0E198200D9CFE6FFDACFE6FFE1CFD9FFE2CF03
:10199000DAFFFD0EDB507E0BCD6EFD0EDBAC02D010
:1019A000CD8E01D0CD9ECF6ACE6A9E90DBAE02D0A6
:1019B0009D8001D09D90CD80E552E5CFDAFFE7CF45
:0419C000D9FF120039
:0C19C400D9CFE6FFDACFE6FFE1CFD9FF74
:1019D000E2CFDAFFE652F20E0001D917ABAC03D02A
:1019E000D991ABB0D981ABB4D985ABB2D987AE5060
:1019F000DF6EDF50E552E552E5CFDAFFE7CFD9FFE2
:021A00001200D2
:0E1A0200D9CFE6FFDACFE6FFE1CFD9FFE2CF82
:101A1000DAFFE652E652FC0EDBCFDEFFDBCFDDFF66
:101A2000010EDB50CF6EDF50CE6EE552E552E5522F
:0A1A3000E5CFDAFFE7CFD9FF12007F
:061A3A00D9CFE6FFDACF70
:101A4000E6FFE1CFD9FFE2CFDAFFE652E652FC0E25
:101A5000DBCFDEFFDBCFDDFF010EDB50D76EDF50CB
:101A6000D66EE552E552E552E5CFDAFFE7CFD9FF72
:021A7000120062
:0E1A7200D9CFE6FFDACFE6FFE1CFD9FFE2CF12
:101A8000DAFFFD0EDB507F0BD56ED76AD66AF29473
:101A9000FD0EDBAE02D0F28A01D0F29AD58EE5526D
:0A1AA000E5CFDAFFE7CFD9FF12000F
:061AAA00FF0EE3501C6E6C
:101AB000EF0E01D0F30EE76EE72E5CEF0DF00C0E8B
:101AC0001B6EE76AE72E62EF0DF01B2E61EF0DF043
:081AD0001C2E5AEF0DF012006C
:081AD800036A026A100EE76EBA
:101AE000D89006360736023603360D50025C0E508B
:101AF000035805E30D50025E0E50035A062AE72EE6
:041B0000F0D7120008
:0C1B0400F36AF46AFF0EE124E96EFF0EA4
:101B1000E220EA6EED6607D02F0EEF6404D03A0E95
:081B2000EF6001D0F32A12006E
:081B2800000EF36E00EE00F068
:101B3000060E01D81200EA6002D0EE6AFCD7F3501C
:081B4000E9601200EE6AFCD717
:081B480015EE00F025EE00F09F
:101B5000F86A0A9C10EC0BF007EC00F0C3EC07F0FD
:041B6000FBD712009D
:0C1B6400FF0EE350ACBA04D0AF6AAB8EA9
:101B7000AC8A949CACA2FED7AD6EF36EF46A1200F0
:101B800030313233343536373839616263646566F3
:011B90000054
:0F1B91005E0100000067656E6572617465640037
:101BA000000064756D6D79003E3E3E3E3E3E4F69DD
:101BB000767274434249307661434247544E34361C
:101BC0006B74796C75756F716553414B787A5A589F
:101BD0006C5A5545647A64476C52597A30670000F4
:101BE00000000000000000000000000000000D08E0
:020000040030CA
:0100010008F6
:0100020018E5
:010003001EDE
:01000500807A
:010006008178
:010008000FE8
:01000900C036
:01000A000FE6
:01000B00E014
:01000C000FE4
:01000D0040B2
:00000001FF
