:020000040000FA
:060000007DEF0CF0120080
:020006001200E6
:0600080069EF08F0120090
:02000E001200DE
:02001000FEFFF1
:0600180009EF09F01200DF
:02001E000200DE
:1000200043190000600000005F00000010000000A5
:08003000D500000002000000F1
:0800380058EC05F0FB0EDBCFD4
:10004000F3FFDB06F35000090AE0A6EC05F0FA0E18
:1000500011EC06F0F3E1151CF1E1010E01D0000EE8
:1000600087EF05F058EC05F03B0EE12402E3E16870
:10007000E652E16E010EDB6A020EDB6AF90EDBCF9F
:10008000F6FFFA0EDBCFF7FFFB0EDBCFF8FF080021
:10009000F550DF6EDF5002E1ABEF04F0250EDF5CC0
:1000A00002E09EEF04F0030EDB6A040EDB6A050E2D
:1000B000DB6A060EDB6A070EDB6AC0EC04F02D0E6D
:1000C000DF5C0CE02B0EDF5C09E0200EDF5C06E05D
:1000D000230EDF5C03E0300EDF5C1AE1DF50300AF4
:1000E00014E0130A0FE0030A0AE00B0A05E0060A0F
:1000F000E4E1030EDB80E1D7030EDB82DED7030EE3
:10010000DB84DBD7030EDB86D8D7030EDB88D5D79D
:100110002A0EDF5C1BE1BCEC04F00AEC05F010E0F9
:10012000030EDB8008680968130EDBCF0DF0140E98
:10013000DBCF0EF0BCEC09F0040E06C0DBFF03D0F1
:10014000130EF3EC04F0C0EC04F00BD0090EDB6AE4
:1001500061EC05F003E0D5EC05F0FAD7090EF3ECFD
:1001600004F0030EDBB0DB982E0EDF5C1BE1C0EC6D
:1001700004F02A0EDF5C0BE1BCEC04F00AEC05F0A5
:1001800003E1130E45EC05F0C0EC04F00BD0090EB2
:10019000DB6A61EC05F003E0D5EC05F0FAD7090E57
:1001A00045EC05F0680EDF5C07E1C0EC04F0680E7A
:1001B000DF5C1DE1030E18D0740EDF5C17E07A0ED1
:1001C000DF5C14E0480EDF5C06E0540EDF5C03E009
:1001D0005A0EDF5C02E1020E07D06C0EDF5C03E01A
:1001E0006A0EDF5C04E1010E98EC05F0C9DBDF501C
:1001F0006E0A01E17FD31E0A01E192D1200A01E1DA
:100200008FD13F0A01E149D11A0A01E146D10D0A15
:1002100001E143D1200A01E140D13A0A01E13DD197
:10022000200A01E13AD1260A01E135D10D0A01E1A6
:1002300032D11A0A01E1D9D0200A4AE0300A1FE07F
:10024000460A0EE0250A01E083D3D950F90FE96E82
:10025000FF0EDA20EA6E010EEE5E000EEE5AEE5A46
:10026000A6EC05F0250EE66E95DB03E1151C01E119
:1002700069D3A2EC05F001E26BD3DB2A69D3080E47
:10028000DB6A040EDB50010806E2040EDB046AECB4
:1002900005F0DB508BDB080EDB5009E0030EDB5072
:1002A000010B05E172DB01E04DD3080EDB6A64DB74
:1002B000EFCFDFFF1AEC06F003E1151C01E142D39A
:1002C000A2EC05F001E3DB2A60DB01E141D33AD384
:1002D000070EDB5002080FE1E6EC05F0030EADEC73
:1002E00005F00E0EEECFDBFF0F0EEECFDBFF100E94
:1002F000EECFDBFF20D0F70EDBCF17F0F80EDBCF11
:1003000018F0020E175E000E185AF70E17C0DBFF2A
:10031000F80E18C0DBFF17C0E9FF18C0EAFF9DEC1C
:1003200005F0166A0E0E14C0DBFF0F0E15C0DBFFC2
:10033000100E16C0DBFF0E0EDBCFE6FF0F0EDBCF7D
:10034000E6FF100EDBCFE6FF51EC0BF0E552E55275
:10035000E552130E07C0DBFF140E08C0DBFF060ECC
:10036000DB5005E0130EE1EC05F001E26ADB05EC81
:1003700006F002E2130E37DBC8EC05F006E0040ECF
:10038000E1EC05F002E2050E2EDB030EDBB005D03A
:10039000FCDA01E0D7D2080EDB6A090EDB6A0E0E2A
:1003A000DBCFF6FF0F0EDBCFF7FF100EDBCFF8FF32
:1003B0000800F550DF6EDF5014E00BEC06F011E2A0
:1003C0001AEC06F003E1151C01E1BCD2BBDB01E332
:1003D000DB2A090EDB2AD9500E0FE96E000ECBDBAB
:1003E000E7D7D3DA01E1B4D2ADD2C6DA110EEECF3F
:1003F000DBFF120EEDCFDBFF110EDBCFE6FF120E9F
:10040000DBCFE6FF43EC0BF0E552E552130EF3CFE2
:10041000DBFF140EF4CFDBFF060EDB5004E0130EFF
:10042000D0DB01E20EDB05EC06F002E2130EDBDAB4
:10043000AFDB05E0040EC5DB02E2050ED4DA030EE5
:10044000DBB005D0A2DA01E07DD2080EDB6A090E2E
:10045000DB6A110EDBCFE9FF120EDBCFEAFFEFCF35
:10046000DFFFDF5014E0D7DB12E2E4DB03E1151C11
:1004700001E168D267DB01E3DB2A090EDB2A110EFA
:10048000DB2ADBCFE9FF120EE8E3DB2AE6D77DDAD1
:1004900001E15ED257D2030EDB8E070EDB0410E1C2
:1004A00095DB040E5ADB0A0EEECFDBFF0B0EEECF10
:1004B000DBFF0C0EEECFDBFF0D0EEECFDBFF6CD0C3
:1004C000070EDB5003082CE1030EDBAE0DD0B2DAD1
:1004D000020E76DAEFCF14F0156A166A176A14AEB8
:1004E00039D01568166835D0F70EDBCF15F0F80E49
:1004F000DBCF16F0020E155E000E165AF70E15C071
:10050000DBFFF80E16C0DBFF15C0E9FF16C0EAFFDF
:10051000EFCF14F00A0E14C0DBFF0B0EDB6A38D0ED
:10052000070EDB50020809E1030EDBAE04D059DBF5
:1005300016AE10D00ED055DB0DD0030EDBAE12D0B0
:1005400079DA020E3DDAF9DA166A176A15AE02D0C8
:1005500016681768E2DA0C0E16C0DBFF0D0E17C026
:10056000DBFF1AD0F70EDBCF16F0F80EDBCF17F05B
:10057000020E165E000E175AF70E16C0DBFFF80EBD
:1005800017C0DBFF16C0E9FF17C0EAFFD6DAC5DAED
:100590000C0EDB6A0D0EDB6A060EDB5005E1010E68
:1005A000F36E050EF3CFDBFF150EDB6A160EDB6A6A
:1005B000D950370F146E000EDA20156E390E14C0A4
:1005C000DBFF3A0E15C0DBFF380EDB6A080EDB6A74
:1005D0000A0EAEDADF50780A12E0200A10E0280A8C
:1005E0000CE0200A0AE03F0A06E00D0A02E0200AB9
:1005F00008E1020E05D0080E03D0080EDF26100E0B
:1006000097DA030EDBBE02D0DB92DB94DB50800B6B
:1006100024E08ADAD890030EEB50000A08E6000EB8
:10062000EE5C000EEE58000EEE58000EEE5815E28D
:1006300013DA0B680C680D680E680BEC0BF00A0EF1
:1006400002C0DBFF0B0E03C0DBFF0C0E04C0DBFFA0
:100650000D0E05C0DBFF2D0E08D0030EDBA202D06D
:100660002B0E03D0DBA408D0200EF36E170EF3CFB1
:10067000DBFF150EDB2A02D0170EDB6A050EDB50FE
:1006800003E1B7D901E189D0320E146E190E156E4F
:10069000000E166E070EDBCF17F0186A196A1A6A79
:1006A00017C00BF018C00CF019C00DF01AC00EF0F6
:1006B000D3D976EC0BF014500224F36E15500320BE
:1006C000F46E16500420F86EF4CFF7FFF3CFF6FF68
:1006D0000800090EF5CFDBFF580EDF5C0FE1610E5D
:1006E000F36E090E7BD90AE3200E146E090EDBCFE0
:1006F000E7FF1450E75E090EE7CFDBFF070EDBCF05
:1007000014F0156A166A176A0FDA14C00BF015C0D8
:100710000CF016C00DF017C00EF0EECF06F0EECFC5
:1007200007F0EECF08F0EFCF09F076EC0BF009C040
:10073000EDFF08C0EDFF07C0EDFF06C0EFFF390E6B
:10074000DBCFE9FFDB063A0EDBCFEAFF01E2DB0697
:10075000090EDBCFEFFF150EDB2A4BD995E1030E17
:10076000DBA61DD06F0EDF5C06E1C1D918E3150EC4
:10077000DB285BDA14D0780EDF5C09E0580EDF5C12
:1007800006E0620EDF5C03E0420EDF5C08E1020E71
:10079000F36E160EF3CFDBFF02D0150EDB6A030EED
:1007A000DB50100B0EE0040EDBCF14F0050EDB5017
:1007B000D880145406E2060EDB5003E1040EDB5031
:1007C00034DA95D90AE2050EDBCFE7FF150EDB50D0
:1007D000E75E050EE7CFDBFF02D0050EDB6A040EF5
:1007E000DBCF14F0160E45D9D880145414E2160E3F
:1007F000DBCFE6FF150EDBCFE6FF040EDBCFE6FF17
:10080000050EDB50E552E75CE552D880E754E5522F
:10081000D880E7545FD9030EDB50010B0BE1080EC3
:10082000DB5008E0B2D801E08DD0080EDB50BED816
:10083000080EDB6A170EDB5007E088D9170EF1D9D6
:1008400003E1151C01E17ED0160EDB5016E07ED9C7
:10085000300EE66E9FD802E1151C74E077D9DFCF29
:10086000E6FFC9EC0AF0E552E552E552F4CF15F087
:100870000001F31C02E1151C65E0050EDBCF14F04E
:10088000160EDB50D880145409E2050EDBCFE7FFCB
:10089000160EDB50E75E050EE7CFDBFF300EE66E8F
:1008A000050ECBD94FE1390EDB2ADBCFE9FF3A0E3B
:1008B00001E3DB2ADBCFEAFF090EEFCFDBFFDB50E2
:1008C0000EE044D9090EADD902E1151C3BE0390E0A
:1008D000DB2ADBCFE9FF3A0EEDE3DB2AEBD755D875
:1008E00031E1160EDBCFE6FF080EC3D8E552E72450
:1008F0005DD82ED0070EDB50030A1CE0010A14E07D
:10090000030A07E07BD9DBCFEEFF020EDBCFEDFF62
:100910001FD0F5D8196A17AE02D0186819682CD8FC
:10092000BCD819C0EEFF14D0EAD817BE186824D876
:10093000B4D80ED063D9DBCFEFFF0AD07BD905E165
:10094000151C03E1F368F46810D0FCD801E3DB2A3E
:1009500079D947EF00F0010EDBCF14F0020EDBCFA8
:1009600015F014C0F3FF15C0F4FF3B0EE15C02E28A
:10097000E16AE552E16ECBD029D9020EADEF05F068
:1009800061D90800F550DF6E1200200EE66E080EE9
:100990001DEF06F0C9EC0AF0E552E552E552F3CF3F
:1009A00014F0F4CF15F00001F31C1200146E156A58
:1009B000D950010F4DD91450EE261550ED221200DA
:1009C000185E000E195AF70E18C0DBFFF80E19C09A
:1009D000DBFF18C0E9FF19C0EAFF1200DBCFF4FF0C
:1009E000F350F45C1200DB50E76E040EE7CFDBFF40
:1009F00012000A0EDBCF14F00B0EDBCF15F00C0E3D
:100A0000DBCF16F00D0EDBCF17F0145015101610BB
:100A100017101200130EEECFDBFF140EEDCFDBFF2D
:100A2000130EDBCF14F0140EDBCF15F00001800E97
:100A300015141200F70EDBCF18F0F80EDBCF19F00B
:100A40001200050EDB50E66ED950130F01D9E552A6
:100A5000E750EE6EED6A12000A0EDBCF06F00B0EC9
:100A6000DBCF07F00C0EDBCF08F00D0EDBCF09F06B
:100A70001200DBCFE6FF150EDBCFE6FF050EDB50E5
:100A8000E552E724E552E7241200DB50CED8010EF0
:100A9000F36E060EF3CFDBFF1200EE50EFCFEAFF4E
:100AA000E96E16C0EEFF17C0EEFF18C0EEFF120091
:100AB000D9CFE6FFDACFE6FFE1CFD9FFE2CFDAFF09
:100AC0001200DFCFE6FFE66A5BEC0CF0E552E55280
:100AD000F3501200E76E080EE7CFDBFF1200EECFF7
:100AE00014F0EECF15F0EFCF16F0176A1200050ED6
:100AF000DBCF14F0150EDB50D88014541200010E19
:100B0000DBCF16F0020EDBCF17F0186A1200E552A9
:100B1000E5CFDAFFE7CFD9FF12000A0E14C0DBFFE2
:100B20000B0E15C0DBFF1200D9500A0F28EF06F09C
:100B3000F36E070EF3CFDBFF1200EECF14F0EFCF12
:100B400015F01200010EDB2A020E1200FC0EDBCFA4
:100B5000E6FFFD0EDBCFE6FF1200145E000E155A15
:100B6000F70E14C0DBFFF80E15C0DBFF14C0E9FF61
:100B700015C0EAFF1200DA20EA6EEF2AEECFF6FF88
:100B8000000EEF22EECFF7FFEF22EECFF8FF1200BC
:100B9000040EDBCFE6FF130EDB50E552E75C9ADF75
:100BA000DB5004DF060EDB501200090EDB500A0D8D
:100BB000F350DF24D00FE76E090EE7CFDBFFC0EF65
:100BC00004F0DB50F36E050EEEEF04F0F70EDBCF12
:100BD00014F0F80EDBCF15F01200DFCFE6FFCAEFFE
:100BE00004F028DF030EECDE6FEF05F01CEC00F0E4
:100BF000E552E552E552E55200091200BDDEEE5025
:100C0000EFCFEAFFE96E010E1200130EDB50F36E18
:100C1000040EEEEF04F0040EDB50F36E090EEEEF5F
:100C200004F0DBCFE6FFCAEF04F0E76E050EE7CF76
:100C3000DBFF12008BDFEDEF05F0DBCFE6FF86DF99
:100C4000F6EF05F0D950F90FE96EFF0EBBEF05F096
:0A0C5000E96E000EDA20EA6E1200D1
:060C5A00D9CFE6FFE1CF57
:100C6000D9FF0001CA6BCB6BC96BFD0EDBCFCCF09B
:100C7000FE0EDBCFCDF0FB0EDBCFCEF0FC0EDBCFDC
:100C8000CFF0E552E7CFD9FF1200D9CFE6FFE1CF91
:100C9000D9FFE652DF6A0001C95125E1010EC96F93
:100CA000150EE66E130EE66E000EE66E38EC0AF0D8
:100CB000E552E552E5520001C90515E1DF2A500E63
:100CC000E66E2EEC0CF0E552DFCF14F00A0EE76E64
:100CD0001418E8AE02D0143403D0E750D88014546E
:100CE000EAE20001C96BE552E552E7CFD9FF1200F5
:100CF000D9CFE6FFE1CFD9FF060EE126C6DF020E0F
:100D00000001C95D01E0F6D0FA0EDB5049E0FB0EB0
:100D1000DBCFDEFFDBCFDDFFDBCF14F0FC0EDBCF64
:100D200015F00001800E15140EE008680968FB0E2E
:100D3000DBCF0DF0FC0EDBCF0EF0BCEC09F006C0F3
:100D4000DEFF07C0DDFF640E146E156A0D6E15C060
:100D50000EF0DECF08F0DDCF09F096EC09F0020EC0
:100D600008C0DBFF030E09C0DBFF020EDBCF16F06D
:100D7000030EDBCF17F0640E1702F3CF17F0160245
:100D8000F3CF16F0F4501726F350DE5C146E1750B4
:100D9000DD58156E040E14C0DBFF050E15C0DBFF19
:100DA000020EE66E130EE66E000EE66E38EC0AF0EA
:100DB000E552E552E552CEC0E6FFCFC0E6FFE90EB0
:100DC000E66E120EE66E000EE66E38EC0AF0146E59
:100DD000050EE15E1450DB0EE66E120EE66E000E9E
:100DE000E66E38EC0AF0E552E552E552CCC0E6FF7B
:100DF000CDC0E6FFB60EE66E120EE66E000EE66E93
:100E000038EC0AF0146E050EE15E1450820EE66EA8
:100E1000120EE66E000EE66E38EC0AF0E552E55270
:100E2000E552FD0EDBCFE6FFFE0EDBCFE6FF740ED4
:100E3000E66E120EE66E000EE66E38EC0AF0146EE8
:100E4000050EE15E1450620EE66E120EE66E000EA6
:100E5000E66E38EC0AF0E552E552E552FA0EDB5048
:100E60002CE0FB0EDBCF14F0FC0EDBCF15F0000105
:100E7000800E15140BE0600EE66E120EE66E000E8C
:100E8000E66E38EC0AF0E552E552E552040EDBCF8F
:100E9000E6FF050EDBCFE6FF020EDBCFE6FF030E1B
:100EA000DBCFE6FF580EE66E120EE66E000EE66E23
:100EB00038EC0AF0146E070E10D0FB0EDBCFE6FF05
:100EC000FC0EDBCFE6FF550EE66E120EE66E000E50
:100ED000E66E38EC0AF0146E050EE15E1450340E26
:100EE000E66E120EE66E000EE66E38EC0AF0E55283
:100EF000E552E552060EE15C02E2E16AE552E16E7E
:100F0000E552E7CFD9FF1200D9CFE6FFE1CFD9FFF5
:100F10000001CA2B000ECB23FE0EDB50440A15E065
:100F20000D0A08E00A0A14E1C90502E0C9511AE1F4
:100F3000020E09D0020EC95D15E1020ECA1912E1B6
:100F4000CB5110E1030EC96F0DD0CA6BCB6BC96BCF
:100F5000C951010A07E1FE0EDB504E0803E1C96BDF
:0C0F6000CA6BCB6BE552E7CFD9FF120043
:040F6C00D9CFE6FFF4
:100F7000E1CFD9FF050EE1264BD80001D36BD46B2E
:100F8000030EDB6A040EDB6ABDC0E6FFBEC0E6FFEF
:100F90007D0EE66E000EE66E2DEC06F0E552E55293
:100FA000E552E5520001670ED8806055010E61558B
:100FB000F9E28098606B616B030ED3C0DBFF040E17
:100FC000D4C0DBFFE66A030EDBCF14F0040EDBCFE8
:100FD00015F00C0E1502F3CF15F01402F3CF14F038
:100FE000F4501526F3CFE6FF15C0E6FF650EE66E5A
:100FF000000EE66E78EC06F0166E050EE15E1650F9
:10100000030EDB500001D35F040EDB50D45BCAD764
:10101000D9CFE6FFE1CFD9FFE652DF6AD388D38A82
:10102000D38C9B8C0F0EC16EEF0E926E070E936EDB
:10103000DE0E946E330EE66EE66A7C0EE66E84EC8F
:101040000AF0E552E552E552DF50DF2A146E050E34
:10105000E76E1418E8AE02D0E73402D0E750145C13
:101060000DE2320EE66E2EEC0CF0E5528098320E58
:10107000E66E2EEC0CF0E5528088E6D7970EE66E11
:1010800012EC0CF0E552EE0EE66E850EE66EF6EC16
:101090000BF0E552E552F50EE66E9AEC0BF0E552D8
:1010A000E00EE66EB10EE66EDAEC0BF0E552E552BC
:1010B000F19EF19CF19AF198F292F288F090F0860C
:1010C000F092F088F28CF28EE552E552E7CFD9FF2C
:1010D0001200DACFE4FFE2CFDAFFE9CFE4FFEACF94
:1010E000E4FFF6CFE4FFF7CFE4FFF5CFE4FFF3CF63
:1010F000E4FFF4CFE4FFFACFE4FF00EE00F0140EBB
:10110000E80403E3EECFE4FFFBD700EE14F0070E94
:10111000E80403E3EECFE4FFFBD7E6529EAA08D033
:10112000BBEC0BF0E66E84EC07F0E5529E9A4DD0D6
:10113000F2A205D00001020ED06FF2920DD0F0A005
:1011400005D00001020ED16FF09006D0F0A206D0BB
:101150000001020ED26FF092809837D0F2A40FD027
:10116000EE0EE66E850EE66EF6EC0BF0E552E552FD
:10117000F2940001602B000E6123622B632B9EA072
:1011800024D0E00EE66EB10EE66EDAEC0BF0E5521E
:10119000E5529E900001D05105E0D0078088D051E3
:1011A00001E18150D15105E0D1078088D15101E1A1
:1011B0008150D2510AE0D2078088D25106E1815095
:1011C000040B03E1D32B000ED423E55200EE1AF0FA
:1011D000070EE80403E3E5CFEDFFFBD700EE13F0C5
:1011E000140EE80403E3E5CFEDFFFBD7E5CFFAFFEC
:1011F000E5CFF4FFE5CFF3FFE5CFF5FFE5CFF7FF50
:10120000E5CFF6FFE5CFEAFFE5CFE9FFE5CFDAFF6F
:101210001100D8CFE4FFE0CFE4FFE46EDACFE4FFC3
:10122000E652E552E5CFDAFFE550E5CFE0FFE5CF46
:04123000D8FF1000D3
:0C123400220A207D0A205D0A7D2C0A227F
:10124000746F6B656E223A2274657374696E672AD7
:10125000220A7D0A0025690025692E2530326900A1
:101260002D002263757272656E745F76616C7565B0
:10127000223A2200226964223A222573222C0A2073
:10128000200022626F6479223A7B0A2022766572FE
:1012900073696F6E223A22312E302E30222C0A20B2
:1012A000226461746173747265616D73223A5B0AC2
:1012B000207B0A2020002268656164657273223AEF
:1012C0007B22582D506163687562654170694B657A
:1012D00079223A222573227D2C0A002270617261E4
:1012E0006D73223A7B7D2C0A00227265736F7572D2
:1012F0006365223A222F66656564732F2575222C5B
:101300000A007B0A226D6574686F64223A22707548
:1013100074222C0A00433231362E35322E323333CA
:0B1320002E3132322F383038310A00F5
:04132C00006A0EAE97
:101330009FEF09F00D6C0E1EE86A0E22001E09AE2A
:10134000A7EF09F0086C091EE86A0922001E45ECA7
:101350000CF009BEB7EF09F000AE000C086C091ED6
:10136000E86A0922046C051EE86A0522000C00BE2A
:10137000AEEF09F00188FF0C09C013F008C012F0AD
:1013800008500D02F4CF07F0F3CF06F009500E021B
:10139000F4CF09F0F3CF08F00D02F3500726F45014
:1013A0000822E86A092212500E02F3500726F45070
:1013B0000822E86A09220EAEE2EF09F01250085E38
:1013C0001350095A13AE000C0D50085E0E50095A06
:0213D000000C0F
:0E13D2001E0EF66E000EF76E000EF86E000195
:1013E0000900F550C46F0900F550C56F03E1C467EB
:1013F00001D03DD00900F550BF6F0900F550C06F16
:101400000900F550C16F09000900F550E96E0900A7
:10141000F550EA6E090009000900F550C26F090095
:10142000F550C36F09000900F6CFC6F0F7CFC7F03B
:10143000F8CFC8F0BFC0F6FFC0C0F7FFC1C0F8FFCB
:101440000001C25302E1C35307E00900F550EE6EFC
:10145000C207F8E2C307F9D7C6C0F6FFC7C0F7FF57
:10146000C8C0F8FF0001C407000EC55BBFD712005B
:10147000D9CFE6FFDACFE6FFE1CFD9FFE2CFDAFF3F
:10148000E652E652E652E652D950FB0F146EFF0EBA
:10149000DA20156E14C0DEFFDD6EDECFE6FFDDCF95
:1014A000E6FFFB0EDBCFE6FFFC0EDBCFE6FFFD0E1B
:1014B000DBCFE6FFD5C0E6FFD6C0E6FF32EC00F09A
:1014C000146E070EE15C02E2E16AE552E16E14502F
:1014D000020EF3CFDBFF030EF4CFDBFF020EDBCFF8
:1014E00014F0030EDBCF15F014C0F3FF15C0F4FFAA
:1014F000040EE15C02E2E16AE552E16EE552E5CFFD
:08150000DAFFE7CFD9FF12006A
:08150800D9CFE6FFDACFE6FFC0
:10151000E1CFD9FFE2CFDAFFAC6AAB6AFD0EDBB0F8
:10152000AC88DBA202D0AC8CAB8CDBB4AC8EDBA67F
:1015300002D0AB8801D0AB8ADBB8AC849E98DBBA12
:10154000AB86DBAC02D09D8A01D09D9A9E9ADBAE21
:1015500002D09D8801D09D98FB0EDB50AF6EFB0E34
:10156000FC0EDBCF15F015C014F0156A1450B06EE8
:10157000AC8AAB8E949C948EAC50100B04E0AC50B3
:10158000800B01E1948CE552E5CFDAFFE7CFD9FF7C
:02159000120047
:0E159200D9CFE6FFDACFE6FFE1CFD9FFE2CFF7
:1015A000DAFFFB0EDBCF14F0FC0EDBCF15F00001F1
:1015B000800E15141AE1FB0EDBCFE9FFFC0EDBCF2A
:1015C000EAFFEECFF3FFEDCFF4FFEE2A000EEF229D
:1015D000F3CFE9FFF4CFEAFFFD0EDBCFEFFFEF50D3
:1015E000156AF36E15C0F4FF10D0FB0EDB50FE0839
:1015F00006E1FD0EDBCFE6FF8BEC0CF005D0FD0E17
:10160000DBCFE6FF03EC00F0E552E552E5CFDAFF71
:06161000E7CFD9FF120034
:0A16160006500B02F3CF02F0F4CFF0
:1016200003F00C02F3500326000EF420046E065063
:101630000D02F3500426000EF420056E06500E0233
:10164000F350052607500B02F3500326F4500422F2
:10165000000E052207500C02F3500426F450052218
:1016600007500D02F350052608500B02F3500426D4
:10167000F450052208500C02F350052609500B02C5
:06168000F35005261200E4
:0A168600FE0EE3CFE9FFFF0EE3CFF5
:10169000EAFFF36AF46AEE5203E0F34AF42AFBD756
:1016A0001200FF0EE3CFF8FFE552FF0EE3CFF7FF86
:1016B000E552FF0EE3CFF6FFE552E66AE66AE66A18
:1016C0000900F55209E0FD0EE32A05E1FE0EE32ACA
:1016D00002E1FF0EE32AF4D7FD0EE3CF07F0FE0E82
:0C16E000E3CF08F0FF0EE3CF09F012008A
:0416EC00056A046A1D
:1016F000036A026A200EE76ED8900636073608366F
:10170000093602360336043605360B50025C0C509F
:1017100003580D5004580E50055809E30B50025E53
:101720000C50035A0D50045A0E50055A062AE72E43
:04173000E4D71200E8
:0C173400D9CFE6FFDACFE6FFE1CFD9FF06
:10174000E2CFDAFFFD0EDB507E0BCD6EFD0EDBAC83
:1017500002D0CD8E01D0CD9ECF6ACE6A9E90DBAEF8
:1017600002D09D8001D09D90CD80E552E5CFDAFF7B
:06177000E7CFD9FF1200D3
:0A177600D9CFE6FFDACFE6FFE1CF9E
:10178000D9FFE2CFDAFFE652F20E0001D717ABAC79
:1017900003D0D791ABB0D781ABB4D785ABB2D787E5
:1017A000AE50DF6EDF50E552E552E5CFDAFFE7CF0E
:0417B000D9FF12004B
:0C17B400D9CFE6FFDACFE6FFE1CFD9FF86
:1017C000E2CFDAFFE652E652FC0EDBCFDEFFDBCFE4
:1017D000DDFF010EDB50CF6EDF50CE6EE552E552DD
:0C17E000E552E5CFDAFFE7CFD9FF120099
:0417EC00D9CFE6FF6C
:1017F000DACFE6FFE1CFD9FFE2CFDAFFE652E652D9
:10180000FC0EDBCFDEFFDBCFDDFF010EDB50D76E42
:10181000DF50D66EE552E552E552E5CFDAFFE7CF6D
:04182000D9FF1200DA
:0C182400D9CFE6FFDACFE6FFE1CFD9FF15
:10183000E2CFDAFFFD0EDB507F0BD56ED76AD66A9A
:10184000F294FD0EDBAE02D0F28A01D0F29AD58E70
:0C185000E552E5CFDAFFE7CFD9FF120028
:04185C00FF0EE35048
:101860001C6EEF0E01D0F30EE76EE72E35EF0CF095
:101870000C0E1B6EE76AE72E3BEF0CF01B2E3AEFC7
:0A1880000CF01C2E33EF0CF01200E8
:06188A00056A046A100E5D
:10189000E76ED89008360936043605360D50045CDC
:1018A0000E50055805E30D50045E0E50055A082AE7
:0618B000E72EF0D7120044
:0A18B600F36AF46AFF0EE124E96E04
:1018C000FF0EE220EA6EED6607D02F0EEF6404D023
:0A18D0003A0EEF6001D0F32A120077
:0618DA00000EF36E00EEAB
:1018E00000F0060E01D81200EA6002D0EE6AFCD7C2
:0A18F000F350E9601200EE6AFCD725
:0618FA0015EE00F025EEE2
:1019000000F0F86A019CE9EC09F007EC00F0B6EC95
:0619100007F0FBD71200F6
:0A191600FF0EE350ACBA04D0AF6A34
:10192000AB8EAC8A949CACA2FED7AD6EF36EF46A1B
:021930001200A3
:0E193200303132333435363738396162636410
:03194000656600D9
:0D1943005E0100000067656E6572617465ED
:101950006400000064756D6D79003E3E3E3E3E3E83
:101960004F69767274434249307661434247544E20
:1019700034366B74796C75756F716553414B787A39
:101980005A586C5A5545647A64476C52597A306794
:101990000000000000000000000000000000000047
:0219A0000D0830
:020000040030CA
:0100010008F6
:0100020018E5
:010003001EDE
:01000500807A
:010006008178
:010008000FE8
:01000900C036
:01000A000FE6
:01000B00E014
:01000C000FE4
:01000D0040B2
:00000001FF
