:020000040000FA
:060000009DEF1FF012004D
:020006001200E6
:060008004DEF19F012009B
:02000E001200DE
:02001000FEFFF1
:020012000000EC
:06001800E9EF19F01200EF
:02001E000300DD
:10002000B53F0000600000005D000000120000000D
:10003000DE0000000200000010000000DC000000F4
:0400400002000000BA
:0C0044009294928680868096E8EF05F08A
:10005000D9CFE6FFE1CFD9FF020EE126010EDB6A20
:10006000800EDF6EDF50000812E2FE0EDB50DF1460
:1000700003E09286808602D092968096808400006B
:100080000000000000008094DF90DF42EBD79286F2
:100090008086808400000000000000008050080B73
:1000A00001E0010EE76E010EE7CFDBFF8094010E49
:1000B000DB5000D0006E020EE15C02E2E16AE55224
:1000C000E16E0050E552E7CFD9FF1200D9CFE6FF2D
:1000D000E1CFD9FF020EE126010EDB6A928680860F
:1000E000800EDF6EDF50000810E2808480A607D00B
:1000F000010EDB50DF10E76E010EE7CFDBFF8094CF
:1001000000000000DF90DF42EDD7FE0EDB5003E081
:100110009296809602D092868086808400000000AD
:1001200000000000809492868086010EDB5000D093
:10013000006E020EE15C02E2E16AE552E16E0050FF
:10014000E552E7CFD9FF12009286808680940000A6
:10015000000000000000808400000000000000009B
:10016000929680960000000000000000809400003D
:10017000000000000000808400000000000000007B
:10018000928680860000000000000000809412002B
:10019000D9CFE6FFE1CFD9FFE652928680860000F4
:1001A000000000000000809400000000000000003B
:1001B000DF6A090EDF5C0CE28084000000000000B2
:1001C000000080940000000000000000DF2AF1D74A
:1001D000BBDFE552E552E7CFD9FF1200D9CFE6FFEA
:1001E000E1CFD9FFE652DF6AD3DF1E0EE66E30DFC5
:1001F000E552DF26DF50E552E552E7CFD9FF120086
:10020000D9CFE6FFE1CFD9FFE652DF6A9DDF070EC7
:10021000E66E1EDFE552DF6E010EE66E57DFE55239
:100220000001CC6FE66A52DFE5520001CD6FDF506E
:10023000E552E552E7CFD9FF1200D9CFE6FFE1CF73
:10024000D9FFE652DF6A80DF060EE66E01DFE55277
:10025000DF26FE0EDBCFE6FFFBDEE552DF26DF50BA
:10026000E552E552E7CFD9FF1200D9CFE6FFE1CF43
:10027000D9FF050EE126DF6A67DFFE0EDB50010ABB
:1002800004E0010A07E1030E01D0050EE66EE0DE90
:10029000E552DF26010EDB6A020EDB6A010EDBCFC0
:1002A00000F0020EDBCF01F0026AD8900250000A83
:1002B00006E6400E005C9C0E0158000E02580DE24E
:1002C00080A60DD0040EE66EB9EC1FF0E552010ECB
:1002D000DB2A020EE3E3DB2AE1D780B6DF2A010E38
:1002E000E66EF4DEE552E76E040EE7CFDBFF010EAB
:1002F000E66EECDEE552E76E030EE7CFDBFF040EA1
:10030000DB50006E016A016E006A030EDB500001D3
:100310000024CE6F000E0120CF6FE66AD7DEE552D3
:100320000001CD6FDF50006E050EE15C02E2E16A74
:10033000E552E16E0050E552E7CFD9FF1200D9CF68
:10034000E6FFE1CFD9FF300EE126DE6ADE6A800EDD
:10035000DE6EC00EDD6EDD52DD52540EF36E040E05
:10036000F3CFDBFFE30EF36E050EF3CFDBFF250EBD
:10037000F36E060EF3CFDBFF3D0EF36E070EF3CFE9
:10038000DBFFA20EF36E080EF3CFDBFFE70EF36E7A
:10039000090EF3CFDBFF3B0EF36E0A0EF3CFDBFF4C
:1003A000B60EF36E0B0EF3CFDBFF0A0EF36E0C0EE0
:1003B000F3CFDBFFD70EF36E0D0EF3CFDBFF230E73
:1003C000F36E0E0EF3CFDBFF3C0EF36E0F0EF3CF8A
:1003D000DBFFAC0EF36E100EF3CFDBFFC50EF36E3A
:1003E000110EF3CFDBFFA70EF36E120EF3CFDBFF80
:1003F000380EF36E130EF3CFDBFFD70EF36E140E31
:10040000F3CFDBFFA30EF36E150EF3CFDBFF1E0E53
:10041000F36E160EF3CFDBFFC20EF36E170EF3CFA3
:10042000DBFF0A0EF36E180EF3CFDBFFD70EF36E71
:10043000190EF3CFDBFF230EF36E1A0EF3CFDBFFA3
:100440003C0EF36E1B0EF3CFDBFFFD0EDBCFE9FF9F
:10045000FE0EDBCFEAFF1C0EEECFDBFF1D0EEECF54
:10046000DBFF1E0EEECFDBFF1F0EEECFDBFFFB0E22
:10047000DBCFE9FFFC0EDBCFEAFF200EEECFDBFF88
:10048000210EEECFDBFF220EEECFDBFF230EEECFF1
:10049000DBFF140EDBCF00F0150EDBCF01F0160EE4
:1004A000DBCF02F0170EDBCF03F0200EDBCF2BF0FB
:1004B000210EDBCF2CF0220EDBCF2DF0230EDBCF75
:1004C0002EF0180EDBCF30F0190EDBCF31F01A0E04
:1004D000DBCF32F01B0EDBCF33F0D9EC12F02BC0A8
:1004E00004F02CC005F02DC006F02EC007F02BC084
:1004F00030F02CC031F02DC032F02EC033F000C0EF
:100500002BF001C02CF002C02DF003C02EF0F0EC57
:1005100011F02C0E2BC0DBFF2D0E2CC0DBFF2E0E9E
:100520002DC0DBFF2F0E2EC0DBFF080EDBCF2BF024
:10053000090EDBCF2CF00A0EDBCF2DF00B0EDBCF3C
:100540002EF01C0EDBCF30F01D0EDBCF31F01E0E77
:10055000DBCF32F01F0EDBCF33F0D9EC12F01C0EE4
:10056000DBCF30F01D0EDBCF31F01E0EDBCF32F0D3
:100570001F0EDBCF33F0D9EC12F02BC004F02CC0EF
:1005800005F02DC006F02EC007F0040EDBCF2BF0D7
:10059000050EDBCF2CF0060EDBCF2DF0070EDBCFE8
:1005A0002EF01C0EDBCF30F01D0EDBCF31F01E0E17
:1005B000DBCF32F01F0EDBCF33F0D9EC12F02BC0C3
:1005C00008F02CC009F02DC00AF02EC00BF02BC093
:1005D00030F02CC031F02DC032F02EC033F004C00A
:1005E0002BF005C02CF006C02DF007C02EF0F0EC6B
:1005F00011F02BC000F02CC001F02DC002F02EC075
:1006000003F0D9CFE9FFDACFEAFFEECF0CF0EECF5F
:100610000DF0EECF0EF0EFCF0FF00CC030F00DC0AC
:1006200031F00EC032F00FC033F0F0EC11F0240EB8
:100630002BC0DBFF250E2CC0DBFF260E2DC0DBFF01
:10064000270E2EC0DBFF2C0EDBCF08F02D0EDBCFEC
:1006500009F02E0EDBCF0AF02F0EDBCF0BF0306A45
:10066000316AC80E326E410E336E08C02BF009C0DD
:100670002CF00AC02DF00BC02EF0EFEC11F02BC0C7
:1006800004F02CC005F02DC006F02EC007F00C0EB3
:10069000DBCF10F00D0EDBCF11F00E0EDBCF12F022
:1006A0000F0EDBCF13F0100EDBCF2BF0110EDBCFD4
:1006B0002CF0120EDBCF2DF0130EDBCF2EF01C0E24
:1006C000DBCF30F01D0EDBCF31F01E0EDBCF32F072
:1006D0001F0EDBCF33F0D9EC12F02BC014F02CC07E
:1006E00015F02DC016F02EC017F02BC030F02CC026
:1006F00031F02DC032F02EC033F010C02BF011C0FD
:100700002CF012C02DF013C02EF0F0EC11F02BC025
:100710000CF02CC00DF02DC00EF02EC00FF02BC031
:1007200030F02CC031F02DC032F02EC033F004C0B8
:100730002BF005C02CF006C02DF007C02EF0D9EC30
:1007400012F02BC000F02CC001F02DC002F02EC022
:1007500003F0240EDBCF18F0250EDBCF19F0260EA8
:10076000DBCF1AF0270EDBCF1BF018C030F019C01A
:1007700031F01AC032F01BC033F0F0EC11F0280E4B
:100780002BC0DBFF290E2CC0DBFF2A0E2DC0DBFFA8
:100790002B0E2EC0DBFF280EDBCF00F0290EDBCFA7
:1007A00001F02A0EDBCF02F02B0EDBCF03F0306A14
:1007B000316AC80E326E420E336E00C02BF001C09B
:1007C0002CF002C02DF003C02EF09CEC13F0010AB7
:1007D0000EE1280EDB6A290EDB6AC80EF36E2A0EC4
:1007E000F3CFDBFF420EF36E2B0EF3CFDBFF280EB1
:1007F000DBCF00F0290EDBCF01F02A0EDBCF02F0B9
:100800002B0EDBCF03F0CD0E306ECC0E316E326E80
:100810003D0E336E00C02BF001C02CF002C02DF055
:1008200003C02EF0A5EC13F0010A14E1CD0EF36E17
:10083000280EF3CFDBFFCC0EF36E290EF3CFDBFFD8
:10084000CC0EF36E2A0EF3CFDBFF3D0EF36E2B0EB4
:10085000F3CFDBFFFB0EDBCFE9FFFC0EDBCFEAFFC4
:100860002C0EDBCFEEFF2D0EDBCFEEFF2E0EDBCFFF
:10087000EEFF2F0EDBCFEEFFFD0EDBCFE9FFFE0E0E
:10088000DBCFEAFF280EDBCFEEFF290EDBCFEEFF3A
:100890002A0EDBCFEEFF2B0EDBCFEEFF300EE15C3E
:1008A00002E2E16AE552E16EE552E7CFD9FF1200BC
:1008B000D9CFE6FFE1CFD9FF080EE126390E046E4D
:1008C000280E056E290E066E3F0E076E2B6A2C6AE7
:1008D000F00E2D6E400E2E6EF70EDBCF30F0F80EC0
:1008E000DBCF31F0F90EDBCF32F0FA0EDBCF33F095
:1008F000D9EC12F02BC00CF02CC00DF02DC00EF076
:100900002EC00FF0CD0E146E4C0E156E6D0E166EC1
:10091000430E176EF70EDBCF18F0F80EDBCF19F091
:10092000F90EDBCF1AF0FA0EDBCF1BF018C030F057
:1009300019C031F01AC032F01BC033F014C02BF0D4
:1009400015C02CF016C02DF017C02EF0F0EC11F0F1
:100950002BC010F02CC011F02DC012F02EC013F0DF
:100960002BC030F02CC031F02DC032F02EC033F04F
:100970000CC02BF00DC02CF00EC02DF00FC02EF0CF
:1009800086EC12F02BC008F02CC009F02DC00AF044
:100990002EC00BF02BC030F02CC031F02DC032F047
:1009A0002EC033F004C02BF005C02CF006C02DF093
:1009B00007C02EF0F0EC11F02BC000F02CC001F0BD
:1009C0002DC002F02EC003F02BC0E6FF2CC0E6FFC6
:1009D0002DC0E6FF2EC0E6FFD950FB0FE96EFF0EDB
:1009E000DA20EA6EEECFE6FFEECFE6FFEECFE6FFCF
:1009F000EFCFE6FF48EC1DF0E552E552E552E55237
:100A0000E552E7CF03F0E552E7CF02F0E552E7CF3A
:100A100001F0E552E7CF00F02AC020F02BC021F012
:100A20002CC022F02DC023F0306A316A326A400EA9
:100A3000336E2AC02BF021C02CF022C02DF023C031
:100A40002EF0EFEC11F02BC01CF02CC01DF02DC0CF
:100A50001EF02EC01FF02BC030F02CC031F02DC086
:100A600032F02EC033F000C02BF001C02CF002C0D9
:100A70002DF003C02EF0F0EC11F02BC0DEFF2CC0E7
:100A8000DEFF2DC0DEFF2EC0DDFFDD52DD52D9CFEF
:100A9000E9FFDACFEAFFEECF08F0EECF09F0EECFB4
:100AA0000AF0EFCF0BF0390E306E280E316E290EA2
:100AB000326E3F0E336E08C02BF009C02CF00AC016
:100AC0002DF00BC02EF0EFEC11F02BC004F02CC079
:100AD00005F02DC006F02EC007F0CD0E306E4C0E86
:100AE000316E6D0E326E430E336ED9EC12F02BC0A8
:100AF00000F02CC001F02DC002F02EC003F0840ED7
:100B0000106E920E116E020E126E410E136ED9CF40
:100B1000E9FFDACFEAFFEECF14F0EECF15F0EECF1B
:100B200016F0EFCF17F014C030F015C031F016C03A
:100B300032F017C033F010C02BF011C02CF012C0EF
:100B40002DF02E6EEFEC11F02BC00CF02CC00DF040
:100B50002DC00EF02EC00FF02BC030F02CC031F0A5
:100B60002DC032F02EC033F000C02BF001C02CF0AD
:100B700002C02DF003C02EF086EC12F0040E2BC044
:100B8000DBFF050E2CC0DBFF060E2DC0DBFF070EC2
:100B90002EC0DBFF040EDBCF00F0050EDBCF01F033
:100BA000060EDBCF02F0070EDBCF03F000C02AF009
:100BB00001C02BF002C02CF003C02DF0080EE15C48
:100BC00002E2E16AE552E16EE552E7CFD9FF120099
:100BD000D9CFE6FFE1CFD9FF140EE126C8EC00F033
:100BE000040EDB6A010EE66E35EC01F0E552006E94
:100BF000040EDBCFE7FF0050E726040EE7CFDBFF54
:100C0000CEC0DEFFCFC0DDFFE66A35EC01F0E55275
:100C1000006E040EDBCFE7FF0050E726040EE7CF9F
:100C2000DBFF020ECEC0DBFF030ECFC0DBFF040EE6
:100C3000DB5003E0C8EC00F0C8D0000EDFCF2CF092
:100C4000010EDBCF2DF0DAEC11F0080E2BC0DBFF2C
:100C5000090E2CC0DBFF0A0E2DC0DBFF0B0E2EC0D1
:100C6000DBFF020EDBCF2CF0030EDBCF2DF0DAEC36
:100C700011F00C0E2BC0DBFF0D0E2CC0DBFF0E0E97
:100C80002DC0DBFF0F0E2EC0DBFFD9500C0FE66E20
:100C9000000EDA20E66ED950080FE66E000EDA205C
:100CA000E66E9FEC01F0E552E552E552E552D9506F
:100CB0000C0FE96EDACFEAFFEECFE6FFEECFE6FFEC
:100CC000EECFE6FFEFCFE6FFD950080FE96EDACF9F
:100CD000EAFFEECFE6FFEECFE6FFEECFE6FFEFCF87
:100CE000E6FFE6DD006E080EE15E0050100E2AC041
:100CF000DBFF110E2BC0DBFF120E2CC0DBFF130E2F
:100D00002DC0DBFF080EDBCF00F0090EDBCF01F0BA
:100D10000A0EDBCF02F00B0EDBCF03F0306A316A34
:100D2000326A3F0E336E00C02BF001C02CF002C0BF
:100D30002DF003C02EF0F0EC11F046EC13F02DC0B6
:100D4000C7F00C0EDBCF00F00D0EDBCF01F00E0E66
:100D5000DBCF02F00F0EDBCF03F0306A316AC80E32
:100D6000326E420E336E00C02BF001C02CF002C078
:100D70002DF003C02EF0D9EC12F06DEC13F02CC066
:100D8000C8F02DC0C9F0100EDBCF00F0110EDBCF84
:100D900001F0120EDBCF02F0130EDBCF03F0306A4E
:100DA000316AC80E326E420E336E00C02BF001C0A5
:100DB0002CF002C02DF003C02EF0D9EC12F06DEC37
:100DC00013F02CC0CAF02DC0CBF0040EDB50006E27
:100DD000140EE15C02E2E16AE552E16E0050E55278
:100DE000E7CFD9FF1200C8C0F3FFC9C0F4FF12005B
:100DF000CAC0F3FFCBC0F4FF12000001C7511200BC
:100E00003CEC0CF0FB0EDBCFF3FFDB06F3500009EC
:100E10000AE08AEC0CF0FA0EF5EC0CF0F3E1011CA0
:100E2000F1E1010E01D0000E6BEF0CF03CEC0CF088
:100E30003B0EE12402E3E168E652E16E010EDB6A5B
:100E4000020EDB6AF90EDBCFF6FFFA0EDBCFF7FFFF
:100E5000FB0EDBCFF8FF0800F550DF6EDF5002E13C
:100E60008FEF0BF0250EDF5C02E082EF0BF0030E3C
:100E7000DB6A040EDB6A050EDB6A060EDB6A070E10
:100E8000DB6AA4EC0BF02D0EDF5C0CE02B0EDF5CBC
:100E900009E0200EDF5C06E0230EDF5C03E0300E8D
:100EA000DF5C1AE1DF50300A14E0130A0FE0030A96
:100EB0000AE00B0A05E0060AE4E1030EDB80E1D755
:100EC000030EDB82DED7030EDB84DBD7030EDB866B
:100ED000D8D7030EDB88D5D72A0EDF5C1BE1A0EC48
:100EE0000BF0EEEC0BF010E0030EDB802C682D68AD
:100EF000130EDBCF31F0140EDBCF32F0ADEC11F07E
:100F0000040E2AC0DBFF03D0130ED7EC0BF0A4ECC9
:100F10000BF00BD0090EDB6A45EC0CF003E0B9ECEA
:100F20000CF0FAD7090ED7EC0BF0030EDBB0DB9810
:100F30002E0EDF5C1BE1A4EC0BF02A0EDF5C0BE154
:100F4000A0EC0BF0EEEC0BF003E1130E29EC0CF02F
:100F5000A4EC0BF00BD0090EDB6A45EC0CF003E0BF
:100F6000B9EC0CF0FAD7090E29EC0CF0680EDF5C36
:100F700007E1A4EC0BF0680EDF5C1DE1030E18D056
:100F8000740EDF5C17E07A0EDF5C14E0480EDF5C65
:100F900006E0540EDF5C03E05A0EDF5C02E1020E55
:100FA00007D06C0EDF5C03E06A0EDF5C04E1010E2B
:100FB0007CEC0CF0C9DBDF506E0A01E17FD31E0A26
:100FC00001E192D1200A01E18FD13F0A01E149D12B
:100FD0001A0A01E146D10D0A01E143D1200A01E1DB
:100FE00040D13A0A01E13DD1200A01E13AD1260A75
:100FF00001E135D10D0A01E132D11A0A01E1D9D05E
:10100000200A4AE0300A1FE0460A0EE0250A01E005
:1010100083D3D950F90FE96EFF0EDA20EA6E010E84
:10102000EE5E000EEE5AEE5A8AEC0CF0250EE66EDD
:1010300095DB03E1011C01E169D386EC0CF001E2D0
:101040006BD3DB2A69D3080EDB6A040EDB50010880
:1010500006E2040EDB044EEC0CF0DB508BDB080EDA
:10106000DB5009E0030EDB50010B05E172DB01E010
:101070004DD3080EDB6A64DBEFCFDFFFFEEC0CF034
:1010800003E1011C01E142D386EC0CF001E3DB2A11
:1010900060DB01E141D33AD3070EDB5002080FE1D8
:1010A000CAEC0CF0030E91EC0CF00E0EEECFDBFF51
:1010B0000F0EEECFDBFF100EEECFDBFF20D0F70ED2
:1010C000DBCF03F0F80EDBCF04F0020E035E000E60
:1010D000045AF70E03C0DBFFF80E04C0DBFF03C0A9
:1010E000E9FF04C0EAFF81EC0CF0026A0E0E00C0BA
:1010F000DBFF0F0E01C0DBFF100E02C0DBFF0E0E88
:10110000DBCFE6FF0F0EDBCFE6FF100EDBCFE6FFF7
:1011100061EC1EF0E552E552E552130E2BC0DBFFE9
:10112000140E2CC0DBFF060EDB5005E0130EC5ECE1
:101130000CF001E26ADBE9EC0CF002E2130E37DBA3
:10114000ACEC0CF006E0040EC5EC0CF002E2050E6F
:101150002EDB030EDBB005D0FCDA01E0D7D2080E9F
:10116000DB6A090EDB6A0E0EDBCFF6FF0F0EDBCF5C
:10117000F7FF100EDBCFF8FF0800F550DF6EDF50F1
:1011800014E0EFEC0CF011E2FEEC0CF003E1011CBA
:1011900001E1BCD2BBDB01E3DB2A090EDB2AD9501B
:1011A0000E0FE96E000ECBDBE7D7D3DA01E1B4D244
:1011B000ADD2C6DA110EEECFDBFF120EEDCFDBFFA4
:1011C000110EDBCFE6FF120EDBCFE6FF53EC1EF075
:1011D000E552E552130EF3CFDBFF140EF4CFDBFF25
:1011E000060EDB5004E0130ED0DB01E20EDBE9EC6F
:1011F0000CF002E2130EDBDAAFDB05E0040EC5DB18
:1012000002E2050ED4DA030EDBB005D0A2DA01E06B
:101210007DD2080EDB6A090EDB6A110EDBCFE9FF17
:10122000120EDBCFEAFFEFCFDFFFDF5014E0D7DB9A
:1012300012E2E4DB03E1011C01E168D267DB01E3B8
:10124000DB2A090EDB2A110EDB2ADBCFE9FF120EA7
:10125000E8E3DB2AE6D77DDA01E15ED257D2030E5E
:10126000DB8E070EDB0410E195DB040E5ADB0A0E61
:10127000EECFDBFF0B0EEECFDBFF0C0EEECFDBFF76
:101280000D0EEECFDBFF6CD0070EDB5003082CE118
:10129000030EDBAE0DD0B2DA020E76DAEFCF00F03D
:1012A000016A026A036A00AE39D00168026835D06B
:1012B000F70EDBCF01F0F80EDBCF02F0020E015E7D
:1012C000000E025AF70E01C0DBFFF80E02C0DBFF72
:1012D00001C0E9FF02C0EAFFEFCF00F00A0E00C034
:1012E000DBFF0B0EDB6A38D0070EDB50020809E18A
:1012F000030EDBAE04D059DB02AE10D00ED055DBAE
:101300000DD0030EDBAE12D079DA020E3DDAF9DA37
:10131000026A036A01AE02D002680368E2DA0C0EC8
:1013200002C0DBFF0D0E03C0DBFF1AD0F70EDBCFD0
:1013300002F0F80EDBCF03F0020E025E000E035A3D
:10134000F70E02C0DBFFF80E03C0DBFF02C0E9FFAF
:1013500003C0EAFFD6DAC5DA0C0EDB6A0D0EDB6AD3
:10136000060EDB5005E1010EF36E050EF3CFDBFF39
:10137000150EDB6A160EDB6AD950370F006E000EB1
:10138000DA20016E390E00C0DBFF3A0E01C0DBFF30
:10139000380EDB6A080EDB6A0A0EAEDADF50780A16
:1013A00012E0200A10E0280A0CE0200A0AE03F0AB6
:1013B00006E00D0A02E0200A08E1020E05D0080E40
:1013C00003D0080EDF26100E97DA030EDBBE02D024
:1013D000DB92DB94DB50800B24E08ADAD890030E9A
:1013E000EB50000A08E6000EEE5C000EEE58000E10
:1013F000EE58000EEE5815E213DA2F6830683168A7
:1014000032681BEC1EF00A0E26C0DBFF0B0E27C055
:10141000DBFF0C0E28C0DBFF0D0E29C0DBFF2D0EFD
:1014200008D0030EDBA202D02B0E03D0DBA408D021
:10143000200EF36E170EF3CFDBFF150EDB2A02D062
:10144000170EDB6A050EDB5003E1B7D901E189D045
:10145000A40E006E3F0E016E000E026E070EDBCF73
:1014600003F0046A056A066A03C02FF004C030F076
:1014700005C031F006C032F0D3D986EC1EF0005022
:101480002624F36E01502720F46E02502820F86EB7
:10149000F4CFF7FFF3CFF6FF0800090EF5CFDBFF1F
:1014A000580EDF5C0FE1610EF36E090E7BD90AE383
:1014B000200E006E090EDBCFE7FF0050E75E090E3D
:1014C000E7CFDBFF070EDBCF00F0016A026A036A99
:1014D0000FDA00C02FF001C030F002C031F003C0BD
:1014E00032F0EECF2AF0EECF2BF0EECF2CF0EFCF94
:1014F0002DF086EC1EF02DC0EDFF2CC0EDFF2BC0B3
:10150000EDFF2AC0EFFF390EDBCFE9FFDB063A0E15
:10151000DBCFEAFF01E2DB06090EDBCFEFFF150EA2
:10152000DB2A4BD995E1030EDBA61DD06F0EDF5CE5
:1015300006E1C1D918E3150EDB285BDA14D0780E6A
:10154000DF5C09E0580EDF5C06E0620EDF5C03E062
:10155000420EDF5C08E1020EF36E160EF3CFDBFFE6
:1015600002D0150EDB6A030EDB50100B0EE0040EEA
:10157000DBCF00F0050EDB50D880005406E2060EEB
:10158000DB5003E1040EDB5034DA95D90AE2050E94
:10159000DBCFE7FF150EDB50E75E050EE7CFDBFF85
:1015A00002D0050EDB6A040EDBCF00F0160E45D923
:1015B000D880005414E2160EDBCFE6FF150EDBCF09
:1015C000E6FF040EDBCFE6FF050EDB50E552E75CDD
:1015D000E552D880E754E552D880E7545FD9030E2E
:1015E000DB50010B0BE1080EDB5008E0B2D801E044
:1015F0008DD0080EDB50BED8080EDB6A170EDB500C
:1016000007E088D9170EF1D903E1011C01E17ED072
:10161000160EDB5016E07ED9300EE66E9FD802E142
:10162000011C74E077D9DFCFE6FFD9EC1DF0E5525D
:10163000E552E552F4CF01F00001F31C02E1011C78
:1016400065E0050EDBCF00F0160EDB50D8800054AD
:1016500009E2050EDBCFE7FF160EDB50E75E050E55
:10166000E7CFDBFF300EE66E050ECBD94FE1390E2A
:10167000DB2ADBCFE9FF3A0E01E3DB2ADBCFEAFF0F
:10168000090EEFCFDBFFDB500EE044D9090EADD9D8
:1016900002E1011C3BE0390EDB2ADBCFE9FF3A0E09
:1016A000EDE3DB2AEBD755D831E1160EDBCFE6FFB1
:1016B000080EC3D8E552E7245DD82ED0070EDB50C4
:1016C000030A1CE0010A14E0030A07E07BD9DBCF20
:1016D000EEFF020EDBCFEDFF1FD0F5D8056A03AE9B
:1016E00002D0046805682CD8BCD805C0EEFF14D021
:1016F000EAD803BE046824D8B4D80ED063D9DBCFAF
:10170000EFFF0AD07BD905E1011C03E1F368F4681F
:1017100010D0FCD801E3DB2A79D92BEF07F0010EBA
:10172000DBCF00F0020EDBCF01F000C0F3FF01C001
:10173000F4FF3B0EE15C02E2E16AE552E16ECBD0E0
:1017400029D9020E91EF0CF061D90800F550DF6E37
:101750001200200EE66E080E01EF0DF0D9EC1DF020
:10176000E552E552E552F3CF00F0F4CF01F000016D
:10177000F31C1200006E016AD950010F4DD90050C0
:10178000EE260150ED221200045E000E055AF70EFF
:1017900004C0DBFFF80E05C0DBFF04C0E9FF05C095
:1017A000EAFF1200DBCFF4FFF350F45C1200DB50D1
:1017B000E76E040EE7CFDBFF12000A0EDBCF00F06E
:1017C0000B0EDBCF01F00C0EDBCF02F00D0EDBCFEA
:1017D00003F000500110021003101200130EEECFA0
:1017E000DBFF140EEDCFDBFF130EDBCF00F0140E8A
:1017F000DBCF01F00001800E01141200F70EDBCFE9
:1018000004F0F80EDBCF05F01200050EDB50E66E9B
:10181000D950130F01D9E552E750EE6EED6A120070
:101820000A0EDBCF2AF00B0EDBCF2BF00C0EDBCF3A
:101830002CF00D0EDBCF2DF01200DBCFE6FF150EE6
:10184000DBCFE6FF050EDB50E552E724E552E72447
:101850001200DB50CED8010EF36E060EF3CFDBFF85
:101860001200EE50EFCFEAFFE96E02C0EEFF03C0B8
:10187000EEFF04C0EEFF1200D9CFE6FFDACFE6FF9D
:10188000E1CFD9FFE2CFDAFF1200DFCFE6FFE66A51
:101890006BEC1FF0E552E552F3501200E76E080EB4
:1018A000E7CFDBFF1200EECF00F0EECF01F0EFCF7D
:1018B00002F0036A1200050EDBCF00F0150EDB50BC
:1018C000D88000541200010EDBCF02F0020EDBCFF5
:1018D00003F0046A1200E552E5CFDAFFE7CFD9FF43
:1018E00012000A0E00C0DBFF0B0E01C0DBFF12006E
:1018F000D9500A0F0CEF0DF0F36E070EF3CFDBFF9C
:101900001200EECF00F0EFCF01F01200010EDB2A43
:10191000020E1200FC0EDBCFE6FFFD0EDBCFE6FF72
:101920001200005E000E015AF70E00C0DBFFF80E39
:1019300001C0DBFF00C0E9FF01C0EAFF1200DA20AE
:10194000EA6EEF2AEECFF6FF000EEF22EECFF7FFA2
:10195000EF22EECFF8FF1200040EDBCFE6FF130EEE
:10196000DB50E552E75C9ADFDB5004DF060EDB500C
:101970001200090EDB500A0DF350DF24D00FE76E82
:10198000090EE7CFDBFFA4EF0BF0DB50F36E050E83
:10199000D2EF0BF0F70EDBCF00F0F80EDBCF01F04B
:1019A0001200DFCFE6FFAEEF0BF028DF030EECDE18
:1019B00053EF0CF000EC07F0E552E552E552E5522A
:1019C00000091200BDDEEE50EFCFEAFFE96E010E16
:1019D0001200130EDB50F36E040ED2EF0BF0040E68
:1019E000DB50F36E090ED2EF0BF0DBCFE6FFAEEF6C
:1019F0000BF0E76E050EE7CFDBFF12008BDFD1EFB8
:101A00000CF0DBCFE6FF86DFDAEF0CF0D950F90FF0
:101A1000E96EFF0E9FEF0CF0E96E000EDA20EA6E21
:021A20001200B2
:0E1A220080909290300EE66EB9EC1FF0E55207
:101A30009280080EE66EB9EC1FF0E55280B0010C02
:101A4000200EE66EB9EC1FF0E552000CD9CFE6FF90
:101A5000E1CFD9FF80909290010EE66EC7EC1FF0A7
:101A6000E552FE0EDB5005E1300EE66EC7EC1FF0CE
:101A7000E5529280080EE66EC7EC1FF0E552FE0EAE
:101A8000DB0405E1300EE66EC7EC1FF0E552E552CF
:101A9000E7CFD9FF1200D9CFE6FFE1CFD9FFE65259
:101AA000DF6A80909290010EE66EC7EC1FF0E5525F
:101AB0009280080EE66EC7EC1FF0E5528050010BD5
:101AC000DF6E280EE66EC7EC1FF0E552DF50E552E0
:101AD000E552E7CFD9FF1200D9CFE6FFE1CFD9FF1A
:101AE000E652DF6ADFCF00F0080EE76E0018E8AEBE
:101AF00002D0E73402D0E750005C12E2FE0EDBA019
:101B000003D0010EE66E01D0E66AA0DFE552FE0EBC
:101B1000DB407F0BE76EFE0EE7CFDBFFDF2AE2D76D
:101B2000E552E552E7CFD9FF1200D9CFE6FFE1CF6A
:101B3000D9FF030EE126DF6A010EDB6A020EDB6AC3
:101B4000DFCF00F0080EE76E0018E8AE02D0E734F1
:101B500002D0E750005C13E29EDFE76E020EE7CF93
:101B6000DBFF010EDB407F0BE76E010EE7CFDBFFF3
:101B7000020EDB5002E0010EDB8EDF2AE1D7010E00
:101B8000DBCFE6FF12D8E552010EDB50006E030EEC
:101B9000E15C02E2E16AE552E16E0050E552E7CF16
:101BA000D9FF12000001DE6B1200D9CFE6FFE1CFB2
:101BB000D9FFE652FE0EDB500001DE19DF6E590E32
:101BC000006E380E016E000E026EDFCF03F0046A65
:101BD000056A00500324F36E01500420F46E025095
:101BE0000520F86EF4CFF7FFF3CFF6FF0800F5CF2E
:101BF000DEF0E552E552E7CFD9FF12000001DF51D8
:101C00001200D9CFE6FFE1CFD9FFFE0EDBCFDFF028
:101C1000E552E7CFD9FF1200D9CFE6FFE1CFD9FFD8
:101C2000E652DF6ABE0EE66E57DFE552BBDFDFCF5E
:101C300000F0090EE76E0018E8AE02D0E73402D0DB
:101C4000E750005C10E271DFE66EDFCFE9FFEA6A81
:101C5000E9BEEA68000EE926010EEA22E552E750E5
:101C6000EF6EDF2AE4D70001DE51E552E552E7CFFF
:101C7000D9FF12005ADF000901E1010C000CD1DE8E
:101C8000CC0EE66E29DFE5520A0EE66E7DEC1FF003
:101C9000E552440EE66E20DFE5521200D9CFE6FF92
:101CA000E1CFD9FFE652DF6AE5DF00090BE01F0E46
:101CB000E66E7DEC1FF0E552DF2AFF0EDF5CF4E1FB
:101CC000010E01D0000EE552E552E7CFD9FF120018
:101CD000D9CFE6FFE1CFD9FF070EE126020EDB6A7E
:101CE000030EDB6A040EDB6A050EDB680101126B72
:101CF00098DE00096FE1F00EE66EEEDEE552040EAE
:101D0000DB6ADBCF00F0080EE76E0018E8AE02D009
:101D1000E73402D0E750005C01E382D0060EDB6AB4
:101D2000030EDB6ADBCF00F0080EE76E0018E8AEAA
:101D300002D0E73402D0E750005C62E2ACDEDF6E36
:101D4000AADEE76E010EE7CFDBFFDF503EE1010EBA
:101D5000DB503BE1020EDB50E76E050EE7CFDBFF09
:101D6000DBCF00F001011151E76E0018E8AE02D0A0
:101D7000E73402D0E750005C1AE2040EDBCFE9FF43
:101D8000EA6AE9BEEA68090EE926010EEA22EF5086
:101D90000CE0010EF36E030EDB5004E0D890F33636
:101DA000E806FCE1F350000906E1DF6A15D0050EF4
:101DB000DB50115D03E1010EDF6E0ED0DF6A050E10
:101DC000DBCF11F1010E126F07D0DF5005E0010EDD
:101DD000DB5002E0010E4AD0060EDB407F0BE76EBF
:101DE000060EE7CFDBFFDF5002E0060EDB8EDFCF13
:101DF000E6FF2CDEE552020EDB2A030EDB2A92D729
:101E0000040EDBCFE9FFEA6AE9BEEA68090EE926BB
:101E1000010EEA22060EDBCFEFFF040EDB2A71D79C
:101E2000C1DE040EDB6ADBCF00F0080EE76E00189F
:101E3000E8AE02D0E73402D0E750005C11E2040EB5
:101E4000DBCFE9FFEA6AE9BEEA68090EE926010E7E
:101E5000EA22EF50E66EA9DEE552040EDB2AE3D754
:101E60000001DE5102E0DE5101D0000E006E070ECF
:101E7000E15C02E2E16AE552E16E0050E552E7CF33
:101E8000D9FF1200D9CFE6FFE1CFD9FF030EE1263B
:101E9000010EDB6AE66AB5DEE55201011169010E49
:101EA000126FBFDD000902E0010E55D00101125191
:101EB0004CE00EDFDF6EDF5002E0DF504CD0020E50
:101EC000DB6ADBCF00F0080EE76E0018E8AE02D048
:101ED000E73402D0E750005C35E2020EDBCFE9FFC9
:101EE000EA6AE9BEEA68090EE926010EEA22EF5025
:101EF000E66E010EDBCFE9FFEA6AE9BEEA680B0E87
:101F0000EA02F3CFEAFFE902F3CFE9FFF450EA2651
:101F1000130EE926010EEA22E9CF00F0EACF01F024
:101F2000020EDBCF02F0036A02BE036800500224F7
:101F3000E96E01500320EA6EE552E750EF6E020EA3
:101F4000DB2ABFD7010EDB2AB1D7010EDBCFE6FFBC
:101F500058DEE552000E006E030EE15C02E2E16A1B
:101F6000E552E16E0050E552E7CFD9FF1200D9CF1C
:101F7000E6FFE1CFD9FF040EE126FE0EDBCF00F035
:101F800000C0E6FF3BDEE552E7CF00F0D88000540A
:101F900002E2010E8BD0FE0EDB500B0DF3CFE9FFFA
:101FA000F4CFEAFF130EE926010EEA220A0EE92613
:101FB000000EEA22EF6A35DD550EE66E8DDDE55244
:101FC000DF6A080EDF5C1FE2FE0EDB500B0DF3CF65
:101FD000E9FFF4CFEAFF130EE926010EEA22E9CF6A
:101FE00000F0EACF01F0DF500F01E924E96E000EA6
:101FF000EA20EA6E010EEFCFDBFFDBCFE6FF6CDD00
:10200000E552DF2ADED708DE000902E0020E4ED0DC
:1020100001010151E66ED950020FE96EDACFEAFFF5
:10202000E552E750EE6EED6A020EDBCF00F0030ED4
:10203000DBCF01F000C001F0006A020E00C0DBFF40
:10204000030E01C0DBFF0051006E016AD950020F80
:10205000E96EDACFEAFF0050EE260150ED22FE0EC7
:10206000DB500B0DF3CFE9FFF4CFEAFF130EE926A7
:10207000010EEA22080EE926000EEA22020EDBCF4C
:10208000EEFF030EDBCFEDFFFE0EDB500B0DF3CFAB
:10209000E9FFF4CFEAFF130EE926010EEA220A0E49
:1020A000E926000EEA22010EEF6E000E006E040E0D
:1020B000E15C02E2E16AE552E16E0050E552E7CFF1
:1020C000D9FF1200D9CFE6FFE1CFD9FF150EE126E7
:1020D000130EDB6AD4DDE2DD00091AE1130EDBCF5B
:1020E00000F000C0E6FF8ADDE552E7CF00F0E76EC2
:1020F0000018E8AE02D0E73402D0E750005C08E2F6
:10210000130EDBCFE6FF33DFE552130EDB2AE6D7F3
:10211000150EE15C02E2E16AE552E16EE552E7CFBD
:10212000D9FF120042EF0FF0D9CFE6FFE1CFD9FF80
:10213000FE0EDBCF00F000C0E6FF60DDE552E7CF2A
:1021400000F0D880005402E2FE0EDB6AFE0EDB5087
:102150000B0DF3CFE9FFF4CFEAFF130EE926010ED2
:10216000EA22EECF00F0EECF01F0EECF02F0EECF9C
:1021700003F0EECF04F0EECF05F0EECF06F0EECF99
:1021800007F0EECF08F0EECF09F0EFCF0AF0D9CF8D
:10219000E9FFDACFEAFFED50ED500AC0EDFF09C0CC
:1021A000EDFF08C0EDFF07C0EDFF06C0EDFF05C065
:1021B000EDFF04C0EDFF03C0EDFF02C0EDFF01C065
:1021C000EDFF00C0EFFFE552E7CFD9FF1200D9CFF6
:1021D000E6FFE1CFD9FFFE0EDBCF00F000C0E6FF47
:1021E0000DDDE552E7CF00F0D880005402E2FE0E8C
:1021F000DB6AFE0EDB500B0DF3CFE9FFF4CFEAFFF5
:10220000130EE926010EEA22080EE926000EEA2244
:10221000EECF00F0EFCF01F000C0F3FF01C0F4FFFC
:10222000E552E7CFD9FF1200D9CFE6FFE1CFD9FFC2
:10223000E652DF6ADFCF00F0080EE76E0018E8AE66
:1022400002D0E73402D0E750005C2BE2FE0EDB50F8
:102250000B0DF3CFE9FFF4CFEAFF130EE926010ED1
:10226000EA22E9CF00F0EACF01F0DFCF02F0036A03
:1022700002BE036800500224E96E01500320EA6E9A
:10228000EF50E66EE66A540EE66E380EE66E000E0D
:10229000E66EFCEC1CF0046E050EE15E0450DF2AD5
:1022A000C9D7FE0EDB500B0DF3CFE9FFF4CFEAFFE9
:1022B000130EE926010EEA220A0EE926000EEA2292
:1022C000EF50E66EE66AFE0EDB500B0DF3CFE9FF32
:1022D000F4CFEAFF130EE926010EEA22080EE926E2
:1022E000000EEA22EECFE6FFEFCFE6FF450EE66EE8
:1022F000380EE66E000EE66EFCEC1CF0006E070E6B
:0E230000E15E0050E552E552E7CFD9FF120032
:02230E00246A3F
:1023100032AE90EF11F0316C321EE86A3222241E88
:102320002DAE98EF11F02C6C2D1EE86A2D22241E84
:1023300055EC1FF02DBEA8EF11F024AE000C2C6C54
:102340002D1EE86A2D22286C291EE86A2922000C1D
:1023500024BE9FEF11F02588FF0C2DC037F02CC054
:1023600036F02C503102F4CF2BF0F3CF2AF02D5061
:102370003202F4CF2DF0F3CF2CF03102F3502B26A4
:10238000F4502C22E86A2D2236503202F3502B26CC
:10239000F4502C22E86A2D2232AED3EF11F03650E1
:1023A0002C5E37502D5A37AE000C31502C5E325017
:1023B0002D5A000C259E08D0259E2DAE05D02C6CE4
:1023C0002D1EE86A2D22258E2DC027F02CC026F068
:1023D000376A366A8E0E286E296A1FEF14F0337E34
:1023E000256A5BEC14F073EC14F025B603EF14F0DF
:1023F00025A20AD025AA03D025BE03EF14F025A4F8
:102400000FEF14F00CEF14F025AA05D025AC0FEF58
:1024100014F00CEF14F025A00AD025A808D025BE92
:1024200004D025A402D018EF14F01CEF14F0366A83
:10243000296A33502E5C356E10E32BC037F02CC068
:1024400026F02DC027F02EC034F030C02BF031C064
:102450002CF032C02DF0253A09D030C037F031C011
:1024600026F032C027F033C034F0356C259E25BCF1
:10247000258E34C028F025B04BEF14F01A0E3560CD
:102480004BEF14F0286A2E6A25A408D02B6C2C1E62
:102490002D1E2E1EE86A2C222D222E2225AC08D0BD
:1024A000376C261E271E281EE86A2622272228228D
:1024B0002A6A355207E02E342D322C322B322A3242
:1024C000352EF9D72B5037262C5026222D50272277
:1024D0002E5028222AC036F0259E28AE0BD0366C0E
:1024E000371E261E271E281EE86A3722262227228C
:1024F0002822258E28A006D0D880273226323732CF
:102500003632342A34C028F01FEF14F0256A5BEC11
:1025100014F073EC14F025B603EF14F025A205D0E7
:1025200025BA03EF14F00AEF14F025BA16EF14F0F1
:1025300025A005D025B803EF14F016EF14F025B848
:102540000AEF14F0296A7F0E2E24286EE86A2922E9
:102550003350285EE86A295A1A0E346E2E6A366A9B
:10256000376A266A276A30502B5E31502C5A325017
:102570002D5A000E2E5A09E730502B2631502C22AE
:1025800032502D22000E2E2201D0368AD8902B36C2
:102590002C362D362E36D890363637362636273618
:1025A000342EE1D72D502C102B10D8A4368A1FEFD3
:1025B00014F0256A5BEC14F073EC14F025B603EF0D
:1025C00014F025A205D025B803EF14F00AEF14F09B
:1025D00025AA05D025B003EF14F00AEF14F025B0BA
:1025E00002D025A802D016EF14F0296A33502E2409
:1025F000286EE86A29227E0E285EE86A295A366A21
:10260000376A266A276A32502D02F4CF27F0F3CFBB
:1026100026F031502D02F3503726F4502622000EBA
:10262000272232502C02F3503726F4502622000E77
:10263000272230502D02F3503626F4503722000E58
:102640002622272231502C02F3503626F45037220E
:10265000000E2622272232502B02F3503626F45049
:102660003722000E2622272230502C02F450362624
:10267000000E37222622272231502B02F450362614
:10268000000E3722262227221FEF14F0256A5BEC6A
:1026900014F025B650EF13F025A20AD025B403D0CC
:1026A0007F0E2D6E19D0800E2D6E16D02D6A14D08F
:1026B00025B0FCD7870E2E60F1D77E0E2E64F6D79C
:1026C000860E2E5C04E0D8902D322E2AF9D725A450
:1026D00003D02D6C2DAEEAD71200256A5BEC14F006
:1026E00025B677EF13F025A20ED025B405D07F0EC6
:1026F0002D6EFF0E2C6E1FD0800E2D6E2C6A1BD0FF
:102700002D6A2C6A18D025B0FBD78F0E2E60EDD71E
:102710007E0E2E64F5D78E0E2E5C05E0D8902D32FD
:102720002C322E2AF8D725A406D02C6C2D1EE86A50
:102730002D222DAEE5D71200AEEC13F025B6000C1D
:1027400025B0000C25B4000C010CAEEC13F025B63E
:10275000000C25B0000C25A4000C010C256A5BECD4
:1027600014F073EC14F025B6120025AE08D025A0A5
:1027700004D025A802D025801200259012003350E5
:102780002E5C0BE132502D5C08E131502C5C05E1F0
:1027900030502B5C02E125801200D8A002D0258E9B
:1027A00010D02E5033C02EF0336E2D5032C02DF08D
:1027B000326E2C5031C02CF0316E2B5030C02BF0CB
:1027C000306E33502E5C10E0FF0F09E0259025B4E9
:1027D00003D025AE2584120025AE25941200332A9D
:1027E000D89032323132303230502B5E31502C5A48
:1027F00032502D5A2DBEEAD7D8902B362C362D3696
:102800002E2EF8D7C8D77F0E2E6EFF0E2D6E2C6E93
:102810002B6E12007F0E25BEFF0E2E6E02D07F0E95
:102820002E6E800E2D6E2C6A2B6AF3D725AE04D047
:10283000800E2E6E2D6AF7D72E6A2D6AF4D7275098
:10284000261037103610F8E029BEF0D727BE0CD07E
:1028500028502910EBE0D890363637362636273602
:102860002806D8A02906F2D72950D4E12828D2E09A
:1028700036AE11D07F0E361402E137A00CD0372AC5
:10288000E86A2622272207E3D88027322632373209
:10289000282A2828BFE02850C9E037C02BF026C0DE
:1028A0002CF027342D6E28302E6E2D322E9E25BE14
:1028B0002E8E09EF14F02D362E3602E32584257E68
:1028C00006E125802E6A2D6A2C6A2B6A12002E28BA
:1028D00003E0D8802D321200D8902D3202E12582FB
:1028E0001200258612003236333602E3258C257E0F
:1028F00006E12588336A326A316A306A1200332869
:1029000003E0D88032321200D8903232EAE1258AD0
:022910001200B3
:0E291200D9CFE6FFDACFE6FFE1CFD9FFE2CF63
:10292000DAFF260EE12402E3E168E652E16ED950B7
:10293000050FE1D98CEC1AF0006E060EE15C02E2A4
:10294000E16AE552E16E0050DF6E800EDF5C05E06B
:102950000B0EDB5012E0DF0410E0210E0001DA6FF5
:10296000DB6B010EDB68020EDB68030EDB687F0E9B
:10297000F36E040EF3CFDBFF8FD1040EDF5C0EE1AC
:102980003EDA010EEECFDBFF020EEECFDBFF030ED1
:10299000EECFDBFF040EEECFDBFF7ED1DF0410E1D4
:1029A000210E0001DA6FDB6B010EDB6A020EDB6ABF
:1029B000800EF36E030EF3CFDBFF040EDB686CD1E9
:1029C000D9500C0F98D9FAEC19F0006E060EE15CA4
:1029D00002E2E16AE552E16E0050FA0E2AC0DBFF26
:1029E000FB0E2BC0DBFFFC0E2CC0DBFFFD0E2DC051
:1029F000DBFFA6D9F30E306E040E316E350E326E4B
:102A00003F0E87D99CEC13F0010A09E1B3D984D9B0
:102A1000EFEC11F067D9EDD984D9ACD916D00C0EF2
:102A2000DB060D0E01E2DB068BD9306A316A326AB1
:102A30003F0E6FD976D9160EDBCF04F0170EDBCF21
:102A400005F0180EDBCF06F0190E66D9D9EC12F09E
:102A500049D9CFD9F0EC11F01A0E2BC0DBFF1B0EB9
:102A60002CC0DBFF1C0E2DC0DBFF1D0E2EC0DBFFBC
:102A7000160EDBCF2BF0170EDBCF2CF0180EDBCFB2
:102A80002DF0190EDBCF2EF01A0EDBCF30F01B0E1F
:102A9000DBCF31F01C0EDBCF32F01D0EDBCF33F07D
:102AA00086EC12F01FD9120E2BC0DBFF130E2CC0C8
:102AB000DBFF140E2DC0DBFF150E2EC0DBFF4DD942
:102AC000120EDBCF30F0130EDBCF31F0140EDBCF64
:102AD00032F0150E62D90E0E2BC0DBFF0F0E2CC08C
:102AE000DBFF100E2DC0DBFF110E2EC0DBFF3D0EF5
:102AF000F36E1E0EF3CFDBFF7E0EF36E1F0EF3CFD1
:102B0000DBFF0D0EF36E200EF3CFDBFFBF0EF36E77
:102B1000210EF3CFDBFF0E0EDBCF00F00F0EDBCF6D
:102B200001F0100EDBCF02F0110EDBCF03F03A0EF6
:102B3000306E3F0E316ED40E326EC00EEAD8F0EC1D
:102B400011F0220E2BC0DBFF230E2CC0DBFF240E66
:102B50002DC0DBFF250E2EC0DBFF0E0EDBCF2BF0D2
:102B60000F0EDBCF2CF0100EDBCF2DF0110EDBCFD4
:102B70002EF01E0EDBCF30F01F0EDBCF31F0200E1B
:102B8000DBCF32F0210E09D9220EDBCF30F0230E3D
:102B9000DBCF31F0240EDBCF32F0250EDBCF33F06C
:102BA00086EC12F007D9120EDBCF00F0130EDBCF4C
:102BB00001F0140EDBCF02F0150EDBCF03F0CDD801
:102BC000010EDBCF30F0020EDBCF31F0030EDBCF96
:102BD00032F0040EE2D82BC004F02CC005F02DC05A
:102BE00006F02EC007F078D8046A800E056E310E0C
:102BF000066E3F0E076EC9D82BC008F02CC009F036
:102C00002DC00AF02EC00BF0CCD8E1D8D9EC12F0D0
:102C100069D8830E146E800E156E5E0E166EB90E98
:102C2000176EB3D82BC018F02CC019F02DC01AF0B5
:102C30002EC01BF0B6D814C02BF015C02CF016C057
:102C40002DF017C02EF0D9EC12F02BC010F02CC0D4
:102C500011F02DC012F02EC013F0010EDBCF1CF0CE
:102C6000020EDBCF1DF0030EDBCF1EF0040EDBCF18
:102C70001FF01CC030F01DC031F01EC032F01FC06C
:102C800033F0F0EC11F02BC00CF02CC00DF02DC087
:102C90000EF02EC00FF020D8010EDBCF00F0020E98
:102CA000DBCF01F0030EDBCF02F0040EDBCF03F02D
:102CB00000C02AF001C02BF002C02CF003C02DF0A0
:102CC000260EE15C02E2E16AE552E16EE552E5CFF3
:102CD000DAFFE7CFD9FF120064D882D8F0EC11F008
:102CE000DAEF16F02BC000F02CC001F02DC002F07E
:102CF0002EC003F01200E66E000EDA20E66E7FD8DA
:102D0000EECFE6FFEECFE6FFEECFE6FFEFCFE6FF3A
:102D10001200336EF0EF16F0DBCF07F06AD8E7EF62
:102D200016F0EFEC11F0160E2BC0DBFF170E2CC0C7
:102D3000DBFF180E2DC0DBFF190E2EC0DBFF1200CB
:102D4000FA0EDBCF00F0FB0EDBCF01F0FC0EDBCF89
:102D500002F0FD0EDBCF03F01200120EDBCF2BF0E2
:102D6000130EDBCF2CF0140EDBCF2DF0150EDBCFC6
:102D70002EF01200FA0EDBCF04F0FB0EDBCF05F0D5
:102D8000FC0EDBCF06F0FD0E12000C0EDBCF2CF09C
:102D90000D0EDBCF2DF0DCEF11F0DBCF33F0D9EFF0
:102DA00012F02BC030F02CC031F02DC032F02EC00C
:102DB00033F01200010E2BC0DBFF020E2CC0DBFF34
:102DC000030E2DC0DBFF040E2EC0DBFF120004C07B
:102DD0002BF005C02CF006C02DF007C02EF012001D
:102DE00000C02BF001C02CF002C02DF003C02EF06B
:102DF0001200306A316A326A3F0E336E1200D950C7
:0C2E0000FA0FE96EFF0EDA20EA6E1200F5
:042E0C00D9CFE6FF35
:102E1000E1CFD9FF0001D16BD26BD06BFD0EDBCFC0
:102E2000D3F0FE0EDBCFD4F0FB0EDBCFD5F0FC0EE3
:102E3000DBCFD6F0E552E7CFD9FF1200D9CFE6FFBE
:102E4000E1CFD9FFE652DF6A0001D05125E1010E42
:102E5000D06F2F0EE66E380EE66E000EE66EFCECBE
:102E60001CF0E552E552E5520001D00515E1DF2ADC
:102E7000500EE66E3EEC1FF0E552DFCF00F00A0E7A
:102E8000E76E0018E8AE02D0003403D0E750D880D7
:102E90000054EAE20001D06BE552E552E7CFD9FFDA
:102EA0001200D9CFE6FFE1CFD9FF060EE126C6DF3B
:102EB000020E0001D05D01E0F6D0FA0EDB5049E0D1
:102EC000FB0EDBCFDEFFDBCFDDFFDBCF00F0FC0E48
:102ED000DBCF01F00001800E01140EE02C682D689C
:102EE000FB0EDBCF31F0FC0EDBCF32F0ADEC11F09E
:102EF0002AC0DEFF2BC0DDFF640E006E016A316E5A
:102F000001C032F0DECF2CF0DDCF2DF087EC11F0D8
:102F1000020E2CC0DBFF030E2DC0DBFF020EDBCF49
:102F200002F0030EDBCF03F0640E0302F3CF03F0D5
:102F30000202F3CF02F0F4500326F350DE5C006E81
:102F40000350DD58016E040E00C0DBFF050E01C00A
:102F5000DBFF1C0EE66E380EE66E000EE66EFCEC35
:102F60001CF0E552E552E552D5C0E6FFD6C0E6FFBB
:102F7000030EE66E380EE66E000EE66EFCEC1CF0FC
:102F8000006E050EE15E0050F50EE66E370EE66E41
:102F9000000EE66EFCEC1CF0E552E552E552D3C0A3
:102FA000E6FFD4C0E6FFD00EE66E370EE66E000EEA
:102FB000E66EFCEC1CF0006E050EE15E00509C0E0F
:102FC000E66E370EE66E000EE66EFCEC1CF0E55287
:102FD000E552E552FD0EDBCFE6FFFE0EDBCFE6FF4E
:102FE0008E0EE66E370EE66E000EE66EFCEC1CF002
:102FF000006E050EE15E00507C0EE66E370EE66E4A
:10300000000EE66EFCEC1CF0E552E552E552FA0EBD
:10301000DB502CE0FB0EDBCF00F0FC0EDBCF01F031
:103020000001800E01140BE07A0EE66E370EE66E9C
:10303000000EE66EFCEC1CF0E552E552E552040E83
:10304000DBCFE6FF050EDBCFE6FF020EDBCFE6FFB0
:10305000030EDBCFE6FF720EE66E370EE66E000E55
:10306000E66EFCEC1CF0006E070E10D0FB0EDBCF02
:10307000E6FFFC0EDBCFE6FF6F0EE66E370EE66E68
:10308000000EE66EFCEC1CF0006E050EE15E0050DA
:103090004E0EE66E370EE66E000EE66EFCEC1CF091
:1030A000E552E552E552060EE15C02E2E16AE552C4
:1030B000E16EE552E7CFD9FF1200D9CFE6FFE1CFAD
:1030C000D9FF0001D12B000ED223FE0EDB50440AA3
:1030D00015E00D0A08E00A0A14E1D00502E0D0511B
:1030E0001AE1020E09D0020ED05D15E1020ED119CF
:1030F00012E1D25110E1030ED06F0DD0D16BD26B23
:10310000D06BD051010A07E1FE0EDB504E0803E1FF
:0E311000D06BD16BD26BE552E7CFD9FF120026
:02311E00D9CF07
:10312000E6FFE1CFD9FF030EE12656D892EC10F06E
:10313000000904E10001648362EC10F022EC00F06D
:10314000000902E100016481860EE66ED90EE66E8A
:103150007D0EE66E000EE66E06EC17F0E552E552C7
:10316000E552E55200013B0ED8806055000E6155D6
:10317000F9E28098606B616B64A12CD0E8EC05F0FB
:10318000F3EC06F0F3CFDEFFF4CFDDFFFDEC06F04D
:10319000E76E020EE7CFDBFFE66ADBCFE6FFE66A0B
:1031A000650EE66E000EE66E51EC17F0006E050E31
:1031B000E15E0050010EE66EDECFE6FFDDCFE6FFFA
:1031C000710EE66E000EE66E51EC17F0006E050E05
:1031D000E15E00508088C6D7D9CFE6FFE1CFD9FFA6
:1031E000E652DF6AD388D38AD38C9B8C0F0EC16ED4
:1031F000EF0E926E070E936EDE0E946E330EE66E39
:10320000E66A7C0EE66E94EC1DF0E552E552E5525E
:10321000DF50DF2A006E050EE76E0018E8AE02D020
:10322000E73402D0E750005C0DE2320EE66E3EEC71
:103230001FF0E5528098320EE66E3EEC1FF0E5522C
:103240008088E6D7970EE66E22EC1FF0E552EE0E70
:10325000E66E850EE66E06EC1FF0E552E552F50EC1
:10326000E66EAAEC1EF0E552E00EE66EB10EE66EDA
:10327000EAEC1EF0E552E552F19EF19CF19AF198CC
:10328000F292F288F090F086F092F088F28CF28E52
:10329000E552E552E7CFD9FF1200DACFE4FFE2CFE3
:1032A000DAFFE9CFE4FFEACFE4FFF6CFE4FFF7CFA0
:1032B000E4FFF5CFE4FFF3CFE4FFF4CFE4FFFACF70
:1032C000E4FF00EE24F0140EE80403E3EECFE4FF85
:1032D000FBD700EE00F0240EE80403E3EECFE4FF9A
:1032E000FBD7E6529EAA08D0CBEC1EF0E66E5DEC52
:1032F00018F0E5529E9A49D0F2A205D00001020EC4
:10330000D76FF2920DD0F0A005D00001020ED86F59
:10331000F09006D0F0A206D00001020ED96FF09214
:10332000809833D0F2A40FD0EE0EE66E850EE66ED6
:1033300006EC1FF0E552E552F2940001602B000EFE
:103340006123622B632B9EA020D0E00EE66EB10EAF
:10335000E66EEAEC1EF0E552E5529E900001D75170
:1033600005E0D7078088D75101E18150D85105E0A9
:10337000D8078088D85101E18150D95106E0D9079A
:103380008088D95102E18150040BE55200EE23F010
:10339000240EE80403E3E5CFEDFFFBD700EE37F0A2
:1033A000140EE80403E3E5CFEDFFFBD7E5CFFAFF0A
:1033B000E5CFF4FFE5CFF3FFE5CFF5FFE5CFF7FF6E
:1033C000E5CFF6FFE5CFEAFFE5CFE9FFE5CFDAFF8E
:1033D0001100D8CFE4FFE0CFE4FFE46EDACFE4FFE2
:1033E000E652E552E5CFDAFFE550E5CFE0FFE5CF65
:0433F000D8FF1000F2
:0C33F400D9CFE6FFDACFE6FFE1CFD9FF2A
:10340000E2CFDAFF0C0EE12402E3E168E652E16E5E
:10341000D950FA0FE96EFF0EDA20EA6E010EEECFF8
:10342000DBFF020EEECFDBFF030EEECFDBFF040E61
:10343000EECFDBFF63D8D950010FE96E000EDA2022
:10344000EA6EEECFE6FFEECFE6FFEECFE6FFEFCF80
:10345000E6FF8CEC1AF0006E060EE15C02E2E16A17
:10346000E552E16E0050DF6E850EDF1404E04DD8AA
:10347000EE6AED6A23D0090EDBCF00F00A0EDBCF37
:1034800001F0820E0026FF0E01223FD800C0EEFFA1
:1034900001C0EDFF7E0EF36E090EF3CFDBFF0A0EC7
:1034A000DB6AD950010FE66E000EDA20E66E26D8F0
:1034B0001AEC1BF0E552E552E552E552010EDBCF66
:1034C00000F0020EDBCF01F0030EDBCF02F0040EA2
:1034D000DBCF03F000C02AF001C02BF002C02CF0BB
:1034E00003C02DF00C0EE15C02E2E16AE552E16EF0
:1034F000E552E5CFDAFFE7CFD9FF1200D950050F2B
:10350000E66E000EDA20E66E1200F80EDBCFE9FF61
:08351000F90EDBCFEAFF120007
:08351800D9CFE6FFDACFE6FF90
:10352000E1CFD9FFE2CFDAFFE652006801687F0EF3
:10353000026E036AD950FA0FE96EFF0EDA20EA6EC6
:10354000EE500016EE500116EE500216EE50031625
:103550006AD800C0EEFF01C0EEFF02C0EEFF03C05C
:10356000EEFFFD0EDB50800B02E0010E01D0000EDD
:10357000E66E59D8060EE926000EEA22E552E7501B
:10358000EF6EFC0EDBCF00F0FD0EDBCF01F0D8902C
:1035900000360136FC0E00C0DBFFFD0E01C0DBFF74
:1035A000DB50E66E40D8040EE926000EEA22E55212
:1035B000E750EE6EED6AFD0EDB50006E016AFF0E05
:1035C000001818E1015016E12ED8EECF00F0EECF32
:1035D00001F0EECF02F0EFCF03F000500110021027
:1035E000031006E0210E0001DA6FDB6B800E0BD0BA
:1035F000040E09D0FD0EDB5008E115D8EE6AEE6A24
:10360000EE6AEE6A010EDF6E06D0020EDF6E0BD898
:10361000EE52EE52EE8EDF50E552E552E5CFDAFF84
:10362000E7CFD9FF1200F80EDBCFE9FFF90EDBCFB1
:04363000EAFF12009B
:0C363400D9CFE6FFDACFE6FFE1CFD9FFE7
:10364000E2CFDAFF5BD8013411E20050FE08000E31
:1036500001540CE276D805E06CD8800EEE6EEE6870
:1036600047D067D8800EEE6E7F0E0ED047D8D89028
:10367000015004E6010E005C000E01580BE261D817
:1036800005E057D8EE6A800EEE6E32D052D8EE6A60
:10369000EE6A2ED047D8EECF00F0EECF01F0EECF9D
:1036A00002F0EFCF03F032D800C0EEFF01C0EEFF12
:1036B00002C0EEFF03C0EEFF21D80050010B05E071
:1036C00025D8020E3AD8EF8E04D020D8020E35D875
:1036D000EF9E14D8D8900132003218D8030E2DD89E
:1036E00000C0EFFF1AD804E011D8030E26D8EF8EE1
:1036F000E552E5CFDAFFE7CFD9FF120013D8040E69
:103700001CD8EECF00F0EFCF01F01200FA0EDBCFA5
:10371000E9FFFB0EDBCFEAFF120004D8060E0DD83E
:10372000EF501200FC0EDBCFE9FFFD0EDBCFEAFF0E
:103730001200ECDFEE6AEE6A1200E926000EEA22C1
:0E3740001200220E0001DA6FDB6B8DEF1BF022
:02374E00220A4D
:10375000207D0A205D0A7D2C0A22746F6B656E2223
:103760003A2274657374696E672A220A7D0A0025FD
:10377000690025692E25303269002D00226375729B
:1037800072656E745F76616C7565223A22002269FB
:1037900064223A222573222C0A20200022626F64C0
:1037A00079223A7B0A202276657273696F6E223A1B
:1037B00022312E302E30222C0A2022646174617353
:1037C000747265616D73223A5B0A207B0A202000C7
:1037D0002268656164657273223A7B22582D5061BC
:1037E00063687562654170694B6579223A22257379
:1037F000227D2C0A0022706172616D73223A7B7DFA
:103800002C0A00227265736F75726365223A222F4B
:1038100066656564732F2575222C0A007B0A226D6C
:103820006574686F64223A22707574222C0A004312
:103830003231362E35322E3233332E3132322F386A
:103840003038310A00202D2025303458202D2025F5
:09385000580D0A00253032580021
:07385900005EBCE2613FDDEF
:1038600083C29C7E20A3FD1F419DC3217FFCA240FB
:103870001E5F01E3BD3E6082DC237D9FC1421CFED2
:10388000A0E1BF5D0380DE3C62BEE0025CDF8163DD
:103890003D7C22C09E1D43A1FF4618FAA427799BB8
:1038A000C584DA3866E5BB5907DB856739BAE406B3
:1038B000581947A5FB7826C49A653BD987045AB89E
:1038C000E6A7F91B45C6987A24F8A6441A99C72595
:1038D0007B3A6486D85B05E7B98CD2306EEDB35184
:1038E0000F4E10F2AC2F7193CD114FADF3702ECC63
:1038F00092D38D6F31B2EC0E50AFF1134DCE90726A
:103900002C6D33D18F0C52B0EE326C8ED0530DEF44
:10391000B1F0AE4C1291CF2D73CA947628ABF51747
:10392000490856B4EA6937D58B5709EBB536688A2A
:10393000D495CB2977F4AA4816E9B7550B88D63425
:103940006A2B7597C94A14F6A8742AC896154BA90C
:09395000F7B6E80A54D7896B357B
:06395A001E0EF66E000EC9
:10396000F76E000EF86E00010900F550C26F0900F5
:10397000F550C36F03E1C26701D03DD00900F55097
:10398000BD6F0900F550BE6F0900F550BF6F09000B
:103990000900F550E96E0900F550EA6E09000900CA
:1039A0000900F550C06F0900F550C16F090009000A
:1039B000F6CFC4F0F7CFC5F0F8CFC6F0BDC0F6FF24
:1039C000BEC0F7FFBFC0F8FF0001C05302E1C15302
:1039D00007E00900F550EE6EC007F8E2C107F9D71D
:1039E000C4C0F6FFC5C0F7FFC6C0F8FF0001C2079C
:0839F000000EC35BBFD71200FB
:0839F800D9CFE6FFDACFE6FFAC
:103A0000E1CFD9FFE2CFDAFFE652E652E652E652C4
:103A1000D950FB0F006EFF0EDA20016E00C0DEFFF2
:103A2000DD6EDECFE6FFDDCFE6FFFB0EDBCFE6FF90
:103A3000FC0EDBCFE6FFFD0EDBCFE6FFDCC0E6FFD2
:103A4000DDC0E6FF16EC07F0006E070EE15C02E257
:103A5000E16AE552E16E0050020EF3CFDBFF030E88
:103A6000F4CFDBFF020EDBCF00F0030EDBCF01F063
:103A700000C0F3FF01C0F4FF040EE15C02E2E16A62
:103A8000E552E16EE552E5CFDAFFE7CFD9FF12004C
:103A9000D9CFE6FFDACFE6FFE1CFD9FFE2CFDAFFF9
:103AA000E150FA0FE96EFF0EE220EA6EEECFE6FF7C
:103AB000EECFE6FFEECFE6FFEFCFE6FF89EC14F0A6
:103AC000E552E552E552E5522AC004F02BC005F05C
:103AD0002CC006F02DC007F0D90E306E5B0E316E93
:103AE000DE0E326E3E0E336E2AC02BF005C02CF077
:103AF00006C02DF007C02EF0D9EC12F02BC000F05C
:103B00002CC001F02DC002F02EC003F02BC02AF013
:103B10002CC02BF02DC02CF02EC02DF0E552E5CF9F
:083B2000DAFFE7CFD9FF120024
:083B2800D9CFE6FFDACFE6FF7A
:103B3000E1CFD9FFE2CFDAFFAC6AAB6AFD0EDBB0B2
:103B4000AC88DBA202D0AC8CAB8CDBB4AC8EDBA639
:103B500002D0AB8801D0AB8ADBB8AC849E98DBBACC
:103B6000AB86DBAC02D09D8A01D09D9A9E9ADBAEDB
:103B700002D09D8801D09D98FB0EDB50AF6EFB0EEE
:103B8000FC0EDBCF01F001C000F0016A0050B06E06
:103B9000AC8AAB8E949C948EAC50100B04E0AC506D
:103BA000800B01E1948CE552E5CFDAFFE7CFD9FF36
:023BB000120001
:0E3BB200D9CFE6FFDACFE6FFE1CFD9FFE2CFB1
:103BC000DAFFFB0EDBCF00F0FC0EDBCF01F00001D3
:103BD000800E01141AE1FB0EDBCFE9FFFC0EDBCFF8
:103BE000EAFFEECFF3FFEDCFF4FFEE2A000EEF2257
:103BF000F3CFE9FFF4CFEAFFFD0EDBCFEFFFEF508D
:103C0000016AF36E01C0F4FF10D0FB0EDB50FE081A
:103C100006E1FD0EDBCFE6FFABEC1FF005D0FD0E9D
:103C2000DBCFE6FF03EC00F0E552E552E5CFDAFF2B
:063C3000E7CFD9FF1200EE
:0A3C36002A502F02F3CF26F0F4CF3E
:103C400027F03002F3502726000EF420286E2A5069
:103C50003102F3502826000EF420296E2A50320239
:103C6000F35029262B502F02F3502726F4502822F8
:103C7000000E29222B503002F3502826F45029221E
:103C80002B503102F35029262C502F02F3502826B6
:103C9000F45029222C503002F35029262D502F02A7
:063CA000F350292612007A
:0A3CA600FE0EE3CFE9FFFF0EE3CFAF
:103CB000EAFFF36AF46AEE5203E0F34AF42AFBD710
:103CC0001200FF0EE3CFF8FFE552FF0EE3CFF7FF40
:103CD000E552FF0EE3CFF6FFE552E66AE66AE66AD2
:103CE0000900F55209E0FD0EE32A05E1FE0EE32A84
:103CF00002E1FF0EE32AF4D7FD0EE3CF2BF0FE0E18
:0C3D0000E3CF2CF0FF0EE3CF2DF01200FB
:043D0C00296A286A8E
:103D1000276A266A200EE76ED8902A362B362C3674
:103D20002D3626362736283629362F50265C305039
:103D30002758315028583250295809E32F50265E11
:103D40003050275A3150285A3250295A2A2AE72E01
:043D5000E4D71200A2
:0C3D5400D9CFE6FFDACFE6FFE1CFD9FFC0
:103D6000E2CFDAFFFD0EDB507E0BCD6EFD0EDBAC3D
:103D700002D0CD8E01D0CD9ECF6ACE6A9E90DBAEB2
:103D800002D09D8001D09D90CD80E552E5CFDAFF35
:063D9000E7CFD9FF12008D
:0A3D9600D9CFE6FFDACFE6FFE1CF58
:103DA000D9FFE2CFDAFFE652F20E0001E017ABAC2A
:103DB00003D0E091ABB0E081ABB4E085ABB2E0877B
:103DC000AE50DF6EDF50E552E552E5CFDAFFE7CFC8
:043DD000D9FF120005
:0C3DD400D9CFE6FFDACFE6FFE1CFD9FF40
:103DE000E2CFDAFFE652E652FC0EDBCFDEFFDBCF9E
:103DF000DDFF010EDB50CF6EDF50CE6EE552E55297
:0C3E0000E552E5CFDAFFE7CFD9FF120052
:043E0C00D9CFE6FF25
:103E1000DACFE6FFE1CFD9FFE2CFDAFFE652E65292
:103E2000FC0EDBCFDEFFDBCFDDFF010EDB50D76EFC
:103E3000DF50D66EE552E552E552E5CFDAFFE7CF27
:043E4000D9FF120094
:0C3E4400D9CFE6FFDACFE6FFE1CFD9FFCF
:103E5000E2CFDAFFFD0EDB507F0BD56ED76AD66A54
:103E6000F294FD0EDBAE02D0F28A01D0F29AD58E2A
:0C3E7000E552E5CFDAFFE7CFD9FF1200E2
:043E7C00FF0EE35002
:103E8000396EEF0E01D0F30EE76EE72E45EF1FF00F
:103E90000C0E386EE76AE72E4BEF1FF0382E4AEF14
:0A3EA0001FF0392E43EF1FF012004F
:063EAA00296A286A100ECF
:103EB000E76ED8902C362D36283629363150285CBE
:103EC0003250295805E33150285E3250295A2C2AA5
:063ED000E72EF0D71200FE
:0A3ED600F36AF46AFF0EE124E96EBE
:103EE000FF0EE220EA6EED6607D02F0EEF6404D0DD
:0A3EF0003A0EEF6001D0F32A120031
:063EFA00FF0EE350396EDB
:103F0000480E01D04C0EE76EE72EFED7E76AE72E8B
:0A3F1000FED7392EF7D7000012008B
:063F1A00000EF36E00EE44
:103F200000F0060E01D81200EA6002D0EE6AFCD75B
:0A3F3000F350E9601200EE6AFCD7BE
:063F3A0015EE00F025EE7B
:103F400000F0F86A259CADEC1CF007EC00F08FEC5B
:063F500018F0FBD712007F
:0A3F5600FF0EE350ACBA04D0AF6ACE
:103F6000AB8EAC8A949CACA2FED7AD6EF36EF46AB5
:023F700012003D
:0E3F7200FF0EE350396E1B0E00D001D0200E62
:0E3F8000E76EE72EFED7392EFAD700D01200DA
:023F8E00FF0E24
:103F9000E350E84E1200000000D000D000D0E82E20
:043FA000FAD712003A
:0C3FA40030313233343536373839616241
:053FB00063646566007A
:0B3FB500320000000068756D6964694F
:103FC00074790000000074656D70657261747572BB
:103FD00065004F69767274434249307661434247C7
:103FE000544E34366B74796C75756F716553414BF3
:103FF000787A5A586C5A5545647A64476C52597AA3
:104000003067000000000000000000000000000019
:024010000000AE
:020000040030CA
:0100010008F6
:0100020018E5
:010003001EDE
:01000500807A
:010006008178
:010008000FE8
:01000900C036
:01000A000FE6
:01000B00E014
:01000C000FE4
:01000D0040B2
:00000001FF
